{
  "abi": [
    {
      "inputs": [
        {
          "internalType": "address",
          "name": "_risky",
          "type": "address"
        },
        {
          "internalType": "address",
          "name": "_stable",
          "type": "address"
        },
        {
          "internalType": "uint256",
          "name": "_scaleFactorRisky",
          "type": "uint256"
        },
        {
          "internalType": "uint256",
          "name": "_scaleFactorStable",
          "type": "uint256"
        },
        {
          "internalType": "uint256",
          "name": "_min_liquidity",
          "type": "uint256"
        }
      ],
      "stateMutability": "nonpayable",
      "type": "constructor"
    },
    {
      "inputs": [],
      "name": "BalanceError",
      "type": "error"
    },
    {
      "inputs": [
        {
          "internalType": "uint256",
          "name": "delRisky",
          "type": "uint256"
        },
        {
          "internalType": "uint256",
          "name": "delStable",
          "type": "uint256"
        }
      ],
      "name": "CalibrationError",
      "type": "error"
    },
    {
      "inputs": [],
      "name": "DeltaInError",
      "type": "error"
    },
    {
      "inputs": [],
      "name": "DeltaOutError",
      "type": "error"
    },
    {
      "inputs": [
        {
          "internalType": "uint256",
          "name": "value",
          "type": "uint256"
        }
      ],
      "name": "GammaError",
      "type": "error"
    },
    {
      "inputs": [
        {
          "internalType": "int128",
          "name": "invariant",
          "type": "int128"
        },
        {
          "internalType": "int128",
          "name": "nextInvariant",
          "type": "int128"
        }
      ],
      "name": "InvariantError",
      "type": "error"
    },
    {
      "inputs": [
        {
          "internalType": "int128",
          "name": "value",
          "type": "int128"
        }
      ],
      "name": "InverseOutOfBounds",
      "type": "error"
    },
    {
      "inputs": [],
      "name": "LockedError",
      "type": "error"
    },
    {
      "inputs": [
        {
          "internalType": "uint256",
          "name": "value",
          "type": "uint256"
        }
      ],
      "name": "MinLiquidityError",
      "type": "error"
    },
    {
      "inputs": [],
      "name": "PoolDuplicateError",
      "type": "error"
    },
    {
      "inputs": [],
      "name": "PoolExpiredError",
      "type": "error"
    },
    {
      "inputs": [
        {
          "internalType": "uint256",
          "name": "expected",
          "type": "uint256"
        },
        {
          "internalType": "uint256",
          "name": "actual",
          "type": "uint256"
        }
      ],
      "name": "RiskyBalanceError",
      "type": "error"
    },
    {
      "inputs": [
        {
          "internalType": "uint256",
          "name": "value",
          "type": "uint256"
        }
      ],
      "name": "RiskyPerLpError",
      "type": "error"
    },
    {
      "inputs": [
        {
          "internalType": "uint256",
          "name": "value",
          "type": "uint256"
        }
      ],
      "name": "SigmaError",
      "type": "error"
    },
    {
      "inputs": [
        {
          "internalType": "uint256",
          "name": "expected",
          "type": "uint256"
        },
        {
          "internalType": "uint256",
          "name": "actual",
          "type": "uint256"
        }
      ],
      "name": "StableBalanceError",
      "type": "error"
    },
    {
      "inputs": [
        {
          "internalType": "uint256",
          "name": "value",
          "type": "uint256"
        }
      ],
      "name": "StrikeError",
      "type": "error"
    },
    {
      "inputs": [],
      "name": "UninitializedError",
      "type": "error"
    },
    {
      "inputs": [],
      "name": "ZeroDeltasError",
      "type": "error"
    },
    {
      "inputs": [],
      "name": "ZeroLiquidityError",
      "type": "error"
    },
    {
      "anonymous": false,
      "inputs": [
        {
          "indexed": true,
          "internalType": "address",
          "name": "from",
          "type": "address"
        },
        {
          "indexed": true,
          "internalType": "address",
          "name": "recipient",
          "type": "address"
        },
        {
          "indexed": true,
          "internalType": "bytes32",
          "name": "poolId",
          "type": "bytes32"
        },
        {
          "indexed": false,
          "internalType": "uint256",
          "name": "delRisky",
          "type": "uint256"
        },
        {
          "indexed": false,
          "internalType": "uint256",
          "name": "delStable",
          "type": "uint256"
        },
        {
          "indexed": false,
          "internalType": "uint256",
          "name": "delLiquidity",
          "type": "uint256"
        }
      ],
      "name": "Allocate",
      "type": "event"
    },
    {
      "anonymous": false,
      "inputs": [
        {
          "indexed": true,
          "internalType": "address",
          "name": "from",
          "type": "address"
        },
        {
          "indexed": false,
          "internalType": "uint128",
          "name": "strike",
          "type": "uint128"
        },
        {
          "indexed": false,
          "internalType": "uint32",
          "name": "sigma",
          "type": "uint32"
        },
        {
          "indexed": true,
          "internalType": "uint32",
          "name": "maturity",
          "type": "uint32"
        },
        {
          "indexed": true,
          "internalType": "uint32",
          "name": "gamma",
          "type": "uint32"
        },
        {
          "indexed": false,
          "internalType": "uint256",
          "name": "delRisky",
          "type": "uint256"
        },
        {
          "indexed": false,
          "internalType": "uint256",
          "name": "delStable",
          "type": "uint256"
        },
        {
          "indexed": false,
          "internalType": "uint256",
          "name": "delLiquidity",
          "type": "uint256"
        }
      ],
      "name": "Create",
      "type": "event"
    },
    {
      "anonymous": false,
      "inputs": [
        {
          "indexed": true,
          "internalType": "address",
          "name": "from",
          "type": "address"
        },
        {
          "indexed": true,
          "internalType": "address",
          "name": "recipient",
          "type": "address"
        },
        {
          "indexed": false,
          "internalType": "uint256",
          "name": "delRisky",
          "type": "uint256"
        },
        {
          "indexed": false,
          "internalType": "uint256",
          "name": "delStable",
          "type": "uint256"
        }
      ],
      "name": "Deposit",
      "type": "event"
    },
    {
      "anonymous": false,
      "inputs": [
        {
          "indexed": true,
          "internalType": "address",
          "name": "from",
          "type": "address"
        },
        {
          "indexed": true,
          "internalType": "bytes32",
          "name": "poolId",
          "type": "bytes32"
        },
        {
          "indexed": false,
          "internalType": "uint256",
          "name": "delRisky",
          "type": "uint256"
        },
        {
          "indexed": false,
          "internalType": "uint256",
          "name": "delStable",
          "type": "uint256"
        },
        {
          "indexed": false,
          "internalType": "uint256",
          "name": "delLiquidity",
          "type": "uint256"
        }
      ],
      "name": "Remove",
      "type": "event"
    },
    {
      "anonymous": false,
      "inputs": [
        {
          "indexed": true,
          "internalType": "address",
          "name": "from",
          "type": "address"
        },
        {
          "indexed": true,
          "internalType": "address",
          "name": "recipient",
          "type": "address"
        },
        {
          "indexed": true,
          "internalType": "bytes32",
          "name": "poolId",
          "type": "bytes32"
        },
        {
          "indexed": false,
          "internalType": "bool",
          "name": "riskyForStable",
          "type": "bool"
        },
        {
          "indexed": false,
          "internalType": "uint256",
          "name": "deltaIn",
          "type": "uint256"
        },
        {
          "indexed": false,
          "internalType": "uint256",
          "name": "deltaOut",
          "type": "uint256"
        }
      ],
      "name": "Swap",
      "type": "event"
    },
    {
      "anonymous": false,
      "inputs": [
        {
          "indexed": true,
          "internalType": "bytes32",
          "name": "poolId",
          "type": "bytes32"
        }
      ],
      "name": "UpdateLastTimestamp",
      "type": "event"
    },
    {
      "anonymous": false,
      "inputs": [
        {
          "indexed": true,
          "internalType": "address",
          "name": "from",
          "type": "address"
        },
        {
          "indexed": true,
          "internalType": "address",
          "name": "recipient",
          "type": "address"
        },
        {
          "indexed": false,
          "internalType": "uint256",
          "name": "delRisky",
          "type": "uint256"
        },
        {
          "indexed": false,
          "internalType": "uint256",
          "name": "delStable",
          "type": "uint256"
        }
      ],
      "name": "Withdraw",
      "type": "event"
    },
    {
      "inputs": [],
      "name": "BUFFER",
      "outputs": [
        {
          "internalType": "uint256",
          "name": "",
          "type": "uint256"
        }
      ],
      "stateMutability": "view",
      "type": "function"
    },
    {
      "inputs": [],
      "name": "MIN_LIQUIDITY",
      "outputs": [
        {
          "internalType": "uint256",
          "name": "",
          "type": "uint256"
        }
      ],
      "stateMutability": "view",
      "type": "function"
    },
    {
      "inputs": [],
      "name": "PRECISION",
      "outputs": [
        {
          "internalType": "uint256",
          "name": "",
          "type": "uint256"
        }
      ],
      "stateMutability": "view",
      "type": "function"
    },
    {
      "inputs": [
        {
          "internalType": "uint256",
          "name": "by",
          "type": "uint256"
        }
      ],
      "name": "advanceTime",
      "outputs": [],
      "stateMutability": "nonpayable",
      "type": "function"
    },
    {
      "inputs": [
        {
          "internalType": "bytes32",
          "name": "poolId",
          "type": "bytes32"
        },
        {
          "internalType": "address",
          "name": "recipient",
          "type": "address"
        },
        {
          "internalType": "uint256",
          "name": "delRisky",
          "type": "uint256"
        },
        {
          "internalType": "uint256",
          "name": "delStable",
          "type": "uint256"
        },
        {
          "internalType": "bool",
          "name": "fromMargin",
          "type": "bool"
        },
        {
          "internalType": "bytes",
          "name": "data",
          "type": "bytes"
        }
      ],
      "name": "allocate",
      "outputs": [
        {
          "internalType": "uint256",
          "name": "delLiquidity",
          "type": "uint256"
        }
      ],
      "stateMutability": "nonpayable",
      "type": "function"
    },
    {
      "inputs": [
        {
          "internalType": "bytes32",
          "name": "",
          "type": "bytes32"
        }
      ],
      "name": "calibrations",
      "outputs": [
        {
          "internalType": "uint128",
          "name": "strike",
          "type": "uint128"
        },
        {
          "internalType": "uint32",
          "name": "sigma",
          "type": "uint32"
        },
        {
          "internalType": "uint32",
          "name": "maturity",
          "type": "uint32"
        },
        {
          "internalType": "uint32",
          "name": "lastTimestamp",
          "type": "uint32"
        },
        {
          "internalType": "uint32",
          "name": "gamma",
          "type": "uint32"
        }
      ],
      "stateMutability": "view",
      "type": "function"
    },
    {
      "inputs": [
        {
          "internalType": "uint128",
          "name": "strike",
          "type": "uint128"
        },
        {
          "internalType": "uint32",
          "name": "sigma",
          "type": "uint32"
        },
        {
          "internalType": "uint32",
          "name": "maturity",
          "type": "uint32"
        },
        {
          "internalType": "uint32",
          "name": "gamma",
          "type": "uint32"
        },
        {
          "internalType": "uint256",
          "name": "riskyPerLp",
          "type": "uint256"
        },
        {
          "internalType": "uint256",
          "name": "delLiquidity",
          "type": "uint256"
        },
        {
          "internalType": "bytes",
          "name": "data",
          "type": "bytes"
        }
      ],
      "name": "create",
      "outputs": [
        {
          "internalType": "bytes32",
          "name": "poolId",
          "type": "bytes32"
        },
        {
          "internalType": "uint256",
          "name": "delRisky",
          "type": "uint256"
        },
        {
          "internalType": "uint256",
          "name": "delStable",
          "type": "uint256"
        }
      ],
      "stateMutability": "nonpayable",
      "type": "function"
    },
    {
      "inputs": [
        {
          "internalType": "address",
          "name": "recipient",
          "type": "address"
        },
        {
          "internalType": "uint256",
          "name": "delRisky",
          "type": "uint256"
        },
        {
          "internalType": "uint256",
          "name": "delStable",
          "type": "uint256"
        },
        {
          "internalType": "bytes",
          "name": "data",
          "type": "bytes"
        }
      ],
      "name": "deposit",
      "outputs": [],
      "stateMutability": "nonpayable",
      "type": "function"
    },
    {
      "inputs": [],
      "name": "factory",
      "outputs": [
        {
          "internalType": "address",
          "name": "",
          "type": "address"
        }
      ],
      "stateMutability": "view",
      "type": "function"
    },
    {
      "inputs": [
        {
          "internalType": "bytes32",
          "name": "poolId",
          "type": "bytes32"
        }
      ],
      "name": "invariantOf",
      "outputs": [
        {
          "internalType": "int128",
          "name": "invariant",
          "type": "int128"
        }
      ],
      "stateMutability": "view",
      "type": "function"
    },
    {
      "inputs": [
        {
          "internalType": "address",
          "name": "",
          "type": "address"
        },
        {
          "internalType": "bytes32",
          "name": "",
          "type": "bytes32"
        }
      ],
      "name": "liquidity",
      "outputs": [
        {
          "internalType": "uint256",
          "name": "",
          "type": "uint256"
        }
      ],
      "stateMutability": "view",
      "type": "function"
    },
    {
      "inputs": [
        {
          "internalType": "address",
          "name": "",
          "type": "address"
        }
      ],
      "name": "margins",
      "outputs": [
        {
          "internalType": "uint128",
          "name": "balanceRisky",
          "type": "uint128"
        },
        {
          "internalType": "uint128",
          "name": "balanceStable",
          "type": "uint128"
        }
      ],
      "stateMutability": "view",
      "type": "function"
    },
    {
      "inputs": [
        {
          "internalType": "bytes32",
          "name": "poolId",
          "type": "bytes32"
        },
        {
          "internalType": "uint256",
          "name": "delLiquidity",
          "type": "uint256"
        }
      ],
      "name": "remove",
      "outputs": [
        {
          "internalType": "uint256",
          "name": "delRisky",
          "type": "uint256"
        },
        {
          "internalType": "uint256",
          "name": "delStable",
          "type": "uint256"
        }
      ],
      "stateMutability": "nonpayable",
      "type": "function"
    },
    {
      "inputs": [
        {
          "internalType": "bytes32",
          "name": "",
          "type": "bytes32"
        }
      ],
      "name": "reserves",
      "outputs": [
        {
          "internalType": "uint128",
          "name": "reserveRisky",
          "type": "uint128"
        },
        {
          "internalType": "uint128",
          "name": "reserveStable",
          "type": "uint128"
        },
        {
          "internalType": "uint128",
          "name": "liquidity",
          "type": "uint128"
        },
        {
          "internalType": "uint32",
          "name": "blockTimestamp",
          "type": "uint32"
        },
        {
          "internalType": "uint256",
          "name": "cumulativeRisky",
          "type": "uint256"
        },
        {
          "internalType": "uint256",
          "name": "cumulativeStable",
          "type": "uint256"
        },
        {
          "internalType": "uint256",
          "name": "cumulativeLiquidity",
          "type": "uint256"
        }
      ],
      "stateMutability": "view",
      "type": "function"
    },
    {
      "inputs": [],
      "name": "risky",
      "outputs": [
        {
          "internalType": "address",
          "name": "",
          "type": "address"
        }
      ],
      "stateMutability": "view",
      "type": "function"
    },
    {
      "inputs": [],
      "name": "scaleFactorRisky",
      "outputs": [
        {
          "internalType": "uint256",
          "name": "",
          "type": "uint256"
        }
      ],
      "stateMutability": "view",
      "type": "function"
    },
    {
      "inputs": [],
      "name": "scaleFactorStable",
      "outputs": [
        {
          "internalType": "uint256",
          "name": "",
          "type": "uint256"
        }
      ],
      "stateMutability": "view",
      "type": "function"
    },
    {
      "inputs": [
        {
          "internalType": "bytes32",
          "name": "poolId",
          "type": "bytes32"
        },
        {
          "internalType": "uint256",
          "name": "reserveRisky",
          "type": "uint256"
        },
        {
          "internalType": "uint256",
          "name": "reserveStable",
          "type": "uint256"
        }
      ],
      "name": "setReserves",
      "outputs": [],
      "stateMutability": "nonpayable",
      "type": "function"
    },
    {
      "inputs": [],
      "name": "stable",
      "outputs": [
        {
          "internalType": "address",
          "name": "",
          "type": "address"
        }
      ],
      "stateMutability": "view",
      "type": "function"
    },
    {
      "inputs": [
        {
          "internalType": "address",
          "name": "recipient",
          "type": "address"
        },
        {
          "internalType": "bytes32",
          "name": "poolId",
          "type": "bytes32"
        },
        {
          "internalType": "bool",
          "name": "riskyForStable",
          "type": "bool"
        },
        {
          "internalType": "uint256",
          "name": "deltaIn",
          "type": "uint256"
        },
        {
          "internalType": "uint256",
          "name": "deltaOut",
          "type": "uint256"
        },
        {
          "internalType": "bool",
          "name": "fromMargin",
          "type": "bool"
        },
        {
          "internalType": "bool",
          "name": "toMargin",
          "type": "bool"
        },
        {
          "internalType": "bytes",
          "name": "data",
          "type": "bytes"
        }
      ],
      "name": "swap",
      "outputs": [],
      "stateMutability": "nonpayable",
      "type": "function"
    },
    {
      "inputs": [],
      "name": "time",
      "outputs": [
        {
          "internalType": "uint256",
          "name": "",
          "type": "uint256"
        }
      ],
      "stateMutability": "view",
      "type": "function"
    },
    {
      "inputs": [
        {
          "internalType": "bytes32",
          "name": "poolId",
          "type": "bytes32"
        }
      ],
      "name": "updateLastTimestamp",
      "outputs": [
        {
          "internalType": "uint32",
          "name": "lastTimestamp",
          "type": "uint32"
        }
      ],
      "stateMutability": "nonpayable",
      "type": "function"
    },
    {
      "inputs": [
        {
          "internalType": "bytes32",
          "name": "poolId",
          "type": "bytes32"
        },
        {
          "internalType": "uint256",
          "name": "reserveRisky",
          "type": "uint256"
        }
      ],
      "name": "updateReserves",
      "outputs": [],
      "stateMutability": "nonpayable",
      "type": "function"
    },
    {
      "inputs": [
        {
          "internalType": "address",
          "name": "recipient",
          "type": "address"
        },
        {
          "internalType": "uint256",
          "name": "delRisky",
          "type": "uint256"
        },
        {
          "internalType": "uint256",
          "name": "delStable",
          "type": "uint256"
        }
      ],
      "name": "withdraw",
      "outputs": [],
      "stateMutability": "nonpayable",
      "type": "function"
    }
  ],
  "bytecode": {
    "object": "0x6101206040526001805560016006553480156200001b57600080fd5b50604051620045dc380380620045dc8339810160408190526200003e9162000088565b6001600160601b0319606095861b811660e0529390941b9092166101005260a05260c052608052620000db565b80516001600160a01b03811681146200008357600080fd5b919050565b600080600080600060a08688031215620000a157600080fd5b620000ac866200006b565b9450620000bc602087016200006b565b6040870151606088015160809098015196999198509695945092505050565b60805160a05160c05160e05160601c6101005160601c61442a620001b26000396000818161029f01528181610b6f0152818161151a015281816115c101528181611a3201526122640152600081816104f701528181610b35015281816113d20152818161147901528181611b4701526121510152600081816103c50152818161074801528181610c8d015281816112ba015261192d0152600081816104120152818161072701528181610c6b01528181611299015261190c01526000818161027801528181610d7f0152611029015261442a6000f3fe608060405234801561001057600080fd5b50600436106101575760003560e01c80636b35bb6b116100c3578063be00763a1161007c578063be00763a146104c4578063c08165d4146104f2578063c0ed31ba14610519578063c45a01551461052c578063ca28fcd61461053f578063d2957b8f1461055257600080fd5b80636b35bb6b146104345780638fbc3ecd1461045f5780639e48ff5a146104675780639f8cfade1461047a578063aaf5eb68146104a2578063b5c5f672146104b157600080fd5b806322be3de11161011557806322be3de11461029a57806323c5b952146102d9578063388204651461036c5780634dd0d056146103c0578063546fecae146103e757806355ebb8251461040d57600080fd5b8062bbf1e41461015c57806307e32f0a1461020c57806311f9908614610221578063140240db1461024957806316ada5471461025c57806321b77d6314610273575b600080fd5b6101bb61016a36600461406b565b6004602081905260009182526040909120805460018201546002830154600384015493909401546001600160801b0380841695600160801b948590048216959184169490930463ffffffff16929187565b604080516001600160801b0398891681529688166020880152949096169385019390935263ffffffff919091166060840152608083015260a082015260c081019190915260e0015b60405180910390f35b61021f61021a36600461406b565b610565565b005b61023461022f36600461406b565b61057f565b60405163ffffffff9091168152602001610203565b61021f61025736600461412a565b6105bc565b61026560065481565b604051908152602001610203565b6102657f000000000000000000000000000000000000000000000000000000000000000081565b6102c17f000000000000000000000000000000000000000000000000000000000000000081565b6040516001600160a01b039091168152602001610203565b61032f6102e736600461406b565b6002602052600090815260409020546001600160801b0381169063ffffffff600160801b8204811691600160a01b8104821691600160c01b8204811691600160e01b90041685565b604080516001600160801b03909616865263ffffffff9485166020870152928416928501929092528216606084015216608082015260a001610203565b6103a061037a366004613ec2565b6003602052600090815260409020546001600160801b0380821691600160801b90041682565b604080516001600160801b03938416815292909116602083015201610203565b6102657f000000000000000000000000000000000000000000000000000000000000000081565b6103fa6103f536600461406b565b610614565b604051600f9190910b8152602001610203565b6102657f000000000000000000000000000000000000000000000000000000000000000081565b610265610442366004613edd565b600560209081526000928352604080842090915290825290205481565b610265607881565b61021f610475366004613fe6565b610798565b61048d610488366004614108565b610912565b60408051928352602083019190915201610203565b610265670de0b6b3a764000081565b61021f6104bf366004613fb3565b610ac3565b6104d76104d2366004614156565b610be5565b60408051938452602084019290925290820152606001610203565b6102c17f000000000000000000000000000000000000000000000000000000000000000081565b61021f610527366004614108565b6111d2565b6000546102c1906001600160a01b031681565b61021f61054d366004613f07565b611656565b610265610560366004614084565b611c96565b806006600082825461057791906142c5565b909155505050565b60006001546001146105a457604051635cd4e48360e01b815260040160405180910390fd5b60026001556105b282611f19565b6001805592915050565b60008381526004602052604090206105d383611fc6565b81546001600160801b0319166001600160801b03919091161781556105f782611fc6565b81546001600160801b03918216600160801b029116179055505050565b6000818152600260209081526040808320815160a08101835290546001600160801b038116825263ffffffff600160801b8204811694830194909452600160a01b81048416928201839052600160c01b8104841660608301819052600160e01b909104909316608082015291839161068c919061435d565b6000858152600460208181526040808420815160e08101835281546001600160801b038082168352600160801b9182900481169583019590955260018301549485169382019390935263ffffffff929093048216606084015260028101546080840152600381015460a08401529092015460c08201529293509091829161071e9190670de0b6b3a764000090611fe016565b9150915061078e7f00000000000000000000000000000000000000000000000000000000000000007f0000000000000000000000000000000000000000000000000000000000000000848488600001516001600160801b0316896020015163ffffffff168963ffffffff1661203f565b9695505050505050565b6001546001146107bb57604051635cd4e48360e01b815260040160405180910390fd5b6002600155831580156107cc575082155b156107ea576040516381552f0360e01b815260040160405180910390fd5b6001600160a01b038516600090815260036020526040902061080d90858561208d565b60008085156108215761081e612137565b91505b84156108325761082f61224a565b90505b60405163c536e60560e01b8152339063c536e6059061085b90899089908990899060040161427a565b600060405180830381600087803b15801561087557600080fd5b505af1158015610889573d6000803e3d6000fd5b50505050856000146108a7576108a76108a287846142c5565b612296565b84156108bf576108bf6108ba86836142c5565b6122d1565b60408051878152602081018790526001600160a01b0389169133917fdcbc1c05240f31ff3ad067ef1ee35ce4997762752e3a095284754544f4c709d7910160405180910390a35050600180555050505050565b60008060015460011461093857604051635cd4e48360e01b815260040160405180910390fd5b60026001558261095b5760405163e5664db760e01b815260040160405180910390fd5b60008481526004602052604090206001810154600160801b900463ffffffff1661099857604051631d2ad63f60e01b815260040160405180910390fd5b6040805160e08101825282546001600160801b038082168352600160801b918290048116602084015260018501549081169383019390935263ffffffff92048216606082015260028301546080820152600383015460a0820152600483015460c0820152610a08918690611fe016565b3360009081526005602090815260408083208a8452909152812080549396509194508692610a37908490614346565b90915550610a569050838386610a4c60065490565b8593929190612308565b336000908152600360205260409020610a7090848461208d565b6040805184815260208101849052908101859052859033907f59c6598fc34aefe62579a03667748ef83b4682874f311affb26b318095359b0e9060600160405180910390a3506001805590939092509050565b600154600114610ae657604051635cd4e48360e01b815260040160405180910390fd5b600260015581158015610af7575080155b15610b15576040516381552f0360e01b815260040160405180910390fd5b610b21600383836123fa565b508115610b5c57610b5c6001600160a01b037f00000000000000000000000000000000000000000000000000000000000000001684846124b5565b8015610b9657610b966001600160a01b037f00000000000000000000000000000000000000000000000000000000000000001684836124b5565b60408051838152602081018390526001600160a01b0385169133917ff341246adaac6f497bc2a656f546ab9e182111d630394f0c57c710a59a2cb567910160405180910390a350506001805550565b6000806000600154600114610c0d57604051635cd4e48360e01b815260040160405180910390fd5b60026001556040516bffffffffffffffffffffffff193060601b1660208201526001600160801b031960808d901b1660348201526001600160e01b031960e08c811b821660448401528b811b821660488401528a901b16604c8201527f0000000000000000000000000000000000000000000000000000000000000000907f00000000000000000000000000000000000000000000000000000000000000009060500160408051808303601f19018152918152815160209283012060008181526002909352912054909550600160c01b900463ffffffff1615610d0357604051633651818b60e21b815260040160405180910390fd5b629896808c63ffffffff161180610d20575060018c63ffffffff16105b15610d4b576040516387a2c00160e01b815263ffffffff8d1660048201526024015b60405180910390fd5b6001600160801b038d16610d7d5760405163b3f4bc5560e01b81526001600160801b038e166004820152602401610d42565b7f00000000000000000000000000000000000000000000000000000000000000008811610dc05760405163325951a560e01b815260048101899052602401610d42565b610dd282670de0b6b3a76400006142dd565b891180610ddd575088155b15610dfe576040516323d62a0f60e11b8152600481018a9052602401610d42565b6127108a63ffffffff161180610e1b57506123288a63ffffffff16105b15610e4157604051637ed91fa560e11b815263ffffffff8b166004820152602401610d42565b60006040518060a001604052808f6001600160801b031681526020018e63ffffffff1681526020018d63ffffffff168152602001610e7e60065490565b63ffffffff1681526020018c63ffffffff168152509050806040015163ffffffff16816060015163ffffffff161115610eca5760405163536e15e160e01b815260040160405180910390fd5b600081606001518260400151610ee0919061435d565b9050610f0f600085858e86600001516001600160801b0316876020015163ffffffff168763ffffffff166125c0565b9450670de0b6b3a7640000610f248b8d6142ff565b610f2e91906142dd565b9550670de0b6b3a7640000610f438b876142ff565b610f4d91906142dd565b9450851580610f5a575084155b15610f825760405163492d6d1760e01b81526004810187905260248101869052604401610d42565b6000878152600260209081526040808320855181549387015192870151606088015160808901516001600160801b039093166001600160a01b031990961695909517600160801b63ffffffff958616021767ffffffffffffffff60a01b1916600160a01b9185169190910263ffffffff60c01b191617600160c01b94841694909402939093176001600160e01b0316600160e01b929093169190910291909117905561104e7f00000000000000000000000000000000000000000000000000000000000000008c614346565b3360009081526005602090815260408083208c845290915281208054929350839290919061107d9084906142c5565b9091555050606083015160008981526004602052604090206110a491899089908f90612696565b6000806110af612137565b6110b761224a565b91509150336001600160a01b031663c171d27e8a8a8f8f6040518563ffffffff1660e01b81526004016110ed949392919061427a565b600060405180830381600087803b15801561110757600080fd5b505af115801561111b573d6000803e3d6000fd5b5050505061112e89836108a291906142c5565b61113b6108ba89836142c5565b60808086015160408088015188516020808b015184516001600160801b03909316835263ffffffff908116918301919091529281018e9052606081018d90529384018790529181169291169033907ff38f2bc2b712352b1d4a9ea95291a1c688835ac9f70a7a9d0aec57712c8b19129060a00160405180910390a45050505050505060018081905550985098509895505050505050565b600082815260046020908152604080832060028352818420825160a08101845290546001600160801b03808216835263ffffffff600160801b808404821697850197909752600160a01b8304811695840195909552600160c01b820485166060840152600160e01b90910490931660808201528154919490938284169392049091169061125e87610614565b905061126986611fc6565b8560000160006101000a8154816001600160801b0302191690836001600160801b031602179055506000611312827f00000000000000000000000000000000000000000000000000000000000000007f00000000000000000000000000000000000000000000000000000000000000008a89600001516001600160801b03168a6020015163ffffffff168b606001518c60400151611307919061435d565b63ffffffff166125c0565b905061131d81611fc6565b86546001600160801b03918216600160801b908102918316828117808b559284161792910416600086831161135357600061135d565b61135d8784614346565b90506000878411611377576113728489614346565b61137a565b60005b9050600087841161138c576000611396565b6113968885614346565b905060008885116113b0576113ab858a614346565b6113b3565b60005b60405163a9059cbb60e01b8152336004820152602481018590529091507f00000000000000000000000000000000000000000000000000000000000000006001600160a01b03169063a9059cbb90604401602060405180830381600087803b15801561141e57600080fd5b505af1158015611432573d6000803e3d6000fd5b505050506040513d601f19601f82011682018060405250810190611456919061404e565b506040516323b872dd60e01b8152336004820152306024820152604481018590527f00000000000000000000000000000000000000000000000000000000000000006001600160a01b0316906323b872dd90606401602060405180830381600087803b1580156114c557600080fd5b505af11580156114d9573d6000803e3d6000fd5b505050506040513d601f19601f820116820180604052508101906114fd919061404e565b5060405163a9059cbb60e01b8152336004820152602481018290527f00000000000000000000000000000000000000000000000000000000000000006001600160a01b03169063a9059cbb90604401602060405180830381600087803b15801561156657600080fd5b505af115801561157a573d6000803e3d6000fd5b505050506040513d601f19601f8201168201806040525081019061159e919061404e565b506040516323b872dd60e01b8152336004820152306024820152604481018390527f00000000000000000000000000000000000000000000000000000000000000006001600160a01b0316906323b872dd90606401602060405180830381600087803b15801561160d57600080fd5b505af1158015611621573d6000803e3d6000fd5b505050506040513d601f19601f82011682018060405250810190611645919061404e565b505050505050505050505050505050565b60015460011461167957604051635cd4e48360e01b815260040160405180910390fd5b60026001558561169c57604051631411378d60e11b815260040160405180910390fd5b846116ba5760405163564b486560e01b815260040160405180910390fd5b60006040518061010001604052808b6001600160a01b031681526020018915158152602001861515815260200185151581526020016116f860065490565b63ffffffff1681526020018a815260200188815260200187815250905060006117248260a00151611f19565b9050611737607863ffffffff83166142c5565b826080015163ffffffff1611156117615760405163536e15e160e01b815260040160405180910390fd5b60006117708360a00151610614565b60a08085018051600090815260026020908152604080832081519586018252546001600160801b038116865263ffffffff600160801b8204811687850152600160a01b82048116878401908152600160c01b8304821660608901908152600160e01b9093049091166080880152945184526004909252822090519251949550929390916117fc9161435d565b90506000612710846080015163ffffffff168860c0015161181d91906142ff565b61182791906142dd565b905060008088602001511561187357845461184c9084906001600160801b03166142c5565b855490925061186c908f90600160801b90046001600160801b0316614346565b90506118ac565b8454611889908f906001600160801b0316614346565b85549092506118a9908490600160801b90046001600160801b03166142c5565b90505b60018501546001600160801b03166118cc670de0b6b3a7640000846142ff565b6118d691906142dd565b60018601549092506001600160801b03166118f9670de0b6b3a7640000836142ff565b61190391906142dd565b905060006119737f00000000000000000000000000000000000000000000000000000000000000007f000000000000000000000000000000000000000000000000000000000000000085858b600001516001600160801b03168c6020015163ffffffff168b63ffffffff1661203f565b905080600f0b88600f0b13156119aa57604051630cd4424b60e41b8152600f89810b600483015282900b6024820152604401610d42565b6119d38a602001518b60c001518c60e001518d608001518a61275d90949392919063ffffffff16565b50505050505050826020015115611afa57826060015115611a1d5760e083015183516001600160a01b03166000908152600360205260408120611a189290919061208d565b611a58565b825160e0840151611a58916001600160a01b037f000000000000000000000000000000000000000000000000000000000000000016916124b5565b826040015115611a7b5760c0830151611a759060039060006123fa565b50611c0d565b6000611a85612137565b60c085015160405163491dc51560e11b8152919250339163923b8a2a91611ab5916000908b908b9060040161427a565b600060405180830381600087803b158015611acf57600080fd5b505af1158015611ae3573d6000803e3d6000fd5b50505050611a758460c00151826108a291906142c5565b826060015115611b325760e083015183516001600160a01b03166000908152600360205260408120611b2d92909161208d565b611b6d565b825160e0840151611b6d916001600160a01b037f000000000000000000000000000000000000000000000000000000000000000016916124b5565b826040015115611b8b5760c0830151611a75906003906000906123fa565b6000611b9561224a565b60c085015160405163491dc51560e11b8152919250339163923b8a2a91611bc691600091908b908b9060040161427a565b600060405180830381600087803b158015611be057600080fd5b505af1158015611bf4573d6000803e3d6000fd5b50505050611c0b8460c00151826108ba91906142c5565b505b8260a0015183600001516001600160a01b0316336001600160a01b03167fe42b42fe878e256d1efbfb2ba292aadeac0228bbaa31f4ef8537522bdfa3ea1986602001518760c001518860e00151604051611c7c9392919092151583526020830191909152604082015260600190565b60405180910390a450506001805550505050505050505050565b6000600154600114611cbb57604051635cd4e48360e01b815260040160405180910390fd5b6002600155851580611ccb575084155b15611ce9576040516381552f0360e01b815260040160405180910390fd5b60008881526004602052604090206001810154600160801b900463ffffffff16611d2657604051631d2ad63f60e01b815260040160405180910390fd5b6000611d3160065490565b825460018401549192506000916001600160801b0391821691611d5591168b6142ff565b611d5f91906142dd565b835460018501549192506000916001600160801b03600160801b909204821691611d8a91168b6142ff565b611d9491906142dd565b9050808210611da35780611da5565b815b945084611dc55760405163e5664db760e01b815260040160405180910390fd5b6001600160a01b038b1660009081526005602090815260408083208f845290915281208054879290611df89084906142c5565b90915550611e0b9050848b8b8887612696565b8715611e2357611e1d60038b8b6123fa565b50611eb5565b600080611e2e612137565b611e3661224a565b6040516302a3517f60e31b81529193509150339063151a8bf890611e64908f908f908e908e9060040161427a565b600060405180830381600087803b158015611e7e57600080fd5b505af1158015611e92573d6000803e3d6000fd5b50505050611ea58c836108a291906142c5565b611eb26108ba8c836142c5565b50505b604080518b8152602081018b90529081018690528c906001600160a01b038d169033907f86e4803447f73017bf832b0ac69cb7afa3333a5fa823ec42a9f6cf8d17b50ecc9060600160405180910390a4505060018055509098975050505050505050565b60008181526002602052604081208054600160c01b900463ffffffff16611f5357604051631d2ad63f60e01b815260040160405180910390fd5b600654815490925063ffffffff600160a01b9091048116908316811015611f78578092505b815463ffffffff60c01b1916600160c01b63ffffffff85160217825560405184907fd69bdb2831892ad6046f30af0f12362aef46cce34d58ed7ad9b3ef8c44b1b46690600090a25050919050565b60006001600160801b03821115611fdc57600080fd5b5090565b6040820151825160009182916001600160801b039182169182916120059116866142ff565b61200f91906142dd565b92508085602001516001600160801b03168561202b91906142ff565b61203591906142dd565b9150509250929050565b60008061205260008a8a8a8989896125c0565b90506000612060828a61287c565b9050600061206e888b61287c565b905061207e600f82900b836128a5565b9b9a5050505050505050505050565b81156120dc5761209c82611fc6565b835484906000906120b79084906001600160801b031661429a565b92506101000a8154816001600160801b0302191690836001600160801b031602179055505b8015612132576120eb81611fc6565b8354849060109061210d908490600160801b90046001600160801b031661429a565b92506101000a8154816001600160801b0302191690836001600160801b031602179055505b505050565b604051306024820152600090819081906001600160a01b037f000000000000000000000000000000000000000000000000000000000000000016906370a0823160e01b906044015b60408051601f198184030181529181526020820180516001600160e01b03166001600160e01b03199094169390931790925290516121bd919061423f565b600060405180830381855afa9150503d80600081146121f8576040519150601f19603f3d011682016040523d82523d6000602084013e6121fd565b606091505b509150915081158061221157508051602014155b1561222f5760405163056a754560e51b815260040160405180910390fd5b8080602001905181019061224391906141fd565b9250505090565b604051306024820152600090819081906001600160a01b037f000000000000000000000000000000000000000000000000000000000000000016906370a0823160e01b9060440161217f565b60006122a0612137565b9050818110156122cd57604051634e71911d60e11b81526004810183905260248101829052604401610d42565b5050565b60006122db61224a565b9050818110156122cd5760405163c66162eb60e01b81526004810183905260248101829052604401610d42565b61231285826128e2565b61231b84611fc6565b855486906000906123369084906001600160801b031661431e565b92506101000a8154816001600160801b0302191690836001600160801b0316021790555061236383611fc6565b85548690601090612385908490600160801b90046001600160801b031661431e565b92506101000a8154816001600160801b0302191690836001600160801b031602179055506123b282611fc6565b6001860180546000906123cf9084906001600160801b031661431e565b92506101000a8154816001600160801b0302191690836001600160801b031602179055505050505050565b33600090815260208490526040902082156124585761241883611fc6565b815482906000906124339084906001600160801b031661431e565b92506101000a8154816001600160801b0302191690836001600160801b031602179055505b81156124ae5761246782611fc6565b81548290601090612489908490600160801b90046001600160801b031661431e565b92506101000a8154816001600160801b0302191690836001600160801b031602179055505b9392505050565b604080516001600160a01b038481166024830152604480830185905283518084039091018152606490920183526020820180516001600160e01b031663a9059cbb60e01b1790529151600092839290871691612511919061423f565b6000604051808303816000865af19150503d806000811461254e576040519150601f19603f3d011682016040523d82523d6000602084013e612553565b606091505b509150915081801561257d57508051158061257d57508080602001905181019061257d919061404e565b6125b95760405162461bcd60e51b815260206004820152600d60248201526c151c985b9cd9995c8819985a5b609a1b6044820152606401610d42565b5050505050565b6000806125cd858861287c565b905060006125db878a61287c565b905060006125ed600160401b836128a5565b905084156126695760006126018787612977565b9050600061261183600f0b6129b4565b90506000612623600f83900b846128a5565b9050600061264e8f61264561263a85600f0b612a6e565b600f8b900b90612b0b565b600f0b90612b41565b905061265e600f82900b8e612b74565b975050505050612688565b61207e8961267f8d612645600f88900b86612b0b565b600f0b90612b74565b505050979650505050505050565b6126a085826128e2565b6126a984611fc6565b855486906000906126c49084906001600160801b031661429a565b92506101000a8154816001600160801b0302191690836001600160801b031602179055506126f183611fc6565b85548690601090612713908490600160801b90046001600160801b031661429a565b92506101000a8154816001600160801b0302191690836001600160801b0316021790555061274082611fc6565b6001860180546000906123cf9084906001600160801b031661429a565b61276785826128e2565b83156128095761277683611fc6565b855486906000906127919084906001600160801b031661429a565b92506101000a8154816001600160801b0302191690836001600160801b031602179055506127be82611fc6565b855486906010906127e0908490600160801b90046001600160801b031661431e565b92506101000a8154816001600160801b0302191690836001600160801b031602179055506125b9565b61281282611fc6565b8554869060009061282d9084906001600160801b031661431e565b92506101000a8154816001600160801b0302191690836001600160801b0316021790555061285a83611fc6565b855486906010906123cf908490600160801b90046001600160801b031661429a565b60008061289183670de0b6b3a76400006142dd565b905061289d8482612b99565b949350505050565b6000600f82810b9084900b0360016001607f1b031981128015906128d0575060016001607f1b038113155b6128d957600080fd5b90505b92915050565b600182015460009061290190600160801b900463ffffffff168361435d565b905063ffffffff81161561213257825460028401805463ffffffff9384166001600160801b038085168202909201909255600386018054600160801b94859004831684020190556001860180546004909701805492881690930290910190915563ffffffff60801b199094169290911602179055565b60008061298e61298684612bd0565b600f0b612be0565b9050600061299b85612c02565b90506129ab600f82900b83612b0b565b95945050505050565b6000600160401b600f83900b1215806129d15750600082600f0b13155b156129f557604051630e59931d60e31b8152600f83900b6004820152602401610d42565b67f999999999999999600f83900b13801590612a1d5750670666666666666666600f83900b12155b15612a2b576128dc82612c10565b670666666666666666600f83900b1215612a48576128dc82612cb7565b6000612a60612a5b600160401b856128a5565b612cb7565b6124ae9061437a565b919050565b600080612a88600f84900b68016a09e667f3bcc908612d81565b90506000612ac6612abb612ab0612aa185600f0b612dd9565b6753dd02a4f5ee2e4690612b0b565b600160401b90612b41565b600160401b90612d81565b90506000612ad48383612e0c565b9050600083600f0b1215612af157612aee81600f0b612edc565b90505b600061078e612b04600160401b84612b41565b6001603f1b905b6000600f83810b9083900b0260401d60016001607f1b031981128015906128d0575060016001607f1b038113156128d957600080fd5b6000600f83810b9083900b0160016001607f1b031981128015906128d0575060016001607f1b038113156128d957600080fd5b600080612b8983670de0b6b3a76400006142dd565b905061289d600f85900b82612ef7565b600081612ba557600080fd5b6000612bb18484612f5f565b905060016001607f1b036001600160801b03821611156128d957600080fd5b60006128dc826301e18558612b99565b60008082600f0b1215612bf257600080fd5b6128dc604083600f0b901b6130c1565b60006128dc82612710612b99565b600080612c25600f84900b6001603f1b6128a5565b90506000612c37600f83900b83612b0b565b905060006129ab612cac612c9c612c746721d0a04b0e9b94f1612645612c6667c2bf5d74c724e53e1989612b0b565b612645600f8a900b8a612b0b565b612c936726a8f3c1f21b336e6126456787c57e5da70d3c8f1989612b0b565b600f0b90612d81565b68015d71f5721242c78790612b41565b600f85900b90612b0b565b600080612cd9612986612cd1612abb600f87900b87612b0b565b600f0b61322f565b90506000612cfd6707a1e70f720eca436126456801000bf627fa1884101985612b0b565b90506000612d216810aeac93f55267a9a561264568041ed34a256149023686612b0b565b90506000612d5668072c7d592d021fb1db612645612d486808c27b4617f5f800ea88612b0b565b612645600f89900b89612b0b565b90506000612d76612d6b600f85900b84612d81565b600f86900b90612b41565b979650505050505050565b600081600f0b60001415612d9457600080fd5b600082600f0b604085600f0b901b81612daf57612daf6143cd565b05905060016001607f1b031981128015906128d0575060016001607f1b038113156128d957600080fd5b6000600f82900b60016001607f1b03191415612df457600080fd5b600082600f0b12612e0557816128dc565b5060000390565b600080612e5e612cac612e4e612e43612e32600f88900b68010fb844255a12d72e612b0b565b68017401c57014c38f131990612b41565b600f87900b90612b0b565b68016a09e667f3bcc90890612b41565b90506000612e8a612e7b612e436748d4c730f051a5fd1985612b41565b67413c831bb169f87490612b41565b9050600061078e612ed1612ec6612ebb612eb3612eab600f8c900b8c612b0b565b600f0b612edc565b600f0b613269565b600f86900b90612b0b565b600f88900b90612b0b565b600160401b906128a5565b6000600f82900b60016001607f1b03191415612e0557600080fd5b600081612f06575060006128dc565b600083600f0b1215612f1757600080fd5b600f83900b6001600160801b038316810260401c90608084901c026001600160c01b03811115612f4657600080fd5b60401b8119811115612f5757600080fd5b019392505050565b600081612f6b57600080fd5b60006001600160c01b038411612f965782604085901b81612f8e57612f8e6143cd565b0490506130ad565b60c084811c6401000000008110612faf576020918201911c5b620100008110612fc1576010918201911c5b6101008110612fd2576008918201911c5b60108110612fe2576004918201911c5b60048110612ff2576002918201911c5b60028110613001576001820191505b60bf820360018603901c6001018260ff0387901b81613022576130226143cd565b0492506001600160801b0383111561303957600080fd5b608085901c83026001600160801b038616840260c088901c604089901b82811015613065576001820391505b608084901b9290038281101561307c576001820391505b829003608084901c8214613092576130926143a1565b8881816130a1576130a16143cd565b04870196505050505050505b6001600160801b038111156128d957600080fd5b6000816130d057506000919050565b816001600160801b82106130e95760809190911c9060401b5b600160401b82106130ff5760409190911c9060201b5b64010000000082106131165760209190911c9060101b5b62010000821061312b5760109190911c9060081b5b610100821061313f5760089190911c9060041b5b601082106131525760049190911c9060021b5b6008821061315e5760011b5b600181858161316f5761316f6143cd565b048201901c90506001818581613187576131876143cd565b048201901c9050600181858161319f5761319f6143cd565b048201901c905060018185816131b7576131b76143cd565b048201901c905060018185816131cf576131cf6143cd565b048201901c905060018185816131e7576131e76143cd565b048201901c905060018185816131ff576131ff6143cd565b048201901c90506000818581613217576132176143cd565b04905080821061322757806129ab565b509392505050565b60008082600f0b1361324057600080fd5b608061324b836132be565b600f0b6fb17217f7d1cf79abc9e3b39803f2f6af02901c9050919050565b6000600160461b82600f0b1261327e57600080fd5b683fffffffffffffffff1982600f0b121561329b57506000919050565b6128dc608083600f0b700171547652b82fe1777d0ffda0d23a7d1202901d613399565b60008082600f0b136132cf57600080fd5b6000600f83900b600160401b81126132e9576040918201911d5b64010000000081126132fd576020918201911d5b62010000811261330f576010918201911d5b6101008112613320576008918201911d5b60108112613330576004918201911d5b60048112613340576002918201911d5b6002811261334f576001820191505b603f19820160401b600f85900b607f8490031b6001603f1b5b600081131561338e5790800260ff81901c8281029390930192607f011c9060011d613368565b509095945050505050565b6000600160461b82600f0b126133ae57600080fd5b683fffffffffffffffff1982600f0b12156133cb57506000919050565b6001607f1b60006001603f1b8416600f0b13156133f95770016a09e667f3bcc908b2fb1366ea957d3e0260801c5b60008367400000000000000016600f0b1315613426577001306fe0a31b7152de8d5a46305c85edec0260801c5b60008367200000000000000016600f0b1315613453577001172b83c7d517adcdf7c8c50eb14a791f0260801c5b60008367100000000000000016600f0b13156134805770010b5586cf9890f6298b92b71842a983630260801c5b60008367080000000000000016600f0b13156134ad577001059b0d31585743ae7c548eb68ca417fd0260801c5b60008367040000000000000016600f0b13156134da57700102c9a3e778060ee6f7caca4f7a29bde80260801c5b60008367020000000000000016600f0b13156135075770010163da9fb33356d84a66ae336dcdfa3f0260801c5b60008367010000000000000016600f0b131561353457700100b1afa5abcbed6129ab13ec11dc95430260801c5b600083668000000000000016600f0b13156135605770010058c86da1c09ea1ff19d294cf2f679b0260801c5b600083664000000000000016600f0b131561358c577001002c605e2e8cec506d21bfc89a23a00f0260801c5b600083662000000000000016600f0b13156135b857700100162f3904051fa128bca9c55c31e5df0260801c5b600083661000000000000016600f0b13156135e4577001000b175effdc76ba38e31671ca9397250260801c5b600083660800000000000016600f0b131561361057700100058ba01fb9f96d6cacd4b180917c3d0260801c5b600083660400000000000016600f0b131561363c5770010002c5cc37da9491d0985c348c68e7b30260801c5b600083660200000000000016600f0b1315613668577001000162e525ee054754457d59952920260260801c5b600083660100000000000016600f0b13156136945770010000b17255775c040618bf4a4ade83fc0260801c5b6000836580000000000016600f0b13156136bf577001000058b91b5bc9ae2eed81e9b7d4cfab0260801c5b6000836540000000000016600f0b13156136ea57700100002c5c89d5ec6ca4d7c8acc017b7c90260801c5b6000836520000000000016600f0b13156137155770010000162e43f4f831060e02d839a9d16d0260801c5b6000836510000000000016600f0b131561374057700100000b1721bcfc99d9f890ea069117630260801c5b6000836508000000000016600f0b131561376b5770010000058b90cf1e6d97f9ca14dbcc16280260801c5b6000836504000000000016600f0b1315613796577001000002c5c863b73f016468f6bac5ca2b0260801c5b6000836502000000000016600f0b13156137c157700100000162e430e5a18f6119e3c02282a50260801c5b6000836501000000000016600f0b13156137ec577001000000b1721835514b86e6d96efd1bfe0260801c5b60008364800000000016600f0b131561381657700100000058b90c0b48c6be5df846c5b2ef0260801c5b60008364400000000016600f0b13156138405770010000002c5c8601cc6b9e94213c72737a0260801c5b60008364200000000016600f0b131561386a577001000000162e42fff037df38aa2b219f060260801c5b60008364100000000016600f0b13156138945770010000000b17217fba9c739aa5819f44f90260801c5b60008364080000000016600f0b13156138be577001000000058b90bfcdee5acd3c1cedc8230260801c5b60008364040000000016600f0b13156138e857700100000002c5c85fe31f35a6a30da1be500260801c5b60008364020000000016600f0b13156139125770010000000162e42ff0999ce3541b9fffcf0260801c5b60008364010000000016600f0b131561393c57700100000000b17217f80f4ef5aadda455540260801c5b600083638000000016600f0b13156139655770010000000058b90bfbf8479bd5a81b51ad0260801c5b600083634000000016600f0b131561398e577001000000002c5c85fdf84bd62ae30a74cc0260801c5b600083632000000016600f0b13156139b757700100000000162e42fefb2fed257559bdaa0260801c5b600083631000000016600f0b13156139e0577001000000000b17217f7d5a7716bba4a9ae0260801c5b600083630800000016600f0b1315613a0957700100000000058b90bfbe9ddbac5e109cce0260801c5b600083630400000016600f0b1315613a325770010000000002c5c85fdf4b15de6f17eb0d0260801c5b600083630200000016600f0b1315613a5b577001000000000162e42fefa494f1478fde050260801c5b600083630100000016600f0b1315613a845770010000000000b17217f7d20cf927c8e94c0260801c5b6000836280000016600f0b1315613aac577001000000000058b90bfbe8f71cb4e4b33d0260801c5b6000836240000016600f0b1315613ad457700100000000002c5c85fdf477b662b269450260801c5b6000836220000016600f0b1315613afc5770010000000000162e42fefa3ae53369388c0260801c5b6000836210000016600f0b1315613b2457700100000000000b17217f7d1d351a389d400260801c5b6000836208000016600f0b1315613b4c5770010000000000058b90bfbe8e8b2d3d4ede0260801c5b6000836204000016600f0b1315613b74577001000000000002c5c85fdf4741bea6e77e0260801c5b6000836202000016600f0b1315613b9c57700100000000000162e42fefa39fe95583c20260801c5b6000836201000016600f0b1315613bc4577001000000000000b17217f7d1cfb72b45e10260801c5b60008361800016600f0b1315613beb57700100000000000058b90bfbe8e7cc35c3f00260801c5b60008361400016600f0b1315613c125770010000000000002c5c85fdf473e242ea380260801c5b60008361200016600f0b1315613c39577001000000000000162e42fefa39f02b772c0260801c5b60008361100016600f0b1315613c605770010000000000000b17217f7d1cf7d83c1a0260801c5b60008361080016600f0b1315613c87577001000000000000058b90bfbe8e7bdcbe2e0260801c5b60008361040016600f0b1315613cae57700100000000000002c5c85fdf473dea871f0260801c5b60008361020016600f0b1315613cd55770010000000000000162e42fefa39ef44d910260801c5b60008361010016600f0b1315613cfc57700100000000000000b17217f7d1cf79e9490260801c5b600083608016600f0b1315613d225770010000000000000058b90bfbe8e7bce5440260801c5b600083604016600f0b1315613d48577001000000000000002c5c85fdf473de6eca0260801c5b600083602016600f0b1315613d6e57700100000000000000162e42fefa39ef366f0260801c5b600083601016600f0b1315613d94577001000000000000000b17217f7d1cf79afa0260801c5b600083600816600f0b1315613dba57700100000000000000058b90bfbe8e7bcd6d0260801c5b600083600416600f0b1315613de05770010000000000000002c5c85fdf473de6b20260801c5b600083600216600f0b1315613e06577001000000000000000162e42fefa39ef3580260801c5b600083600116600f0b1315613e2c5770010000000000000000b17217f7d1cf79ab0260801c5b600f83810b60401d603f03900b1c60016001607f1b038111156128dc57600080fd5b80356001600160a01b0381168114612a6957600080fd5b60008083601f840112613e7757600080fd5b50813567ffffffffffffffff811115613e8f57600080fd5b602083019150836020828501011115613ea757600080fd5b9250929050565b803563ffffffff81168114612a6957600080fd5b600060208284031215613ed457600080fd5b6124ae82613e4e565b60008060408385031215613ef057600080fd5b613ef983613e4e565b946020939093013593505050565b60008060008060008060008060006101008a8c031215613f2657600080fd5b613f2f8a613e4e565b985060208a0135975060408a0135613f46816143e3565b965060608a0135955060808a0135945060a08a0135613f64816143e3565b935060c08a0135613f74816143e3565b925060e08a013567ffffffffffffffff811115613f9057600080fd5b613f9c8c828d01613e65565b915080935050809150509295985092959850929598565b600080600060608486031215613fc857600080fd5b613fd184613e4e565b95602085013595506040909401359392505050565b600080600080600060808688031215613ffe57600080fd5b61400786613e4e565b94506020860135935060408601359250606086013567ffffffffffffffff81111561403157600080fd5b61403d88828901613e65565b969995985093965092949392505050565b60006020828403121561406057600080fd5b81516128d9816143e3565b60006020828403121561407d57600080fd5b5035919050565b600080600080600080600060c0888a03121561409f57600080fd5b873596506140af60208901613e4e565b9550604088013594506060880135935060808801356140cd816143e3565b925060a088013567ffffffffffffffff8111156140e957600080fd5b6140f58a828b01613e65565b989b979a50959850939692959293505050565b6000806040838503121561411b57600080fd5b50508035926020909101359150565b60008060006060848603121561413f57600080fd5b505081359360208301359350604090920135919050565b60008060008060008060008060e0898b03121561417257600080fd5b88356001600160801b038116811461418957600080fd5b975061419760208a01613eae565b96506141a560408a01613eae565b95506141b360608a01613eae565b94506080890135935060a0890135925060c089013567ffffffffffffffff8111156141dd57600080fd5b6141e98b828c01613e65565b999c989b5096995094979396929594505050565b60006020828403121561420f57600080fd5b5051919050565b81835281816020850137506000828201602090810191909152601f909101601f19169091010190565b6000825160005b818110156142605760208186018101518583015201614246565b8181111561426f576000828501525b509190910192915050565b84815283602082015260606040820152600061078e606083018486614216565b60006001600160801b038083168185168083038211156142bc576142bc6143b7565b01949350505050565b600082198211156142d8576142d86143b7565b500190565b6000826142fa57634e487b7160e01b600052601260045260246000fd5b500490565b6000816000190483118215151615614319576143196143b7565b500290565b60006001600160801b038381169083168181101561433e5761433e6143b7565b039392505050565b600082821015614358576143586143b7565b500390565b600063ffffffff8381169083168181101561433e5761433e6143b7565b600081600f0b60016001607f1b0319811415614398576143986143b7565b60000392915050565b634e487b7160e01b600052600160045260246000fd5b634e487b7160e01b600052601160045260246000fd5b634e487b7160e01b600052601260045260246000fd5b80151581146143f157600080fd5b5056fea2646970667358221220817eed8e2d7d7e5f87762b5f7e09310c5727bbbcb55310e0938de4c255e134dd64736f6c63430008060033",
    "linkReferences": {}
  },
  "methodIdentifiers": {
    "BUFFER()": "8fbc3ecd",
    "MIN_LIQUIDITY()": "21b77d63",
    "PRECISION()": "aaf5eb68",
    "advanceTime(uint256)": "07e32f0a",
    "allocate(bytes32,address,uint256,uint256,bool,bytes)": "d2957b8f",
    "calibrations(bytes32)": "23c5b952",
    "create(uint128,uint32,uint32,uint32,uint256,uint256,bytes)": "be00763a",
    "deposit(address,uint256,uint256,bytes)": "9e48ff5a",
    "factory()": "c45a0155",
    "invariantOf(bytes32)": "546fecae",
    "liquidity(address,bytes32)": "6b35bb6b",
    "margins(address)": "38820465",
    "remove(bytes32,uint256)": "9f8cfade",
    "reserves(bytes32)": "00bbf1e4",
    "risky()": "c08165d4",
    "scaleFactorRisky()": "55ebb825",
    "scaleFactorStable()": "4dd0d056",
    "setReserves(bytes32,uint256,uint256)": "140240db",
    "stable()": "22be3de1",
    "swap(address,bytes32,bool,uint256,uint256,bool,bool,bytes)": "ca28fcd6",
    "time()": "16ada547",
    "updateLastTimestamp(bytes32)": "11f99086",
    "updateReserves(bytes32,uint256)": "c0ed31ba",
    "withdraw(address,uint256,uint256)": "b5c5f672"
  },
  "id": 40
}