{
  "abi": [
    {
      "inputs": [],
      "stateMutability": "nonpayable",
      "type": "constructor"
    },
    {
      "inputs": [
        {
          "internalType": "uint256",
          "name": "decimals",
          "type": "uint256"
        }
      ],
      "name": "DecimalsError",
      "type": "error"
    },
    {
      "inputs": [],
      "name": "DeployedError",
      "type": "error"
    },
    {
      "inputs": [],
      "name": "SameTokenError",
      "type": "error"
    },
    {
      "inputs": [],
      "name": "ZeroAddressError",
      "type": "error"
    },
    {
      "anonymous": false,
      "inputs": [
        {
          "indexed": true,
          "internalType": "address",
          "name": "from",
          "type": "address"
        },
        {
          "indexed": true,
          "internalType": "address",
          "name": "risky",
          "type": "address"
        },
        {
          "indexed": true,
          "internalType": "address",
          "name": "stable",
          "type": "address"
        },
        {
          "indexed": false,
          "internalType": "address",
          "name": "engine",
          "type": "address"
        }
      ],
      "name": "DeployEngine",
      "type": "event"
    },
    {
      "inputs": [],
      "name": "MIN_LIQUIDITY_FACTOR",
      "outputs": [
        {
          "internalType": "uint256",
          "name": "",
          "type": "uint256"
        }
      ],
      "stateMutability": "view",
      "type": "function"
    },
    {
      "inputs": [],
      "name": "args",
      "outputs": [
        {
          "internalType": "address",
          "name": "factory",
          "type": "address"
        },
        {
          "internalType": "address",
          "name": "risky",
          "type": "address"
        },
        {
          "internalType": "address",
          "name": "stable",
          "type": "address"
        },
        {
          "internalType": "uint256",
          "name": "scaleFactorRisky",
          "type": "uint256"
        },
        {
          "internalType": "uint256",
          "name": "scaleFactorStable",
          "type": "uint256"
        },
        {
          "internalType": "uint256",
          "name": "minLiquidity",
          "type": "uint256"
        }
      ],
      "stateMutability": "view",
      "type": "function"
    },
    {
      "inputs": [
        {
          "internalType": "address",
          "name": "risky",
          "type": "address"
        },
        {
          "internalType": "address",
          "name": "stable",
          "type": "address"
        }
      ],
      "name": "deploy",
      "outputs": [
        {
          "internalType": "address",
          "name": "engine",
          "type": "address"
        }
      ],
      "stateMutability": "nonpayable",
      "type": "function"
    },
    {
      "inputs": [],
      "name": "deployer",
      "outputs": [
        {
          "internalType": "address",
          "name": "",
          "type": "address"
        }
      ],
      "stateMutability": "view",
      "type": "function"
    },
    {
      "inputs": [
        {
          "internalType": "address",
          "name": "",
          "type": "address"
        },
        {
          "internalType": "address",
          "name": "",
          "type": "address"
        }
      ],
      "name": "getEngine",
      "outputs": [
        {
          "internalType": "address",
          "name": "",
          "type": "address"
        }
      ],
      "stateMutability": "view",
      "type": "function"
    }
  ],
  "bytecode": {
    "object": "0x60a060405234801561001057600080fd5b5033606081901b608052614682610032600039600061014201526146826000f3fe608060405234801561001057600080fd5b50600436106100575760003560e01c806345d9b6631461005c5780634e9b75b614610077578063545e7c61146100e157806362f7f9181461010c578063d5f394881461013d575b600080fd5b610064600681565b6040519081526020015b60405180910390f35b6001546002546003546004546005546006546100a3956001600160a01b03908116958116941692919086565b604080516001600160a01b039788168152958716602087015293909516928401929092526060830152608082015260a081019190915260c00161006e565b6100f46100ef366004610553565b610164565b6040516001600160a01b03909116815260200161006e565b6100f461011a366004610553565b60006020818152928152604080822090935290815220546001600160a01b031681565b6100f47f000000000000000000000000000000000000000000000000000000000000000081565b6000816001600160a01b0316836001600160a01b0316141561019957604051633b0e2de560e21b815260040160405180910390fd5b6001600160a01b03831615806101b657506001600160a01b038216155b156101d457604051633efa09af60e01b815260040160405180910390fd5b6001600160a01b038381166000908152602081815260408083208685168452909152902054161561021857604051634e53fce760e01b815260040160405180910390fd5b61022330848461029b565b6001600160a01b038481166000818152602081815260408083208886168085529083529281902080546001600160a01b03191695871695861790555193845293945092909133917f53debfbd8fbd7a456afa9b03b44ec9c24f35d9b2d62d8713a7906c5b51dcf158910160405180910390a492915050565b6000806000846001600160a01b031663313ce5676040518163ffffffff1660e01b815260040160206040518083038186803b1580156102d957600080fd5b505afa1580156102ed573d6000803e3d6000fd5b505050506040513d601f19601f820116820180604052508101906103119190610586565b846001600160a01b031663313ce5676040518163ffffffff1660e01b815260040160206040518083038186803b15801561034a57600080fd5b505afa15801561035e573d6000803e3d6000fd5b505050506040513d601f19601f820116820180604052508101906103829190610586565b60ff16915060ff169150601282118061039b5750600682105b156103c15760405163afaabd8360e01b8152600481018390526024015b60405180910390fd5b60128111806103d05750600681105b156103f15760405163afaabd8360e01b8152600481018290526024016103b8565b6012828103600a90810a91839003900a60008385116104105784610412565b835b6040805160c0810182526001600160a01b038c81168083528c82166020808501829052928d1684860181905260608086018b9052608086018a9052600697889004600a0a60a0909601869052600180546001600160a01b0319908116909517905560028054851684179055600380549094168217909355600499909955600597909755919093558151928301949094528101939093525001604051602081830303815290604052805190602001206040516104cc9061052a565b8190604051809103906000f59050801580156104ec573d6000803e3d6000fd5b50600180546001600160a01b031990811690915560028054821690556003805490911690556000600481905560058190556006559695505050505050565b61409c806105b183390190565b80356001600160a01b038116811461054e57600080fd5b919050565b6000806040838503121561056657600080fd5b61056f83610537565b915061057d60208401610537565b90509250929050565b60006020828403121561059857600080fd5b815160ff811681146105a957600080fd5b939250505056fe61014060405260016000553480156200001757600080fd5b50336001600160a01b0316634e9b75b66040518163ffffffff1660e01b815260040160c06040518083038186803b1580156200005257600080fd5b505afa15801562000067573d6000803e3d6000fd5b505050506040513d601f19601f820116820180604052508101906200008d9190620000de565b60805260c05260a0526001600160601b0319606091821b81166101205291811b8216610100529190911b1660e05262000144565b80516001600160a01b0381168114620000d957600080fd5b919050565b60008060008060008060c08789031215620000f857600080fd5b6200010387620000c1565b95506200011360208801620000c1565b94506200012360408801620000c1565b9350606087015192506080870151915060a087015190509295509295509295565b60805160a05160c05160e05160601c6101005160601c6101205160601c613e9d620001ff6000396000818161024201528181610a9a015281816114df0152611ce901526000818161049c01528181610a60015281816115f40152611bd6015260006104c30152600081816103680152818161067d01528181610bc101526113da0152600081816103b50152818161065c01528181610b9f01526113b901526000818161020d01528181610cb30152610f5b0152613e9d6000f3fe608060405234801561001057600080fd5b506004361061012b5760003560e01c80638fbc3ecd116100ad578063be00763a11610071578063be00763a14610469578063c08165d414610497578063c45a0155146104be578063ca28fcd6146104e5578063d2957b8f146104f857600080fd5b80638fbc3ecd146104025780639e48ff5a1461040a5780639f8cfade1461041f578063aaf5eb6814610447578063b5c5f6721461045657600080fd5b806338820465116100f4578063388204651461030f5780634dd0d05614610363578063546fecae1461038a57806355ebb825146103b05780636b35bb6b146103d757600080fd5b8062bbf1e41461013057806311f99086146101e057806321b77d631461020857806322be3de11461023d57806323c5b9521461027c575b600080fd5b61018f61013e366004613b0a565b6003602081905260009182526040909120805460018201546002830154938301546004909301546001600160801b0380841695600160801b948590048216959184169490930463ffffffff16929187565b604080516001600160801b0398891681529688166020880152949096169385019390935263ffffffff919091166060840152608083015260a082015260c081019190915260e0015b60405180910390f35b6101f36101ee366004613b0a565b61050b565b60405163ffffffff90911681526020016101d7565b61022f7f000000000000000000000000000000000000000000000000000000000000000081565b6040519081526020016101d7565b6102647f000000000000000000000000000000000000000000000000000000000000000081565b6040516001600160a01b0390911681526020016101d7565b6102d261028a366004613b0a565b6001602052600090815260409020546001600160801b0381169063ffffffff600160801b8204811691600160a01b8104821691600160c01b8204811691600160e01b90041685565b604080516001600160801b03909616865263ffffffff9485166020870152928416928501929092528216606084015216608082015260a0016101d7565b61034361031d366004613961565b6002602052600090815260409020546001600160801b0380821691600160801b90041682565b604080516001600160801b039384168152929091166020830152016101d7565b61022f7f000000000000000000000000000000000000000000000000000000000000000081565b61039d610398366004613b0a565b610548565b604051600f9190910b81526020016101d7565b61022f7f000000000000000000000000000000000000000000000000000000000000000081565b61022f6103e536600461397c565b600460209081526000928352604080842090915290825290205481565b61022f607881565b61041d610418366004613a85565b6106cd565b005b61043261042d366004613ba7565b610848565b604080519283526020830191909152016101d7565b61022f670de0b6b3a764000081565b61041d610464366004613a52565b6109ee565b61047c610477366004613bc9565b610b11565b604080519384526020840192909252908201526060016101d7565b6102647f000000000000000000000000000000000000000000000000000000000000000081565b6102647f000000000000000000000000000000000000000000000000000000000000000081565b61041d6104f33660046139a6565b611105565b61022f610506366004613b23565b611744565b6000805460011461052f57604051635cd4e48360e01b815260040160405180910390fd5b600260005561053d826119bb565b600160005592915050565b6000818152600160209081526040808320815160a08101835290546001600160801b038116825263ffffffff600160801b8204811694830194909452600160a01b81048416928201839052600160c01b8104841660608301819052600160e01b90910490931660808201529183916105c09190613dd0565b6000858152600360208181526040808420815160e08101835281546001600160801b038082168352600160801b9182900481169583019590955260018301549485169382019390935263ffffffff9290930482166060840152600281015460808401529283015460a083015260049092015460c0820152929350909182916106539190670de0b6b3a764000090611a6516565b915091506106c37f00000000000000000000000000000000000000000000000000000000000000007f0000000000000000000000000000000000000000000000000000000000000000848488600001516001600160801b0316896020015163ffffffff168963ffffffff16611ac4565b9695505050505050565b6000546001146106f057604051635cd4e48360e01b815260040160405180910390fd5b600260005583158015610701575082155b1561071f576040516381552f0360e01b815260040160405180910390fd5b6001600160a01b0385166000908152600260205260409020610742908585611b12565b600080851561075657610753611bbc565b91505b841561076757610764611ccf565b90505b60405163c536e60560e01b8152339063c536e60590610790908990899089908990600401613ced565b600060405180830381600087803b1580156107aa57600080fd5b505af11580156107be573d6000803e3d6000fd5b50505050856000146107dc576107dc6107d78784613d38565b611d1b565b84156107f4576107f46107ef8683613d38565b611d56565b60408051878152602081018790526001600160a01b0389169133917fdcbc1c05240f31ff3ad067ef1ee35ce4997762752e3a095284754544f4c709d7910160405180910390a3505060016000555050505050565b60008060005460011461086e57604051635cd4e48360e01b815260040160405180910390fd5b6002600055826108915760405163e5664db760e01b815260040160405180910390fd5b60008481526003602052604090206001810154600160801b900463ffffffff166108ce57604051631d2ad63f60e01b815260040160405180910390fd5b6040805160e08101825282546001600160801b038082168352600160801b918290048116602084015260018501549081169383019390935263ffffffff92048216606082015260028301546080820152600383015460a0820152600483015460c082015261093e918690611a6516565b3360009081526004602090815260408083208a845290915281208054939650919450869261096d908490613db9565b9091555061098090508184848742611d8d565b33600090815260026020526040902061099a908484611b12565b6040805184815260208101849052908101859052859033907f59c6598fc34aefe62579a03667748ef83b4682874f311affb26b318095359b0e9060600160405180910390a350600160005590939092509050565b600054600114610a1157604051635cd4e48360e01b815260040160405180910390fd5b600260005581158015610a22575080155b15610a40576040516381552f0360e01b815260040160405180910390fd5b610a4c60028383611e7f565b508115610a8757610a876001600160a01b037f0000000000000000000000000000000000000000000000000000000000000000168484611f3a565b8015610ac157610ac16001600160a01b037f0000000000000000000000000000000000000000000000000000000000000000168483611f3a565b60408051838152602081018390526001600160a01b0385169133917ff341246adaac6f497bc2a656f546ab9e182111d630394f0c57c710a59a2cb567910160405180910390a35050600160005550565b60008060008054600114610b3857604051635cd4e48360e01b815260040160405180910390fd5b60026000556040516bffffffffffffffffffffffff193060601b1660208201526fffffffffffffffffffffffffffffffff1960808d901b1660348201526001600160e01b031960e08c811b821660448401528b811b821660488401528a901b16604c8201527f0000000000000000000000000000000000000000000000000000000000000000907f00000000000000000000000000000000000000000000000000000000000000009060500160408051808303601f19018152918152815160209283012060008181526001909352912054909550600160c01b900463ffffffff1615610c3757604051633651818b60e21b815260040160405180910390fd5b629896808c63ffffffff161180610c54575060018c63ffffffff16105b15610c7f576040516387a2c00160e01b815263ffffffff8d1660048201526024015b60405180910390fd5b6001600160801b038d16610cb15760405163b3f4bc5560e01b81526001600160801b038e166004820152602401610c76565b7f00000000000000000000000000000000000000000000000000000000000000008811610cf45760405163325951a560e01b815260048101899052602401610c76565b610d0682670de0b6b3a7640000613d50565b891180610d11575088155b15610d32576040516323d62a0f60e11b8152600481018a9052602401610c76565b6127108a63ffffffff161180610d4f57506123288a63ffffffff16105b15610d7557604051637ed91fa560e11b815263ffffffff8b166004820152602401610c76565b60006040518060a001604052808f6001600160801b031681526020018e63ffffffff1681526020018d63ffffffff168152602001610db04290565b63ffffffff1681526020018c63ffffffff168152509050806040015163ffffffff16816060015163ffffffff161115610dfc5760405163536e15e160e01b815260040160405180910390fd5b600081606001518260400151610e129190613dd0565b9050610e41600085858e86600001516001600160801b0316876020015163ffffffff168763ffffffff16612045565b9450670de0b6b3a7640000610e568b8d613d72565b610e609190613d50565b9550670de0b6b3a7640000610e758b87613d72565b610e7f9190613d50565b9450851580610e8c575084155b15610eb45760405163492d6d1760e01b81526004810187905260248101869052604401610c76565b6000878152600160209081526040808320855181549387015192870151606088015160808901516001600160801b039093166001600160a01b031990961695909517600160801b63ffffffff958616021767ffffffffffffffff60a01b1916600160a01b9185169190910263ffffffff60c01b191617600160c01b94841694909402939093176001600160e01b0316600160e01b9290931691909102919091179055610f807f00000000000000000000000000000000000000000000000000000000000000008c613db9565b3360009081526004602090815260408083208c8452909152812080549293508392909190610faf908490613d38565b909155505060608301516000898152600360205260409020610fd691899089908f9061211b565b600080610fe1611bbc565b610fe9611ccf565b91509150336001600160a01b031663c171d27e8a8a8f8f6040518563ffffffff1660e01b815260040161101f9493929190613ced565b600060405180830381600087803b15801561103957600080fd5b505af115801561104d573d6000803e3d6000fd5b5050505061106089836107d79190613d38565b61106d6107ef8983613d38565b60808086015160408088015188516020808b015184516001600160801b03909316835263ffffffff908116918301919091529281018e9052606081018d90529384018790529181169291169033907ff38f2bc2b712352b1d4a9ea95291a1c688835ac9f70a7a9d0aec57712c8b19129060a00160405180910390a4505050505050506001600081905550985098509895505050505050565b60005460011461112857604051635cd4e48360e01b815260040160405180910390fd5b60026000558561114b57604051631411378d60e11b815260040160405180910390fd5b846111695760405163564b486560e01b815260040160405180910390fd5b60006040518061010001604052808b6001600160a01b031681526020018915158152602001861515815260200185151581526020016111a54290565b63ffffffff1681526020018a815260200188815260200187815250905060006111d18260a001516119bb565b90506111e4607863ffffffff8316613d38565b826080015163ffffffff16111561120e5760405163536e15e160e01b815260040160405180910390fd5b600061121d8360a00151610548565b60a08085018051600090815260016020908152604080832081519586018252546001600160801b038116865263ffffffff600160801b8204811687850152600160a01b82048116878401908152600160c01b8304821660608901908152600160e01b9093049091166080880152945184526003909252822090519251949550929390916112a991613dd0565b90506000612710846080015163ffffffff168860c001516112ca9190613d72565b6112d49190613d50565b90506000808860200151156113205784546112f99084906001600160801b0316613d38565b8554909250611319908f90600160801b90046001600160801b0316613db9565b9050611359565b8454611336908f906001600160801b0316613db9565b8554909250611356908490600160801b90046001600160801b0316613d38565b90505b60018501546001600160801b0316611379670de0b6b3a764000084613d72565b6113839190613d50565b60018601549092506001600160801b03166113a6670de0b6b3a764000083613d72565b6113b09190613d50565b905060006114207f00000000000000000000000000000000000000000000000000000000000000007f000000000000000000000000000000000000000000000000000000000000000085858b600001516001600160801b03168c6020015163ffffffff168b63ffffffff16611ac4565b905080600f0b88600f0b131561145757604051630cd4424b60e41b8152600f89810b600483015282900b6024820152604401610c76565b6114808a602001518b60c001518c60e001518d608001518a6121e290949392919063ffffffff16565b505050505050508260200151156115a7578260600151156114ca5760e083015183516001600160a01b031660009081526002602052604081206114c592909190611b12565b611505565b825160e0840151611505916001600160a01b037f00000000000000000000000000000000000000000000000000000000000000001691611f3a565b8260400151156115285760c0830151611522906002906000611e7f565b506116ba565b6000611532611bbc565b60c085015160405163491dc51560e11b8152919250339163923b8a2a91611562916000908b908b90600401613ced565b600060405180830381600087803b15801561157c57600080fd5b505af1158015611590573d6000803e3d6000fd5b505050506115228460c00151826107d79190613d38565b8260600151156115df5760e083015183516001600160a01b031660009081526002602052604081206115da929091611b12565b61161a565b825160e084015161161a916001600160a01b037f00000000000000000000000000000000000000000000000000000000000000001691611f3a565b8260400151156116385760c083015161152290600290600090611e7f565b6000611642611ccf565b60c085015160405163491dc51560e11b8152919250339163923b8a2a9161167391600091908b908b90600401613ced565b600060405180830381600087803b15801561168d57600080fd5b505af11580156116a1573d6000803e3d6000fd5b505050506116b88460c00151826107ef9190613d38565b505b8260a0015183600001516001600160a01b0316336001600160a01b03167fe42b42fe878e256d1efbfb2ba292aadeac0228bbaa31f4ef8537522bdfa3ea1986602001518760c001518860e001516040516117299392919092151583526020830191909152604082015260600190565b60405180910390a45050600160005550505050505050505050565b6000805460011461176857604051635cd4e48360e01b815260040160405180910390fd5b6002600055851580611778575084155b15611796576040516381552f0360e01b815260040160405180910390fd5b60008881526003602052604090206001810154600160801b900463ffffffff166117d357604051631d2ad63f60e01b815260040160405180910390fd5b8054600182015442916000916001600160801b03918216916117f691168b613d72565b6118009190613d50565b835460018501549192506000916001600160801b03600160801b90920482169161182b91168b613d72565b6118359190613d50565b90508082106118445780611846565b815b9450846118665760405163e5664db760e01b815260040160405180910390fd5b6001600160a01b038b1660009081526004602090815260408083208f845290915281208054879290611899908490613d38565b909155506118ac9050848b8b888761211b565b87156118c4576118be60028b8b611e7f565b50611956565b6000806118cf611bbc565b6118d7611ccf565b6040516302a3517f60e31b81529193509150339063151a8bf890611905908f908f908e908e90600401613ced565b600060405180830381600087803b15801561191f57600080fd5b505af1158015611933573d6000803e3d6000fd5b505050506119468c836107d79190613d38565b6119536107ef8c83613d38565b50505b604080518b8152602081018b90529081018690528c906001600160a01b038d169033907f86e4803447f73017bf832b0ac69cb7afa3333a5fa823ec42a9f6cf8d17b50ecc9060600160405180910390a450506001600055509098975050505050505050565b60008181526001602052604081208054600160c01b900463ffffffff166119f557604051631d2ad63f60e01b815260040160405180910390fd5b8054429250600160a01b900463ffffffff908116908316811015611a17578092505b815463ffffffff60c01b1916600160c01b63ffffffff85160217825560405184907fd69bdb2831892ad6046f30af0f12362aef46cce34d58ed7ad9b3ef8c44b1b46690600090a25050919050565b6040820151825160009182916001600160801b03918216918291611a8a911686613d72565b611a949190613d50565b92508085602001516001600160801b031685611ab09190613d72565b611aba9190613d50565b9150509250929050565b600080611ad760008a8a8a898989612045565b90506000611ae5828a612301565b90506000611af3888b612301565b9050611b03600f82900b8361232a565b9b9a5050505050505050505050565b8115611b6157611b2182612367565b83548490600090611b3c9084906001600160801b0316613d0d565b92506101000a8154816001600160801b0302191690836001600160801b031602179055505b8015611bb757611b7081612367565b83548490601090611b92908490600160801b90046001600160801b0316613d0d565b92506101000a8154816001600160801b0302191690836001600160801b031602179055505b505050565b604051306024820152600090819081906001600160a01b037f000000000000000000000000000000000000000000000000000000000000000016906370a0823160e01b906044015b60408051601f198184030181529181526020820180516001600160e01b03166001600160e01b0319909416939093179092529051611c429190613cb2565b600060405180830381855afa9150503d8060008114611c7d576040519150601f19603f3d011682016040523d82523d6000602084013e611c82565b606091505b5091509150811580611c9657508051602014155b15611cb45760405163056a754560e51b815260040160405180910390fd5b80806020019051810190611cc89190613c70565b9250505090565b604051306024820152600090819081906001600160a01b037f000000000000000000000000000000000000000000000000000000000000000016906370a0823160e01b90604401611c04565b6000611d25611bbc565b905081811015611d5257604051634e71911d60e11b81526004810183905260248101829052604401610c76565b5050565b6000611d60611ccf565b905081811015611d525760405163c66162eb60e01b81526004810183905260248101829052604401610c76565b611d978582612381565b611da084612367565b85548690600090611dbb9084906001600160801b0316613d91565b92506101000a8154816001600160801b0302191690836001600160801b03160217905550611de883612367565b85548690601090611e0a908490600160801b90046001600160801b0316613d91565b92506101000a8154816001600160801b0302191690836001600160801b03160217905550611e3782612367565b600186018054600090611e549084906001600160801b0316613d91565b92506101000a8154816001600160801b0302191690836001600160801b031602179055505050505050565b3360009081526020849052604090208215611edd57611e9d83612367565b81548290600090611eb89084906001600160801b0316613d91565b92506101000a8154816001600160801b0302191690836001600160801b031602179055505b8115611f3357611eec82612367565b81548290601090611f0e908490600160801b90046001600160801b0316613d91565b92506101000a8154816001600160801b0302191690836001600160801b031602179055505b9392505050565b604080516001600160a01b038481166024830152604480830185905283518084039091018152606490920183526020820180516001600160e01b031663a9059cbb60e01b1790529151600092839290871691611f969190613cb2565b6000604051808303816000865af19150503d8060008114611fd3576040519150601f19603f3d011682016040523d82523d6000602084013e611fd8565b606091505b50915091508180156120025750805115806120025750808060200190518101906120029190613aed565b61203e5760405162461bcd60e51b815260206004820152600d60248201526c151c985b9cd9995c8819985a5b609a1b6044820152606401610c76565b5050505050565b6000806120528588612301565b90506000612060878a612301565b90506000612072600160401b8361232a565b905084156120ee5760006120868787612416565b9050600061209683600f0b612453565b905060006120a8600f83900b8461232a565b905060006120d38f6120ca6120bf85600f0b61250d565b600f8b900b906125aa565b600f0b906125e0565b90506120e3600f82900b8e612613565b97505050505061210d565b611b03896121048d6120ca600f88900b866125aa565b600f0b90612613565b505050979650505050505050565b6121258582612381565b61212e84612367565b855486906000906121499084906001600160801b0316613d0d565b92506101000a8154816001600160801b0302191690836001600160801b0316021790555061217683612367565b85548690601090612198908490600160801b90046001600160801b0316613d0d565b92506101000a8154816001600160801b0302191690836001600160801b031602179055506121c582612367565b600186018054600090611e549084906001600160801b0316613d0d565b6121ec8582612381565b831561228e576121fb83612367565b855486906000906122169084906001600160801b0316613d0d565b92506101000a8154816001600160801b0302191690836001600160801b0316021790555061224382612367565b85548690601090612265908490600160801b90046001600160801b0316613d91565b92506101000a8154816001600160801b0302191690836001600160801b0316021790555061203e565b61229782612367565b855486906000906122b29084906001600160801b0316613d91565b92506101000a8154816001600160801b0302191690836001600160801b031602179055506122df83612367565b85548690601090611e54908490600160801b90046001600160801b0316613d0d565b60008061231683670de0b6b3a7640000613d50565b90506123228482612638565b949350505050565b6000600f82810b9084900b0360016001607f1b03198112801590612355575060016001607f1b038113155b61235e57600080fd5b90505b92915050565b60006001600160801b0382111561237d57600080fd5b5090565b60018201546000906123a090600160801b900463ffffffff1683613dd0565b905063ffffffff811615611bb757825460028401805463ffffffff9384166001600160801b038085168202909201909255600386018054600160801b94859004831684020190556001860180546004909701805492881690930290910190915563ffffffff60801b199094169290911602179055565b60008061242d6124258461266f565b600f0b61267f565b9050600061243a856126a1565b905061244a600f82900b836125aa565b95945050505050565b6000600160401b600f83900b1215806124705750600082600f0b13155b1561249457604051630e59931d60e31b8152600f83900b6004820152602401610c76565b67f999999999999999600f83900b138015906124bc5750670666666666666666600f83900b12155b156124ca57612361826126af565b670666666666666666600f83900b12156124e75761236182612756565b60006124ff6124fa600160401b8561232a565b612756565b611f3390613ded565b919050565b600080612527600f84900b68016a09e667f3bcc908612820565b9050600061256561255a61254f61254085600f0b612878565b6753dd02a4f5ee2e46906125aa565b600160401b906125e0565b600160401b90612820565b9050600061257383836128ab565b9050600083600f0b12156125905761258d81600f0b61297b565b90505b60006106c36125a3600160401b846125e0565b6001603f1b905b6000600f83810b9083900b0260401d60016001607f1b03198112801590612355575060016001607f1b0381131561235e57600080fd5b6000600f83810b9083900b0160016001607f1b03198112801590612355575060016001607f1b0381131561235e57600080fd5b60008061262883670de0b6b3a7640000613d50565b9050612322600f85900b82612996565b60008161264457600080fd5b600061265084846129fe565b905060016001607f1b036001600160801b038216111561235e57600080fd5b6000612361826301e18558612638565b60008082600f0b121561269157600080fd5b612361604083600f0b901b612b60565b600061236182612710612638565b6000806126c4600f84900b6001603f1b61232a565b905060006126d6600f83900b836125aa565b9050600061244a61274b61273b6127136721d0a04b0e9b94f16120ca61270567c2bf5d74c724e53e19896125aa565b6120ca600f8a900b8a6125aa565b6127326726a8f3c1f21b336e6120ca6787c57e5da70d3c8f19896125aa565b600f0b90612820565b68015d71f5721242c787906125e0565b600f85900b906125aa565b60008061277861242561277061255a600f87900b876125aa565b600f0b612cce565b9050600061279c6707a1e70f720eca436120ca6801000bf627fa18841019856125aa565b905060006127c06810aeac93f55267a9a56120ca68041ed34a2561490236866125aa565b905060006127f568072c7d592d021fb1db6120ca6127e76808c27b4617f5f800ea886125aa565b6120ca600f89900b896125aa565b9050600061281561280a600f85900b84612820565b600f86900b906125e0565b979650505050505050565b600081600f0b6000141561283357600080fd5b600082600f0b604085600f0b901b8161284e5761284e613e40565b05905060016001607f1b03198112801590612355575060016001607f1b0381131561235e57600080fd5b6000600f82900b60016001607f1b0319141561289357600080fd5b600082600f0b126128a45781612361565b5060000390565b6000806128fd61274b6128ed6128e26128d1600f88900b68010fb844255a12d72e6125aa565b68017401c57014c38f1319906125e0565b600f87900b906125aa565b68016a09e667f3bcc908906125e0565b9050600061292961291a6128e26748d4c730f051a5fd19856125e0565b67413c831bb169f874906125e0565b905060006106c361297061296561295a61295261294a600f8c900b8c6125aa565b600f0b61297b565b600f0b612d08565b600f86900b906125aa565b600f88900b906125aa565b600160401b9061232a565b6000600f82900b60016001607f1b031914156128a457600080fd5b6000816129a557506000612361565b600083600f0b12156129b657600080fd5b600f83900b6001600160801b038316810260401c90608084901c026001600160c01b038111156129e557600080fd5b60401b81198111156129f657600080fd5b019392505050565b600081612a0a57600080fd5b60006001600160c01b038411612a355782604085901b81612a2d57612a2d613e40565b049050612b4c565b60c084811c6401000000008110612a4e576020918201911c5b620100008110612a60576010918201911c5b6101008110612a71576008918201911c5b60108110612a81576004918201911c5b60048110612a91576002918201911c5b60028110612aa0576001820191505b60bf820360018603901c6001018260ff0387901b81612ac157612ac1613e40565b0492506001600160801b03831115612ad857600080fd5b608085901c83026001600160801b038616840260c088901c604089901b82811015612b04576001820391505b608084901b92900382811015612b1b576001820391505b829003608084901c8214612b3157612b31613e14565b888181612b4057612b40613e40565b04870196505050505050505b6001600160801b0381111561235e57600080fd5b600081612b6f57506000919050565b816001600160801b8210612b885760809190911c9060401b5b600160401b8210612b9e5760409190911c9060201b5b6401000000008210612bb55760209190911c9060101b5b620100008210612bca5760109190911c9060081b5b6101008210612bde5760089190911c9060041b5b60108210612bf15760049190911c9060021b5b60088210612bfd5760011b5b6001818581612c0e57612c0e613e40565b048201901c90506001818581612c2657612c26613e40565b048201901c90506001818581612c3e57612c3e613e40565b048201901c90506001818581612c5657612c56613e40565b048201901c90506001818581612c6e57612c6e613e40565b048201901c90506001818581612c8657612c86613e40565b048201901c90506001818581612c9e57612c9e613e40565b048201901c90506000818581612cb657612cb6613e40565b049050808210612cc6578061244a565b509392505050565b60008082600f0b13612cdf57600080fd5b6080612cea83612d5d565b600f0b6fb17217f7d1cf79abc9e3b39803f2f6af02901c9050919050565b6000600160461b82600f0b12612d1d57600080fd5b683fffffffffffffffff1982600f0b1215612d3a57506000919050565b612361608083600f0b700171547652b82fe1777d0ffda0d23a7d1202901d612e38565b60008082600f0b13612d6e57600080fd5b6000600f83900b600160401b8112612d88576040918201911d5b6401000000008112612d9c576020918201911d5b620100008112612dae576010918201911d5b6101008112612dbf576008918201911d5b60108112612dcf576004918201911d5b60048112612ddf576002918201911d5b60028112612dee576001820191505b603f19820160401b600f85900b607f8490031b6001603f1b5b6000811315612e2d5790800260ff81901c8281029390930192607f011c9060011d612e07565b509095945050505050565b6000600160461b82600f0b12612e4d57600080fd5b683fffffffffffffffff1982600f0b1215612e6a57506000919050565b6001607f1b60006001603f1b8416600f0b1315612e985770016a09e667f3bcc908b2fb1366ea957d3e0260801c5b60008367400000000000000016600f0b1315612ec5577001306fe0a31b7152de8d5a46305c85edec0260801c5b60008367200000000000000016600f0b1315612ef2577001172b83c7d517adcdf7c8c50eb14a791f0260801c5b60008367100000000000000016600f0b1315612f1f5770010b5586cf9890f6298b92b71842a983630260801c5b60008367080000000000000016600f0b1315612f4c577001059b0d31585743ae7c548eb68ca417fd0260801c5b60008367040000000000000016600f0b1315612f7957700102c9a3e778060ee6f7caca4f7a29bde80260801c5b60008367020000000000000016600f0b1315612fa65770010163da9fb33356d84a66ae336dcdfa3f0260801c5b60008367010000000000000016600f0b1315612fd357700100b1afa5abcbed6129ab13ec11dc95430260801c5b600083668000000000000016600f0b1315612fff5770010058c86da1c09ea1ff19d294cf2f679b0260801c5b600083664000000000000016600f0b131561302b577001002c605e2e8cec506d21bfc89a23a00f0260801c5b600083662000000000000016600f0b131561305757700100162f3904051fa128bca9c55c31e5df0260801c5b600083661000000000000016600f0b1315613083577001000b175effdc76ba38e31671ca9397250260801c5b600083660800000000000016600f0b13156130af57700100058ba01fb9f96d6cacd4b180917c3d0260801c5b600083660400000000000016600f0b13156130db5770010002c5cc37da9491d0985c348c68e7b30260801c5b600083660200000000000016600f0b1315613107577001000162e525ee054754457d59952920260260801c5b600083660100000000000016600f0b13156131335770010000b17255775c040618bf4a4ade83fc0260801c5b6000836580000000000016600f0b131561315e577001000058b91b5bc9ae2eed81e9b7d4cfab0260801c5b6000836540000000000016600f0b131561318957700100002c5c89d5ec6ca4d7c8acc017b7c90260801c5b6000836520000000000016600f0b13156131b45770010000162e43f4f831060e02d839a9d16d0260801c5b6000836510000000000016600f0b13156131df57700100000b1721bcfc99d9f890ea069117630260801c5b6000836508000000000016600f0b131561320a5770010000058b90cf1e6d97f9ca14dbcc16280260801c5b6000836504000000000016600f0b1315613235577001000002c5c863b73f016468f6bac5ca2b0260801c5b6000836502000000000016600f0b131561326057700100000162e430e5a18f6119e3c02282a50260801c5b6000836501000000000016600f0b131561328b577001000000b1721835514b86e6d96efd1bfe0260801c5b60008364800000000016600f0b13156132b557700100000058b90c0b48c6be5df846c5b2ef0260801c5b60008364400000000016600f0b13156132df5770010000002c5c8601cc6b9e94213c72737a0260801c5b60008364200000000016600f0b1315613309577001000000162e42fff037df38aa2b219f060260801c5b60008364100000000016600f0b13156133335770010000000b17217fba9c739aa5819f44f90260801c5b60008364080000000016600f0b131561335d577001000000058b90bfcdee5acd3c1cedc8230260801c5b60008364040000000016600f0b131561338757700100000002c5c85fe31f35a6a30da1be500260801c5b60008364020000000016600f0b13156133b15770010000000162e42ff0999ce3541b9fffcf0260801c5b60008364010000000016600f0b13156133db57700100000000b17217f80f4ef5aadda455540260801c5b600083638000000016600f0b13156134045770010000000058b90bfbf8479bd5a81b51ad0260801c5b600083634000000016600f0b131561342d577001000000002c5c85fdf84bd62ae30a74cc0260801c5b600083632000000016600f0b131561345657700100000000162e42fefb2fed257559bdaa0260801c5b600083631000000016600f0b131561347f577001000000000b17217f7d5a7716bba4a9ae0260801c5b600083630800000016600f0b13156134a857700100000000058b90bfbe9ddbac5e109cce0260801c5b600083630400000016600f0b13156134d15770010000000002c5c85fdf4b15de6f17eb0d0260801c5b600083630200000016600f0b13156134fa577001000000000162e42fefa494f1478fde050260801c5b600083630100000016600f0b13156135235770010000000000b17217f7d20cf927c8e94c0260801c5b6000836280000016600f0b131561354b577001000000000058b90bfbe8f71cb4e4b33d0260801c5b6000836240000016600f0b131561357357700100000000002c5c85fdf477b662b269450260801c5b6000836220000016600f0b131561359b5770010000000000162e42fefa3ae53369388c0260801c5b6000836210000016600f0b13156135c357700100000000000b17217f7d1d351a389d400260801c5b6000836208000016600f0b13156135eb5770010000000000058b90bfbe8e8b2d3d4ede0260801c5b6000836204000016600f0b1315613613577001000000000002c5c85fdf4741bea6e77e0260801c5b6000836202000016600f0b131561363b57700100000000000162e42fefa39fe95583c20260801c5b6000836201000016600f0b1315613663577001000000000000b17217f7d1cfb72b45e10260801c5b60008361800016600f0b131561368a57700100000000000058b90bfbe8e7cc35c3f00260801c5b60008361400016600f0b13156136b15770010000000000002c5c85fdf473e242ea380260801c5b60008361200016600f0b13156136d8577001000000000000162e42fefa39f02b772c0260801c5b60008361100016600f0b13156136ff5770010000000000000b17217f7d1cf7d83c1a0260801c5b60008361080016600f0b1315613726577001000000000000058b90bfbe8e7bdcbe2e0260801c5b60008361040016600f0b131561374d57700100000000000002c5c85fdf473dea871f0260801c5b60008361020016600f0b13156137745770010000000000000162e42fefa39ef44d910260801c5b60008361010016600f0b131561379b57700100000000000000b17217f7d1cf79e9490260801c5b600083608016600f0b13156137c15770010000000000000058b90bfbe8e7bce5440260801c5b600083604016600f0b13156137e7577001000000000000002c5c85fdf473de6eca0260801c5b600083602016600f0b131561380d57700100000000000000162e42fefa39ef366f0260801c5b600083601016600f0b1315613833577001000000000000000b17217f7d1cf79afa0260801c5b600083600816600f0b131561385957700100000000000000058b90bfbe8e7bcd6d0260801c5b600083600416600f0b131561387f5770010000000000000002c5c85fdf473de6b20260801c5b600083600216600f0b13156138a5577001000000000000000162e42fefa39ef3580260801c5b600083600116600f0b13156138cb5770010000000000000000b17217f7d1cf79ab0260801c5b600f83810b60401d603f03900b1c60016001607f1b0381111561236157600080fd5b80356001600160a01b038116811461250857600080fd5b60008083601f84011261391657600080fd5b50813567ffffffffffffffff81111561392e57600080fd5b60208301915083602082850101111561394657600080fd5b9250929050565b803563ffffffff8116811461250857600080fd5b60006020828403121561397357600080fd5b611f33826138ed565b6000806040838503121561398f57600080fd5b613998836138ed565b946020939093013593505050565b60008060008060008060008060006101008a8c0312156139c557600080fd5b6139ce8a6138ed565b985060208a0135975060408a01356139e581613e56565b965060608a0135955060808a0135945060a08a0135613a0381613e56565b935060c08a0135613a1381613e56565b925060e08a013567ffffffffffffffff811115613a2f57600080fd5b613a3b8c828d01613904565b915080935050809150509295985092959850929598565b600080600060608486031215613a6757600080fd5b613a70846138ed565b95602085013595506040909401359392505050565b600080600080600060808688031215613a9d57600080fd5b613aa6866138ed565b94506020860135935060408601359250606086013567ffffffffffffffff811115613ad057600080fd5b613adc88828901613904565b969995985093965092949392505050565b600060208284031215613aff57600080fd5b815161235e81613e56565b600060208284031215613b1c57600080fd5b5035919050565b600080600080600080600060c0888a031215613b3e57600080fd5b87359650613b4e602089016138ed565b955060408801359450606088013593506080880135613b6c81613e56565b925060a088013567ffffffffffffffff811115613b8857600080fd5b613b948a828b01613904565b989b979a50959850939692959293505050565b60008060408385031215613bba57600080fd5b50508035926020909101359150565b60008060008060008060008060e0898b031215613be557600080fd5b88356001600160801b0381168114613bfc57600080fd5b9750613c0a60208a0161394d565b9650613c1860408a0161394d565b9550613c2660608a0161394d565b94506080890135935060a0890135925060c089013567ffffffffffffffff811115613c5057600080fd5b613c5c8b828c01613904565b999c989b5096995094979396929594505050565b600060208284031215613c8257600080fd5b5051919050565b81835281816020850137506000828201602090810191909152601f909101601f19169091010190565b6000825160005b81811015613cd35760208186018101518583015201613cb9565b81811115613ce2576000828501525b509190910192915050565b8481528360208201526060604082015260006106c3606083018486613c89565b60006001600160801b03808316818516808303821115613d2f57613d2f613e2a565b01949350505050565b60008219821115613d4b57613d4b613e2a565b500190565b600082613d6d57634e487b7160e01b600052601260045260246000fd5b500490565b6000816000190483118215151615613d8c57613d8c613e2a565b500290565b60006001600160801b0383811690831681811015613db157613db1613e2a565b039392505050565b600082821015613dcb57613dcb613e2a565b500390565b600063ffffffff83811690831681811015613db157613db1613e2a565b600081600f0b60016001607f1b0319811415613e0b57613e0b613e2a565b60000392915050565b634e487b7160e01b600052600160045260246000fd5b634e487b7160e01b600052601160045260246000fd5b634e487b7160e01b600052601260045260246000fd5b8015158114613e6457600080fd5b5056fea26469706673582212207bea3d2a3847f2616a4efd47c052004652a553ef34518bdcfe3b74402542c8f164736f6c63430008060033a26469706673582212208ad3190b385e7eabf95e1a368ee688a3ed7824e965afccd200a62683189fd9dd64736f6c63430008060033",
    "linkReferences": {}
  },
  "methodIdentifiers": {
    "MIN_LIQUIDITY_FACTOR()": "45d9b663",
    "args()": "4e9b75b6",
    "deploy(address,address)": "545e7c61",
    "deployer()": "d5f39488",
    "getEngine(address,address)": "62f7f918"
  },
  "id": 1
}