{
  "abi": [
    {
      "anonymous": false,
      "inputs": [
        {
          "indexed": false,
          "internalType": "uint256",
          "name": "delLiquidity",
          "type": "uint256"
        }
      ],
      "name": "AllocateDelLiquidity",
      "type": "event"
    },
    {
      "anonymous": false,
      "inputs": [
        {
          "indexed": false,
          "internalType": "string",
          "name": "reason",
          "type": "string"
        },
        {
          "indexed": false,
          "internalType": "uint256",
          "name": "risky",
          "type": "uint256"
        },
        {
          "indexed": false,
          "internalType": "uint256",
          "name": "stable",
          "type": "uint256"
        }
      ],
      "name": "AllocateFailed",
      "type": "event"
    },
    {
      "anonymous": false,
      "inputs": [
        {
          "indexed": false,
          "internalType": "uint128",
          "name": "riskyBefore",
          "type": "uint128"
        },
        {
          "indexed": false,
          "internalType": "uint128",
          "name": "stableBefore",
          "type": "uint128"
        },
        {
          "indexed": false,
          "internalType": "uint256",
          "name": "delRisky",
          "type": "uint256"
        },
        {
          "indexed": false,
          "internalType": "uint256",
          "name": "delStable",
          "type": "uint256"
        }
      ],
      "name": "AllocateMarginBalance",
      "type": "event"
    },
    {
      "anonymous": false,
      "inputs": [
        {
          "indexed": false,
          "internalType": "uint256",
          "name": "delRisky",
          "type": "uint256"
        },
        {
          "indexed": false,
          "internalType": "uint256",
          "name": "removeRisky",
          "type": "uint256"
        }
      ],
      "name": "AllocateRemoveDifference",
      "type": "event"
    },
    {
      "anonymous": false,
      "inputs": [
        {
          "indexed": false,
          "internalType": "bytes",
          "name": "reason",
          "type": "bytes"
        },
        {
          "indexed": false,
          "internalType": "uint256",
          "name": "risky",
          "type": "uint256"
        },
        {
          "indexed": false,
          "internalType": "uint256",
          "name": "stable",
          "type": "uint256"
        }
      ],
      "name": "AllocateRevert",
      "type": "event"
    },
    {
      "anonymous": false,
      "inputs": [
        {
          "indexed": false,
          "internalType": "string",
          "name": "functionName",
          "type": "string"
        },
        {
          "indexed": false,
          "internalType": "uint256",
          "name": "liquidity",
          "type": "uint256"
        },
        {
          "indexed": false,
          "internalType": "uint256",
          "name": "reserveRisky",
          "type": "uint256"
        },
        {
          "indexed": false,
          "internalType": "uint256",
          "name": "reserveStable",
          "type": "uint256"
        }
      ],
      "name": "ReserveStatus",
      "type": "event"
    },
    {
      "inputs": [
        {
          "internalType": "uint256",
          "name": "delRisky",
          "type": "uint256"
        },
        {
          "internalType": "uint256",
          "name": "delStable",
          "type": "uint256"
        },
        {
          "internalType": "bytes",
          "name": "data",
          "type": "bytes"
        }
      ],
      "name": "allocateCallback",
      "outputs": [],
      "stateMutability": "nonpayable",
      "type": "function"
    },
    {
      "inputs": [
        {
          "internalType": "uint256",
          "name": "randomId",
          "type": "uint256"
        },
        {
          "internalType": "uint256",
          "name": "delRisky",
          "type": "uint256"
        },
        {
          "internalType": "uint256",
          "name": "delStable",
          "type": "uint256"
        },
        {
          "internalType": "bool",
          "name": "fromMargin",
          "type": "bool"
        }
      ],
      "name": "allocate_with_safe_range",
      "outputs": [],
      "stateMutability": "nonpayable",
      "type": "function"
    },
    {
      "inputs": [
        {
          "internalType": "uint256",
          "name": "randomId",
          "type": "uint256"
        },
        {
          "internalType": "uint256",
          "name": "intendedLiquidity",
          "type": "uint256"
        },
        {
          "internalType": "bool",
          "name": "fromMargin",
          "type": "bool"
        }
      ],
      "name": "check_allocate_remove_inverses",
      "outputs": [],
      "stateMutability": "nonpayable",
      "type": "function"
    },
    {
      "inputs": [
        {
          "internalType": "uint256",
          "name": "id",
          "type": "uint256"
        },
        {
          "internalType": "uint256",
          "name": "delLiquidity",
          "type": "uint256"
        }
      ],
      "name": "remove_with_safe_range",
      "outputs": [
        {
          "internalType": "uint256",
          "name": "",
          "type": "uint256"
        },
        {
          "internalType": "uint256",
          "name": "",
          "type": "uint256"
        }
      ],
      "stateMutability": "nonpayable",
      "type": "function"
    }
  ],
  "bytecode": {
    "object": "0x6080604052600080546001600160a01b0319908116731dc4c1cefef38a777b15aa20260a54e584b16c48908117909255600180548216731d7022f5b17d2f8b695918fb48fa1089c9f8540190811790915560028054831673871dd7c2b4b25e1aa18728e9d5f2af4c4e431f5c179055600380548316730b1ba0af832d7c05fd64161e0db78e85978e8082179055600480548316736a4a62e5a7ed13c361b176a5f62c2ee620ac0df89081179091556005805484167348bacb9266a570d521063ef5dd96e61686dbe788908117909155600680548516736dfff22588be9b3ef8cf0ad6dc9b84796f9fb45f1790556007805485167334d402f14d58e001d8efbe6585051bf9706aa06417905560088054851673cfc18cec799fbd1793b5c43e773c98d4d61cc2db1790556009805485167325b8fe1de9daf8ba351890744ff28cf7dfa8f5e3179055600a8054851673f22469f31527adc53284441bae1665a7b9214dba179055600b8054851673cdb594a32b1cc3479d8746279712c39d18a07fc0179055600c805485167307f96aa816c1f244cbc6ef114bb2b023ba54a2eb179055600d80548516909517909455600e80548416909217909155600f8054831690911790556010805490911690911790553480156101db57600080fd5b50611ac1806101eb6000396000f3fe608060405234801561001057600080fd5b506004361061004c5760003560e01c8063151a8bf814610051578063607630ab14610066578063b32982e614610079578063f04519311461008c575b600080fd5b61006461005f36600461181f565b6100b8565b005b61006461007436600461189f565b6100c8565b6100646100873660046117e6565b610120565b61009f61009a3660046117a0565b610296565b6040805192835260208301919091520160405180910390f35b6100c284846102c5565b50505050565b6100d1836103e9565b92506100dc826103e9565b915060006100e985610423565b604080516080810182528681526020810186905290810182905283151560608201529091506101178161046a565b50505050505050565b60408051608081018252600080825260208201819052918101829052606081019190915261014d84610423565b6040820181905261015f9060016105b3565b610168836103e9565b6014546013549194506001600160801b039081169161018891168561198f565b610192919061197b565b81526014546013546001600160801b03918216916101b891600160801b9004168561198f565b6101c2919061197b565b602082015260006101d28261046a565b90506000806101e5846040015184610971565b855160408051918252602082018490529294509092507fd65435582ad5309fa4227d18b2a75a59aec484a50e0bf4f118c9b50982caa53a910160405180910390a1602080850151604080519182529181018390527fd65435582ad5309fa4227d18b2a75a59aec484a50e0bf4f118c9b50982caa53a910160405180910390a18351821461027457610274611a22565b8084602001511461028757610287611a22565b82861461011757610117611a22565b6000806102a2836103e9565b925060006102af85610423565b90506102bb8185610971565b5050509250929050565b811561035557600d5460105460405163a9059cbb60e01b81526001600160a01b0391821660048201526024810185905291169063a9059cbb90604401602060405180830381600087803b15801561031b57600080fd5b505af115801561032f573d6000803e3d6000fd5b505050506040513d601f19601f820116820180604052508101906103539190611661565b505b80156103e557600e5460105460405163a9059cbb60e01b81526001600160a01b0391821660048201526024810184905291169063a9059cbb90604401602060405180830381600087803b1580156103ab57600080fd5b505af11580156103bf573d6000803e3d6000fd5b505050506040513d601f19601f820116820180604052508101906103e39190611661565b505b5050565b60006103fe600167ffffffffffffffff6119ed565b6104129067ffffffffffffffff1683611a0e565b61041d906001611963565b92915050565b60125460009061043257600080fd5b6012546000906104429084611a0e565b90506012818154811061045757610457611a64565b9060005260206000200154915050919050565b600061047e82600001518360200151610ca8565b60105460408381015190516311e2dca960e11b815260048101919091526000916001600160a01b0316906323c5b9529060240160a06040518083038186803b1580156104c957600080fd5b505afa1580156104dd573d6000803e3d6000fd5b505050506040513d601f19601f820116820180604052508101906105019190611722565b5050925050508063ffffffff16601060009054906101000a90046001600160a01b03166001600160a01b03166316ada5476040518163ffffffff1660e01b815260040160206040518083038186803b15801561055c57600080fd5b505afa158015610570573d6000803e3d6000fd5b505050506040513d601f19601f820116820180604052508101906105949190611787565b11156105aa576105a383610cb3565b9392505050565b6105a383610d79565b600081156105c3575060136105c7565b50601a5b601054604051622efc7960e21b8152600481018590526000918291829182918291829182916001600160a01b03169062bbf1e49060240160e06040518083038186803b15801561061657600080fd5b505afa15801561062a573d6000803e3d6000fd5b505050506040513d601f19601f8201168201806040525081019061064e91906116b1565b96509650965096509650965096506040518060e00160405280886001600160801b03168152602001876001600160801b03168152602001866001600160801b031681526020018563ffffffff168152602001848152602001838152602001828152508860000160008201518160000160006101000a8154816001600160801b0302191690836001600160801b0316021790555060208201518160000160106101000a8154816001600160801b0302191690836001600160801b0316021790555060408201518160010160006101000a8154816001600160801b0302191690836001600160801b0316021790555060608201518160010160106101000a81548163ffffffff021916908363ffffffff1602179055506080820151816002015560a0820151816003015560c08201518160040155905050600080601060009054906101000a90046001600160a01b03166001600160a01b03166338820465306040518263ffffffff1660e01b81526004016107d691906001600160a01b0391909116815260200190565b604080518083038186803b1580156107ed57600080fd5b505afa158015610801573d6000803e3d6000fd5b505050506040513d601f19601f82011682018060405250810190610825919061167e565b915091506040518060400160405280836001600160801b03168152602001826001600160801b03168152508a60050160008201518160000160006101000a8154816001600160801b0302191690836001600160801b0316021790555060208201518160000160106101000a8154816001600160801b0302191690836001600160801b031602179055509050506000601060009054906101000a90046001600160a01b03166001600160a01b0316636b35bb6b308f6040518363ffffffff1660e01b815260040161090a9291906001600160a01b03929092168252602082015260400190565b60206040518083038186803b15801561092257600080fd5b505afa158015610936573d6000803e3d6000fd5b505050506040513d601f19601f8201168201806040525081019061095a9190611787565b6006909b019a909a55505050505050505050505050565b60008061097f8460016105b3565b6040805160e0810182526013546001600160801b038082168352600160801b91829004811660208401526014549081169383019390935290910463ffffffff166060820152601554608082015260165460a082015260175460c082015260009081906109eb90866112bd565b9150915084600014806109ff575060195485115b80610a1457506013546001600160801b031682115b80610a305750601354600160801b90046001600160801b031681115b15610a4a57610a3f868661131c565b935093505050610ca1565b601054604051634fc67d6f60e11b815260048101889052602481018790526001600160a01b0390911690639f8cfade906044016040805180830381600087803b158015610a9657600080fd5b505af1925050508015610ac6575060408051601f3d908101601f19168201909252610ac3918101906117c2565b60015b610ad757610ad2611a22565b610c9e565b610ae28860006105b3565b601954610af09088906119d6565b60205414610b0057610b00611a22565b601854610b179083906001600160801b0316611963565b601f546001600160801b031614610b3057610b30611a22565b601854610b4e908290600160801b90046001600160801b0316611963565b601f54600160801b90046001600160801b031614610b6e57610b6e611a22565b6010546040516311e2dca960e11b8152600481018a90526000916001600160a01b0316906323c5b9529060240160a06040518083038186803b158015610bb357600080fd5b505afa158015610bc7573d6000803e3d6000fd5b505050506040513d601f19601f82011682018060405250810190610beb9190611722565b50601054604080516316ada54760e01b815290519296506001600160a01b0390911694506316ada54793506004808201935060209291829003018186803b158015610c3557600080fd5b505afa158015610c49573d6000803e3d6000fd5b505050506040513d601f19601f82011682018060405250810190610c6d9190611787565b8163ffffffff1614610c8157610c81611a22565b610c906013601a85858c6114c9565b509094509250610ca1915050565b50505b9250929050565b6103e530838361156e565b6010546040828101518351602080860151606087015185516000818501819052875180830390950185528188019788905263d2957b8f60e01b90975295966001600160a01b03169563d2957b8f95610d159590943094919391926044016118e0565b602060405180830381600087803b158015610d2f57600080fd5b505af1925050508015610d5f575060408051601f3d908101601f19168201909252610d5c91810190611787565b60015b610d6b57506000919050565b50610d74611a22565b919050565b601054604051633882046560e01b8152306004820152600091829182916001600160a01b031690633882046590602401604080518083038186803b158015610dc057600080fd5b505afa158015610dd4573d6000803e3d6000fd5b505050506040513d601f19601f82011682018060405250810190610df8919061167e565b91509150610e0b846040015160016105b3565b83606001518015610e3b575083516001600160801b0383161080610e3b57508360200151816001600160801b0316105b15610e5157610e4984610cb3565b949350505050565b601354601454855160009283926001600160801b0391821692610e77929091169061198f565b610e81919061197b565b60135460145460208901519293506000926001600160801b03600160801b909304831692610eb092169061198f565b610eba919061197b565b9050808210610ec95780610ecb565b815b925060008311610eda57600080fd5b50508451602080870151604080516001600160801b03888116825287169381019390935282810193909352606082015290517f28d06bff81272620b829a284d1653dc7d9653adffddd54ad6657d45907d0196e9181900360800190a160105460408681015187516020808a015160608b01518551600081850152865180820390940184528087019687905263d2957b8f60e01b9096526001600160a01b039096169563d2957b8f95610f9595943094909392916044016118e0565b602060405180830381600087803b158015610faf57600080fd5b505af1925050508015610fdf575060408051601f3d908101601f19168201909252610fdc91810190611787565b60015b610ff057610feb611a22565b6112b5565b610fff866040015160006105b3565b60195461100d908290611963565b6020541461101d5761101d611a22565b601060009054906101000a90046001600160a01b03166001600160a01b03166316ada5476040518163ffffffff1660e01b815260040160206040518083038186803b15801561106b57600080fd5b505afa15801561107f573d6000803e3d6000fd5b505050506040513d601f19601f820116820180604052508101906110a39190611787565b601b54600160801b900463ffffffff16146110c0576110c0611a22565b8551601354601a546110de916001600160801b0390811691166119ae565b6001600160801b0316146110f4576110f4611a22565b6020860151601354601a54611121916001600160801b03600160801b9182900481169291909104166119ae565b6001600160801b03161461113757611137611a22565b601454601b548291611155916001600160801b0391821691166119ae565b6001600160801b03161461116b5761116b611a22565b80821461117a5761117a611a22565b601054604051633882046560e01b815230600482015260009182916001600160a01b0390911690633882046590602401604080518083038186803b1580156111c157600080fd5b505afa1580156111d5573d6000803e3d6000fd5b505050506040513d601f19601f820116820180604052508101906111f9919061167e565b9150915087606001511561126757875161121c906001600160801b0388166119d6565b826001600160801b03161461123357611233611a22565b602088015161124b906001600160801b0387166119d6565b816001600160801b03161461126257611262611a22565b6112a9565b856001600160801b0316826001600160801b03161461128857611288611a22565b846001600160801b0316816001600160801b0316146112a9576112a9611a22565b50909695505050505050565b505050919050565b6040820151825160009182916001600160801b039182169182916112e291168661198f565b6112ec919061197b565b92508085602001516001600160801b031685611308919061198f565b611312919061197b565b9150509250929050565b601054604051636b35bb6b60e01b815230600482015260248101849052600091829182916001600160a01b031690636b35bb6b9060440160206040518083038186803b15801561136b57600080fd5b505afa15801561137f573d6000803e3d6000fd5b505050506040513d601f19601f820116820180604052508101906113a39190611787565b601054604051634fc67d6f60e11b815260048101889052602481018790529192506001600160a01b031690639f8cfade906044016040805180830381600087803b1580156113f057600080fd5b505af1925050508015611420575060408051601f3d908101601f1916820190925261141d918101906117c2565b60015b6114c157601054604051636b35bb6b60e01b8152306004820152602481018790526001600160a01b0390911690636b35bb6b9060440160206040518083038186803b15801561146e57600080fd5b505afa158015611482573d6000803e3d6000fd5b505050506040513d601f19601f820116820180604052508101906114a69190611787565b81146114b4576114b4611a22565b6000809250925050610ca1565b6102bb611a22565b84546114df9084906001600160801b03166119d6565b84546001600160801b0316146114f7576114f7611a22565b8454611514908390600160801b90046001600160801b03166119d6565b8454600160801b90046001600160801b03161461153357611533611a22565b600185015461154c9082906001600160801b03166119d6565b60018501546001600160801b03161461156757611567611a22565b5050505050565b600d546040516340c10f1960e01b81526001600160a01b03858116600483015260248201859052909116906340c10f1990604401600060405180830381600087803b1580156115bc57600080fd5b505af11580156115d0573d6000803e3d6000fd5b5050600e546040516340c10f1960e01b81526001600160a01b0387811660048301526024820186905290911692506340c10f199150604401600060405180830381600087803b15801561162257600080fd5b505af1158015610117573d6000803e3d6000fd5b80516001600160801b0381168114610d7457600080fd5b805163ffffffff81168114610d7457600080fd5b60006020828403121561167357600080fd5b81516105a381611a7a565b6000806040838503121561169157600080fd5b61169a83611636565b91506116a860208401611636565b90509250929050565b600080600080600080600060e0888a0312156116cc57600080fd5b6116d588611636565b96506116e360208901611636565b95506116f160408901611636565b94506116ff6060890161164d565b93506080880151925060a0880151915060c0880151905092959891949750929550565b600080600080600060a0868803121561173a57600080fd5b61174386611636565b94506117516020870161164d565b935061175f6040870161164d565b925061176d6060870161164d565b915061177b6080870161164d565b90509295509295909350565b60006020828403121561179957600080fd5b5051919050565b600080604083850312156117b357600080fd5b50508035926020909101359150565b600080604083850312156117d557600080fd5b505080516020909101519092909150565b6000806000606084860312156117fb57600080fd5b8335925060208401359150604084013561181481611a7a565b809150509250925092565b6000806000806060858703121561183557600080fd5b8435935060208501359250604085013567ffffffffffffffff8082111561185b57600080fd5b818701915087601f83011261186f57600080fd5b81358181111561187e57600080fd5b88602082850101111561189057600080fd5b95989497505060200194505050565b600080600080608085870312156118b557600080fd5b84359350602085013592506040850135915060608501356118d581611a7a565b939692955090935050565b8681526000602060018060a01b03881681840152866040840152856060840152841515608084015260c060a084015283518060c085015260005b818110156119365785810183015185820160e00152820161191a565b8181111561194857600060e083870101525b50601f01601f19169290920160e00198975050505050505050565b6000821982111561197657611976611a38565b500190565b60008261198a5761198a611a4e565b500490565b60008160001904831182151516156119a9576119a9611a38565b500290565b60006001600160801b03838116908316818110156119ce576119ce611a38565b039392505050565b6000828210156119e8576119e8611a38565b500390565b600067ffffffffffffffff838116908316818110156119ce576119ce611a38565b600082611a1d57611a1d611a4e565b500690565b634e487b7160e01b600052600160045260246000fd5b634e487b7160e01b600052601160045260246000fd5b634e487b7160e01b600052601260045260246000fd5b634e487b7160e01b600052603260045260246000fd5b8015158114611a8857600080fd5b5056fea2646970667358221220738861cc9552d793efdba4aa299b38650e121b657ff964fde9380979bbb0872b64736f6c63430008060033",
    "linkReferences": {}
  },
  "methodIdentifiers": {
    "allocateCallback(uint256,uint256,bytes)": "151a8bf8",
    "allocate_with_safe_range(uint256,uint256,uint256,bool)": "607630ab",
    "check_allocate_remove_inverses(uint256,uint256,bool)": "b32982e6",
    "remove_with_safe_range(uint256,uint256)": "f0451931"
  },
  "id": 3
}