{
  "abi": [
    {
      "anonymous": false,
      "inputs": [
        {
          "indexed": false,
          "internalType": "string",
          "name": "functionName",
          "type": "string"
        },
        {
          "indexed": false,
          "internalType": "int128",
          "name": "v1",
          "type": "int128"
        },
        {
          "indexed": false,
          "internalType": "uint256",
          "name": "v2",
          "type": "uint256"
        }
      ],
      "name": "AssertionFailed",
      "type": "event"
    },
    {
      "anonymous": false,
      "inputs": [
        {
          "indexed": false,
          "internalType": "int128",
          "name": "a",
          "type": "int128"
        },
        {
          "indexed": false,
          "internalType": "int128",
          "name": "c",
          "type": "int128"
        },
        {
          "indexed": false,
          "internalType": "int64",
          "name": "b",
          "type": "int64"
        }
      ],
      "name": "P",
      "type": "event"
    },
    {
      "inputs": [
        {
          "internalType": "uint128",
          "name": "x",
          "type": "uint128"
        },
        {
          "internalType": "uint128",
          "name": "neg",
          "type": "uint128"
        }
      ],
      "name": "CDFCheckRange",
      "outputs": [],
      "stateMutability": "nonpayable",
      "type": "function"
    },
    {
      "inputs": [
        {
          "internalType": "uint128",
          "name": "x",
          "type": "uint128"
        },
        {
          "internalType": "uint128",
          "name": "neg",
          "type": "uint128"
        }
      ],
      "name": "compareCDFImplementationsDiff",
      "outputs": [],
      "stateMutability": "nonpayable",
      "type": "function"
    },
    {
      "inputs": [
        {
          "internalType": "uint128",
          "name": "x",
          "type": "uint128"
        },
        {
          "internalType": "uint128",
          "name": "neg",
          "type": "uint128"
        }
      ],
      "name": "compareCDFimplementations",
      "outputs": [],
      "stateMutability": "nonpayable",
      "type": "function"
    },
    {
      "inputs": [
        {
          "internalType": "uint256",
          "name": "value",
          "type": "uint256"
        },
        {
          "internalType": "uint256",
          "name": "_decimals",
          "type": "uint256"
        }
      ],
      "name": "scaleToAndFromX64Inverses",
      "outputs": [],
      "stateMutability": "nonpayable",
      "type": "function"
    },
    {
      "inputs": [
        {
          "internalType": "uint256",
          "name": "value",
          "type": "uint256"
        },
        {
          "internalType": "uint256",
          "name": "factor",
          "type": "uint256"
        }
      ],
      "name": "scaleUpAndScaleDownInverses",
      "outputs": [],
      "stateMutability": "nonpayable",
      "type": "function"
    }
  ],
  "bytecode": {
    "object": "0x608060405234801561001057600080fd5b506119b9806100206000396000f3fe608060405234801561001057600080fd5b50600436106100575760003560e01c806316d3d4d61461005c5780632ea10db6146100715780636976796c146100845780636a99a5cb1461009757806394fd82df146100aa575b600080fd5b61006f61006a3660046116b6565b6100bd565b005b61006f61007f3660046116b6565b610104565b61006f6100923660046116e9565b610175565b61006f6100a53660046116b6565b6101c2565b61006f6100b83660046116e9565b610270565b60006100c983836102c3565b905060006100d6826102f6565b905060006100e683600f0b6103a1565b905080600f0b82600f0b146100fd576100fd611941565b5050505050565b600061011083836102c3565b9050600061011d826102f6565b9050600061012d83600f0b6103a1565b9050600081600f0b83600f0b1361014d576101488383611890565b610157565b6101578284611890565b9050600181600f0b131561016d5761016d611941565b505050505050565b6000610182600d83611906565b9050600061019182600a6117c9565b9050600061019f85836103e2565b905060006101b1600f83900b8461040b565b905085811461016d5761016d611941565b60006101ce83836102c3565b905060006101de82600f0b6103a1565b90507f8957ac91a928246d9291445a044b2e84dc11544de0622fe9431987fb3b164885828261021384600f0b600f0b60401d90565b60408051600f94850b81529290930b602083015260070b8183015290519081900360600190a1600081600f0b13801561025e5750600161025982600f0b600f0b60401d90565b60070b125b61026a5761026a611941565b50505050565b6000610284678ac7230489e8000183611906565b61029690678ac7230489e8000061175a565b905060006102a48483610430565b905060006102b28284610443565b90508481146100fd576100fd611941565b60006102d06002836118e0565b6001600160801b03166102ed576102e68361191a565b90506102f0565b50815b92915050565b600080610310600f84900b68016a09e667f3bcc90861044f565b9050600061034e61034361033861032985600f0b6104a8565b6753dd02a4f5ee2e46906104db565b600160401b90610511565b600160401b9061044f565b9050600061035c8383610544565b9050600083600f0b12156103795761037681600f0b610673565b90505b600061039761038c600160401b84610511565b6001603f1b906104db565b9695505050505050565b6000806103bb600f84900b68016a09e667f3bcc90861044f565b905060006103d461034361033861032985600f0b6104a8565b9050600061035c838361068e565b6000806103f783670de0b6b3a7640000611772565b90506104038482610743565b949350505050565b60008061042083670de0b6b3a7640000611772565b9050610403600f85900b8261077a565b600061043c8284611871565b9392505050565b600061043c8284611772565b600081600f0b6000141561046257600080fd5b600082600f0b604085600f0b901b8161047d5761047d61196d565b05905060016001607f1b0319811280159061049f575060016001607f1b038113155b61043c57600080fd5b6000600f82900b60016001607f1b031914156104c357600080fd5b600082600f0b126104d457816102f0565b5060000390565b6000600f83810b9083900b0260401d60016001607f1b0319811280159061049f575060016001607f1b0381131561043c57600080fd5b6000600f83810b9083900b0160016001607f1b0319811280159061049f575060016001607f1b0381131561043c57600080fd5b60008061055967413c831bb169f874846104db565b9050600061057f61056f600f86900b60026107e2565b6748d4c730f051a5fd19906104db565b905060006105a5610595600f87900b60036107e2565b68016a09e667f3bcc908906104db565b905060006105cc6105bb600f88900b60046107e2565b68017401c57014c38f1319906104db565b905060006105f26105e2600f89900b60056107e2565b68010fb844255a12d72e906104db565b90506000818385610603888a61170b565b61060d919061170b565b610617919061170b565b610621919061170b565b9050600061066561065a61064f61064761063f600f8f900b8f6104db565b600f0b610673565b600f0b6109fb565b600f85900b906104db565b600160401b90610a50565b9a9950505050505050505050565b6000600f82900b60016001607f1b031914156104d457600080fd5b6000806106e061064f6106d06106c56106b4600f88900b68010fb844255a12d72e6104db565b68017401c57014c38f131990610511565b600f87900b906104db565b68016a09e667f3bcc90890610511565b9050600061070c6106fd6106c56748d4c730f051a5fd1985610511565b67413c831bb169f87490610511565b9050600061039761065a61073861072d61064761063f600f8c900b8c6104db565b600f86900b906104db565b600f88900b906104db565b60008161074f57600080fd5b600061075b8484610a83565b905060016001607f1b036001600160801b038216111561043c57600080fd5b600081610789575060006102f0565b600083600f0b121561079a57600080fd5b600f83900b6001600160801b038316810260401c90608084901c026001600160c01b038111156107c957600080fd5b60401b81198111156107da57600080fd5b019392505050565b600080600084600f0b1280156107fb5750826001166001145b905060008085600f0b1261080f5784610814565b846000035b6001600160801b03169050600160801b600160401b82116108a957603f82901b91505b84156108a157600185161561084c578102607f1c5b908002607f1c906002851615610862578102607f1c5b908002607f1c906004851615610878578102607f1c5b908002607f1c90600885161561088e578102607f1c5b60049490941c93908002607f1c90610837565b60401c6109bf565b603f600160601b8310156108c35760209290921b91601f19015b600160701b8310156108db5760109290921b91600f19015b600160781b8310156108f35760089290921b91600719015b6001607c1b83101561090b5760049290921b91600319015b6001607e1b8310156109235760029290921b91600119015b6001607f1b83101561093b5760019290921b91600019015b60005b86156109a8576040821061095157600080fd5b600187161561097757918302607f1c918101600160801b83111561097757600192831c92015b928002607f1c9260019190911b90600160801b841061099c57600193841c9391909101905b600187901c965061093e565b604081106109b557600080fd5b6040039190911c90505b6000836109cc57816109d1565b816000035b905060016001607f1b031981128015906109f2575060016001607f1b038113155b61039757600080fd5b6000600160461b82600f0b12610a1057600080fd5b683fffffffffffffffff1982600f0b1215610a2d57506000919050565b6102f0608083600f0b700171547652b82fe1777d0ffda0d23a7d1202901d610be5565b6000600f82810b9084900b0360016001607f1b0319811280159061049f575060016001607f1b0381131561043c57600080fd5b600081610a8f57600080fd5b60006001600160c01b038411610aba5782604085901b81610ab257610ab261196d565b049050610bd1565b60c084811c6401000000008110610ad3576020918201911c5b620100008110610ae5576010918201911c5b6101008110610af6576008918201911c5b60108110610b06576004918201911c5b60048110610b16576002918201911c5b60028110610b25576001820191505b60bf820360018603901c6001018260ff0387901b81610b4657610b4661196d565b0492506001600160801b03831115610b5d57600080fd5b608085901c83026001600160801b038616840260c088901c604089901b82811015610b89576001820391505b608084901b92900382811015610ba0576001820391505b829003608084901c8214610bb657610bb6611941565b888181610bc557610bc561196d565b04870196505050505050505b6001600160801b0381111561043c57600080fd5b6000600160461b82600f0b12610bfa57600080fd5b683fffffffffffffffff1982600f0b1215610c1757506000919050565b6001607f1b60006001603f1b8416600f0b1315610c455770016a09e667f3bcc908b2fb1366ea957d3e0260801c5b60008367400000000000000016600f0b1315610c72577001306fe0a31b7152de8d5a46305c85edec0260801c5b60008367200000000000000016600f0b1315610c9f577001172b83c7d517adcdf7c8c50eb14a791f0260801c5b60008367100000000000000016600f0b1315610ccc5770010b5586cf9890f6298b92b71842a983630260801c5b60008367080000000000000016600f0b1315610cf9577001059b0d31585743ae7c548eb68ca417fd0260801c5b60008367040000000000000016600f0b1315610d2657700102c9a3e778060ee6f7caca4f7a29bde80260801c5b60008367020000000000000016600f0b1315610d535770010163da9fb33356d84a66ae336dcdfa3f0260801c5b60008367010000000000000016600f0b1315610d8057700100b1afa5abcbed6129ab13ec11dc95430260801c5b600083668000000000000016600f0b1315610dac5770010058c86da1c09ea1ff19d294cf2f679b0260801c5b600083664000000000000016600f0b1315610dd8577001002c605e2e8cec506d21bfc89a23a00f0260801c5b600083662000000000000016600f0b1315610e0457700100162f3904051fa128bca9c55c31e5df0260801c5b600083661000000000000016600f0b1315610e30577001000b175effdc76ba38e31671ca9397250260801c5b600083660800000000000016600f0b1315610e5c57700100058ba01fb9f96d6cacd4b180917c3d0260801c5b600083660400000000000016600f0b1315610e885770010002c5cc37da9491d0985c348c68e7b30260801c5b600083660200000000000016600f0b1315610eb4577001000162e525ee054754457d59952920260260801c5b600083660100000000000016600f0b1315610ee05770010000b17255775c040618bf4a4ade83fc0260801c5b6000836580000000000016600f0b1315610f0b577001000058b91b5bc9ae2eed81e9b7d4cfab0260801c5b6000836540000000000016600f0b1315610f3657700100002c5c89d5ec6ca4d7c8acc017b7c90260801c5b6000836520000000000016600f0b1315610f615770010000162e43f4f831060e02d839a9d16d0260801c5b6000836510000000000016600f0b1315610f8c57700100000b1721bcfc99d9f890ea069117630260801c5b6000836508000000000016600f0b1315610fb75770010000058b90cf1e6d97f9ca14dbcc16280260801c5b6000836504000000000016600f0b1315610fe2577001000002c5c863b73f016468f6bac5ca2b0260801c5b6000836502000000000016600f0b131561100d57700100000162e430e5a18f6119e3c02282a50260801c5b6000836501000000000016600f0b1315611038577001000000b1721835514b86e6d96efd1bfe0260801c5b60008364800000000016600f0b131561106257700100000058b90c0b48c6be5df846c5b2ef0260801c5b60008364400000000016600f0b131561108c5770010000002c5c8601cc6b9e94213c72737a0260801c5b60008364200000000016600f0b13156110b6577001000000162e42fff037df38aa2b219f060260801c5b60008364100000000016600f0b13156110e05770010000000b17217fba9c739aa5819f44f90260801c5b60008364080000000016600f0b131561110a577001000000058b90bfcdee5acd3c1cedc8230260801c5b60008364040000000016600f0b131561113457700100000002c5c85fe31f35a6a30da1be500260801c5b60008364020000000016600f0b131561115e5770010000000162e42ff0999ce3541b9fffcf0260801c5b60008364010000000016600f0b131561118857700100000000b17217f80f4ef5aadda455540260801c5b600083638000000016600f0b13156111b15770010000000058b90bfbf8479bd5a81b51ad0260801c5b600083634000000016600f0b13156111da577001000000002c5c85fdf84bd62ae30a74cc0260801c5b600083632000000016600f0b131561120357700100000000162e42fefb2fed257559bdaa0260801c5b600083631000000016600f0b131561122c577001000000000b17217f7d5a7716bba4a9ae0260801c5b600083630800000016600f0b131561125557700100000000058b90bfbe9ddbac5e109cce0260801c5b600083630400000016600f0b131561127e5770010000000002c5c85fdf4b15de6f17eb0d0260801c5b600083630200000016600f0b13156112a7577001000000000162e42fefa494f1478fde050260801c5b600083630100000016600f0b13156112d05770010000000000b17217f7d20cf927c8e94c0260801c5b6000836280000016600f0b13156112f8577001000000000058b90bfbe8f71cb4e4b33d0260801c5b6000836240000016600f0b131561132057700100000000002c5c85fdf477b662b269450260801c5b6000836220000016600f0b13156113485770010000000000162e42fefa3ae53369388c0260801c5b6000836210000016600f0b131561137057700100000000000b17217f7d1d351a389d400260801c5b6000836208000016600f0b13156113985770010000000000058b90bfbe8e8b2d3d4ede0260801c5b6000836204000016600f0b13156113c0577001000000000002c5c85fdf4741bea6e77e0260801c5b6000836202000016600f0b13156113e857700100000000000162e42fefa39fe95583c20260801c5b6000836201000016600f0b1315611410577001000000000000b17217f7d1cfb72b45e10260801c5b60008361800016600f0b131561143757700100000000000058b90bfbe8e7cc35c3f00260801c5b60008361400016600f0b131561145e5770010000000000002c5c85fdf473e242ea380260801c5b60008361200016600f0b1315611485577001000000000000162e42fefa39f02b772c0260801c5b60008361100016600f0b13156114ac5770010000000000000b17217f7d1cf7d83c1a0260801c5b60008361080016600f0b13156114d3577001000000000000058b90bfbe8e7bdcbe2e0260801c5b60008361040016600f0b13156114fa57700100000000000002c5c85fdf473dea871f0260801c5b60008361020016600f0b13156115215770010000000000000162e42fefa39ef44d910260801c5b60008361010016600f0b131561154857700100000000000000b17217f7d1cf79e9490260801c5b600083608016600f0b131561156e5770010000000000000058b90bfbe8e7bce5440260801c5b600083604016600f0b1315611594577001000000000000002c5c85fdf473de6eca0260801c5b600083602016600f0b13156115ba57700100000000000000162e42fefa39ef366f0260801c5b600083601016600f0b13156115e0577001000000000000000b17217f7d1cf79afa0260801c5b600083600816600f0b131561160657700100000000000000058b90bfbe8e7bcd6d0260801c5b600083600416600f0b131561162c5770010000000000000002c5c85fdf473de6b20260801c5b600083600216600f0b1315611652577001000000000000000162e42fefa39ef3580260801c5b600083600116600f0b13156116785770010000000000000000b17217f7d1cf79ab0260801c5b600f83810b60401d603f03900b1c60016001607f1b038111156102f057600080fd5b80356001600160801b03811681146116b157600080fd5b919050565b600080604083850312156116c957600080fd5b6116d28361169a565b91506116e06020840161169a565b90509250929050565b600080604083850312156116fc57600080fd5b50508035926020909101359150565b600081600f0b83600f0b600082128260016001607f1b030382138115161561173557611735611957565b8260016001607f1b031903821281161561175157611751611957565b50019392505050565b6000821982111561176d5761176d611957565b500190565b6000826117815761178161196d565b500490565b600181815b808511156117c15781600019048211156117a7576117a7611957565b808516156117b457918102915b93841c939080029061178b565b509250929050565b600061043c83836000826117df575060016102f0565b816117ec575060006102f0565b8160018114611802576002811461180c57611828565b60019150506102f0565b60ff84111561181d5761181d611957565b50506001821b6102f0565b5060208310610133831016604e8410600b841016171561184b575081810a6102f0565b6118558383611786565b806000190482111561186957611869611957565b029392505050565b600081600019048311821515161561188b5761188b611957565b500290565b600081600f0b83600f0b600081128160016001607f1b0319018312811516156118bb576118bb611957565b8160016001607f1b030183138116156118d6576118d6611957565b5090039392505050565b60006001600160801b03808416806118fa576118fa61196d565b92169190910692915050565b6000826119155761191561196d565b500690565b600081600f0b60016001607f1b031981141561193857611938611957565b60000392915050565b634e487b7160e01b600052600160045260246000fd5b634e487b7160e01b600052601160045260246000fd5b634e487b7160e01b600052601260045260246000fdfea26469706673582212202a82cf7a5448a7249f5e91a0dc853bc2623a91d09ddc2257a618ab594853f82164736f6c63430008060033",
    "linkReferences": {}
  },
  "methodIdentifiers": {
    "CDFCheckRange(uint128,uint128)": "6a99a5cb",
    "compareCDFImplementationsDiff(uint128,uint128)": "2ea10db6",
    "compareCDFimplementations(uint128,uint128)": "16d3d4d6",
    "scaleToAndFromX64Inverses(uint256,uint256)": "6976796c",
    "scaleUpAndScaleDownInverses(uint256,uint256)": "94fd82df"
  },
  "id": 14
}