{
  "abi": [
    {
      "inputs": [
        {
          "internalType": "int128",
          "name": "value",
          "type": "int128"
        }
      ],
      "name": "InverseOutOfBounds",
      "type": "error"
    },
    {
      "inputs": [],
      "name": "PRECISION",
      "outputs": [
        {
          "internalType": "uint256",
          "name": "",
          "type": "uint256"
        }
      ],
      "stateMutability": "pure",
      "type": "function"
    },
    {
      "inputs": [
        {
          "internalType": "int128",
          "name": "invariantLast",
          "type": "int128"
        },
        {
          "internalType": "uint256",
          "name": "precStable",
          "type": "uint256"
        },
        {
          "internalType": "uint256",
          "name": "reserveRisky",
          "type": "uint256"
        },
        {
          "internalType": "uint256",
          "name": "strike",
          "type": "uint256"
        },
        {
          "internalType": "uint256",
          "name": "sigma",
          "type": "uint256"
        },
        {
          "internalType": "uint256",
          "name": "tau",
          "type": "uint256"
        }
      ],
      "name": "getStableGivenRisky",
      "outputs": [
        {
          "internalType": "int128",
          "name": "reserveStable",
          "type": "int128"
        }
      ],
      "stateMutability": "view",
      "type": "function"
    },
    {
      "inputs": [],
      "name": "name",
      "outputs": [
        {
          "internalType": "string",
          "name": "",
          "type": "string"
        }
      ],
      "stateMutability": "pure",
      "type": "function"
    },
    {
      "inputs": [],
      "name": "scaleFactorRisky",
      "outputs": [
        {
          "internalType": "uint256",
          "name": "",
          "type": "uint256"
        }
      ],
      "stateMutability": "view",
      "type": "function"
    },
    {
      "inputs": [],
      "name": "scaleFactorStable",
      "outputs": [
        {
          "internalType": "uint256",
          "name": "",
          "type": "uint256"
        }
      ],
      "stateMutability": "view",
      "type": "function"
    },
    {
      "inputs": [
        {
          "internalType": "uint256",
          "name": "prec0",
          "type": "uint256"
        },
        {
          "internalType": "uint256",
          "name": "prec1",
          "type": "uint256"
        }
      ],
      "name": "set",
      "outputs": [],
      "stateMutability": "nonpayable",
      "type": "function"
    },
    {
      "inputs": [
        {
          "internalType": "uint256",
          "name": "strike",
          "type": "uint256"
        }
      ],
      "name": "step0",
      "outputs": [
        {
          "internalType": "int128",
          "name": "K",
          "type": "int128"
        }
      ],
      "stateMutability": "view",
      "type": "function"
    },
    {
      "inputs": [
        {
          "internalType": "uint256",
          "name": "sigma",
          "type": "uint256"
        },
        {
          "internalType": "uint256",
          "name": "tau",
          "type": "uint256"
        }
      ],
      "name": "step1",
      "outputs": [
        {
          "internalType": "int128",
          "name": "vol",
          "type": "int128"
        }
      ],
      "stateMutability": "pure",
      "type": "function"
    },
    {
      "inputs": [
        {
          "internalType": "uint256",
          "name": "reserveRisky",
          "type": "uint256"
        }
      ],
      "name": "step2",
      "outputs": [
        {
          "internalType": "int128",
          "name": "reserve",
          "type": "int128"
        }
      ],
      "stateMutability": "view",
      "type": "function"
    },
    {
      "inputs": [
        {
          "internalType": "int128",
          "name": "reserve",
          "type": "int128"
        }
      ],
      "name": "step3",
      "outputs": [
        {
          "internalType": "int128",
          "name": "phi",
          "type": "int128"
        }
      ],
      "stateMutability": "pure",
      "type": "function"
    },
    {
      "inputs": [
        {
          "internalType": "int128",
          "name": "phi",
          "type": "int128"
        },
        {
          "internalType": "int128",
          "name": "vol",
          "type": "int128"
        }
      ],
      "name": "step4",
      "outputs": [
        {
          "internalType": "int128",
          "name": "input",
          "type": "int128"
        }
      ],
      "stateMutability": "pure",
      "type": "function"
    },
    {
      "inputs": [
        {
          "internalType": "int128",
          "name": "K",
          "type": "int128"
        },
        {
          "internalType": "int128",
          "name": "input",
          "type": "int128"
        },
        {
          "internalType": "int128",
          "name": "invariantLast",
          "type": "int128"
        }
      ],
      "name": "step5",
      "outputs": [
        {
          "internalType": "int128",
          "name": "reserveStable",
          "type": "int128"
        }
      ],
      "stateMutability": "pure",
      "type": "function"
    },
    {
      "inputs": [
        {
          "internalType": "uint256",
          "name": "reserve",
          "type": "uint256"
        }
      ],
      "name": "testStep3",
      "outputs": [
        {
          "internalType": "int128",
          "name": "phi",
          "type": "int128"
        }
      ],
      "stateMutability": "view",
      "type": "function"
    },
    {
      "inputs": [
        {
          "internalType": "uint256",
          "name": "reserve",
          "type": "uint256"
        },
        {
          "internalType": "uint256",
          "name": "sigma",
          "type": "uint256"
        },
        {
          "internalType": "uint256",
          "name": "tau",
          "type": "uint256"
        }
      ],
      "name": "testStep4",
      "outputs": [
        {
          "internalType": "int128",
          "name": "input",
          "type": "int128"
        }
      ],
      "stateMutability": "view",
      "type": "function"
    },
    {
      "inputs": [
        {
          "internalType": "uint256",
          "name": "reserve",
          "type": "uint256"
        },
        {
          "internalType": "uint256",
          "name": "strike",
          "type": "uint256"
        },
        {
          "internalType": "uint256",
          "name": "sigma",
          "type": "uint256"
        },
        {
          "internalType": "uint256",
          "name": "tau",
          "type": "uint256"
        }
      ],
      "name": "testStep5",
      "outputs": [
        {
          "internalType": "int128",
          "name": "reserveStable",
          "type": "int128"
        }
      ],
      "stateMutability": "view",
      "type": "function"
    }
  ],
  "bytecode": {
    "object": "0x608060405234801561001057600080fd5b50611b0c806100206000396000f3fe608060405234801561001057600080fd5b50600436106100f55760003560e01c806355ebb82511610097578063a2e50a2b11610066578063a2e50a2b14610215578063aaf5eb6814610228578063cb21537414610236578063e5f2cfcb1461024957600080fd5b806355ebb825146101d35780635eded84c146101dc5780637b599b03146101ef5780639b48eda41461020257600080fd5b8063318f8e64116100d3578063318f8e641461018357806334d2d6521461019657806343d76320146101a95780634dd0d056146101bc57600080fd5b806306fdde03146100fa5780631ab06ee5146101425780632bf02fbe1461015d575b600080fd5b604080518082018252601781527f54657374476574537461626c65476976656e5269736b790000000000000000006020820152905161013991906119fe565b60405180910390f35b61015b61015036600461197e565b600091909155600155565b005b61017061016b3660046118a5565b61025c565b604051600f9190910b8152602001610139565b6101706101913660046119cc565b610273565b6101706101a436600461191b565b6102b3565b6101706101b7366004611965565b610311565b6101c560015481565b604051908152602001610139565b6101c560005481565b6101706101ea36600461188a565b610347565b6101706101fd3660046118d8565b61035a565b610170610210366004611965565b61038b565b6101706102233660046119a0565b61039a565b670de0b6b3a76400006101c5565b610170610244366004611965565b6103c4565b61017061025736600461197e565b6103db565b600061026c600f84900b836103e7565b9392505050565b60008061028186858561039a565b90506102a961029282600f0b61041b565b6001546102a09088906104bc565b600f0b906104dd565b9695505050505050565b6000806102bf856103c4565b90506000806102ce86866103db565b905060006102db8961038b565b905060006102e882610347565b90506102f4818461025c565b935050505061030482828b61035a565b9998505050505050505050565b600061034161033961032e600054856104bc90919063ffffffff16565b600160401b906103e7565b600f0b610513565b92915050565b6000610341610339600160401b846103e7565b60006103838261037a61036f86600f0b61041b565b600f88900b906104dd565b600f0b906105d1565b949350505050565b600080546103419083906104bc565b6000806103a685610311565b905060006103b485856103db565b90506102a9600f83900b826103e7565b6000610341600154836104bc90919063ffffffff16565b600061026c8383610604565b6000600f82810b9084900b0360016001607f1b03198112801590610412575060016001607f1b038113155b61026c57600080fd5b600080610435600f84900b68016a09e667f3bcc908610641565b9050600061047361046861045d61044e85600f0b610699565b6753dd02a4f5ee2e46906104dd565b600160401b906105d1565b600160401b90610641565b9050600061048183836106cc565b9050600083600f0b121561049e5761049b81600f0b610791565b90505b60006102a96104b1600160401b846105d1565b6001603f1b906104dd565b6000806104d183670de0b6b3a7640000611a53565b905061038384826107ac565b6000600f83810b9083900b0260401d60016001607f1b03198112801590610412575060016001607f1b0381131561026c57600080fd5b6000600160401b600f83900b1215806105305750600082600f0b13155b1561055857604051630e59931d60e31b8152600f83900b600482015260240160405180910390fd5b67f999999999999999600f83900b138015906105805750670666666666666666600f83900b12155b1561058e57610341826107e3565b670666666666666666600f83900b12156105ab576103418261087f565b60006105c36105be600160401b856103e7565b61087f565b61026c90611a75565b919050565b6000600f83810b9083900b0160016001607f1b03198112801590610412575060016001607f1b0381131561026c57600080fd5b60008061061b61061384610949565b600f0b610959565b905060006106288561097b565b9050610638600f82900b836104dd565b95945050505050565b600081600f0b6000141561065457600080fd5b600082600f0b604085600f0b901b8161066f5761066f611ac0565b05905060016001607f1b03198112801590610412575060016001607f1b0381131561026c57600080fd5b6000600f82900b60016001607f1b031914156106b457600080fd5b600082600f0b126106c55781610341565b5060000390565b60008061072961071e61070e6107036106f2600f88900b68010fb844255a12d72e6104dd565b68017401c57014c38f1319906105d1565b600f87900b906104dd565b68016a09e667f3bcc908906105d1565b600f85900b906104dd565b905060006107556107466107036748d4c730f051a5fd19856105d1565b67413c831bb169f874906105d1565b905060006102a961032e61036f61078661077e610776600f8c900b8c6104dd565b600f0b610791565b600f0b610989565b600f86900b906104dd565b6000600f82900b60016001607f1b031914156106c557600080fd5b6000816107b857600080fd5b60006107c484846109de565b905060016001607f1b036001600160801b038216111561026c57600080fd5b6000806107f8600f84900b6001603f1b6103e7565b9050600061080a600f83900b836104dd565b9050600061063861071e61086f6108476721d0a04b0e9b94f161037a61083967c2bf5d74c724e53e19896104dd565b61037a600f8a900b8a6104dd565b6108666726a8f3c1f21b336e61037a6787c57e5da70d3c8f19896104dd565b600f0b90610641565b68015d71f5721242c787906105d1565b6000806108a1610613610899610468600f87900b876104dd565b600f0b610b40565b905060006108c56707a1e70f720eca4361037a6801000bf627fa18841019856104dd565b905060006108e96810aeac93f55267a9a561037a68041ed34a2561490236866104dd565b9050600061091e68072c7d592d021fb1db61037a6109106808c27b4617f5f800ea886104dd565b61037a600f89900b896104dd565b9050600061093e610933600f85900b84610641565b600f86900b906105d1565b979650505050505050565b6000610341826301e185586107ac565b60008082600f0b121561096b57600080fd5b610341604083600f0b901b610b7a565b6000610341826127106107ac565b6000600160461b82600f0b1261099e57600080fd5b683fffffffffffffffff1982600f0b12156109bb57506000919050565b610341608083600f0b700171547652b82fe1777d0ffda0d23a7d1202901d610ce8565b6000816109ea57600080fd5b60006001600160c01b038411610a155782604085901b81610a0d57610a0d611ac0565b049050610b2c565b60c084811c6401000000008110610a2e576020918201911c5b620100008110610a40576010918201911c5b6101008110610a51576008918201911c5b60108110610a61576004918201911c5b60048110610a71576002918201911c5b60028110610a80576001820191505b60bf820360018603901c6001018260ff0387901b81610aa157610aa1611ac0565b0492506001600160801b03831115610ab857600080fd5b608085901c83026001600160801b038616840260c088901c604089901b82811015610ae4576001820391505b608084901b92900382811015610afb576001820391505b829003608084901c8214610b1157610b11611aaa565b888181610b2057610b20611ac0565b04870196505050505050505b6001600160801b0381111561026c57600080fd5b60008082600f0b13610b5157600080fd5b6080610b5c8361179d565b600f0b6fb17217f7d1cf79abc9e3b39803f2f6af02901c9050919050565b600081610b8957506000919050565b816001600160801b8210610ba25760809190911c9060401b5b600160401b8210610bb85760409190911c9060201b5b6401000000008210610bcf5760209190911c9060101b5b620100008210610be45760109190911c9060081b5b6101008210610bf85760089190911c9060041b5b60108210610c0b5760049190911c9060021b5b60088210610c175760011b5b6001818581610c2857610c28611ac0565b048201901c90506001818581610c4057610c40611ac0565b048201901c90506001818581610c5857610c58611ac0565b048201901c90506001818581610c7057610c70611ac0565b048201901c90506001818581610c8857610c88611ac0565b048201901c90506001818581610ca057610ca0611ac0565b048201901c90506001818581610cb857610cb8611ac0565b048201901c90506000818581610cd057610cd0611ac0565b049050808210610ce05780610638565b509392505050565b6000600160461b82600f0b12610cfd57600080fd5b683fffffffffffffffff1982600f0b1215610d1a57506000919050565b6001607f1b60006001603f1b8416600f0b1315610d485770016a09e667f3bcc908b2fb1366ea957d3e0260801c5b60008367400000000000000016600f0b1315610d75577001306fe0a31b7152de8d5a46305c85edec0260801c5b60008367200000000000000016600f0b1315610da2577001172b83c7d517adcdf7c8c50eb14a791f0260801c5b60008367100000000000000016600f0b1315610dcf5770010b5586cf9890f6298b92b71842a983630260801c5b60008367080000000000000016600f0b1315610dfc577001059b0d31585743ae7c548eb68ca417fd0260801c5b60008367040000000000000016600f0b1315610e2957700102c9a3e778060ee6f7caca4f7a29bde80260801c5b60008367020000000000000016600f0b1315610e565770010163da9fb33356d84a66ae336dcdfa3f0260801c5b60008367010000000000000016600f0b1315610e8357700100b1afa5abcbed6129ab13ec11dc95430260801c5b600083668000000000000016600f0b1315610eaf5770010058c86da1c09ea1ff19d294cf2f679b0260801c5b600083664000000000000016600f0b1315610edb577001002c605e2e8cec506d21bfc89a23a00f0260801c5b600083662000000000000016600f0b1315610f0757700100162f3904051fa128bca9c55c31e5df0260801c5b600083661000000000000016600f0b1315610f33577001000b175effdc76ba38e31671ca9397250260801c5b600083660800000000000016600f0b1315610f5f57700100058ba01fb9f96d6cacd4b180917c3d0260801c5b600083660400000000000016600f0b1315610f8b5770010002c5cc37da9491d0985c348c68e7b30260801c5b600083660200000000000016600f0b1315610fb7577001000162e525ee054754457d59952920260260801c5b600083660100000000000016600f0b1315610fe35770010000b17255775c040618bf4a4ade83fc0260801c5b6000836580000000000016600f0b131561100e577001000058b91b5bc9ae2eed81e9b7d4cfab0260801c5b6000836540000000000016600f0b131561103957700100002c5c89d5ec6ca4d7c8acc017b7c90260801c5b6000836520000000000016600f0b13156110645770010000162e43f4f831060e02d839a9d16d0260801c5b6000836510000000000016600f0b131561108f57700100000b1721bcfc99d9f890ea069117630260801c5b6000836508000000000016600f0b13156110ba5770010000058b90cf1e6d97f9ca14dbcc16280260801c5b6000836504000000000016600f0b13156110e5577001000002c5c863b73f016468f6bac5ca2b0260801c5b6000836502000000000016600f0b131561111057700100000162e430e5a18f6119e3c02282a50260801c5b6000836501000000000016600f0b131561113b577001000000b1721835514b86e6d96efd1bfe0260801c5b60008364800000000016600f0b131561116557700100000058b90c0b48c6be5df846c5b2ef0260801c5b60008364400000000016600f0b131561118f5770010000002c5c8601cc6b9e94213c72737a0260801c5b60008364200000000016600f0b13156111b9577001000000162e42fff037df38aa2b219f060260801c5b60008364100000000016600f0b13156111e35770010000000b17217fba9c739aa5819f44f90260801c5b60008364080000000016600f0b131561120d577001000000058b90bfcdee5acd3c1cedc8230260801c5b60008364040000000016600f0b131561123757700100000002c5c85fe31f35a6a30da1be500260801c5b60008364020000000016600f0b13156112615770010000000162e42ff0999ce3541b9fffcf0260801c5b60008364010000000016600f0b131561128b57700100000000b17217f80f4ef5aadda455540260801c5b600083638000000016600f0b13156112b45770010000000058b90bfbf8479bd5a81b51ad0260801c5b600083634000000016600f0b13156112dd577001000000002c5c85fdf84bd62ae30a74cc0260801c5b600083632000000016600f0b131561130657700100000000162e42fefb2fed257559bdaa0260801c5b600083631000000016600f0b131561132f577001000000000b17217f7d5a7716bba4a9ae0260801c5b600083630800000016600f0b131561135857700100000000058b90bfbe9ddbac5e109cce0260801c5b600083630400000016600f0b13156113815770010000000002c5c85fdf4b15de6f17eb0d0260801c5b600083630200000016600f0b13156113aa577001000000000162e42fefa494f1478fde050260801c5b600083630100000016600f0b13156113d35770010000000000b17217f7d20cf927c8e94c0260801c5b6000836280000016600f0b13156113fb577001000000000058b90bfbe8f71cb4e4b33d0260801c5b6000836240000016600f0b131561142357700100000000002c5c85fdf477b662b269450260801c5b6000836220000016600f0b131561144b5770010000000000162e42fefa3ae53369388c0260801c5b6000836210000016600f0b131561147357700100000000000b17217f7d1d351a389d400260801c5b6000836208000016600f0b131561149b5770010000000000058b90bfbe8e8b2d3d4ede0260801c5b6000836204000016600f0b13156114c3577001000000000002c5c85fdf4741bea6e77e0260801c5b6000836202000016600f0b13156114eb57700100000000000162e42fefa39fe95583c20260801c5b6000836201000016600f0b1315611513577001000000000000b17217f7d1cfb72b45e10260801c5b60008361800016600f0b131561153a57700100000000000058b90bfbe8e7cc35c3f00260801c5b60008361400016600f0b13156115615770010000000000002c5c85fdf473e242ea380260801c5b60008361200016600f0b1315611588577001000000000000162e42fefa39f02b772c0260801c5b60008361100016600f0b13156115af5770010000000000000b17217f7d1cf7d83c1a0260801c5b60008361080016600f0b13156115d6577001000000000000058b90bfbe8e7bdcbe2e0260801c5b60008361040016600f0b13156115fd57700100000000000002c5c85fdf473dea871f0260801c5b60008361020016600f0b13156116245770010000000000000162e42fefa39ef44d910260801c5b60008361010016600f0b131561164b57700100000000000000b17217f7d1cf79e9490260801c5b600083608016600f0b13156116715770010000000000000058b90bfbe8e7bce5440260801c5b600083604016600f0b1315611697577001000000000000002c5c85fdf473de6eca0260801c5b600083602016600f0b13156116bd57700100000000000000162e42fefa39ef366f0260801c5b600083601016600f0b13156116e3577001000000000000000b17217f7d1cf79afa0260801c5b600083600816600f0b131561170957700100000000000000058b90bfbe8e7bcd6d0260801c5b600083600416600f0b131561172f5770010000000000000002c5c85fdf473de6b20260801c5b600083600216600f0b1315611755577001000000000000000162e42fefa39ef3580260801c5b600083600116600f0b131561177b5770010000000000000000b17217f7d1cf79ab0260801c5b600f83810b60401d603f03900b1c60016001607f1b0381111561034157600080fd5b60008082600f0b136117ae57600080fd5b6000600f83900b600160401b81126117c8576040918201911d5b64010000000081126117dc576020918201911d5b6201000081126117ee576010918201911d5b61010081126117ff576008918201911d5b6010811261180f576004918201911d5b6004811261181f576002918201911d5b6002811261182e576001820191505b603f19820160401b600f85900b607f8490031b6001603f1b5b600081131561186d5790800260ff81901c8281029390930192607f011c9060011d611847565b509095945050505050565b8035600f81900b81146105cc57600080fd5b60006020828403121561189c57600080fd5b61026c82611878565b600080604083850312156118b857600080fd5b6118c183611878565b91506118cf60208401611878565b90509250929050565b6000806000606084860312156118ed57600080fd5b6118f684611878565b925061190460208501611878565b915061191260408501611878565b90509250925092565b60008060008060008060c0878903121561193457600080fd5b61193d87611878565b9860208801359850604088013597606081013597506080810135965060a00135945092505050565b60006020828403121561197757600080fd5b5035919050565b6000806040838503121561199157600080fd5b50508035926020909101359150565b6000806000606084860312156119b557600080fd5b505081359360208301359350604090920135919050565b600080600080608085870312156119e257600080fd5b5050823594602084013594506040840135936060013592509050565b600060208083528351808285015260005b81811015611a2b57858101830151858201604001528201611a0f565b81811115611a3d576000604083870101525b50601f01601f1916929092016040019392505050565b600082611a7057634e487b7160e01b600052601260045260246000fd5b500490565b600081600f0b60016001607f1b0319811415611aa157634e487b7160e01b600052601160045260246000fd5b60000392915050565b634e487b7160e01b600052600160045260246000fd5b634e487b7160e01b600052601260045260246000fdfea2646970667358221220bb17afbb32bb3d1c8b38f6842cf34d13737dcafc467106275c1016b7ef0bcc7264736f6c63430008060033",
    "linkReferences": {}
  },
  "methodIdentifiers": {
    "PRECISION()": "aaf5eb68",
    "getStableGivenRisky(int128,uint256,uint256,uint256,uint256,uint256)": "34d2d652",
    "name()": "06fdde03",
    "scaleFactorRisky()": "55ebb825",
    "scaleFactorStable()": "4dd0d056",
    "set(uint256,uint256)": "1ab06ee5",
    "step0(uint256)": "cb215374",
    "step1(uint256,uint256)": "e5f2cfcb",
    "step2(uint256)": "9b48eda4",
    "step3(int128)": "5eded84c",
    "step4(int128,int128)": "2bf02fbe",
    "step5(int128,int128,int128)": "7b599b03",
    "testStep3(uint256)": "43d76320",
    "testStep4(uint256,uint256,uint256)": "a2e50a2b",
    "testStep5(uint256,uint256,uint256,uint256)": "318f8e64"
  },
  "id": 25
}