{
  "abi": [
    {
      "inputs": [
        {
          "internalType": "int128",
          "name": "value",
          "type": "int128"
        }
      ],
      "name": "InverseOutOfBounds",
      "type": "error"
    },
    {
      "inputs": [
        {
          "internalType": "uint256",
          "name": "reserveRisky",
          "type": "uint256"
        },
        {
          "internalType": "uint256",
          "name": "reserveStable",
          "type": "uint256"
        },
        {
          "internalType": "uint256",
          "name": "strike",
          "type": "uint256"
        },
        {
          "internalType": "uint256",
          "name": "sigma",
          "type": "uint256"
        },
        {
          "internalType": "uint256",
          "name": "tau",
          "type": "uint256"
        }
      ],
      "name": "calcInvariantRisky",
      "outputs": [
        {
          "internalType": "int128",
          "name": "invariant",
          "type": "int128"
        }
      ],
      "stateMutability": "view",
      "type": "function"
    },
    {
      "inputs": [
        {
          "internalType": "uint256",
          "name": "reserveRisky",
          "type": "uint256"
        },
        {
          "internalType": "uint256",
          "name": "reserveStable",
          "type": "uint256"
        },
        {
          "internalType": "uint256",
          "name": "strike",
          "type": "uint256"
        },
        {
          "internalType": "uint256",
          "name": "sigma",
          "type": "uint256"
        },
        {
          "internalType": "uint256",
          "name": "tau",
          "type": "uint256"
        }
      ],
      "name": "calcInvariantStable",
      "outputs": [
        {
          "internalType": "int128",
          "name": "invariant",
          "type": "int128"
        }
      ],
      "stateMutability": "view",
      "type": "function"
    },
    {
      "inputs": [],
      "name": "scaleFactorRisky",
      "outputs": [
        {
          "internalType": "uint256",
          "name": "",
          "type": "uint256"
        }
      ],
      "stateMutability": "view",
      "type": "function"
    },
    {
      "inputs": [],
      "name": "scaleFactorStable",
      "outputs": [
        {
          "internalType": "uint256",
          "name": "",
          "type": "uint256"
        }
      ],
      "stateMutability": "view",
      "type": "function"
    },
    {
      "inputs": [
        {
          "internalType": "uint256",
          "name": "prec0",
          "type": "uint256"
        },
        {
          "internalType": "uint256",
          "name": "prec1",
          "type": "uint256"
        }
      ],
      "name": "set",
      "outputs": [],
      "stateMutability": "nonpayable",
      "type": "function"
    },
    {
      "inputs": [
        {
          "internalType": "uint256",
          "name": "reserveRisky",
          "type": "uint256"
        },
        {
          "internalType": "uint256",
          "name": "strike",
          "type": "uint256"
        },
        {
          "internalType": "uint256",
          "name": "sigma",
          "type": "uint256"
        },
        {
          "internalType": "uint256",
          "name": "tau",
          "type": "uint256"
        }
      ],
      "name": "step0",
      "outputs": [
        {
          "internalType": "int128",
          "name": "reserve2",
          "type": "int128"
        }
      ],
      "stateMutability": "view",
      "type": "function"
    },
    {
      "inputs": [
        {
          "internalType": "uint256",
          "name": "reserveStable",
          "type": "uint256"
        },
        {
          "internalType": "int128",
          "name": "reserve2",
          "type": "int128"
        }
      ],
      "name": "step1",
      "outputs": [
        {
          "internalType": "int128",
          "name": "invariant",
          "type": "int128"
        }
      ],
      "stateMutability": "view",
      "type": "function"
    }
  ],
  "bytecode": {
    "object": "0x608060405234801561001057600080fd5b50611916806100206000396000f3fe608060405234801561001057600080fd5b506004361061007d5760003560e01c80639473e3ff1161005b5780639473e3ff146100c2578063aa8aa155146100e8578063ce0aca5e146100e8578063cf9e0931146100fb57600080fd5b80631ab06ee5146100825780634dd0d0561461009d57806355ebb825146100b9575b600080fd5b61009b6100903660046117ce565b600091909155600155565b005b6100a660015481565b6040519081526020015b60405180910390f35b6100a660005481565b6100d56100d03660046117f0565b61010e565b604051600f9190910b81526020016100b0565b6100d56100f6366004611822565b610138565b6100d5610109366004611798565b61015e565b600061012f600154610129600080546001548a8a8a8a610189565b90610262565b95945050505050565b6000806101478786868661010e565b9050610153868261015e565b979650505050505050565b6000610182826101796001548661026290919063ffffffff16565b600f0b9061028b565b9392505050565b6000806101968588610262565b905060006101a4878a610262565b905060006101b6600160401b8361028b565b905084156102325760006101ca87876102c8565b905060006101da83600f0b6102fc565b905060006101ec600f83900b8461028b565b905060006102178f61020e61020385600f0b6103b5565b600f8b900b90610460565b600f0b90610496565b9050610227600f82900b8e6104c9565b975050505050610254565b610251896102488d61020e600f88900b86610460565b600f0b906104c9565b93505b505050979650505050505050565b60008061027783670de0b6b3a764000061185d565b905061028384826104ee565b949350505050565b6000600f82810b9084900b0360016001607f1b031981128015906102b6575060016001607f1b038113155b6102bf57600080fd5b90505b92915050565b6000806102df6102d784610525565b600f0b610535565b905060006102ec85610557565b905061012f600f82900b83610460565b6000600160401b600f83900b1215806103195750600082600f0b13155b1561034157604051630e59931d60e31b8152600f83900b600482015260240160405180910390fd5b67f999999999999999600f83900b138015906103695750670666666666666666600f83900b12155b15610377576102c282610565565b670666666666666666600f83900b1215610394576102c28261060c565b60006103ac6103a7600160401b8561028b565b61060c565b6101829061187f565b6000806103cf600f84900b68016a09e667f3bcc9086106cb565b9050600061040d6104026103f76103e885600f0b610723565b6753dd02a4f5ee2e4690610460565b600160401b90610496565b600160401b906106cb565b9050600061041b8383610756565b9050600083600f0b12156104385761043581600f0b610826565b90505b600061045661044b600160401b84610496565b6001603f1b90610460565b9695505050505050565b6000600f83810b9083900b0260401d60016001607f1b031981128015906102b6575060016001607f1b038113156102bf57600080fd5b6000600f83810b9083900b0160016001607f1b031981128015906102b6575060016001607f1b038113156102bf57600080fd5b6000806104de83670de0b6b3a764000061185d565b9050610283600f85900b82610841565b6000816104fa57600080fd5b600061050684846108a9565b905060016001607f1b036001600160801b03821611156102bf57600080fd5b60006102c2826301e185586104ee565b60008082600f0b121561054757600080fd5b6102c2604083600f0b901b610a0b565b60006102c2826127106104ee565b60008061057a600f84900b6001603f1b61028b565b9050600061058c600f83900b83610460565b9050600061012f6106016105f16105c96721d0a04b0e9b94f161020e6105bb67c2bf5d74c724e53e1989610460565b61020e600f8a900b8a610460565b6105e86726a8f3c1f21b336e61020e6787c57e5da70d3c8f1989610460565b600f0b906106cb565b68015d71f5721242c78790610496565b600f85900b90610460565b60008061062e6102d7610626610402600f87900b87610460565b600f0b610b79565b905060006106526707a1e70f720eca4361020e6801000bf627fa1884101985610460565b905060006106766810aeac93f55267a9a561020e68041ed34a256149023686610460565b905060006106ab68072c7d592d021fb1db61020e61069d6808c27b4617f5f800ea88610460565b61020e600f89900b89610460565b905060006101536106c0600f85900b846106cb565b600f86900b90610496565b600081600f0b600014156106de57600080fd5b600082600f0b604085600f0b901b816106f9576106f96118ca565b05905060016001607f1b031981128015906102b6575060016001607f1b038113156102bf57600080fd5b6000600f82900b60016001607f1b0319141561073e57600080fd5b600082600f0b1261074f57816102c2565b5060000390565b6000806107a861060161079861078d61077c600f88900b68010fb844255a12d72e610460565b68017401c57014c38f131990610496565b600f87900b90610460565b68016a09e667f3bcc90890610496565b905060006107d46107c561078d6748d4c730f051a5fd1985610496565b67413c831bb169f87490610496565b9050600061045661081b6108106108056107fd6107f5600f8c900b8c610460565b600f0b610826565b600f0b610bb3565b600f86900b90610460565b600f88900b90610460565b600160401b9061028b565b6000600f82900b60016001607f1b0319141561074f57600080fd5b600081610850575060006102c2565b600083600f0b121561086157600080fd5b600f83900b6001600160801b038316810260401c90608084901c026001600160c01b0381111561089057600080fd5b60401b81198111156108a157600080fd5b019392505050565b6000816108b557600080fd5b60006001600160c01b0384116108e05782604085901b816108d8576108d86118ca565b0490506109f7565b60c084811c64010000000081106108f9576020918201911c5b62010000811061090b576010918201911c5b610100811061091c576008918201911c5b6010811061092c576004918201911c5b6004811061093c576002918201911c5b6002811061094b576001820191505b60bf820360018603901c6001018260ff0387901b8161096c5761096c6118ca565b0492506001600160801b0383111561098357600080fd5b608085901c83026001600160801b038616840260c088901c604089901b828110156109af576001820391505b608084901b929003828110156109c6576001820391505b829003608084901c82146109dc576109dc6118b4565b8881816109eb576109eb6118ca565b04870196505050505050505b6001600160801b038111156102bf57600080fd5b600081610a1a57506000919050565b816001600160801b8210610a335760809190911c9060401b5b600160401b8210610a495760409190911c9060201b5b6401000000008210610a605760209190911c9060101b5b620100008210610a755760109190911c9060081b5b6101008210610a895760089190911c9060041b5b60108210610a9c5760049190911c9060021b5b60088210610aa85760011b5b6001818581610ab957610ab96118ca565b048201901c90506001818581610ad157610ad16118ca565b048201901c90506001818581610ae957610ae96118ca565b048201901c90506001818581610b0157610b016118ca565b048201901c90506001818581610b1957610b196118ca565b048201901c90506001818581610b3157610b316118ca565b048201901c90506001818581610b4957610b496118ca565b048201901c90506000818581610b6157610b616118ca565b049050808210610b71578061012f565b509392505050565b60008082600f0b13610b8a57600080fd5b6080610b9583610c08565b600f0b6fb17217f7d1cf79abc9e3b39803f2f6af02901c9050919050565b6000600160461b82600f0b12610bc857600080fd5b683fffffffffffffffff1982600f0b1215610be557506000919050565b6102c2608083600f0b700171547652b82fe1777d0ffda0d23a7d1202901d610ce3565b60008082600f0b13610c1957600080fd5b6000600f83900b600160401b8112610c33576040918201911d5b6401000000008112610c47576020918201911d5b620100008112610c59576010918201911d5b6101008112610c6a576008918201911d5b60108112610c7a576004918201911d5b60048112610c8a576002918201911d5b60028112610c99576001820191505b603f19820160401b600f85900b607f8490031b6001603f1b5b6000811315610cd85790800260ff81901c8281029390930192607f011c9060011d610cb2565b509095945050505050565b6000600160461b82600f0b12610cf857600080fd5b683fffffffffffffffff1982600f0b1215610d1557506000919050565b6001607f1b60006001603f1b8416600f0b1315610d435770016a09e667f3bcc908b2fb1366ea957d3e0260801c5b60008367400000000000000016600f0b1315610d70577001306fe0a31b7152de8d5a46305c85edec0260801c5b60008367200000000000000016600f0b1315610d9d577001172b83c7d517adcdf7c8c50eb14a791f0260801c5b60008367100000000000000016600f0b1315610dca5770010b5586cf9890f6298b92b71842a983630260801c5b60008367080000000000000016600f0b1315610df7577001059b0d31585743ae7c548eb68ca417fd0260801c5b60008367040000000000000016600f0b1315610e2457700102c9a3e778060ee6f7caca4f7a29bde80260801c5b60008367020000000000000016600f0b1315610e515770010163da9fb33356d84a66ae336dcdfa3f0260801c5b60008367010000000000000016600f0b1315610e7e57700100b1afa5abcbed6129ab13ec11dc95430260801c5b600083668000000000000016600f0b1315610eaa5770010058c86da1c09ea1ff19d294cf2f679b0260801c5b600083664000000000000016600f0b1315610ed6577001002c605e2e8cec506d21bfc89a23a00f0260801c5b600083662000000000000016600f0b1315610f0257700100162f3904051fa128bca9c55c31e5df0260801c5b600083661000000000000016600f0b1315610f2e577001000b175effdc76ba38e31671ca9397250260801c5b600083660800000000000016600f0b1315610f5a57700100058ba01fb9f96d6cacd4b180917c3d0260801c5b600083660400000000000016600f0b1315610f865770010002c5cc37da9491d0985c348c68e7b30260801c5b600083660200000000000016600f0b1315610fb2577001000162e525ee054754457d59952920260260801c5b600083660100000000000016600f0b1315610fde5770010000b17255775c040618bf4a4ade83fc0260801c5b6000836580000000000016600f0b1315611009577001000058b91b5bc9ae2eed81e9b7d4cfab0260801c5b6000836540000000000016600f0b131561103457700100002c5c89d5ec6ca4d7c8acc017b7c90260801c5b6000836520000000000016600f0b131561105f5770010000162e43f4f831060e02d839a9d16d0260801c5b6000836510000000000016600f0b131561108a57700100000b1721bcfc99d9f890ea069117630260801c5b6000836508000000000016600f0b13156110b55770010000058b90cf1e6d97f9ca14dbcc16280260801c5b6000836504000000000016600f0b13156110e0577001000002c5c863b73f016468f6bac5ca2b0260801c5b6000836502000000000016600f0b131561110b57700100000162e430e5a18f6119e3c02282a50260801c5b6000836501000000000016600f0b1315611136577001000000b1721835514b86e6d96efd1bfe0260801c5b60008364800000000016600f0b131561116057700100000058b90c0b48c6be5df846c5b2ef0260801c5b60008364400000000016600f0b131561118a5770010000002c5c8601cc6b9e94213c72737a0260801c5b60008364200000000016600f0b13156111b4577001000000162e42fff037df38aa2b219f060260801c5b60008364100000000016600f0b13156111de5770010000000b17217fba9c739aa5819f44f90260801c5b60008364080000000016600f0b1315611208577001000000058b90bfcdee5acd3c1cedc8230260801c5b60008364040000000016600f0b131561123257700100000002c5c85fe31f35a6a30da1be500260801c5b60008364020000000016600f0b131561125c5770010000000162e42ff0999ce3541b9fffcf0260801c5b60008364010000000016600f0b131561128657700100000000b17217f80f4ef5aadda455540260801c5b600083638000000016600f0b13156112af5770010000000058b90bfbf8479bd5a81b51ad0260801c5b600083634000000016600f0b13156112d8577001000000002c5c85fdf84bd62ae30a74cc0260801c5b600083632000000016600f0b131561130157700100000000162e42fefb2fed257559bdaa0260801c5b600083631000000016600f0b131561132a577001000000000b17217f7d5a7716bba4a9ae0260801c5b600083630800000016600f0b131561135357700100000000058b90bfbe9ddbac5e109cce0260801c5b600083630400000016600f0b131561137c5770010000000002c5c85fdf4b15de6f17eb0d0260801c5b600083630200000016600f0b13156113a5577001000000000162e42fefa494f1478fde050260801c5b600083630100000016600f0b13156113ce5770010000000000b17217f7d20cf927c8e94c0260801c5b6000836280000016600f0b13156113f6577001000000000058b90bfbe8f71cb4e4b33d0260801c5b6000836240000016600f0b131561141e57700100000000002c5c85fdf477b662b269450260801c5b6000836220000016600f0b13156114465770010000000000162e42fefa3ae53369388c0260801c5b6000836210000016600f0b131561146e57700100000000000b17217f7d1d351a389d400260801c5b6000836208000016600f0b13156114965770010000000000058b90bfbe8e8b2d3d4ede0260801c5b6000836204000016600f0b13156114be577001000000000002c5c85fdf4741bea6e77e0260801c5b6000836202000016600f0b13156114e657700100000000000162e42fefa39fe95583c20260801c5b6000836201000016600f0b131561150e577001000000000000b17217f7d1cfb72b45e10260801c5b60008361800016600f0b131561153557700100000000000058b90bfbe8e7cc35c3f00260801c5b60008361400016600f0b131561155c5770010000000000002c5c85fdf473e242ea380260801c5b60008361200016600f0b1315611583577001000000000000162e42fefa39f02b772c0260801c5b60008361100016600f0b13156115aa5770010000000000000b17217f7d1cf7d83c1a0260801c5b60008361080016600f0b13156115d1577001000000000000058b90bfbe8e7bdcbe2e0260801c5b60008361040016600f0b13156115f857700100000000000002c5c85fdf473dea871f0260801c5b60008361020016600f0b131561161f5770010000000000000162e42fefa39ef44d910260801c5b60008361010016600f0b131561164657700100000000000000b17217f7d1cf79e9490260801c5b600083608016600f0b131561166c5770010000000000000058b90bfbe8e7bce5440260801c5b600083604016600f0b1315611692577001000000000000002c5c85fdf473de6eca0260801c5b600083602016600f0b13156116b857700100000000000000162e42fefa39ef366f0260801c5b600083601016600f0b13156116de577001000000000000000b17217f7d1cf79afa0260801c5b600083600816600f0b131561170457700100000000000000058b90bfbe8e7bcd6d0260801c5b600083600416600f0b131561172a5770010000000000000002c5c85fdf473de6b20260801c5b600083600216600f0b1315611750577001000000000000000162e42fefa39ef3580260801c5b600083600116600f0b13156117765770010000000000000000b17217f7d1cf79ab0260801c5b600f83810b60401d603f03900b1c60016001607f1b038111156102c257600080fd5b600080604083850312156117ab57600080fd5b82359150602083013580600f0b81146117c357600080fd5b809150509250929050565b600080604083850312156117e157600080fd5b50508035926020909101359150565b6000806000806080858703121561180657600080fd5b5050823594602084013594506040840135936060013592509050565b600080600080600060a0868803121561183a57600080fd5b505083359560208501359550604085013594606081013594506080013592509050565b60008261187a57634e487b7160e01b600052601260045260246000fd5b500490565b600081600f0b60016001607f1b03198114156118ab57634e487b7160e01b600052601160045260246000fd5b60000392915050565b634e487b7160e01b600052600160045260246000fd5b634e487b7160e01b600052601260045260246000fdfea26469706673582212200ac7f37465a258be978ab2cbe8f8911cc2049e29b14b46da47ea3dcb1bdd6a1c64736f6c63430008060033",
    "linkReferences": {}
  },
  "methodIdentifiers": {
    "calcInvariantRisky(uint256,uint256,uint256,uint256,uint256)": "aa8aa155",
    "calcInvariantStable(uint256,uint256,uint256,uint256,uint256)": "ce0aca5e",
    "scaleFactorRisky()": "55ebb825",
    "scaleFactorStable()": "4dd0d056",
    "set(uint256,uint256)": "1ab06ee5",
    "step0(uint256,uint256,uint256,uint256)": "9473e3ff",
    "step1(uint256,int128)": "cf9e0931"
  },
  "id": 23
}