{
  "abi": [
    {
      "inputs": [
        {
          "internalType": "int128",
          "name": "value",
          "type": "int128"
        }
      ],
      "name": "InverseOutOfBounds",
      "type": "error"
    },
    {
      "inputs": [
        {
          "internalType": "uint256",
          "name": "delRisky",
          "type": "uint256"
        },
        {
          "internalType": "uint256",
          "name": "delStable",
          "type": "uint256"
        },
        {
          "internalType": "bytes",
          "name": "data",
          "type": "bytes"
        }
      ],
      "name": "createCallback",
      "outputs": [],
      "stateMutability": "nonpayable",
      "type": "function"
    },
    {
      "inputs": [
        {
          "internalType": "uint128",
          "name": "_strike",
          "type": "uint128"
        },
        {
          "internalType": "uint32",
          "name": "_sigma",
          "type": "uint32"
        },
        {
          "internalType": "uint32",
          "name": "_maturity",
          "type": "uint32"
        },
        {
          "internalType": "uint32",
          "name": "_gamma",
          "type": "uint32"
        },
        {
          "internalType": "uint256",
          "name": "riskyPerLp",
          "type": "uint256"
        },
        {
          "internalType": "uint256",
          "name": "_delLiquidity",
          "type": "uint256"
        }
      ],
      "name": "create_new_pool_should_not_revert",
      "outputs": [],
      "stateMutability": "nonpayable",
      "type": "function"
    },
    {
      "inputs": [
        {
          "internalType": "uint128",
          "name": "_strike",
          "type": "uint128"
        },
        {
          "internalType": "uint32",
          "name": "_sigma",
          "type": "uint32"
        },
        {
          "internalType": "uint32",
          "name": "_maturity",
          "type": "uint32"
        },
        {
          "internalType": "uint32",
          "name": "gamma",
          "type": "uint32"
        },
        {
          "internalType": "uint256",
          "name": "riskyPerLp",
          "type": "uint256"
        },
        {
          "internalType": "uint256",
          "name": "_delLiquidity",
          "type": "uint256"
        }
      ],
      "name": "create_new_pool_with_wrong_gamma_should_revert",
      "outputs": [],
      "stateMutability": "nonpayable",
      "type": "function"
    }
  ],
  "bytecode": {
    "object": "0x6080604052600080546001600160a01b0319908116731dc4c1cefef38a777b15aa20260a54e584b16c48908117909255600180548216731d7022f5b17d2f8b695918fb48fa1089c9f8540190811790915560028054831673871dd7c2b4b25e1aa18728e9d5f2af4c4e431f5c179055600380548316730b1ba0af832d7c05fd64161e0db78e85978e8082179055600480548316736a4a62e5a7ed13c361b176a5f62c2ee620ac0df89081179091556005805484167348bacb9266a570d521063ef5dd96e61686dbe788908117909155600680548516736dfff22588be9b3ef8cf0ad6dc9b84796f9fb45f1790556007805485167334d402f14d58e001d8efbe6585051bf9706aa06417905560088054851673cfc18cec799fbd1793b5c43e773c98d4d61cc2db1790556009805485167325b8fe1de9daf8ba351890744ff28cf7dfa8f5e3179055600a8054851673f22469f31527adc53284441bae1665a7b9214dba179055600b8054851673cdb594a32b1cc3479d8746279712c39d18a07fc0179055600c805485167307f96aa816c1f244cbc6ef114bb2b023ba54a2eb179055600d80548516909517909455600e80548416909217909155600f8054831690911790556010805490911690911790553480156101db57600080fd5b50612ad1806101eb6000396000f3fe608060405234801561001057600080fd5b50600436106100415760003560e01c806307bf76da14610046578063459044781461005b578063c171d27e1461006e575b600080fd5b6100596100543660046126d2565b610081565b005b6100596100693660046126d2565b610368565b61005961007c3660046127ce565b610652565b600061009769021e0c0013070adc0000886129b7565b6100a990670de0b6b3a76400006128e6565b905060006100ba6298961c886129f1565b6100c5906064612929565b905060006100d56103e8876129f1565b6100e190612328612929565b90506000601060009054906101000a90046001600160a01b03166001600160a01b03166321b77d636040518163ffffffff1660e01b815260040160206040518083038186803b15801561013357600080fd5b505afa158015610147573d6000803e3d6000fd5b505050506040513d601f19601f8201168201806040525081019061016b91906127b5565b61017d90678ac7230489e8000061297b565b61018790866129dd565b601060009054906101000a90046001600160a01b03166001600160a01b03166321b77d636040518163ffffffff1660e01b815260040160206040518083038186803b1580156101d557600080fd5b505afa1580156101e9573d6000803e3d6000fd5b505050506040513d601f19601f8201168201806040525081019061020d91906127b5565b610218906001612911565b6102229190612911565b90506000610234896301e18558612929565b9050601060009054906101000a90046001600160a01b03166001600160a01b03166316ada5476040518163ffffffff1660e01b815260040160206040518083038186803b15801561028457600080fd5b505afa158015610298573d6000803e3d6000fd5b505050506040513d601f19601f820116820180604052508101906102bc91906127b5565b63ffffffff168163ffffffff1610156102d457600080fd5b60006040518060c00160405280876001600160801b031681526020018663ffffffff1681526020018363ffffffff1681526020018981526020018481526020018563ffffffff16815250905060008061032c83610662565b604080516000602082015292945090925061035891859101604051602081830303815290604052610a59565b5050505050505050505050505050565b600061037e69021e0c0013070adc0000886129b7565b61039090670de0b6b3a76400006128e6565b905060006103a16298961c886129f1565b6103ac906064612929565b90506000601060009054906101000a90046001600160a01b03166001600160a01b03166321b77d636040518163ffffffff1660e01b815260040160206040518083038186803b1580156103fe57600080fd5b505afa158015610412573d6000803e3d6000fd5b505050506040513d601f19601f8201168201806040525081019061043691906127b5565b61044890678ac7230489e8000061297b565b61045290856129dd565b601060009054906101000a90046001600160a01b03166001600160a01b03166321b77d636040518163ffffffff1660e01b815260040160206040518083038186803b1580156104a057600080fd5b505afa1580156104b4573d6000803e3d6000fd5b505050506040513d601f19601f820116820180604052508101906104d891906127b5565b6104e3906001612911565b6104ed9190612911565b905060006104ff886301e18558612929565b9050601060009054906101000a90046001600160a01b03166001600160a01b03166316ada5476040518163ffffffff1660e01b815260040160206040518083038186803b15801561054f57600080fd5b505afa158015610563573d6000803e3d6000fd5b505050506040513d601f19601f8201168201806040525081019061058791906127b5565b63ffffffff168163ffffffff16101561059f57600080fd5b60006040518060c00160405280866001600160801b031681526020018563ffffffff1681526020018363ffffffff1681526020018881526020018481526020018963ffffffff1681525090506000806105f783610662565b915091506127108a63ffffffff16118061061857506123288a63ffffffff16105b1561064357604080516000602082015261064391859101604051602081830303815290604052610d97565b50505050505050505050505050565b61065c8484610e59565b50505050565b6000806000601060009054906101000a90046001600160a01b03166001600160a01b03166355ebb8256040518163ffffffff1660e01b815260040160206040518083038186803b1580156106b557600080fd5b505afa1580156106c9573d6000803e3d6000fd5b505050506040513d601f19601f820116820180604052508101906106ed91906127b5565b90506000601060009054906101000a90046001600160a01b03166001600160a01b0316634dd0d0566040518163ffffffff1660e01b815260040160206040518083038186803b15801561073f57600080fd5b505afa158015610753573d6000803e3d6000fd5b505050506040513d601f19601f8201168201806040525081019061077791906127b5565b90506000601060009054906101000a90046001600160a01b03166001600160a01b03166316ada5476040518163ffffffff1660e01b815260040160206040518083038186803b1580156107c957600080fd5b505afa1580156107dd573d6000803e3d6000fd5b505050506040513d601f19601f8201168201806040525081019061080191906127b5565b86604001516108109190612992565b905082601060009054906101000a90046001600160a01b03166001600160a01b031663aaf5eb686040518163ffffffff1660e01b815260040160206040518083038186803b15801561086157600080fd5b505afa158015610875573d6000803e3d6000fd5b505050506040513d601f19601f8201168201806040525081019061089991906127b5565b6108a39190612948565b866060015111156108b357600080fd5b6108e46000848489606001518a600001516001600160801b03168b6020015163ffffffff168763ffffffff16610f7c565b9350601060009054906101000a90046001600160a01b03166001600160a01b031663aaf5eb686040518163ffffffff1660e01b815260040160206040518083038186803b15801561093457600080fd5b505afa158015610948573d6000803e3d6000fd5b505050506040513d601f19601f8201168201806040525081019061096c91906127b5565b86608001518760600151610980919061295c565b61098a9190612948565b94506000851161099957600080fd5b601060009054906101000a90046001600160a01b03166001600160a01b031663aaf5eb686040518163ffffffff1660e01b815260040160206040518083038186803b1580156109e757600080fd5b505afa1580156109fb573d6000803e3d6000fd5b505050506040513d601f19601f82011682018060405250810190610a1f91906127b5565b6080870151610a2e908661295c565b610a389190612948565b935060008411610a4757600080fd5b610a518585611055565b505050915091565b6010548251602084015160408086015160a0870151606088015160808901519351635f003b1d60e11b81526001600160a01b039097169663be00763a96610aab96909590949392918a9060040161284e565b606060405180830381600087803b158015610ac557600080fd5b505af1925050508015610af5575060408051601f3d908101601f19168201909252610af2918101906126a4565b60015b610b0557610b01612a2f565b5050565b5050601054835160208086015160408088015160a0890151915160009750610b9a966001600160a01b031695949192910160609590951b6bffffffffffffffffffffffff1916855260809390931b6fffffffffffffffffffffffffffffffff1916601485015260e091821b6001600160e01b0319908116602486015290821b8116602885015291901b16602c82015260300190565b604051602081830303815290604052805190602001209050610beb81601280546001810182556000919091527fbb8a6a4669ba250d26cd7a459eca9d215f8307e33aebe50379bc5a3617ec34440155565b6010546040516311e2dca960e11b81526004810183905260009182918291829182916001600160a01b0316906323c5b9529060240160a06040518083038186803b158015610c3857600080fd5b505afa158015610c4c573d6000803e3d6000fd5b505050506040513d601f19601f82011682018060405250810190610c709190612740565b94509450945094509450601060009054906101000a90046001600160a01b03166001600160a01b03166316ada5476040518163ffffffff1660e01b815260040160206040518083038186803b158015610cc857600080fd5b505afa158015610cdc573d6000803e3d6000fd5b505050506040513d601f19601f82011682018060405250810190610d0091906127b5565b8263ffffffff1614610d1457610d14612a2f565b8760a0015163ffffffff168163ffffffff1614610d3357610d33612a2f565b87516001600160801b03868116911614610d4f57610d4f612a2f565b876020015163ffffffff168463ffffffff1614610d6e57610d6e612a2f565b876040015163ffffffff168363ffffffff1614610d8d57610d8d612a2f565b5050505050505050565b601054825160208085015160408087015160a0880151606089015160808a015184516000818901528551808203909801885280860195869052635f003b1d60e11b9095526001600160a01b039098169763be00763a97610dfc9790969560440161284e565b606060405180830381600087803b158015610e1657600080fd5b505af1925050508015610e46575060408051601f3d908101601f19168201909252610e43918101906126a4565b60015b610e4e575050565b505050610b01612a2f565b8115610ee957600d5460105460405163a9059cbb60e01b81526001600160a01b0391821660048201526024810185905291169063a9059cbb90604401602060405180830381600087803b158015610eaf57600080fd5b505af1158015610ec3573d6000803e3d6000fd5b505050506040513d601f19601f82011682018060405250810190610ee79190612682565b505b8015610b0157600e5460105460405163a9059cbb60e01b81526001600160a01b0391821660048201526024810184905291169063a9059cbb90604401602060405180830381600087803b158015610f3f57600080fd5b505af1158015610f53573d6000803e3d6000fd5b505050506040513d601f19601f82011682018060405250810190610f779190612682565b505050565b600080610f898588611060565b90506000610f97878a611060565b90506000610fa9600160401b83611089565b90508415611025576000610fbd87876110c6565b90506000610fcd83600f0b611103565b90506000610fdf600f83900b84611089565b9050600061100a8f611001610ff685600f0b6111c3565b600f8b900b9061126e565b600f0b906112a4565b905061101a600f82900b8e6112d7565b975050505050611047565b6110448961103b8d611001600f88900b8661126e565b600f0b906112d7565b93505b505050979650505050505050565b610b013083836112fc565b60008061107583670de0b6b3a7640000612948565b905061108184826113cd565b949350505050565b6000600f82810b9084900b0360016001607f1b031981128015906110b4575060016001607f1b038113155b6110bd57600080fd5b90505b92915050565b6000806110dd6110d584611404565b600f0b611414565b905060006110ea85611436565b90506110fa600f82900b8361126e565b95945050505050565b6000600160401b600f83900b1215806111205750600082600f0b13155b1561114857604051630e59931d60e31b8152600f83900b600482015260240160405180910390fd5b67f999999999999999600f83900b138015906111705750670666666666666666600f83900b12155b1561117e576110c082611444565b670666666666666666600f83900b121561119b576110c0826114eb565b60006111b36111ae600160401b85611089565b6114eb565b6111bc90612a08565b9392505050565b6000806111dd600f84900b68016a09e667f3bcc9086115b5565b9050600061121b6112106112056111f685600f0b61160d565b6753dd02a4f5ee2e469061126e565b600160401b906112a4565b600160401b906115b5565b905060006112298383611640565b9050600083600f0b12156112465761124381600f0b611710565b90505b6000611264611259600160401b846112a4565b6001603f1b9061126e565b9695505050505050565b6000600f83810b9083900b0260401d60016001607f1b031981128015906110b4575060016001607f1b038113156110bd57600080fd5b6000600f83810b9083900b0160016001607f1b031981128015906110b4575060016001607f1b038113156110bd57600080fd5b6000806112ec83670de0b6b3a7640000612948565b9050611081600f85900b8261172b565b600d546040516340c10f1960e01b81526001600160a01b03858116600483015260248201859052909116906340c10f1990604401600060405180830381600087803b15801561134a57600080fd5b505af115801561135e573d6000803e3d6000fd5b5050600e546040516340c10f1960e01b81526001600160a01b0387811660048301526024820186905290911692506340c10f199150604401600060405180830381600087803b1580156113b057600080fd5b505af11580156113c4573d6000803e3d6000fd5b50505050505050565b6000816113d957600080fd5b60006113e58484611793565b905060016001607f1b036001600160801b03821611156110bd57600080fd5b60006110c0826301e185586113cd565b60008082600f0b121561142657600080fd5b6110c0604083600f0b901b6118f5565b60006110c0826127106113cd565b600080611459600f84900b6001603f1b611089565b9050600061146b600f83900b8361126e565b905060006110fa6114e06114d06114a86721d0a04b0e9b94f161100161149a67c2bf5d74c724e53e198961126e565b611001600f8a900b8a61126e565b6114c76726a8f3c1f21b336e6110016787c57e5da70d3c8f198961126e565b600f0b906115b5565b68015d71f5721242c787906112a4565b600f85900b9061126e565b60008061150d6110d5611505611210600f87900b8761126e565b600f0b611a63565b905060006115316707a1e70f720eca436110016801000bf627fa188410198561126e565b905060006115556810aeac93f55267a9a561100168041ed34a25614902368661126e565b9050600061158a68072c7d592d021fb1db61100161157c6808c27b4617f5f800ea8861126e565b611001600f89900b8961126e565b905060006115aa61159f600f85900b846115b5565b600f86900b906112a4565b979650505050505050565b600081600f0b600014156115c857600080fd5b600082600f0b604085600f0b901b816115e3576115e3612a5b565b05905060016001607f1b031981128015906110b4575060016001607f1b038113156110bd57600080fd5b6000600f82900b60016001607f1b0319141561162857600080fd5b600082600f0b1261163957816110c0565b5060000390565b6000806116926114e0611682611677611666600f88900b68010fb844255a12d72e61126e565b68017401c57014c38f1319906112a4565b600f87900b9061126e565b68016a09e667f3bcc908906112a4565b905060006116be6116af6116776748d4c730f051a5fd19856112a4565b67413c831bb169f874906112a4565b905060006112646117056116fa6116ef6116e76116df600f8c900b8c61126e565b600f0b611710565b600f0b611a9d565b600f86900b9061126e565b600f88900b9061126e565b600160401b90611089565b6000600f82900b60016001607f1b0319141561163957600080fd5b60008161173a575060006110c0565b600083600f0b121561174b57600080fd5b600f83900b6001600160801b038316810260401c90608084901c026001600160c01b0381111561177a57600080fd5b60401b811981111561178b57600080fd5b019392505050565b60008161179f57600080fd5b60006001600160c01b0384116117ca5782604085901b816117c2576117c2612a5b565b0490506118e1565b60c084811c64010000000081106117e3576020918201911c5b6201000081106117f5576010918201911c5b6101008110611806576008918201911c5b60108110611816576004918201911c5b60048110611826576002918201911c5b60028110611835576001820191505b60bf820360018603901c6001018260ff0387901b8161185657611856612a5b565b0492506001600160801b0383111561186d57600080fd5b608085901c83026001600160801b038616840260c088901c604089901b82811015611899576001820391505b608084901b929003828110156118b0576001820391505b829003608084901c82146118c6576118c6612a2f565b8881816118d5576118d5612a5b565b04870196505050505050505b6001600160801b038111156110bd57600080fd5b60008161190457506000919050565b816001600160801b821061191d5760809190911c9060401b5b600160401b82106119335760409190911c9060201b5b640100000000821061194a5760209190911c9060101b5b62010000821061195f5760109190911c9060081b5b61010082106119735760089190911c9060041b5b601082106119865760049190911c9060021b5b600882106119925760011b5b60018185816119a3576119a3612a5b565b048201901c905060018185816119bb576119bb612a5b565b048201901c905060018185816119d3576119d3612a5b565b048201901c905060018185816119eb576119eb612a5b565b048201901c90506001818581611a0357611a03612a5b565b048201901c90506001818581611a1b57611a1b612a5b565b048201901c90506001818581611a3357611a33612a5b565b048201901c90506000818581611a4b57611a4b612a5b565b049050808210611a5b57806110fa565b509392505050565b60008082600f0b13611a7457600080fd5b6080611a7f83611af2565b600f0b6fb17217f7d1cf79abc9e3b39803f2f6af02901c9050919050565b6000600160461b82600f0b12611ab257600080fd5b683fffffffffffffffff1982600f0b1215611acf57506000919050565b6110c0608083600f0b700171547652b82fe1777d0ffda0d23a7d1202901d611bcd565b60008082600f0b13611b0357600080fd5b6000600f83900b600160401b8112611b1d576040918201911d5b6401000000008112611b31576020918201911d5b620100008112611b43576010918201911d5b6101008112611b54576008918201911d5b60108112611b64576004918201911d5b60048112611b74576002918201911d5b60028112611b83576001820191505b603f19820160401b600f85900b607f8490031b6001603f1b5b6000811315611bc25790800260ff81901c8281029390930192607f011c9060011d611b9c565b509095945050505050565b6000600160461b82600f0b12611be257600080fd5b683fffffffffffffffff1982600f0b1215611bff57506000919050565b6001607f1b60006001603f1b8416600f0b1315611c2d5770016a09e667f3bcc908b2fb1366ea957d3e0260801c5b60008367400000000000000016600f0b1315611c5a577001306fe0a31b7152de8d5a46305c85edec0260801c5b60008367200000000000000016600f0b1315611c87577001172b83c7d517adcdf7c8c50eb14a791f0260801c5b60008367100000000000000016600f0b1315611cb45770010b5586cf9890f6298b92b71842a983630260801c5b60008367080000000000000016600f0b1315611ce1577001059b0d31585743ae7c548eb68ca417fd0260801c5b60008367040000000000000016600f0b1315611d0e57700102c9a3e778060ee6f7caca4f7a29bde80260801c5b60008367020000000000000016600f0b1315611d3b5770010163da9fb33356d84a66ae336dcdfa3f0260801c5b60008367010000000000000016600f0b1315611d6857700100b1afa5abcbed6129ab13ec11dc95430260801c5b600083668000000000000016600f0b1315611d945770010058c86da1c09ea1ff19d294cf2f679b0260801c5b600083664000000000000016600f0b1315611dc0577001002c605e2e8cec506d21bfc89a23a00f0260801c5b600083662000000000000016600f0b1315611dec57700100162f3904051fa128bca9c55c31e5df0260801c5b600083661000000000000016600f0b1315611e18577001000b175effdc76ba38e31671ca9397250260801c5b600083660800000000000016600f0b1315611e4457700100058ba01fb9f96d6cacd4b180917c3d0260801c5b600083660400000000000016600f0b1315611e705770010002c5cc37da9491d0985c348c68e7b30260801c5b600083660200000000000016600f0b1315611e9c577001000162e525ee054754457d59952920260260801c5b600083660100000000000016600f0b1315611ec85770010000b17255775c040618bf4a4ade83fc0260801c5b6000836580000000000016600f0b1315611ef3577001000058b91b5bc9ae2eed81e9b7d4cfab0260801c5b6000836540000000000016600f0b1315611f1e57700100002c5c89d5ec6ca4d7c8acc017b7c90260801c5b6000836520000000000016600f0b1315611f495770010000162e43f4f831060e02d839a9d16d0260801c5b6000836510000000000016600f0b1315611f7457700100000b1721bcfc99d9f890ea069117630260801c5b6000836508000000000016600f0b1315611f9f5770010000058b90cf1e6d97f9ca14dbcc16280260801c5b6000836504000000000016600f0b1315611fca577001000002c5c863b73f016468f6bac5ca2b0260801c5b6000836502000000000016600f0b1315611ff557700100000162e430e5a18f6119e3c02282a50260801c5b6000836501000000000016600f0b1315612020577001000000b1721835514b86e6d96efd1bfe0260801c5b60008364800000000016600f0b131561204a57700100000058b90c0b48c6be5df846c5b2ef0260801c5b60008364400000000016600f0b13156120745770010000002c5c8601cc6b9e94213c72737a0260801c5b60008364200000000016600f0b131561209e577001000000162e42fff037df38aa2b219f060260801c5b60008364100000000016600f0b13156120c85770010000000b17217fba9c739aa5819f44f90260801c5b60008364080000000016600f0b13156120f2577001000000058b90bfcdee5acd3c1cedc8230260801c5b60008364040000000016600f0b131561211c57700100000002c5c85fe31f35a6a30da1be500260801c5b60008364020000000016600f0b13156121465770010000000162e42ff0999ce3541b9fffcf0260801c5b60008364010000000016600f0b131561217057700100000000b17217f80f4ef5aadda455540260801c5b600083638000000016600f0b13156121995770010000000058b90bfbf8479bd5a81b51ad0260801c5b600083634000000016600f0b13156121c2577001000000002c5c85fdf84bd62ae30a74cc0260801c5b600083632000000016600f0b13156121eb57700100000000162e42fefb2fed257559bdaa0260801c5b600083631000000016600f0b1315612214577001000000000b17217f7d5a7716bba4a9ae0260801c5b600083630800000016600f0b131561223d57700100000000058b90bfbe9ddbac5e109cce0260801c5b600083630400000016600f0b13156122665770010000000002c5c85fdf4b15de6f17eb0d0260801c5b600083630200000016600f0b131561228f577001000000000162e42fefa494f1478fde050260801c5b600083630100000016600f0b13156122b85770010000000000b17217f7d20cf927c8e94c0260801c5b6000836280000016600f0b13156122e0577001000000000058b90bfbe8f71cb4e4b33d0260801c5b6000836240000016600f0b131561230857700100000000002c5c85fdf477b662b269450260801c5b6000836220000016600f0b13156123305770010000000000162e42fefa3ae53369388c0260801c5b6000836210000016600f0b131561235857700100000000000b17217f7d1d351a389d400260801c5b6000836208000016600f0b13156123805770010000000000058b90bfbe8e8b2d3d4ede0260801c5b6000836204000016600f0b13156123a8577001000000000002c5c85fdf4741bea6e77e0260801c5b6000836202000016600f0b13156123d057700100000000000162e42fefa39fe95583c20260801c5b6000836201000016600f0b13156123f8577001000000000000b17217f7d1cfb72b45e10260801c5b60008361800016600f0b131561241f57700100000000000058b90bfbe8e7cc35c3f00260801c5b60008361400016600f0b13156124465770010000000000002c5c85fdf473e242ea380260801c5b60008361200016600f0b131561246d577001000000000000162e42fefa39f02b772c0260801c5b60008361100016600f0b13156124945770010000000000000b17217f7d1cf7d83c1a0260801c5b60008361080016600f0b13156124bb577001000000000000058b90bfbe8e7bdcbe2e0260801c5b60008361040016600f0b13156124e257700100000000000002c5c85fdf473dea871f0260801c5b60008361020016600f0b13156125095770010000000000000162e42fefa39ef44d910260801c5b60008361010016600f0b131561253057700100000000000000b17217f7d1cf79e9490260801c5b600083608016600f0b13156125565770010000000000000058b90bfbe8e7bce5440260801c5b600083604016600f0b131561257c577001000000000000002c5c85fdf473de6eca0260801c5b600083602016600f0b13156125a257700100000000000000162e42fefa39ef366f0260801c5b600083601016600f0b13156125c8577001000000000000000b17217f7d1cf79afa0260801c5b600083600816600f0b13156125ee57700100000000000000058b90bfbe8e7bcd6d0260801c5b600083600416600f0b13156126145770010000000000000002c5c85fdf473de6b20260801c5b600083600216600f0b131561263a577001000000000000000162e42fefa39ef3580260801c5b600083600116600f0b13156126605770010000000000000000b17217f7d1cf79ab0260801c5b600f83810b60401d603f03900b1c60016001607f1b038111156110c057600080fd5b60006020828403121561269457600080fd5b815180151581146110bd57600080fd5b6000806000606084860312156126b957600080fd5b8351925060208401519150604084015190509250925092565b60008060008060008060c087890312156126eb57600080fd5b86356126f681612a71565b9550602087013561270681612a89565b9450604087013561271681612a89565b9350606087013561272681612a89565b9598949750929560808101359460a0909101359350915050565b600080600080600060a0868803121561275857600080fd5b855161276381612a71565b602087015190955061277481612a89565b604087015190945061278581612a89565b606087015190935061279681612a89565b60808701519092506127a781612a89565b809150509295509295909350565b6000602082840312156127c757600080fd5b5051919050565b600080600080606085870312156127e457600080fd5b8435935060208501359250604085013567ffffffffffffffff8082111561280a57600080fd5b818701915087601f83011261281e57600080fd5b81358181111561282d57600080fd5b88602082850101111561283f57600080fd5b95989497505060200194505050565b6001600160801b03881681526000602063ffffffff808a168285015280891660408501528088166060850152508560808401528460a084015260e060c084015283518060e085015260005b818110156128b65785810183015185820161010001528201612899565b818111156128c957600061010083870101525b50601f01601f191692909201610100019998505050505050505050565b60006001600160801b0380831681851680830382111561290857612908612a45565b01949350505050565b6000821982111561292457612924612a45565b500190565b600063ffffffff80831681851680830382111561290857612908612a45565b60008261295757612957612a5b565b500490565b600081600019048311821515161561297657612976612a45565b500290565b60008282101561298d5761298d612a45565b500390565b600063ffffffff838116908316818110156129af576129af612a45565b039392505050565b60006001600160801b03808416806129d1576129d1612a5b565b92169190910692915050565b6000826129ec576129ec612a5b565b500690565b600063ffffffff808416806129d1576129d1612a5b565b600081600f0b60016001607f1b0319811415612a2657612a26612a45565b60000392915050565b634e487b7160e01b600052600160045260246000fd5b634e487b7160e01b600052601160045260246000fd5b634e487b7160e01b600052601260045260246000fd5b6001600160801b0381168114612a8657600080fd5b50565b63ffffffff81168114612a8657600080fdfea2646970667358221220fc70317ed32da1cb694fd49e8146f152728054a7bc70034355593a006e14199364736f6c63430008060033",
    "linkReferences": {}
  },
  "methodIdentifiers": {
    "createCallback(uint256,uint256,bytes)": "c171d27e",
    "create_new_pool_should_not_revert(uint128,uint32,uint32,uint32,uint256,uint256)": "07bf76da",
    "create_new_pool_with_wrong_gamma_should_revert(uint128,uint32,uint32,uint32,uint256,uint256)": "45904478"
  },
  "id": 4
}