{
  "abi": [
    {
      "inputs": [
        {
          "internalType": "uint256",
          "name": "id",
          "type": "uint256"
        }
      ],
      "name": "check_created_pool_timestamp_greater_zero",
      "outputs": [],
      "stateMutability": "nonpayable",
      "type": "function"
    },
    {
      "inputs": [
        {
          "internalType": "uint256",
          "name": "id",
          "type": "uint256"
        }
      ],
      "name": "check_liquidity_of_zero_address",
      "outputs": [],
      "stateMutability": "nonpayable",
      "type": "function"
    },
    {
      "inputs": [
        {
          "internalType": "uint256",
          "name": "id",
          "type": "uint256"
        }
      ],
      "name": "check_margin_of_zero_address",
      "outputs": [],
      "stateMutability": "nonpayable",
      "type": "function"
    },
    {
      "inputs": [
        {
          "internalType": "uint256",
          "name": "id",
          "type": "uint256"
        }
      ],
      "name": "check_maximuim_gamma",
      "outputs": [],
      "stateMutability": "nonpayable",
      "type": "function"
    },
    {
      "inputs": [],
      "name": "check_precision_and_liquidity",
      "outputs": [],
      "stateMutability": "nonpayable",
      "type": "function"
    },
    {
      "inputs": [],
      "name": "check_proper_deployment_of_engine",
      "outputs": [],
      "stateMutability": "nonpayable",
      "type": "function"
    },
    {
      "inputs": [
        {
          "internalType": "uint256",
          "name": "id",
          "type": "uint256"
        }
      ],
      "name": "check_update_last_timestamp",
      "outputs": [],
      "stateMutability": "nonpayable",
      "type": "function"
    }
  ],
  "bytecode": {
    "object": "0x6080604052600080546001600160a01b0319908116731dc4c1cefef38a777b15aa20260a54e584b16c48908117909255600180548216731d7022f5b17d2f8b695918fb48fa1089c9f8540190811790915560028054831673871dd7c2b4b25e1aa18728e9d5f2af4c4e431f5c179055600380548316730b1ba0af832d7c05fd64161e0db78e85978e8082179055600480548316736a4a62e5a7ed13c361b176a5f62c2ee620ac0df89081179091556005805484167348bacb9266a570d521063ef5dd96e61686dbe788908117909155600680548516736dfff22588be9b3ef8cf0ad6dc9b84796f9fb45f1790556007805485167334d402f14d58e001d8efbe6585051bf9706aa06417905560088054851673cfc18cec799fbd1793b5c43e773c98d4d61cc2db1790556009805485167325b8fe1de9daf8ba351890744ff28cf7dfa8f5e3179055600a8054851673f22469f31527adc53284441bae1665a7b9214dba179055600b8054851673cdb594a32b1cc3479d8746279712c39d18a07fc0179055600c805485167307f96aa816c1f244cbc6ef114bb2b023ba54a2eb179055600d80548516909517909455600e80548416909217909155600f8054831690911790556010805490911690911790553480156101db57600080fd5b50610a86806101eb6000396000f3fe608060405234801561001057600080fd5b506004361061007d5760003560e01c8063821d8d061161005b578063821d8d06146100b2578063a161d37b146100c5578063a5a310a3146100cd578063bbe0e3f7146100e057600080fd5b806345be22311461008257806356484bcd146100975780636a927d391461009f575b600080fd5b6100956100903660046109b5565b6100f3565b005b6100956101ac565b6100956100ad3660046109b5565b6102f4565b6100956100c03660046109b5565b61039a565b610095610445565b6100956100db3660046109b5565b61056a565b6100956100ee3660046109b5565b61060d565b601054604051633882046560e01b81526000600482018190529182916001600160a01b0390911690633882046590602401604080518083038186803b15801561013b57600080fd5b505afa15801561014f573d6000803e3d6000fd5b505050506040513d601f19601f82011682018060405250810190610173919061091d565b91509150816001600160801b031660001461019057610190610a24565b6001600160801b038116156101a7576101a7610a24565b505050565b60105460408051633020597560e21b815290516000926001600160a01b03169163c08165d4916004808301926020929190829003018186803b1580156101f157600080fd5b505afa158015610205573d6000803e3d6000fd5b505050506040513d601f19601f8201168201806040525081019061022991906108ed565b90506000601060009054906101000a90046001600160a01b03166001600160a01b03166322be3de16040518163ffffffff1660e01b815260040160206040518083038186803b15801561027b57600080fd5b505afa15801561028f573d6000803e3d6000fd5b505050506040513d601f19601f820116820180604052508101906102b391906108ed565b600e549091506001600160a01b038083169116146102d3576102d3610a24565b600d546001600160a01b038381169116146102f0576102f0610a24565b5050565b60006102ff82610876565b6010546040516311e2dca960e11b8152600481018390529192506000916001600160a01b03909116906323c5b9529060240160a06040518083038186803b15801561034957600080fd5b505afa15801561035d573d6000803e3d6000fd5b505050506040513d601f19601f820116820180604052508101906103819190610950565b50935050505063ffffffff81166101a7576101a7610a24565b60006103a582610876565b6010546040516311e2dca960e11b8152600481018390529192506000916001600160a01b03909116906323c5b9529060240160a06040518083038186803b1580156103ef57600080fd5b505afa158015610403573d6000803e3d6000fd5b505050506040513d601f19601f820116820180604052508101906104279190610950565b9450505050506127108163ffffffff1611156101a7576101a7610a24565b6010546040805163155ebd6d60e31b815290516000926001600160a01b03169163aaf5eb68916004808301926020929190829003018186803b15801561048a57600080fd5b505afa15801561049e573d6000803e3d6000fd5b505050506040513d601f19601f820116820180604052508101906104c291906109ce565b905080670de0b6b3a7640000146104db576104db610a24565b601054604080516321b77d6360e01b815290516000926001600160a01b0316916321b77d63916004808301926020929190829003018186803b15801561052057600080fd5b505afa158015610534573d6000803e3d6000fd5b505050506040513d601f19601f8201168201806040525081019061055891906109ce565b9050600081116102f0576102f0610a24565b600061057582610876565b601054604051636b35bb6b60e01b8152600060048201819052602482018490529293506001600160a01b0390911690636b35bb6b9060440160206040518083038186803b1580156105c557600080fd5b505afa1580156105d9573d6000803e3d6000fd5b505050506040513d601f19601f820116820180604052508101906105fd91906109ce565b905080156101a7576101a7610a24565b600061061882610876565b6010546040516308fcc84360e11b8152600481018390529192506001600160a01b0316906311f9908690602401602060405180830381600087803b15801561065f57600080fd5b505af192505050801561068f575060408051601f3d908101601f1916820190925261068c918101906109e7565b60015b61069b576102f0610a24565b506010546040516311e2dca960e11b81526004810183905260009182916001600160a01b03909116906323c5b9529060240160a06040518083038186803b1580156106e557600080fd5b505afa1580156106f9573d6000803e3d6000fd5b505050506040513d601f19601f8201168201806040525081019061071d9190610950565b50935093505050601060009054906101000a90046001600160a01b03166001600160a01b03166316ada5476040518163ffffffff1660e01b815260040160206040518083038186803b15801561077257600080fd5b505afa158015610786573d6000803e3d6000fd5b505050506040513d601f19601f820116820180604052508101906107aa91906109ce565b8263ffffffff16116107d6578163ffffffff168163ffffffff16146107d1576107d1610a24565b610870565b601060009054906101000a90046001600160a01b03166001600160a01b03166316ada5476040518163ffffffff1660e01b815260040160206040518083038186803b15801561082457600080fd5b505afa158015610838573d6000803e3d6000fd5b505050506040513d601f19601f8201168201806040525081019061085c91906109ce565b8163ffffffff161461087057610870610a24565b50505050565b60125460009061088557600080fd5b6012546000906108959084610a02565b9050601281815481106108aa576108aa610a3a565b9060005260206000200154915050919050565b80516001600160801b03811681146108d457600080fd5b919050565b805163ffffffff811681146108d457600080fd5b6000602082840312156108ff57600080fd5b81516001600160a01b038116811461091657600080fd5b9392505050565b6000806040838503121561093057600080fd5b610939836108bd565b9150610947602084016108bd565b90509250929050565b600080600080600060a0868803121561096857600080fd5b610971866108bd565b945061097f602087016108d9565b935061098d604087016108d9565b925061099b606087016108d9565b91506109a9608087016108d9565b90509295509295909350565b6000602082840312156109c757600080fd5b5035919050565b6000602082840312156109e057600080fd5b5051919050565b6000602082840312156109f957600080fd5b610916826108d9565b600082610a1f57634e487b7160e01b600052601260045260246000fd5b500690565b634e487b7160e01b600052600160045260246000fd5b634e487b7160e01b600052603260045260246000fdfea264697066735822122056fd3ebb61dfb230c8c26f2e911c2172dc136dcc47b677747ca45005c620fe8f64736f6c63430008060033",
    "linkReferences": {}
  },
  "methodIdentifiers": {
    "check_created_pool_timestamp_greater_zero(uint256)": "6a927d39",
    "check_liquidity_of_zero_address(uint256)": "a5a310a3",
    "check_margin_of_zero_address(uint256)": "45be2231",
    "check_maximuim_gamma(uint256)": "821d8d06",
    "check_precision_and_liquidity()": "a161d37b",
    "check_proper_deployment_of_engine()": "56484bcd",
    "check_update_last_timestamp(uint256)": "bbe0e3f7"
  },
  "id": 6
}