{
  "abi": [
    {
      "anonymous": false,
      "inputs": [
        {
          "indexed": false,
          "internalType": "uint128",
          "name": "riskyBefore",
          "type": "uint128"
        },
        {
          "indexed": false,
          "internalType": "uint128",
          "name": "stableBefore",
          "type": "uint128"
        },
        {
          "indexed": false,
          "internalType": "uint128",
          "name": "riskyAfter",
          "type": "uint128"
        },
        {
          "indexed": false,
          "internalType": "uint128",
          "name": "stableAfter",
          "type": "uint128"
        }
      ],
      "name": "DepositManager",
      "type": "event"
    },
    {
      "anonymous": false,
      "inputs": [
        {
          "indexed": false,
          "internalType": "string",
          "name": "reason",
          "type": "string"
        }
      ],
      "name": "Failed",
      "type": "event"
    },
    {
      "anonymous": false,
      "inputs": [
        {
          "indexed": false,
          "internalType": "uint128",
          "name": "riskyBefore",
          "type": "uint128"
        },
        {
          "indexed": false,
          "internalType": "uint128",
          "name": "stableBefore",
          "type": "uint128"
        },
        {
          "indexed": false,
          "internalType": "uint256",
          "name": "delRisky",
          "type": "uint256"
        },
        {
          "indexed": false,
          "internalType": "uint256",
          "name": "delStable",
          "type": "uint256"
        }
      ],
      "name": "ManagerAllocateMarginBalance",
      "type": "event"
    },
    {
      "anonymous": false,
      "inputs": [
        {
          "indexed": false,
          "internalType": "string",
          "name": "functionName",
          "type": "string"
        },
        {
          "indexed": false,
          "internalType": "uint256",
          "name": "liquidity",
          "type": "uint256"
        },
        {
          "indexed": false,
          "internalType": "uint256",
          "name": "reserveRisky",
          "type": "uint256"
        },
        {
          "indexed": false,
          "internalType": "uint256",
          "name": "reserveStable",
          "type": "uint256"
        }
      ],
      "name": "ManagerReserveStatus",
      "type": "event"
    },
    {
      "anonymous": false,
      "inputs": [
        {
          "indexed": false,
          "internalType": "uint256",
          "name": "delRisky",
          "type": "uint256"
        },
        {
          "indexed": false,
          "internalType": "uint256",
          "name": "delStable",
          "type": "uint256"
        }
      ],
      "name": "ManagerRevertAllocateMarginBalance",
      "type": "event"
    },
    {
      "anonymous": false,
      "inputs": [],
      "name": "Time",
      "type": "event"
    },
    {
      "inputs": [
        {
          "internalType": "address",
          "name": "recipient",
          "type": "address"
        },
        {
          "internalType": "uint256",
          "name": "delRisky",
          "type": "uint256"
        },
        {
          "internalType": "uint256",
          "name": "delStable",
          "type": "uint256"
        }
      ],
      "name": "check_deposit_manager_safe",
      "outputs": [],
      "stateMutability": "nonpayable",
      "type": "function"
    },
    {
      "inputs": [],
      "name": "check_manager",
      "outputs": [],
      "stateMutability": "nonpayable",
      "type": "function"
    },
    {
      "inputs": [
        {
          "internalType": "address",
          "name": "recipient",
          "type": "address"
        }
      ],
      "name": "check_manager_deposit_zero_zero",
      "outputs": [],
      "stateMutability": "nonpayable",
      "type": "function"
    },
    {
      "inputs": [
        {
          "internalType": "uint256",
          "name": "randomId",
          "type": "uint256"
        },
        {
          "internalType": "uint256",
          "name": "delRisky",
          "type": "uint256"
        },
        {
          "internalType": "uint256",
          "name": "delStable",
          "type": "uint256"
        }
      ],
      "name": "manager_allocate_with_safe_range",
      "outputs": [],
      "stateMutability": "nonpayable",
      "type": "function"
    },
    {
      "inputs": [
        {
          "internalType": "uint256",
          "name": "id",
          "type": "uint256"
        },
        {
          "internalType": "uint256",
          "name": "delLiquidity",
          "type": "uint256"
        }
      ],
      "name": "manager_remove_with_safe_range",
      "outputs": [
        {
          "internalType": "uint256",
          "name": "",
          "type": "uint256"
        },
        {
          "internalType": "uint256",
          "name": "",
          "type": "uint256"
        }
      ],
      "stateMutability": "nonpayable",
      "type": "function"
    },
    {
      "inputs": [
        {
          "internalType": "address",
          "name": "operator",
          "type": "address"
        },
        {
          "internalType": "address",
          "name": "from",
          "type": "address"
        },
        {
          "internalType": "uint256",
          "name": "id",
          "type": "uint256"
        },
        {
          "internalType": "uint256",
          "name": "value",
          "type": "uint256"
        },
        {
          "internalType": "bytes",
          "name": "data",
          "type": "bytes"
        }
      ],
      "name": "onERC1155Received",
      "outputs": [
        {
          "internalType": "bytes4",
          "name": "",
          "type": "bytes4"
        }
      ],
      "stateMutability": "nonpayable",
      "type": "function"
    }
  ],
  "bytecode": {
    "object": "0x6080604052600080546001600160a01b0319908116731dc4c1cefef38a777b15aa20260a54e584b16c48908117909255600180548216731d7022f5b17d2f8b695918fb48fa1089c9f8540190811790915560028054831673871dd7c2b4b25e1aa18728e9d5f2af4c4e431f5c179055600380548316730b1ba0af832d7c05fd64161e0db78e85978e8082179055600480548316736a4a62e5a7ed13c361b176a5f62c2ee620ac0df89081179091556005805484167348bacb9266a570d521063ef5dd96e61686dbe788908117909155600680548516736dfff22588be9b3ef8cf0ad6dc9b84796f9fb45f1790556007805485167334d402f14d58e001d8efbe6585051bf9706aa06417905560088054851673cfc18cec799fbd1793b5c43e773c98d4d61cc2db1790556009805485167325b8fe1de9daf8ba351890744ff28cf7dfa8f5e3179055600a8054851673f22469f31527adc53284441bae1665a7b9214dba179055600b8054851673cdb594a32b1cc3479d8746279712c39d18a07fc0179055600c805485167307f96aa816c1f244cbc6ef114bb2b023ba54a2eb179055600d80548516909517909455600e80548416909217909155600f8054831690911790556010805490911690911790553480156101db57600080fd5b5061235c806101eb6000396000f3fe608060405234801561001057600080fd5b50600436106100625760003560e01c80635e12c8101461006757806363c832a51461007c578063f06366021461008f578063f23a6e61146100bc578063f3cb14fe146100f5578063fb2cb8f314610108575b600080fd5b61007a610075366004611d64565b610110565b005b61007a61008a3660046120b4565b61011f565b6100a261009d36600461206e565b61015f565b604080519283526020830191909152015b60405180910390f35b6100dc6100ca366004611d9e565b63f23a6e6160e01b9695505050505050565b6040516001600160e01b031990911681526020016100b3565b61007a610103366004611e48565b61018e565b61007a6101be565b61011c816000806102ee565b50565b600061012a84610369565b604080516080810182528581526020810185905290810182905260006060820152909150610157816103b0565b505050505050565b60008061016b83610540565b9250600061017885610369565b9050610184818561057a565b5050509250929050565b61019782610540565b91506101a281610540565b90506101ae82826109dc565b6101b9838383610a01565b505050565b600c54600f54604080516312a9293f60e21b815290516001600160a01b039384169390921691634aa4a4fc91600480820192602092909190829003018186803b15801561020a57600080fd5b505afa15801561021e573d6000803e3d6000fd5b505050506040513d601f19601f820116820180604052508101906102429190611d81565b6001600160a01b031614610258576102586122a3565b600f546040805163106d023160e01b815290516000926001600160a01b03169163106d0231916004808301926020929190829003018186803b15801561029d57600080fd5b505afa1580156102b1573d6000803e3d6000fd5b505050506040513d601f19601f820116820180604052508101906102d59190611d81565b6001600160a01b031614156102ec576102ec6122a3565b565b600f54600d54600e5460405162ae511b60e21b81526001600160a01b03938416936302b9446c9361032d938993918316921690889088906004016120fc565b600060405180830381600087803b15801561034757600080fd5b505af1925050508015610358575060015b61036157505050565b6101b96122a3565b60125460009061037857600080fd5b601254600090610388908461228f565b90506012818154811061039d5761039d6122e5565b9060005260206000200154915050919050565b60006103c482600001518360200151610d61565b600f54825160208401516103e2926001600160a01b03169190610d6c565b60105460408381015190516311e2dca960e11b815260048101919091526000916001600160a01b0316906323c5b9529060240160a06040518083038186803b15801561042d57600080fd5b505afa158015610441573d6000803e3d6000fd5b505050506040513d601f19601f820116820180604052508101906104659190611ff0565b5050925050508063ffffffff16601060009054906101000a90046001600160a01b03166001600160a01b03166316ada5476040518163ffffffff1660e01b815260040160206040518083038186803b1580156104c057600080fd5b505afa1580156104d4573d6000803e3d6000fd5b505050506040513d601f19601f820116820180604052508101906104f89190612055565b1115610537576040517ff8e157ea1e8d546ecd1aa0407693e1d9c944f82f1c221c76fd76db92a809415a90600090a161053083610e7b565b9392505050565b61053083610f6e565b6000610555600167ffffffffffffffff612242565b6105699067ffffffffffffffff168361228f565b6105749060016121b8565b92915050565b6000806105888460016115b2565b6040805160e0810182526013546001600160801b038082168352600160801b91829004811660208401526014549081169383019390935290910463ffffffff166060820152601554608082015260165460a082015260175460c082015260009081906105f4908661195c565b600f54604051627eeac760e11b81529294509092506000916001600160a01b039091169062fdd58e9061062d9030908b90600401612130565b60206040518083038186803b15801561064557600080fd5b505afa158015610659573d6000803e3d6000fd5b505050506040513d601f19601f8201168201806040525081019061067d9190612055565b905085158061068d575060195486115b806106a257506013546001600160801b031683115b806106be5750601354600160801b90046001600160801b031682115b806106c857508581105b156106e3576106d787876119bb565b945094505050506109d5565b600f54604051632f53c54760e11b8152600481018990526024810188905260006044820181905260648201526001600160a01b0390911690635ea78a8e906084016040805180830381600087803b15801561073d57600080fd5b505af192505050801561076d575060408051601f3d908101601f1916820190925261076a91810190612090565b60015b61077e576107796122a3565b6109cd565b6107898960006115b2565b601054604051636b35bb6b60e01b81526000916001600160a01b031690636b35bb6b906107bc9030908e90600401612130565b60206040518083038186803b1580156107d457600080fd5b505afa1580156107e8573d6000803e3d6000fd5b505050506040513d601f19601f8201168201806040525081019061080c9190612055565b60195490915061081d908a9061222b565b6020541461082d5761082d6122a3565b6018546108449084906001600160801b03166121b8565b601f546001600160801b03161461085d5761085d6122a3565b60185461087b908390600160801b90046001600160801b03166121b8565b601f54600160801b90046001600160801b03161461089b5761089b6122a3565b6010546040516311e2dca960e11b8152600481018c90526000916001600160a01b0316906323c5b9529060240160a06040518083038186803b1580156108e057600080fd5b505afa1580156108f4573d6000803e3d6000fd5b505050506040513d601f19601f820116820180604052508101906109189190611ff0565b50601054604080516316ada54760e01b815290519296506001600160a01b0390911694506316ada54793506004808201935060209291829003018186803b15801561096257600080fd5b505afa158015610976573d6000803e3d6000fd5b505050506040513d601f19601f8201168201806040525081019061099a9190612055565b8163ffffffff16146109ae576109ae6122a3565b6109bd6013601a86868e611b76565b5091965094506109d59350505050565b610184611c14565b9250929050565b6109e68282611c6e565b600f546109fd906001600160a01b03168383610d6c565b5050565b600f546010546040516333c456e360e01b81526001600160a01b0386811660048301529182166024820152600092839216906333c456e390604401604080518083038186803b158015610a5357600080fd5b505afa158015610a67573d6000803e3d6000fd5b505050506040513d601f19601f82011682018060405250810190610a8b9190611f4c565b600f54600d54600e5460405162ae511b60e21b81529496509294506001600160a01b03918216936302b9446c93610ad0938b938116929116908a908a906004016120fc565b600060405180830381600087803b158015610aea57600080fd5b505af1925050508015610afb575060015b610c1f57600d54600e54604051600092610b2d9289926001600160a01b039283169290911690899089906024016120fc565b60408051601f198184030181529181526020820180516001600160e01b031662ae511b60e21b179052600f54905191925060009182916001600160a01b031690610b789085906120e0565b6000604051808303816000865af19150503d8060008114610bb5576040519150601f19603f3d011682016040523d82523d6000602084013e610bba565b606091505b5091509150600081806020019051810190610bd59190611e9f565b90507fc65844e8ee2558ed559edaad0fdb8d4149b19d5bb4d863bc498bed24f6b2df5181604051610c069190612185565b60405180910390a1610c166122a3565b50505050610d5a565b600f546010546040516333c456e360e01b81526001600160a01b0388811660048301529182166024820152600092839216906333c456e390604401604080518083038186803b158015610c7157600080fd5b505afa158015610c85573d6000803e3d6000fd5b505050506040513d601f19601f82011682018060405250810190610ca99190611f4c565b604080516001600160801b0388811682528781166020830152848116828401528316606082015290519294509092507ff6213e7ff9ee2604d24f584402653a5cfa1baee6058b1167d89741574640b60a919081900360800190a1610d16866001600160801b0386166121b8565b826001600160801b031614610d2d57610d2d6122a3565b610d40856001600160801b0385166121b8565b816001600160801b031614610d5757610d576122a3565b50505b5050505050565b6109fd308383611c75565b600d5460405163095ea7b360e01b81526001600160a01b039091169063095ea7b390610d9e9086908690600401612130565b602060405180830381600087803b158015610db857600080fd5b505af1158015610dcc573d6000803e3d6000fd5b505050506040513d601f19601f82011682018060405250810190610df09190611e7d565b50600e5460405163095ea7b360e01b81526001600160a01b039091169063095ea7b390610e239086908590600401612130565b602060405180830381600087803b158015610e3d57600080fd5b505af1158015610e51573d6000803e3d6000fd5b505050506040513d601f19601f82011682018060405250810190610e759190611e7d565b50505050565b805160208083015160408051938452918301526000917fd286ed91c98af45efac23aa289cf2fd119d9b1d6ac68e666b657fc769f464b20910160405180910390a1600f54604080840151600d54600e54865160208801519451632a80b52b60e21b81526001600160a01b039687169663aa02d4ac96610f0a969582169490911692916000908190600401612149565b602060405180830381600087803b158015610f2457600080fd5b505af1925050508015610f54575060408051601f3d908101601f19168201909252610f5191810190612055565b60015b610f6057506000919050565b50610f696122a3565b919050565b601054604051633882046560e01b8152306004820152600091829182916001600160a01b031690633882046590602401604080518083038186803b158015610fb557600080fd5b505afa158015610fc9573d6000803e3d6000fd5b505050506040513d601f19601f82011682018060405250810190610fed9190611f4c565b9150915083606001518015611021575083516001600160801b038316108061102157508360200151816001600160801b0316105b156110375761102f84610e7b565b949350505050565b611046846040015160016115b2565b600f546040808601519051627eeac760e11b81526000926001600160a01b03169162fdd58e9161107a913091600401612130565b60206040518083038186803b15801561109257600080fd5b505afa1580156110a6573d6000803e3d6000fd5b505050506040513d601f19601f820116820180604052508101906110ca9190612055565b601354601454875192935060009283926001600160801b03908116926110f2929116906121e4565b6110fc91906121d0565b60135460145460208a01519293506000926001600160801b03600160801b90930483169261112b9216906121e4565b61113591906121d0565b90508082106111445780611146565b815b92506000831161115557600080fd5b50508551602080880151604080516001600160801b03898116825288169381019390935282810193909352606082015290517fe5ef91468cadce3b2a7e6b2ded0954cc5f0ef5a89cd267901ef6f119af84aad79181900360800190a1600f54604080880151600d54600e548a5160208c01519451632a80b52b60e21b81526001600160a01b039687169663aa02d4ac966111ff969582169490911692916000908190600401612149565b602060405180830381600087803b15801561121957600080fd5b505af1925050508015611249575060408051601f3d908101601f1916820190925261124691810190612055565b60015b61125a576112556122a3565b6115a1565b611269876040015160006115b2565b601060009054906101000a90046001600160a01b03166001600160a01b03166316ada5476040518163ffffffff1660e01b815260040160206040518083038186803b1580156112b757600080fd5b505afa1580156112cb573d6000803e3d6000fd5b505050506040513d601f19601f820116820180604052508101906112ef9190612055565b601b54600160801b900463ffffffff161461130c5761130c6122a3565b8651601354601a5461132a916001600160801b039081169116612203565b6001600160801b031614611340576113406122a3565b6020870151601354601a5461136d916001600160801b03600160801b918290048116929190910416612203565b6001600160801b031614611383576113836122a3565b601454601b5482916113a1916001600160801b039182169116612203565b6001600160801b0316146113b7576113b76122a3565b8082146113c6576113c66122a3565b601054604051633882046560e01b815230600482015260009182916001600160a01b0390911690633882046590602401604080518083038186803b15801561140d57600080fd5b505afa158015611421573d6000803e3d6000fd5b505050506040513d601f19601f820116820180604052508101906114459190611f4c565b915091508860600151156114b3578851611468906001600160801b03891661222b565b826001600160801b03161461147f5761147f6122a3565b6020890151611497906001600160801b03881661222b565b816001600160801b0316146114ae576114ae6122a3565b6114f5565b866001600160801b0316826001600160801b0316146114d4576114d46122a3565b856001600160801b0316816001600160801b0316146114f5576114f56122a3565b600f546040808b01519051627eeac760e11b81526000926001600160a01b03169162fdd58e91611529913091600401612130565b60206040518083038186803b15801561154157600080fd5b505afa158015611555573d6000803e3d6000fd5b505050506040513d601f19601f820116820180604052508101906115799190612055565b905083611586878361222b565b14611593576115936122a3565b509198975050505050505050565b6115a9611c14565b50505050919050565b600081156115c2575060136115c6565b50601a5b601054604051622efc7960e21b8152600481018590526000918291829182918291829182916001600160a01b03169062bbf1e49060240160e06040518083038186803b15801561161557600080fd5b505afa158015611629573d6000803e3d6000fd5b505050506040513d601f19601f8201168201806040525081019061164d9190611f7f565b96509650965096509650965096506040518060e00160405280886001600160801b03168152602001876001600160801b03168152602001866001600160801b031681526020018563ffffffff168152602001848152602001838152602001828152508860000160008201518160000160006101000a8154816001600160801b0302191690836001600160801b0316021790555060208201518160000160106101000a8154816001600160801b0302191690836001600160801b0316021790555060408201518160010160006101000a8154816001600160801b0302191690836001600160801b0316021790555060608201518160010160106101000a81548163ffffffff021916908363ffffffff1602179055506080820151816002015560a0820151816003015560c08201518160040155905050600080601060009054906101000a90046001600160a01b03166001600160a01b03166338820465306040518263ffffffff1660e01b81526004016117d591906001600160a01b0391909116815260200190565b604080518083038186803b1580156117ec57600080fd5b505afa158015611800573d6000803e3d6000fd5b505050506040513d601f19601f820116820180604052508101906118249190611f4c565b915091506040518060400160405280836001600160801b03168152602001826001600160801b03168152508a60050160008201518160000160006101000a8154816001600160801b0302191690836001600160801b0316021790555060208201518160000160106101000a8154816001600160801b0302191690836001600160801b031602179055509050506000601060009054906101000a90046001600160a01b03166001600160a01b0316636b35bb6b308f6040518363ffffffff1660e01b81526004016118f5929190612130565b60206040518083038186803b15801561190d57600080fd5b505afa158015611921573d6000803e3d6000fd5b505050506040513d601f19601f820116820180604052508101906119459190612055565b6006909b019a909a55505050505050505050505050565b6040820151825160009182916001600160801b039182169182916119819116866121e4565b61198b91906121d0565b92508085602001516001600160801b0316856119a791906121e4565b6119b191906121d0565b9150509250929050565b601054604051636b35bb6b60e01b8152600091829182916001600160a01b031690636b35bb6b906119f29030908990600401612130565b60206040518083038186803b158015611a0a57600080fd5b505afa158015611a1e573d6000803e3d6000fd5b505050506040513d601f19601f82011682018060405250810190611a429190612055565b600f54604051632f53c54760e11b8152600481018890526024810187905260006044820181905260648201529192506001600160a01b031690635ea78a8e906084016040805180830381600087803b158015611a9d57600080fd5b505af1925050508015611acd575060408051601f3d908101601f19168201909252611aca91810190612090565b60015b611b6e57601054604051636b35bb6b60e01b81526001600160a01b0390911690636b35bb6b90611b039030908990600401612130565b60206040518083038186803b158015611b1b57600080fd5b505afa158015611b2f573d6000803e3d6000fd5b505050506040513d601f19601f82011682018060405250810190611b539190612055565b8114611b6157611b616122a3565b60008092509250506109d5565b6101846122a3565b8454611b8c9084906001600160801b031661222b565b84546001600160801b031614611ba457611ba46122a3565b8454611bc1908390600160801b90046001600160801b031661222b565b8454600160801b90046001600160801b031614611be057611be06122a3565b6001850154611bf99082906001600160801b031661222b565b60018501546001600160801b031614610d5a57610d5a6122a3565b60006013819055601480546001600160a01b031990811690915560158290556016829055601782905560188290556019829055601a829055601b80549091169055601c819055601d819055601e819055601f819055602055565b6109fd3383835b600d546040516340c10f1960e01b81526001600160a01b03909116906340c10f1990611ca79086908690600401612130565b600060405180830381600087803b158015611cc157600080fd5b505af1158015611cd5573d6000803e3d6000fd5b5050600e546040516340c10f1960e01b81526001600160a01b0390911692506340c10f199150611d0b9086908590600401612130565b600060405180830381600087803b158015611d2557600080fd5b505af1158015610d57573d6000803e3d6000fd5b80516001600160801b0381168114610f6957600080fd5b805163ffffffff81168114610f6957600080fd5b600060208284031215611d7657600080fd5b813561053081612311565b600060208284031215611d9357600080fd5b815161053081612311565b60008060008060008060a08789031215611db757600080fd5b8635611dc281612311565b95506020870135611dd281612311565b94506040870135935060608701359250608087013567ffffffffffffffff80821115611dfd57600080fd5b818901915089601f830112611e1157600080fd5b813581811115611e2057600080fd5b8a6020828501011115611e3257600080fd5b6020830194508093505050509295509295509295565b600080600060608486031215611e5d57600080fd5b8335611e6881612311565b95602085013595506040909401359392505050565b600060208284031215611e8f57600080fd5b8151801515811461053057600080fd5b600060208284031215611eb157600080fd5b815167ffffffffffffffff80821115611ec957600080fd5b818401915084601f830112611edd57600080fd5b815181811115611eef57611eef6122fb565b604051601f8201601f19908116603f01168101908382118183101715611f1757611f176122fb565b81604052828152876020848701011115611f3057600080fd5b611f41836020830160208801612263565b979650505050505050565b60008060408385031215611f5f57600080fd5b611f6883611d39565b9150611f7660208401611d39565b90509250929050565b600080600080600080600060e0888a031215611f9a57600080fd5b611fa388611d39565b9650611fb160208901611d39565b9550611fbf60408901611d39565b9450611fcd60608901611d50565b93506080880151925060a0880151915060c0880151905092959891949750929550565b600080600080600060a0868803121561200857600080fd5b61201186611d39565b945061201f60208701611d50565b935061202d60408701611d50565b925061203b60608701611d50565b915061204960808701611d50565b90509295509295909350565b60006020828403121561206757600080fd5b5051919050565b6000806040838503121561208157600080fd5b50508035926020909101359150565b600080604083850312156120a357600080fd5b505080516020909101519092909150565b6000806000606084860312156120c957600080fd5b505081359360208301359350604090920135919050565b600082516120f2818460208701612263565b9190910192915050565b6001600160a01b03958616815293851660208501529190931660408301526060820192909252608081019190915260a00190565b6001600160a01b03929092168252602082015260400190565b9687526001600160a01b0395861660208801529390941660408601526060850191909152608084015290151560a083015260c082015260e00190565b60208152600082518060208401526121a4816040850160208701612263565b601f01601f19169190910160400192915050565b600082198211156121cb576121cb6122b9565b500190565b6000826121df576121df6122cf565b500490565b60008160001904831182151516156121fe576121fe6122b9565b500290565b60006001600160801b0383811690831681811015612223576122236122b9565b039392505050565b60008282101561223d5761223d6122b9565b500390565b600067ffffffffffffffff83811690831681811015612223576122236122b9565b60005b8381101561227e578181015183820152602001612266565b83811115610e755750506000910152565b60008261229e5761229e6122cf565b500690565b634e487b7160e01b600052600160045260246000fd5b634e487b7160e01b600052601160045260246000fd5b634e487b7160e01b600052601260045260246000fd5b634e487b7160e01b600052603260045260246000fd5b634e487b7160e01b600052604160045260246000fd5b6001600160a01b038116811461011c57600080fdfea2646970667358221220ed0a33656810c362e5efc0b45c72c06bb835557447904aa9950fe854cd87048964736f6c63430008060033",
    "linkReferences": {}
  },
  "methodIdentifiers": {
    "check_deposit_manager_safe(address,uint256,uint256)": "f3cb14fe",
    "check_manager()": "fb2cb8f3",
    "check_manager_deposit_zero_zero(address)": "5e12c810",
    "manager_allocate_with_safe_range(uint256,uint256,uint256)": "63c832a5",
    "manager_remove_with_safe_range(uint256,uint256)": "f0636602",
    "onERC1155Received(address,address,uint256,uint256,bytes)": "f23a6e61"
  },
  "id": 8
}