{
  "abi": [
    {
      "inputs": [
        {
          "internalType": "int128",
          "name": "value",
          "type": "int128"
        }
      ],
      "name": "InverseOutOfBounds",
      "type": "error"
    },
    {
      "anonymous": false,
      "inputs": [
        {
          "indexed": false,
          "internalType": "bytes32",
          "name": "poolId",
          "type": "bytes32"
        },
        {
          "indexed": false,
          "internalType": "uint256",
          "name": "riskyPerLiquidity",
          "type": "uint256"
        },
        {
          "indexed": false,
          "internalType": "uint256",
          "name": "delLiquidity",
          "type": "uint256"
        },
        {
          "indexed": false,
          "internalType": "uint128",
          "name": "strike",
          "type": "uint128"
        },
        {
          "indexed": false,
          "internalType": "uint32",
          "name": "sigma",
          "type": "uint32"
        },
        {
          "indexed": false,
          "internalType": "uint32",
          "name": "maturity",
          "type": "uint32"
        },
        {
          "indexed": false,
          "internalType": "uint32",
          "name": "gamma",
          "type": "uint32"
        },
        {
          "indexed": false,
          "internalType": "uint32",
          "name": "timestamp",
          "type": "uint32"
        }
      ],
      "name": "AddedPool",
      "type": "event"
    },
    {
      "anonymous": false,
      "inputs": [
        {
          "indexed": false,
          "internalType": "bytes32",
          "name": "s",
          "type": "bytes32"
        }
      ],
      "name": "ErrorSig",
      "type": "event"
    },
    {
      "anonymous": false,
      "inputs": [
        {
          "indexed": false,
          "internalType": "uint128",
          "name": "strike",
          "type": "uint128"
        },
        {
          "indexed": false,
          "internalType": "uint32",
          "name": "sigma",
          "type": "uint32"
        },
        {
          "indexed": false,
          "internalType": "uint32",
          "name": "maturity",
          "type": "uint32"
        },
        {
          "indexed": false,
          "internalType": "uint32",
          "name": "gamma",
          "type": "uint32"
        },
        {
          "indexed": false,
          "internalType": "uint256",
          "name": "riskyPerLp",
          "type": "uint256"
        },
        {
          "indexed": false,
          "internalType": "uint256",
          "name": "liquidity",
          "type": "uint256"
        }
      ],
      "name": "FailedCreating",
      "type": "event"
    },
    {
      "anonymous": false,
      "inputs": [
        {
          "indexed": false,
          "internalType": "bytes32",
          "name": "poolId",
          "type": "bytes32"
        },
        {
          "indexed": false,
          "internalType": "bool",
          "name": "riskyForStable",
          "type": "bool"
        },
        {
          "indexed": false,
          "internalType": "uint256",
          "name": "reserveRisky",
          "type": "uint256"
        },
        {
          "indexed": false,
          "internalType": "uint256",
          "name": "reserveStable",
          "type": "uint256"
        },
        {
          "indexed": false,
          "internalType": "uint256",
          "name": "amountIn",
          "type": "uint256"
        },
        {
          "indexed": false,
          "internalType": "uint256",
          "name": "amountOut",
          "type": "uint256"
        }
      ],
      "name": "FailedSwap",
      "type": "event"
    },
    {
      "anonymous": false,
      "inputs": [
        {
          "indexed": false,
          "internalType": "int128",
          "name": "pre",
          "type": "int128"
        },
        {
          "indexed": false,
          "internalType": "int128",
          "name": "post",
          "type": "int128"
        }
      ],
      "name": "InvariantCheck",
      "type": "event"
    },
    {
      "anonymous": false,
      "inputs": [
        {
          "indexed": false,
          "internalType": "string",
          "name": "msg",
          "type": "string"
        }
      ],
      "name": "KnownError",
      "type": "event"
    },
    {
      "anonymous": false,
      "inputs": [
        {
          "indexed": false,
          "internalType": "uint256",
          "name": "val",
          "type": "uint256"
        }
      ],
      "name": "Panicked",
      "type": "event"
    },
    {
      "anonymous": false,
      "inputs": [
        {
          "indexed": false,
          "internalType": "string",
          "name": "msg",
          "type": "string"
        }
      ],
      "name": "UnknownError",
      "type": "event"
    },
    {
      "inputs": [
        {
          "internalType": "uint128",
          "name": "_amountIn",
          "type": "uint128"
        }
      ],
      "name": "test_reverse_swap",
      "outputs": [],
      "stateMutability": "nonpayable",
      "type": "function"
    },
    {
      "inputs": [
        {
          "internalType": "uint128",
          "name": "_amountIn",
          "type": "uint128"
        }
      ],
      "name": "test_swap_risky_in",
      "outputs": [],
      "stateMutability": "nonpayable",
      "type": "function"
    },
    {
      "inputs": [
        {
          "internalType": "uint128",
          "name": "_amountIn",
          "type": "uint128"
        }
      ],
      "name": "test_swap_stable_in",
      "outputs": [],
      "stateMutability": "nonpayable",
      "type": "function"
    }
  ],
  "bytecode": {
    "object": "0x6080604052600080546001600160a01b0319908116731dc4c1cefef38a777b15aa20260a54e584b16c48908117909255600180548216731d7022f5b17d2f8b695918fb48fa1089c9f8540190811790915560028054831673871dd7c2b4b25e1aa18728e9d5f2af4c4e431f5c179055600380548316730b1ba0af832d7c05fd64161e0db78e85978e8082179055600480548316736a4a62e5a7ed13c361b176a5f62c2ee620ac0df89081179091556005805484167348bacb9266a570d521063ef5dd96e61686dbe788908117909155600680548516736dfff22588be9b3ef8cf0ad6dc9b84796f9fb45f1790556007805485167334d402f14d58e001d8efbe6585051bf9706aa06417905560088054851673cfc18cec799fbd1793b5c43e773c98d4d61cc2db1790556009805485167325b8fe1de9daf8ba351890744ff28cf7dfa8f5e3179055600a8054851673f22469f31527adc53284441bae1665a7b9214dba179055600b8054851673cdb594a32b1cc3479d8746279712c39d18a07fc0179055600c805485167307f96aa816c1f244cbc6ef114bb2b023ba54a2eb179055600d80548516909517909455600e80548416909217909155600f805483169091179055601080549091169091179055670de0b6b3a76400006017553480156101e757600080fd5b50615455806101f76000396000f3fe608060405234801561001057600080fd5b50600436106100415760003560e01c80632ddd643f14610046578063647603df1461005b578063d01e68aa1461006e575b600080fd5b610059610054366004614dbf565b610081565b005b610059610069366004614dbf565b6105b1565b61005961007c366004614dbf565b610a7d565b6001600160801b03811661009457600080fd5b60135460ff166100a7576100a781610f11565b6010546001600160a01b03166000908152601160205260408120805482906100d1576100d1615339565b60009182526020822001546010546040516311e2dca960e11b8152600481018390529193508291829182916001600160a01b03909116906323c5b9529060240160a06040518083038186803b15801561012957600080fd5b505afa15801561013d573d6000803e3d6000fd5b505050506040513d601f19601f820116820180604052508101906101619190614e55565b601054604051622efc7960e21b8152600481018c905295995093975091955090935060009283928392506001600160a01b03169062bbf1e49060240160e06040518083038186803b1580156101b557600080fd5b505afa1580156101c9573d6000803e3d6000fd5b505050506040513d601f19601f820116820180604052508101906101ed9190614ddc565b5050505092509250925060008563ffffffff16601060009054906101000a90046001600160a01b03166001600160a01b03166316ada5476040518163ffffffff1660e01b815260040160206040518083038186803b15801561024e57600080fd5b505afa158015610262573d6000803e3d6000fd5b505050506040513d601f19601f820116820180604052508101906102869190614ebc565b63ffffffff161161032657601060009054906101000a90046001600160a01b03166001600160a01b03166316ada5476040518163ffffffff1660e01b815260040160206040518083038186803b1580156102df57600080fd5b505afa1580156102f3573d6000803e3d6000fd5b505050506040513d601f19601f820116820180604052508101906103179190614ebc565b610321908761520a565b610329565b60005b9050600061033b60018686868d611053565b90506103486001826151f3565b61035b906001600160801b038d166152bc565b610366906001614ffd565b9a505060006040518061014001604052808b81526020018c6001600160801b03168152602001866001600160801b03168152602001856001600160801b03168152602001846001600160801b031681526020018a6001600160801b031681526020018963ffffffff1681526020018763ffffffff1681526020018863ffffffff1681526020018363ffffffff168152509050610406816101000151611138565b600061041182611268565b6040805160c0810182528d81526020858101519082018190529181018390526000606082018190526080820152600160a082015291925061045290836117b1565b6020830151600d546040516370a0823160e01b81523060048201526001600160a01b03909116906370a082319060240160206040518083038186803b15801561049a57600080fd5b505afa1580156104ae573d6000803e3d6000fd5b505050506040513d601f19601f820116820180604052508101906104d29190614ebc565b101561054357600d5460208401516040516340c10f1960e01b815230600482015260248101919091526001600160a01b03909116906340c10f1990604401600060405180830381600087803b15801561052a57600080fd5b505af115801561053e573d6000803e3d6000fd5b505050505b61054c816117cc565b6127108360e0015163ffffffff161061056457600080fd5b506040805160c0810182528c81526020808201849052840151918101919091526000606082018190526080820181905260a08201526105a281611cbb565b50505050505050505050505050565b6001600160801b0381166105c457600080fd5b60135460ff166105d7576105d781610f11565b6010546001600160a01b031660009081526011602052604081208054829061060157610601615339565b60009182526020822001546010546040516311e2dca960e11b8152600481018390529193508291829182916001600160a01b03909116906323c5b9529060240160a06040518083038186803b15801561065957600080fd5b505afa15801561066d573d6000803e3d6000fd5b505050506040513d601f19601f820116820180604052508101906106919190614e55565b601054604051622efc7960e21b8152600481018c905295995093975091955090935060009283928392506001600160a01b03169062bbf1e49060240160e06040518083038186803b1580156106e557600080fd5b505afa1580156106f9573d6000803e3d6000fd5b505050506040513d601f19601f8201168201806040525081019061071d9190614ddc565b5050505092509250925060008563ffffffff16601060009054906101000a90046001600160a01b03166001600160a01b03166316ada5476040518163ffffffff1660e01b815260040160206040518083038186803b15801561077e57600080fd5b505afa158015610792573d6000803e3d6000fd5b505050506040513d601f19601f820116820180604052508101906107b69190614ebc565b63ffffffff161161085657601060009054906101000a90046001600160a01b03166001600160a01b03166316ada5476040518163ffffffff1660e01b815260040160206040518083038186803b15801561080f57600080fd5b505afa158015610823573d6000803e3d6000fd5b505050506040513d601f19601f820116820180604052508101906108479190614ebc565b610851908761520a565b610859565b60005b9050600061086b60018686868d611053565b90506108786001826151f3565b61088b906001600160801b038d166152bc565b610896906001614ffd565b9a505060006040518061014001604052808b81526020018c6001600160801b03168152602001866001600160801b03168152602001856001600160801b03168152602001846001600160801b031681526020018a6001600160801b031681526020018963ffffffff1681526020018763ffffffff1681526020018863ffffffff1681526020018363ffffffff168152509050610936816101000151611138565b600061094182611268565b6040805160c0810182528d81526020858101519082018190529181018390526000606082018190526080820152600160a082015291925061098290836117b1565b6020830151600d546040516370a0823160e01b81523060048201526001600160a01b03909116906370a082319060240160206040518083038186803b1580156109ca57600080fd5b505afa1580156109de573d6000803e3d6000fd5b505050506040513d601f19601f82011682018060405250810190610a029190614ebc565b1015610a7457600d5460208401516040516340c10f1960e01b815230600482015260248101919091526001600160a01b03909116906340c10f19906044015b600060405180830381600087803b158015610a5b57600080fd5b505af1158015610a6f573d6000803e3d6000fd5b505050505b6105a2816117cc565b6001600160801b038116610a9057600080fd5b60135460ff16610aa357610aa381610f11565b6010546001600160a01b0316600090815260116020526040812080548290610acd57610acd615339565b60009182526020822001546010546040516311e2dca960e11b8152600481018390529193508291829182916001600160a01b03909116906323c5b9529060240160a06040518083038186803b158015610b2557600080fd5b505afa158015610b39573d6000803e3d6000fd5b505050506040513d601f19601f82011682018060405250810190610b5d9190614e55565b601054604051622efc7960e21b8152600481018c905295995093975091955090935060009283928392506001600160a01b03169062bbf1e49060240160e06040518083038186803b158015610bb157600080fd5b505afa158015610bc5573d6000803e3d6000fd5b505050506040513d601f19601f82011682018060405250810190610be99190614ddc565b5050505092509250925060008563ffffffff16601060009054906101000a90046001600160a01b03166001600160a01b03166316ada5476040518163ffffffff1660e01b815260040160206040518083038186803b158015610c4a57600080fd5b505afa158015610c5e573d6000803e3d6000fd5b505050506040513d601f19601f82011682018060405250810190610c829190614ebc565b63ffffffff1611610d2257601060009054906101000a90046001600160a01b03166001600160a01b03166316ada5476040518163ffffffff1660e01b815260040160206040518083038186803b158015610cdb57600080fd5b505afa158015610cef573d6000803e3d6000fd5b505050506040513d601f19601f82011682018060405250810190610d139190614ebc565b610d1d908761520a565b610d25565b60005b90506000610d3760008686868d611053565b9050610d446001826151f3565b610d57906001600160801b038d166152bc565b610d62906001614ffd565b9a505060006040518061014001604052808b81526020018c6001600160801b03168152602001866001600160801b03168152602001856001600160801b03168152602001846001600160801b031681526020018a6001600160801b031681526020018963ffffffff1681526020018763ffffffff1681526020018863ffffffff1681526020018363ffffffff168152509050610e02816101000151611138565b6000610e0d82611e34565b6040805160c0810182528d81526020858101519082018190529181018390526000606082018190526080820181905260a0820152919250610e4e90836117b1565b6020830151600e546040516370a0823160e01b81523060048201526001600160a01b03909116906370a082319060240160206040518083038186803b158015610e9657600080fd5b505afa158015610eaa573d6000803e3d6000fd5b505050506040513d601f19601f82011682018060405250810190610ece9190614ebc565b1015610a7457600e5460208401516040516340c10f1960e01b815230600482015260248101919091526001600160a01b03909116906340c10f1990604401610a41565b610f23816001600160801b031661217a565b80516014805460208401516040850151606086015160809096015163ffffffff908116600160e01b026001600160e01b03978216600160c01b0263ffffffff60c01b19938316600160a01b029390931667ffffffffffffffff60a01b1992909416600160801b026001600160a01b03199095166001600160801b0397881617949094171691909117179390931692909217909155610fc290821661238e565b8051601581905560209091015160168190556014546000928392611007926001600160801b0381169063ffffffff600160801b8204811691600160a01b9004166125d9565b9150915061101582826129a7565b6015546016546040805160006020820152611041939291016040516020818303038152906040526129b2565b50506013805460ff1916600117905550565b600085156110d2576000836001600160801b0316866001600160801b0316670de0b6b3a764000061108491906151ac565b61108e9190615015565b9050670de0b6b3a7640000846001600160801b0316826110ac612daf565b6110b691906151f3565b6110c091906151ac565b6110ca9190615015565b91505061112f565b6000836001600160801b0316856001600160801b0316670de0b6b3a76400006110fb91906151ac565b6111059190615015565b9050670de0b6b3a7640000846001600160801b031682856001600160801b03166110b691906151f3565b95945050505050565b601060009054906101000a90046001600160a01b03166001600160a01b03166316ada5476040518163ffffffff1660e01b815260040160206040518083038186803b15801561118657600080fd5b505afa15801561119a573d6000803e3d6000fd5b505050506040513d601f19601f820116820180604052508101906111be9190614ebc565b63ffffffff16601060009054906101000a90046001600160a01b03166001600160a01b0316638fbc3ecd6040518163ffffffff1660e01b815260040160206040518083038186803b15801561121257600080fd5b505afa158015611226573d6000803e3d6000fd5b505050506040513d601f19601f8201168201806040525081019061124a9190614ebc565b61125a9063ffffffff8416614ffd565b101561126557600080fd5b50565b6010548151604051632a37f65760e11b815260009283926001600160a01b039091169163546fecae916112a19160040190815260200190565b60206040518083038186803b1580156112b957600080fd5b505afa1580156112cd573d6000803e3d6000fd5b505050506040513d601f19601f820116820180604052508101906112f19190614d9c565b90506000806000806127108760e0015163ffffffff16886020015161131691906151ac565b6113209190615015565b905060008188604001516001600160801b031661133d9190614ffd565b60808901519091506001600160801b031661136082670de0b6b3a76400006151ac565b61136a9190615015565b93506114a786601060009054906101000a90046001600160a01b03166001600160a01b03166355ebb8256040518163ffffffff1660e01b815260040160206040518083038186803b1580156113be57600080fd5b505afa1580156113d2573d6000803e3d6000fd5b505050506040513d601f19601f820116820180604052508101906113f69190614ebc565b601060009054906101000a90046001600160a01b03166001600160a01b0316634dd0d0566040518163ffffffff1660e01b815260040160206040518083038186803b15801561144457600080fd5b505afa158015611458573d6000803e3d6000fd5b505050506040513d601f19601f8201168201806040525081019061147c9190614ebc565b878c60a001516001600160801b03168d60c0015163ffffffff168e610120015163ffffffff16612e3c565b92506114b4600184614ffd565b9250505085610120015163ffffffff166000146114d457600082116114d7565b60015b6114e057600080fd5b61012086015163ffffffff16156114fa57600081116114fd565b60015b61150657600080fd5b600d60009054906101000a90046001600160a01b03166001600160a01b031663313ce5676040518163ffffffff1660e01b815260040160206040518083038186803b15801561155457600080fd5b505afa158015611568573d6000803e3d6000fd5b505050506040513d601f19601f8201168201806040525081019061158c9190614ed5565b61159790600a61506c565b8211156115a357600080fd5b8560a001516001600160801b03168111156115bd57600080fd5b60006116fa601060009054906101000a90046001600160a01b03166001600160a01b03166355ebb8256040518163ffffffff1660e01b815260040160206040518083038186803b15801561161057600080fd5b505afa158015611624573d6000803e3d6000fd5b505050506040513d601f19601f820116820180604052508101906116489190614ebc565b601060009054906101000a90046001600160a01b03166001600160a01b0316634dd0d0566040518163ffffffff1660e01b815260040160206040518083038186803b15801561169657600080fd5b505afa1580156116aa573d6000803e3d6000fd5b505050506040513d601f19601f820116820180604052508101906116ce9190614ebc565b85858b60a001516001600160801b03168c60c0015163ffffffff168d610120015163ffffffff16612f15565b60408051600f88810b825283900b60208201529192507f2da57f3a517eedfbd54369f19cd786b65cae8381109e5da4e8d9eaf04d33d9d9910160405180910390a184600f0b81600f0b1215611751576117516152f7565b6000670de0b6b3a764000088608001516001600160801b03168461177591906151ac565b61177f9190615015565b61178a906001614ffd565b90508088606001516001600160801b03166117a591906151f3565b98975050505050505050565b81158015906117bf57508015155b6117c857600080fd5b5050565b6010548151604051632a37f65760e11b815260048101919091526000916001600160a01b03169063546fecae9060240160206040518083038186803b15801561181457600080fd5b505afa158015611828573d6000803e3d6000fd5b505050506040513d601f19601f8201168201806040525081019061184c9190614d9c565b6010548351604051622efc7960e21b8152600481019190915291925060009182916001600160a01b03169062bbf1e49060240160e06040518083038186803b15801561189757600080fd5b505afa1580156118ab573d6000803e3d6000fd5b505050506040513d601f19601f820116820180604052508101906118cf9190614ddc565b5050505050915091508360a001516118f7578360400151826001600160801b03161015611909565b8360400151816001600160801b031610155b61191257600080fd5b601054845160a08601516020808801516040808a015160608b015160808c0151835160008188015284518082039097018752808501948590526365147e6b60e11b9094526001600160a01b039098169763ca28fcd69761198097309791969095909493929190604401614f45565b600060405180830381600087803b15801561199a57600080fd5b505af19250505080156119ab575060015b611ca0576119b761534f565b806308c379a01415611a1457506119cc61536b565b806119d75750611a62565b7f2c0f4f3a33cfdd0592423e24e4094c78732fbc83c4729a87c9ab14322f42380881604051611a069190614f91565b60405180910390a150611cb5565b634e487b711415611a6257611a276153ea565b90611a325750611a62565b6040518181527fad2265aeced38618141a623b4c2d20af0427c56fdf12284b7f4b2a367e3cc3e490602001611a06565b3d808015611a8c576040519150601f19603f3d011682016040523d82523d6000602084013e611a91565b606091505b50611a9b8161524a565b6001600160e01b031916630cd4424b60e41b1415611b1f577f2c0f4f3a33cfdd0592423e24e4094c78732fbc83c4729a87c9ab14322f423808604051611b12906020808252601d908201527f496e76617269616e744572726f7228696e743132382c696e7431323829000000604082015260600190565b60405180910390a1611c25565b611b288161524a565b6001600160e01b03191663536e15e160e01b1415611b92577f2c0f4f3a33cfdd0592423e24e4094c78732fbc83c4729a87c9ab14322f423808604051611b129060208082526010908201526f2837b7b622bc3834b932b222b93937b960811b604082015260600190565b805160208201206040517f76d1c45846cf090b90a48f3a3d71155ddadc16e4dc401b3f7fa562a061cb835891611bcb9190815260200190565b60405180910390a17fc06ef77baed42f87ee4e1b15a7e4972204315735f27152095174054eaf909f46604051611c1c906020808252600790820152662ab735b737bbb760c91b604082015260600190565b60405180910390a15b845160a0808701516020808901516040808b01518151968752931515928601929092526001600160801b038881168684015287166060860152608085015291830152517f21d955c0982871fd925b13f87b4dcab015c2db1b1d59c2d9e74960a9a957b4949181900360c00190a1611c9a6152f7565b50611cb5565b611cb584600001518560a00151858585612f54565b50505050565b6010548151604051622efc7960e21b815260009283926001600160a01b039091169162bbf1e491611cf29160040190815260200190565b60e06040518083038186803b158015611d0a57600080fd5b505afa158015611d1e573d6000803e3d6000fd5b505050506040513d601f19601f82011682018060405250810190611d429190614ddc565b5050505050915091508260a00151611d6a578260400151826001600160801b03161015611d7c565b8260400151816001600160801b031610155b611d8557600080fd5b601054835160a085015160208087015160408089015160608a015160808b0151835160008188015284518082039097018752808501948590526365147e6b60e11b9094526001600160a01b039098169763ca28fcd697611df397309791969095909493929190604401614f45565b600060405180830381600087803b158015611e0d57600080fd5b505af1925050508015611e1e575060015b611e2757505050565b611e2f6152f7565b505050565b6010548151604051632a37f65760e11b815260009283926001600160a01b039091169163546fecae91611e6d9160040190815260200190565b60206040518083038186803b158015611e8557600080fd5b505afa158015611e99573d6000803e3d6000fd5b505050506040513d601f19601f82011682018060405250810190611ebd9190614d9c565b90506000806000806127108760e0015163ffffffff168860200151611ee291906151ac565b611eec9190615015565b905060008188606001516001600160801b0316611f099190614ffd565b60808901519091506001600160801b0316611f2c82670de0b6b3a76400006151ac565b611f369190615015565b9250611f66838960a001516001600160801b03168a60c0015163ffffffff168b610120015163ffffffff166132e0565b9350611f73600185614ffd565b9350505085610120015163ffffffff16600014611f935760008211611f96565b60015b611f9f57600080fd5b61012086015163ffffffff1615611fb95760008111611fbc565b60015b611fc557600080fd5b600d60009054906101000a90046001600160a01b03166001600160a01b031663313ce5676040518163ffffffff1660e01b815260040160206040518083038186803b15801561201357600080fd5b505afa158015612027573d6000803e3d6000fd5b505050506040513d601f19601f8201168201806040525081019061204b9190614ed5565b61205690600a61506c565b82111561206257600080fd5b8560a001516001600160801b031681111561207c57600080fd5b60006120cf601060009054906101000a90046001600160a01b03166001600160a01b03166355ebb8256040518163ffffffff1660e01b815260040160206040518083038186803b15801561161057600080fd5b60408051600f88810b825283900b60208201529192507f2da57f3a517eedfbd54369f19cd786b65cae8381109e5da4e8d9eaf04d33d9d9910160405180910390a184600f0b81600f0b1215612126576121266152f7565b6000670de0b6b3a764000088608001516001600160801b03168561214a91906151ac565b6121549190615015565b61215f906001614ffd565b90508088604001516001600160801b03166117a591906151f3565b6040805160a0810182526000808252602082018190529181018290526060810182905260808101919091526040805160c081018252670de0b6b3a764000080825269021e19e0c9bab240000060208301819052606493830193909352629896806060830152612328608083015261271060a083015290916121fb91906151cb565b61220e906001600160801b0316846152bc565b815161222391906001600160801b0316614ffd565b6001600160801b0316825260408101516060820151612242919061520a565b6122529063ffffffff16846152bc565b816040015163ffffffff166122679190614ffd565b63ffffffff166020830152608081015160a0820151612286919061520a565b6122969063ffffffff16846152bc565b816080015163ffffffff166122ab9190614ffd565b63ffffffff90811660808401526001906122c590856152bc565b6122cf91906151f3565b6122dd906301e18558614ffd565b63ffffffff1660408084019190915260105481516316ada54760e01b815291516001600160a01b03909116916316ada547916004808301926020929190829003018186803b15801561232e57600080fd5b505afa158015612342573d6000803e3d6000fd5b505050506040513d601f19601f820116820180604052508101906123669190614ebc565b63ffffffff908116606084018190526040840151909116101561238857600080fd5b50919050565b604080518082019091526000808252602082015260006040518060800160405280600181526020016123be612daf565b8152601054604080516321b77d6360e01b815290516020938401936001600160a01b03909316926321b77d639260048082019391829003018186803b15801561240657600080fd5b505afa15801561241a573d6000803e3d6000fd5b505050506040513d601f19601f8201168201806040525081019061243e9190614ebc565b815267ffffffffffffffff602091820152815190820151919250612461916151f3565b61246b90846152bc565b81516124779190614ffd565b82526040810151606082015161248d91906151f3565b61249790846152bc565b81604001516124a69190614ffd565b60208301818152601754916124bc908390614ffd565b905250601054604080516355ebb82560e01b815290516001600160a01b03909216916355ebb82591600480820192602092909190829003018186803b15801561250457600080fd5b505afa158015612518573d6000803e3d6000fd5b505050506040513d601f19601f8201168201806040525081019061253c9190614ebc565b601060009054906101000a90046001600160a01b03166001600160a01b031663aaf5eb686040518163ffffffff1660e01b815260040160206040518083038186803b15801561258a57600080fd5b505afa15801561259e573d6000803e3d6000fd5b505050506040513d601f19601f820116820180604052508101906125c29190614ebc565b6125cc9190615015565b8251111561238857600080fd5b6000806000601060009054906101000a90046001600160a01b03166001600160a01b03166355ebb8256040518163ffffffff1660e01b815260040160206040518083038186803b15801561262c57600080fd5b505afa158015612640573d6000803e3d6000fd5b505050506040513d601f19601f820116820180604052508101906126649190614ebc565b90506000601060009054906101000a90046001600160a01b03166001600160a01b0316634dd0d0566040518163ffffffff1660e01b815260040160206040518083038186803b1580156126b657600080fd5b505afa1580156126ca573d6000803e3d6000fd5b505050506040513d601f19601f820116820180604052508101906126ee9190614ebc565b90506000601060009054906101000a90046001600160a01b03166001600160a01b03166316ada5476040518163ffffffff1660e01b815260040160206040518083038186803b15801561274057600080fd5b505afa158015612754573d6000803e3d6000fd5b505050506040513d601f19601f820116820180604052508101906127789190614ebc565b612782908761520a565b905082601060009054906101000a90046001600160a01b03166001600160a01b031663aaf5eb686040518163ffffffff1660e01b815260040160206040518083038186803b1580156127d357600080fd5b505afa1580156127e7573d6000803e3d6000fd5b505050506040513d601f19601f8201168201806040525081019061280b9190614ebc565b6128159190615015565b8a111561282157600080fd5b612846600084848d8c6001600160801b03168c63ffffffff168763ffffffff16612e3c565b9350601060009054906101000a90046001600160a01b03166001600160a01b031663aaf5eb686040518163ffffffff1660e01b815260040160206040518083038186803b15801561289657600080fd5b505afa1580156128aa573d6000803e3d6000fd5b505050506040513d601f19601f820116820180604052508101906128ce9190614ebc565b6128d88a8c6151ac565b6128e29190615015565b9450600085116128f157600080fd5b601060009054906101000a90046001600160a01b03166001600160a01b031663aaf5eb686040518163ffffffff1660e01b815260040160206040518083038186803b15801561293f57600080fd5b505afa158015612953573d6000803e3d6000fd5b505050506040513d601f19601f820116820180604052508101906129779190614ebc565b6129818a866151ac565b61298b9190615015565b93506000841161299a57600080fd5b5050509550959350505050565b6117c8308383613558565b601454601054604051635f003b1d60e11b81526001600160801b0383169263ffffffff600160801b8204811693600160a01b8304821693600160e01b909304909116916001600160a01b039091169063be00763a90612a219087908790879087908e908e908e90600401614fa4565b606060405180830381600087803b158015612a3b57600080fd5b505af1925050508015612a6b575060408051601f3d908101601f19168201909252612a6891810190614d6e565b60015b612ae157604080516001600160801b038616815263ffffffff858116602083015284811682840152831660608201526080810189905260a0810188905290517fb007c2086a57ce11103effda8842f7cb2dcdc552b3648282eddaae3e0fb8db4e9181900360c00190a1612adc6152f7565b612da6565b505060105460405160609190911b6bffffffffffffffffffffffff19166020820152608086901b6fffffffffffffffffffffffffffffffff1916603482015260e085811b6001600160e01b0319908116604484015285821b811660488401529084901b16604c8201526000915060500160408051808303601f190181528282528051602091820120601080546001600160a01b039081166000908152601185529485208054600181018255908652938520909301829055546311e2dca960e11b85526004850182905290945091928392839283928392909116906323c5b9529060240160a06040518083038186803b158015612bdc57600080fd5b505afa158015612bf0573d6000803e3d6000fd5b505050506040513d601f19601f82011682018060405250810190612c149190614e55565b94509450945094509450601060009054906101000a90046001600160a01b03166001600160a01b03166316ada5476040518163ffffffff1660e01b815260040160206040518083038186803b158015612c6c57600080fd5b505afa158015612c80573d6000803e3d6000fd5b505050506040513d601f19601f82011682018060405250810190612ca49190614ebc565b8263ffffffff1614612cb857612cb86152f7565b8663ffffffff168163ffffffff1614612cd357612cd36152f7565b896001600160801b0316856001600160801b031614612cf457612cf46152f7565b8863ffffffff168463ffffffff1614612d0f57612d0f6152f7565b8763ffffffff168363ffffffff1614612d2a57612d2a6152f7565b60408051878152602081018f90529081018d90526001600160801b038616606082015263ffffffff808616608083015280851660a083015280831660c0830152831660e08201527fbf97000a7d2027e718b9bfcf3ff0481b3b2d127e9542d0089a45619c0f6d6d6d906101000160405180910390a15050505050505b50505050505050565b600d546040805163313ce56760e01b815290516000926001600160a01b03169163313ce567916004808301926020929190829003018186803b158015612df457600080fd5b505afa158015612e08573d6000803e3d6000fd5b505050506040513d601f19601f82011682018060405250810190612e2c9190614ed5565b612e3790600a61506c565b905090565b600080612e498588613620565b90506000612e57878a613620565b90506000612e69600160401b83613649565b90508415612ee5576000612e7d8787613686565b90506000612e8d83600f0b6136ba565b90506000612e9f600f83900b84613649565b90506000612eca8f612ec1612eb685600f0b61377f565b600f8b900b9061382a565b600f0b90613860565b9050612eda600f82900b8e613893565b975050505050612f07565b612f0489612efb8d612ec1600f88900b8661382a565b600f0b90613893565b93505b505050979650505050505050565b600080612f2860008a8a8a898989612e3c565b90506000612f36828a613620565b90506000612f44888b613620565b9050612f04600f82900b83613649565b6010546040516311e2dca960e11b81526004810187905260009182916001600160a01b03909116906323c5b9529060240160a06040518083038186803b158015612f9d57600080fd5b505afa158015612fb1573d6000803e3d6000fd5b505050506040513d601f19601f82011682018060405250810190612fd59190614e55565b50935093505050601060009054906101000a90046001600160a01b03166001600160a01b03166316ada5476040518163ffffffff1660e01b815260040160206040518083038186803b15801561302a57600080fd5b505afa15801561303e573d6000803e3d6000fd5b505050506040513d601f19601f820116820180604052508101906130629190614ebc565b8263ffffffff161161308e578163ffffffff168163ffffffff1614613089576130896152f7565b613128565b601060009054906101000a90046001600160a01b03166001600160a01b03166316ada5476040518163ffffffff1660e01b815260040160206040518083038186803b1580156130dc57600080fd5b505afa1580156130f0573d6000803e3d6000fd5b505050506040513d601f19601f820116820180604052508101906131149190614ebc565b8163ffffffff1614613128576131286152f7565b601054604051632a37f65760e11b8152600481018990526000916001600160a01b03169063546fecae9060240160206040518083038186803b15801561316d57600080fd5b505afa158015613181573d6000803e3d6000fd5b505050506040513d601f19601f820116820180604052508101906131a59190614d9c565b905085600f0b81600f0b12156131bd576131bd6152f7565b601054604051622efc7960e21b8152600481018a905260009182916001600160a01b039091169062bbf1e49060240160e06040518083038186803b15801561320457600080fd5b505afa158015613218573d6000803e3d6000fd5b505050506040513d601f19601f8201168201806040525081019061323c9190614ddc565b505050505091509150881561329257866001600160801b0316826001600160801b03161161326c5761326c6152f7565b856001600160801b0316816001600160801b03161061328d5761328d6152f7565b6132d4565b866001600160801b0316826001600160801b0316106132b3576132b36152f7565b856001600160801b0316816001600160801b0316116132d4576132d46152f7565b50505050505050505050565b600080601060009054906101000a90046001600160a01b03166001600160a01b03166355ebb8256040518163ffffffff1660e01b815260040160206040518083038186803b15801561333157600080fd5b505afa158015613345573d6000803e3d6000fd5b505050506040513d601f19601f820116820180604052508101906133699190614ebc565b90506000601060009054906101000a90046001600160a01b03166001600160a01b0316634dd0d0566040518163ffffffff1660e01b815260040160206040518083038186803b1580156133bb57600080fd5b505afa1580156133cf573d6000803e3d6000fd5b505050506040513d601f19601f820116820180604052508101906133f39190614ebc565b6040805160c08101825284815260208101839052908101899052606081018890526080810187905260a00185905260188390556019819055601a889055601b879055601c869055601d8590559050600061344b6138b8565b90506000600d60009054906101000a90046001600160a01b03166001600160a01b031663313ce5676040518163ffffffff1660e01b815260040160206040518083038186803b15801561349d57600080fd5b505afa1580156134b1573d6000803e3d6000fd5b505050506040513d601f19601f820116820180604052508101906134d59190614ed5565b6134e090600a61506c565b905060006134ed8361394c565b905060006135036134fe85856151f3565b61394c565b905060008083600f0b121561351f57600082600f0b1215613527565b600082600f0b125b156135465761353f8561353a81876151f3565b6139a2565b9050613549565b50825b9b9a5050505050505050505050565b600d546040516340c10f1960e01b81526001600160a01b03858116600483015260248201859052909116906340c10f1990604401600060405180830381600087803b1580156135a657600080fd5b505af11580156135ba573d6000803e3d6000fd5b5050600e546040516340c10f1960e01b81526001600160a01b0387811660048301526024820186905290911692506340c10f199150604401600060405180830381600087803b15801561360c57600080fd5b505af1158015612da6573d6000803e3d6000fd5b60008061363583670de0b6b3a7640000615015565b90506136418482613a53565b949350505050565b6000600f82810b9084900b0360016001607f1b03198112801590613674575060016001607f1b038113155b61367d57600080fd5b90505b92915050565b60008061369d61369584613a8a565b600f0b613a9a565b905060006136aa85613abc565b905061112f600f82900b8361382a565b6000600160401b600f83900b1215806136d75750600082600f0b13155b156136ff57604051630e59931d60e31b8152600f83900b600482015260240160405180910390fd5b67f999999999999999600f83900b138015906137275750670666666666666666600f83900b12155b156137355761368082613aca565b670666666666666666600f83900b12156137525761368082613b71565b600061376a613765600160401b85613649565b613b71565b613773906152d0565b9392505050565b919050565b600080613799600f84900b68016a09e667f3bcc908613c3b565b905060006137d76137cc6137c16137b285600f0b613c93565b6753dd02a4f5ee2e469061382a565b600160401b90613860565b600160401b90613c3b565b905060006137e58383613cc6565b9050600083600f0b1215613802576137ff81600f0b613d96565b90505b6000613820613815600160401b84613860565b6001603f1b9061382a565b9695505050505050565b6000600f83810b9083900b0260401d60016001607f1b03198112801590613674575060016001607f1b0381131561367d57600080fd5b6000600f83810b9083900b0160016001607f1b03198112801590613674575060016001607f1b0381131561367d57600080fd5b6000806138a883670de0b6b3a7640000615015565b9050613641600f85900b82613db1565b60006005600d60009054906101000a90046001600160a01b03166001600160a01b031663313ce5676040518163ffffffff1660e01b815260040160206040518083038186803b15801561390a57600080fd5b505afa15801561391e573d6000803e3d6000fd5b505050506040513d601f19601f820116820180604052508101906139429190614ed5565b612e2c9190615227565b6040805160c08101825260185480825260195460208301819052601a54938301849052601b5460608401819052601c5460808501819052601d5460a0860181905260009661377395949389939192909190612f15565b6000806139ae8361394c565b6139b78561394c565b6139c19190615117565b600f0b126139ce57600080fd5b60006139d8613e19565b9050838084035b828110613a4a5760026139f28688614ffd565b6139fc9190615015565b9150613a078261394c565b600f0b613a1357613a4a565b6000613a1e8761394c565b613a278461394c565b613a319190615117565b600f0b1215613a42578194506139df565b8195506139df565b50949350505050565b600081613a5f57600080fd5b6000613a6b8484613e6b565b905060016001607f1b036001600160801b038216111561367d57600080fd5b6000613680826301e18558613a53565b60008082600f0b1215613aac57600080fd5b613680604083600f0b901b613fcd565b600061368082612710613a53565b600080613adf600f84900b6001603f1b613649565b90506000613af1600f83900b8361382a565b9050600061112f613b66613b56613b2e6721d0a04b0e9b94f1612ec1613b2067c2bf5d74c724e53e198961382a565b612ec1600f8a900b8a61382a565b613b4d6726a8f3c1f21b336e612ec16787c57e5da70d3c8f198961382a565b600f0b90613c3b565b68015d71f5721242c78790613860565b600f85900b9061382a565b600080613b93613695613b8b6137cc600f87900b8761382a565b600f0b61413b565b90506000613bb76707a1e70f720eca43612ec16801000bf627fa188410198561382a565b90506000613bdb6810aeac93f55267a9a5612ec168041ed34a25614902368661382a565b90506000613c1068072c7d592d021fb1db612ec1613c026808c27b4617f5f800ea8861382a565b612ec1600f89900b8961382a565b90506000613c30613c25600f85900b84613c3b565b600f86900b90613860565b979650505050505050565b600081600f0b60001415613c4e57600080fd5b600082600f0b604085600f0b901b81613c6957613c69615323565b05905060016001607f1b03198112801590613674575060016001607f1b0381131561367d57600080fd5b6000600f82900b60016001607f1b03191415613cae57600080fd5b600082600f0b12613cbf5781613680565b5060000390565b600080613d18613b66613d08613cfd613cec600f88900b68010fb844255a12d72e61382a565b68017401c57014c38f131990613860565b600f87900b9061382a565b68016a09e667f3bcc90890613860565b90506000613d44613d35613cfd6748d4c730f051a5fd1985613860565b67413c831bb169f87490613860565b90506000613820613d8b613d80613d75613d6d613d65600f8c900b8c61382a565b600f0b613d96565b600f0b614175565b600f86900b9061382a565b600f88900b9061382a565b600160401b90613649565b6000600f82900b60016001607f1b03191415613cbf57600080fd5b600081613dc057506000613680565b600083600f0b1215613dd157600080fd5b600f83900b6001600160801b038316810260401c90608084901c026001600160c01b03811115613e0057600080fd5b60401b8119811115613e1157600080fd5b019392505050565b60006003600d60009054906101000a90046001600160a01b03166001600160a01b031663313ce5676040518163ffffffff1660e01b815260040160206040518083038186803b15801561390a57600080fd5b600081613e7757600080fd5b60006001600160c01b038411613ea25782604085901b81613e9a57613e9a615323565b049050613fb9565b60c084811c6401000000008110613ebb576020918201911c5b620100008110613ecd576010918201911c5b6101008110613ede576008918201911c5b60108110613eee576004918201911c5b60048110613efe576002918201911c5b60028110613f0d576001820191505b60bf820360018603901c6001018260ff0387901b81613f2e57613f2e615323565b0492506001600160801b03831115613f4557600080fd5b608085901c83026001600160801b038616840260c088901c604089901b82811015613f71576001820391505b608084901b92900382811015613f88576001820391505b829003608084901c8214613f9e57613f9e6152f7565b888181613fad57613fad615323565b04870196505050505050505b6001600160801b0381111561367d57600080fd5b600081613fdc57506000919050565b816001600160801b8210613ff55760809190911c9060401b5b600160401b821061400b5760409190911c9060201b5b64010000000082106140225760209190911c9060101b5b6201000082106140375760109190911c9060081b5b610100821061404b5760089190911c9060041b5b6010821061405e5760049190911c9060021b5b6008821061406a5760011b5b600181858161407b5761407b615323565b048201901c9050600181858161409357614093615323565b048201901c905060018185816140ab576140ab615323565b048201901c905060018185816140c3576140c3615323565b048201901c905060018185816140db576140db615323565b048201901c905060018185816140f3576140f3615323565b048201901c9050600181858161410b5761410b615323565b048201901c9050600081858161412357614123615323565b049050808210614133578061112f565b509392505050565b60008082600f0b1361414c57600080fd5b6080614157836141ca565b600f0b6fb17217f7d1cf79abc9e3b39803f2f6af02901c9050919050565b6000600160461b82600f0b1261418a57600080fd5b683fffffffffffffffff1982600f0b12156141a757506000919050565b613680608083600f0b700171547652b82fe1777d0ffda0d23a7d1202901d6142a5565b60008082600f0b136141db57600080fd5b6000600f83900b600160401b81126141f5576040918201911d5b6401000000008112614209576020918201911d5b62010000811261421b576010918201911d5b610100811261422c576008918201911d5b6010811261423c576004918201911d5b6004811261424c576002918201911d5b6002811261425b576001820191505b603f19820160401b600f85900b607f8490031b6001603f1b5b600081131561429a5790800260ff81901c8281029390930192607f011c9060011d614274565b509095945050505050565b6000600160461b82600f0b126142ba57600080fd5b683fffffffffffffffff1982600f0b12156142d757506000919050565b6001607f1b60006001603f1b8416600f0b13156143055770016a09e667f3bcc908b2fb1366ea957d3e0260801c5b60008367400000000000000016600f0b1315614332577001306fe0a31b7152de8d5a46305c85edec0260801c5b60008367200000000000000016600f0b131561435f577001172b83c7d517adcdf7c8c50eb14a791f0260801c5b60008367100000000000000016600f0b131561438c5770010b5586cf9890f6298b92b71842a983630260801c5b60008367080000000000000016600f0b13156143b9577001059b0d31585743ae7c548eb68ca417fd0260801c5b60008367040000000000000016600f0b13156143e657700102c9a3e778060ee6f7caca4f7a29bde80260801c5b60008367020000000000000016600f0b13156144135770010163da9fb33356d84a66ae336dcdfa3f0260801c5b60008367010000000000000016600f0b131561444057700100b1afa5abcbed6129ab13ec11dc95430260801c5b600083668000000000000016600f0b131561446c5770010058c86da1c09ea1ff19d294cf2f679b0260801c5b600083664000000000000016600f0b1315614498577001002c605e2e8cec506d21bfc89a23a00f0260801c5b600083662000000000000016600f0b13156144c457700100162f3904051fa128bca9c55c31e5df0260801c5b600083661000000000000016600f0b13156144f0577001000b175effdc76ba38e31671ca9397250260801c5b600083660800000000000016600f0b131561451c57700100058ba01fb9f96d6cacd4b180917c3d0260801c5b600083660400000000000016600f0b13156145485770010002c5cc37da9491d0985c348c68e7b30260801c5b600083660200000000000016600f0b1315614574577001000162e525ee054754457d59952920260260801c5b600083660100000000000016600f0b13156145a05770010000b17255775c040618bf4a4ade83fc0260801c5b6000836580000000000016600f0b13156145cb577001000058b91b5bc9ae2eed81e9b7d4cfab0260801c5b6000836540000000000016600f0b13156145f657700100002c5c89d5ec6ca4d7c8acc017b7c90260801c5b6000836520000000000016600f0b13156146215770010000162e43f4f831060e02d839a9d16d0260801c5b6000836510000000000016600f0b131561464c57700100000b1721bcfc99d9f890ea069117630260801c5b6000836508000000000016600f0b13156146775770010000058b90cf1e6d97f9ca14dbcc16280260801c5b6000836504000000000016600f0b13156146a2577001000002c5c863b73f016468f6bac5ca2b0260801c5b6000836502000000000016600f0b13156146cd57700100000162e430e5a18f6119e3c02282a50260801c5b6000836501000000000016600f0b13156146f8577001000000b1721835514b86e6d96efd1bfe0260801c5b60008364800000000016600f0b131561472257700100000058b90c0b48c6be5df846c5b2ef0260801c5b60008364400000000016600f0b131561474c5770010000002c5c8601cc6b9e94213c72737a0260801c5b60008364200000000016600f0b1315614776577001000000162e42fff037df38aa2b219f060260801c5b60008364100000000016600f0b13156147a05770010000000b17217fba9c739aa5819f44f90260801c5b60008364080000000016600f0b13156147ca577001000000058b90bfcdee5acd3c1cedc8230260801c5b60008364040000000016600f0b13156147f457700100000002c5c85fe31f35a6a30da1be500260801c5b60008364020000000016600f0b131561481e5770010000000162e42ff0999ce3541b9fffcf0260801c5b60008364010000000016600f0b131561484857700100000000b17217f80f4ef5aadda455540260801c5b600083638000000016600f0b13156148715770010000000058b90bfbf8479bd5a81b51ad0260801c5b600083634000000016600f0b131561489a577001000000002c5c85fdf84bd62ae30a74cc0260801c5b600083632000000016600f0b13156148c357700100000000162e42fefb2fed257559bdaa0260801c5b600083631000000016600f0b13156148ec577001000000000b17217f7d5a7716bba4a9ae0260801c5b600083630800000016600f0b131561491557700100000000058b90bfbe9ddbac5e109cce0260801c5b600083630400000016600f0b131561493e5770010000000002c5c85fdf4b15de6f17eb0d0260801c5b600083630200000016600f0b1315614967577001000000000162e42fefa494f1478fde050260801c5b600083630100000016600f0b13156149905770010000000000b17217f7d20cf927c8e94c0260801c5b6000836280000016600f0b13156149b8577001000000000058b90bfbe8f71cb4e4b33d0260801c5b6000836240000016600f0b13156149e057700100000000002c5c85fdf477b662b269450260801c5b6000836220000016600f0b1315614a085770010000000000162e42fefa3ae53369388c0260801c5b6000836210000016600f0b1315614a3057700100000000000b17217f7d1d351a389d400260801c5b6000836208000016600f0b1315614a585770010000000000058b90bfbe8e8b2d3d4ede0260801c5b6000836204000016600f0b1315614a80577001000000000002c5c85fdf4741bea6e77e0260801c5b6000836202000016600f0b1315614aa857700100000000000162e42fefa39fe95583c20260801c5b6000836201000016600f0b1315614ad0577001000000000000b17217f7d1cfb72b45e10260801c5b60008361800016600f0b1315614af757700100000000000058b90bfbe8e7cc35c3f00260801c5b60008361400016600f0b1315614b1e5770010000000000002c5c85fdf473e242ea380260801c5b60008361200016600f0b1315614b45577001000000000000162e42fefa39f02b772c0260801c5b60008361100016600f0b1315614b6c5770010000000000000b17217f7d1cf7d83c1a0260801c5b60008361080016600f0b1315614b93577001000000000000058b90bfbe8e7bdcbe2e0260801c5b60008361040016600f0b1315614bba57700100000000000002c5c85fdf473dea871f0260801c5b60008361020016600f0b1315614be15770010000000000000162e42fefa39ef44d910260801c5b60008361010016600f0b1315614c0857700100000000000000b17217f7d1cf79e9490260801c5b600083608016600f0b1315614c2e5770010000000000000058b90bfbe8e7bce5440260801c5b600083604016600f0b1315614c54577001000000000000002c5c85fdf473de6eca0260801c5b600083602016600f0b1315614c7a57700100000000000000162e42fefa39ef366f0260801c5b600083601016600f0b1315614ca0577001000000000000000b17217f7d1cf79afa0260801c5b600083600816600f0b1315614cc657700100000000000000058b90bfbe8e7bcd6d0260801c5b600083600416600f0b1315614cec5770010000000000000002c5c85fdf473de6b20260801c5b600083600216600f0b1315614d12577001000000000000000162e42fefa39ef3580260801c5b600083600116600f0b1315614d385770010000000000000000b17217f7d1cf79ab0260801c5b600f83810b60401d603f03900b1c60016001607f1b0381111561368057600080fd5b805163ffffffff8116811461377a57600080fd5b600080600060608486031215614d8357600080fd5b8351925060208401519150604084015190509250925092565b600060208284031215614dae57600080fd5b815180600f0b811461367d57600080fd5b600060208284031215614dd157600080fd5b813561367d8161540a565b600080600080600080600060e0888a031215614df757600080fd5b8751614e028161540a565b6020890151909750614e138161540a565b6040890151909650614e248161540a565b9450614e3260608901614d5a565b93506080880151925060a0880151915060c0880151905092959891949750929550565b600080600080600060a08688031215614e6d57600080fd5b8551614e788161540a565b9450614e8660208701614d5a565b9350614e9460408701614d5a565b9250614ea260608701614d5a565b9150614eb060808701614d5a565b90509295509295909350565b600060208284031215614ece57600080fd5b5051919050565b600060208284031215614ee757600080fd5b815160ff8116811461367d57600080fd5b6000815180845260005b81811015614f1e57602081850181015186830182015201614f02565b81811115614f30576000602083870101525b50601f01601f19169290920160200192915050565b600061010060018060a01b038b168352896020840152881515604084015287606084015286608084015285151560a084015284151560c08401528060e084015261354981840185614ef8565b6020815260006137736020830184614ef8565b6001600160801b0388168152600063ffffffff808916602084015280881660408401528087166060840152508460808301528360a083015260e060c0830152614ff060e0830184614ef8565b9998505050505050505050565b600082198211156150105761501061530d565b500190565b60008261502457615024615323565b500490565b600181815b8085111561506457816000190482111561504a5761504a61530d565b8085161561505757918102915b93841c939080029061502e565b509250929050565b600061377360ff84168360008261508557506001613680565b8161509257506000613680565b81600181146150a857600281146150b2576150ce565b6001915050613680565b60ff8411156150c3576150c361530d565b50506001821b613680565b5060208310610133831016604e8410600b84101617156150f1575081810a613680565b6150fb8383615029565b806000190482111561510f5761510f61530d565b029392505050565b600081600f0b83600f0b60016001607f1b036000821360008413838304851182821616156151475761514761530d565b60016001607f1b0319600085128281168783058712161561516a5761516a61530d565b600087129250858205871284841616156151865761518661530d565b8585058712818416161561519c5761519c61530d565b5050509290910295945050505050565b60008160001904831182151516156151c6576151c661530d565b500290565b60006001600160801b03838116908316818110156151eb576151eb61530d565b039392505050565b6000828210156152055761520561530d565b500390565b600063ffffffff838116908316818110156151eb576151eb61530d565b600060ff821660ff8416808210156152415761524161530d565b90039392505050565b805160208201516001600160e01b031980821692919060048310156152795780818460040360031b1b83161693505b505050919050565b601f8201601f1916810167ffffffffffffffff811182821017156152b557634e487b7160e01b600052604160045260246000fd5b6040525050565b6000826152cb576152cb615323565b500690565b600081600f0b60016001607f1b03198114156152ee576152ee61530d565b60000392915050565b634e487b7160e01b600052600160045260246000fd5b634e487b7160e01b600052601160045260246000fd5b634e487b7160e01b600052601260045260246000fd5b634e487b7160e01b600052603260045260246000fd5b600060033d11156153685760046000803e5060005160e01c5b90565b600060443d10156153795790565b6040516003193d81016004833e81513d67ffffffffffffffff81602484011181841117156153a957505050505090565b82850191508151818111156153c15750505050505090565b843d87010160208285010111156153db5750505050505090565b61429a60208286010187615281565b60008060233d1115615406576020600460003e50506000516001905b9091565b6001600160801b038116811461126557600080fdfea26469706673582212209e3a614f3deb473c7528e2becf930c962261f5a501029ab3f95981d8668f9f1b64736f6c63430008060033",
    "linkReferences": {}
  },
  "methodIdentifiers": {
    "test_reverse_swap(uint128)": "2ddd643f",
    "test_swap_risky_in(uint128)": "647603df",
    "test_swap_stable_in(uint128)": "d01e68aa"
  },
  "id": 9
}