{
  "abi": [
    {
      "inputs": [
        {
          "internalType": "address",
          "name": "engine_",
          "type": "address"
        }
      ],
      "stateMutability": "nonpayable",
      "type": "constructor"
    },
    {
      "inputs": [
        {
          "internalType": "int128",
          "name": "value",
          "type": "int128"
        }
      ],
      "name": "InverseOutOfBounds",
      "type": "error"
    },
    {
      "inputs": [
        {
          "internalType": "bytes32",
          "name": "poolId",
          "type": "bytes32"
        },
        {
          "internalType": "address",
          "name": "owner",
          "type": "address"
        },
        {
          "internalType": "uint256",
          "name": "delRisky",
          "type": "uint256"
        },
        {
          "internalType": "uint256",
          "name": "delStable",
          "type": "uint256"
        },
        {
          "internalType": "bytes",
          "name": "data",
          "type": "bytes"
        }
      ],
      "name": "allocate",
      "outputs": [],
      "stateMutability": "nonpayable",
      "type": "function"
    },
    {
      "inputs": [
        {
          "internalType": "uint256",
          "name": "delRisky",
          "type": "uint256"
        },
        {
          "internalType": "uint256",
          "name": "delStable",
          "type": "uint256"
        },
        {
          "internalType": "bytes",
          "name": "data",
          "type": "bytes"
        }
      ],
      "name": "allocateCallback",
      "outputs": [],
      "stateMutability": "nonpayable",
      "type": "function"
    },
    {
      "inputs": [
        {
          "internalType": "bytes32",
          "name": "poolId",
          "type": "bytes32"
        },
        {
          "internalType": "address",
          "name": "owner",
          "type": "address"
        },
        {
          "internalType": "uint256",
          "name": "delRisky",
          "type": "uint256"
        },
        {
          "internalType": "uint256",
          "name": "delStable",
          "type": "uint256"
        },
        {
          "internalType": "bytes",
          "name": "data",
          "type": "bytes"
        }
      ],
      "name": "allocateFromExternal",
      "outputs": [],
      "stateMutability": "nonpayable",
      "type": "function"
    },
    {
      "inputs": [
        {
          "internalType": "bytes32",
          "name": "poolId",
          "type": "bytes32"
        },
        {
          "internalType": "address",
          "name": "owner",
          "type": "address"
        },
        {
          "internalType": "uint256",
          "name": "delRisky",
          "type": "uint256"
        },
        {
          "internalType": "uint256",
          "name": "delStable",
          "type": "uint256"
        },
        {
          "internalType": "bytes",
          "name": "data",
          "type": "bytes"
        }
      ],
      "name": "allocateFromExternalNoRisky",
      "outputs": [],
      "stateMutability": "nonpayable",
      "type": "function"
    },
    {
      "inputs": [
        {
          "internalType": "bytes32",
          "name": "poolId",
          "type": "bytes32"
        },
        {
          "internalType": "address",
          "name": "owner",
          "type": "address"
        },
        {
          "internalType": "uint256",
          "name": "delRisky",
          "type": "uint256"
        },
        {
          "internalType": "uint256",
          "name": "delStable",
          "type": "uint256"
        },
        {
          "internalType": "bytes",
          "name": "data",
          "type": "bytes"
        }
      ],
      "name": "allocateFromExternalNoStable",
      "outputs": [],
      "stateMutability": "nonpayable",
      "type": "function"
    },
    {
      "inputs": [
        {
          "internalType": "bytes32",
          "name": "poolId",
          "type": "bytes32"
        },
        {
          "internalType": "address",
          "name": "owner",
          "type": "address"
        },
        {
          "internalType": "uint256",
          "name": "delRisky",
          "type": "uint256"
        },
        {
          "internalType": "uint256",
          "name": "delStable",
          "type": "uint256"
        },
        {
          "internalType": "bytes",
          "name": "data",
          "type": "bytes"
        }
      ],
      "name": "allocateFromExternalReentrancy",
      "outputs": [],
      "stateMutability": "nonpayable",
      "type": "function"
    },
    {
      "inputs": [
        {
          "internalType": "bytes32",
          "name": "poolId",
          "type": "bytes32"
        },
        {
          "internalType": "address",
          "name": "owner",
          "type": "address"
        },
        {
          "internalType": "uint256",
          "name": "delRisky",
          "type": "uint256"
        },
        {
          "internalType": "uint256",
          "name": "delStable",
          "type": "uint256"
        },
        {
          "internalType": "bytes",
          "name": "data",
          "type": "bytes"
        }
      ],
      "name": "allocateFromMargin",
      "outputs": [],
      "stateMutability": "nonpayable",
      "type": "function"
    },
    {
      "inputs": [],
      "name": "caller",
      "outputs": [
        {
          "internalType": "address",
          "name": "",
          "type": "address"
        }
      ],
      "stateMutability": "view",
      "type": "function"
    },
    {
      "inputs": [
        {
          "internalType": "uint256",
          "name": "strike",
          "type": "uint256"
        },
        {
          "internalType": "uint256",
          "name": "sigma",
          "type": "uint256"
        },
        {
          "internalType": "uint256",
          "name": "maturity",
          "type": "uint256"
        },
        {
          "internalType": "uint256",
          "name": "gamma",
          "type": "uint256"
        },
        {
          "internalType": "uint256",
          "name": "riskyPerLp",
          "type": "uint256"
        },
        {
          "internalType": "uint256",
          "name": "delLiquidity",
          "type": "uint256"
        },
        {
          "internalType": "bytes",
          "name": "data",
          "type": "bytes"
        }
      ],
      "name": "create",
      "outputs": [],
      "stateMutability": "nonpayable",
      "type": "function"
    },
    {
      "inputs": [
        {
          "internalType": "uint256",
          "name": "delRisky",
          "type": "uint256"
        },
        {
          "internalType": "uint256",
          "name": "delStable",
          "type": "uint256"
        },
        {
          "internalType": "bytes",
          "name": "data",
          "type": "bytes"
        }
      ],
      "name": "createCallback",
      "outputs": [],
      "stateMutability": "nonpayable",
      "type": "function"
    },
    {
      "inputs": [
        {
          "internalType": "address",
          "name": "owner",
          "type": "address"
        },
        {
          "internalType": "uint256",
          "name": "delRisky",
          "type": "uint256"
        },
        {
          "internalType": "uint256",
          "name": "delStable",
          "type": "uint256"
        },
        {
          "internalType": "bytes",
          "name": "data",
          "type": "bytes"
        }
      ],
      "name": "deposit",
      "outputs": [],
      "stateMutability": "nonpayable",
      "type": "function"
    },
    {
      "inputs": [
        {
          "internalType": "uint256",
          "name": "dRisky",
          "type": "uint256"
        },
        {
          "internalType": "uint256",
          "name": "dStable",
          "type": "uint256"
        },
        {
          "internalType": "bytes",
          "name": "data",
          "type": "bytes"
        }
      ],
      "name": "depositCallback",
      "outputs": [],
      "stateMutability": "nonpayable",
      "type": "function"
    },
    {
      "inputs": [
        {
          "internalType": "address",
          "name": "owner",
          "type": "address"
        },
        {
          "internalType": "uint256",
          "name": "delRisky",
          "type": "uint256"
        },
        {
          "internalType": "uint256",
          "name": "delStable",
          "type": "uint256"
        },
        {
          "internalType": "bytes",
          "name": "data",
          "type": "bytes"
        }
      ],
      "name": "depositFail",
      "outputs": [],
      "stateMutability": "nonpayable",
      "type": "function"
    },
    {
      "inputs": [
        {
          "internalType": "address",
          "name": "owner",
          "type": "address"
        },
        {
          "internalType": "uint256",
          "name": "delRisky",
          "type": "uint256"
        },
        {
          "internalType": "uint256",
          "name": "delStable",
          "type": "uint256"
        },
        {
          "internalType": "bytes",
          "name": "data",
          "type": "bytes"
        }
      ],
      "name": "depositOnlyRisky",
      "outputs": [],
      "stateMutability": "nonpayable",
      "type": "function"
    },
    {
      "inputs": [
        {
          "internalType": "address",
          "name": "owner",
          "type": "address"
        },
        {
          "internalType": "uint256",
          "name": "delRisky",
          "type": "uint256"
        },
        {
          "internalType": "uint256",
          "name": "delStable",
          "type": "uint256"
        },
        {
          "internalType": "bytes",
          "name": "data",
          "type": "bytes"
        }
      ],
      "name": "depositOnlyStable",
      "outputs": [],
      "stateMutability": "nonpayable",
      "type": "function"
    },
    {
      "inputs": [
        {
          "internalType": "address",
          "name": "owner",
          "type": "address"
        },
        {
          "internalType": "uint256",
          "name": "delRisky",
          "type": "uint256"
        },
        {
          "internalType": "uint256",
          "name": "delStable",
          "type": "uint256"
        },
        {
          "internalType": "bytes",
          "name": "data",
          "type": "bytes"
        }
      ],
      "name": "depositReentrancy",
      "outputs": [],
      "stateMutability": "nonpayable",
      "type": "function"
    },
    {
      "inputs": [],
      "name": "engine",
      "outputs": [
        {
          "internalType": "address",
          "name": "",
          "type": "address"
        }
      ],
      "stateMutability": "view",
      "type": "function"
    },
    {
      "inputs": [
        {
          "internalType": "string",
          "name": "errorString",
          "type": "string"
        }
      ],
      "name": "expect",
      "outputs": [],
      "stateMutability": "nonpayable",
      "type": "function"
    },
    {
      "inputs": [],
      "name": "expectedError",
      "outputs": [
        {
          "internalType": "string",
          "name": "",
          "type": "string"
        }
      ],
      "stateMutability": "view",
      "type": "function"
    },
    {
      "inputs": [],
      "name": "getCaller",
      "outputs": [
        {
          "internalType": "address",
          "name": "",
          "type": "address"
        }
      ],
      "stateMutability": "view",
      "type": "function"
    },
    {
      "inputs": [
        {
          "internalType": "bytes32",
          "name": "poolId",
          "type": "bytes32"
        }
      ],
      "name": "getPosition",
      "outputs": [
        {
          "internalType": "bytes32",
          "name": "posid",
          "type": "bytes32"
        }
      ],
      "stateMutability": "view",
      "type": "function"
    },
    {
      "inputs": [
        {
          "internalType": "bytes32",
          "name": "poolId",
          "type": "bytes32"
        },
        {
          "internalType": "uint256",
          "name": "deltaOut",
          "type": "uint256"
        }
      ],
      "name": "getRiskyInGivenStableOut",
      "outputs": [
        {
          "internalType": "uint256",
          "name": "",
          "type": "uint256"
        }
      ],
      "stateMutability": "view",
      "type": "function"
    },
    {
      "inputs": [
        {
          "internalType": "bytes32",
          "name": "poolId",
          "type": "bytes32"
        },
        {
          "internalType": "uint256",
          "name": "deltaIn",
          "type": "uint256"
        }
      ],
      "name": "getRiskyOutGivenStableIn",
      "outputs": [
        {
          "internalType": "uint256",
          "name": "",
          "type": "uint256"
        }
      ],
      "stateMutability": "view",
      "type": "function"
    },
    {
      "inputs": [
        {
          "internalType": "bytes32",
          "name": "poolId",
          "type": "bytes32"
        },
        {
          "internalType": "uint256",
          "name": "deltaOut",
          "type": "uint256"
        }
      ],
      "name": "getStableInGivenRiskyOut",
      "outputs": [
        {
          "internalType": "uint256",
          "name": "",
          "type": "uint256"
        }
      ],
      "stateMutability": "view",
      "type": "function"
    },
    {
      "inputs": [
        {
          "internalType": "bytes32",
          "name": "poolId",
          "type": "bytes32"
        },
        {
          "internalType": "uint256",
          "name": "deltaIn",
          "type": "uint256"
        }
      ],
      "name": "getStableOutGivenRiskyIn",
      "outputs": [
        {
          "internalType": "uint256",
          "name": "",
          "type": "uint256"
        }
      ],
      "stateMutability": "view",
      "type": "function"
    },
    {
      "inputs": [],
      "name": "name",
      "outputs": [
        {
          "internalType": "string",
          "name": "",
          "type": "string"
        }
      ],
      "stateMutability": "pure",
      "type": "function"
    },
    {
      "inputs": [
        {
          "internalType": "bytes32",
          "name": "poolId",
          "type": "bytes32"
        },
        {
          "internalType": "uint256",
          "name": "delLiquidity",
          "type": "uint256"
        },
        {
          "internalType": "bytes",
          "name": "data",
          "type": "bytes"
        }
      ],
      "name": "remove",
      "outputs": [],
      "stateMutability": "nonpayable",
      "type": "function"
    },
    {
      "inputs": [
        {
          "internalType": "bytes32",
          "name": "poolId",
          "type": "bytes32"
        },
        {
          "internalType": "uint256",
          "name": "delLiquidity",
          "type": "uint256"
        },
        {
          "internalType": "bytes",
          "name": "data",
          "type": "bytes"
        }
      ],
      "name": "removeToExternal",
      "outputs": [],
      "stateMutability": "nonpayable",
      "type": "function"
    },
    {
      "inputs": [
        {
          "internalType": "bytes32",
          "name": "poolId",
          "type": "bytes32"
        },
        {
          "internalType": "uint256",
          "name": "delLiquidity",
          "type": "uint256"
        },
        {
          "internalType": "bytes",
          "name": "data",
          "type": "bytes"
        }
      ],
      "name": "removeToMargin",
      "outputs": [],
      "stateMutability": "nonpayable",
      "type": "function"
    },
    {
      "inputs": [],
      "name": "risky",
      "outputs": [
        {
          "internalType": "address",
          "name": "",
          "type": "address"
        }
      ],
      "stateMutability": "view",
      "type": "function"
    },
    {
      "inputs": [],
      "name": "scenario",
      "outputs": [
        {
          "internalType": "enum Scenarios.Scenario",
          "name": "",
          "type": "uint8"
        }
      ],
      "stateMutability": "view",
      "type": "function"
    },
    {
      "inputs": [
        {
          "internalType": "address",
          "name": "engine_",
          "type": "address"
        }
      ],
      "name": "setEngine",
      "outputs": [],
      "stateMutability": "nonpayable",
      "type": "function"
    },
    {
      "inputs": [],
      "name": "stable",
      "outputs": [
        {
          "internalType": "address",
          "name": "",
          "type": "address"
        }
      ],
      "stateMutability": "view",
      "type": "function"
    },
    {
      "inputs": [
        {
          "internalType": "address",
          "name": "recipient",
          "type": "address"
        },
        {
          "internalType": "bytes32",
          "name": "pid",
          "type": "bytes32"
        },
        {
          "internalType": "bool",
          "name": "riskyForStable",
          "type": "bool"
        },
        {
          "internalType": "uint256",
          "name": "deltaIn",
          "type": "uint256"
        },
        {
          "internalType": "uint256",
          "name": "deltaOut",
          "type": "uint256"
        },
        {
          "internalType": "bool",
          "name": "fromMargin",
          "type": "bool"
        },
        {
          "internalType": "bool",
          "name": "toMargin",
          "type": "bool"
        },
        {
          "internalType": "bytes",
          "name": "data",
          "type": "bytes"
        }
      ],
      "name": "swap",
      "outputs": [],
      "stateMutability": "nonpayable",
      "type": "function"
    },
    {
      "inputs": [
        {
          "internalType": "uint256",
          "name": "delRisky",
          "type": "uint256"
        },
        {
          "internalType": "uint256",
          "name": "delStable",
          "type": "uint256"
        },
        {
          "internalType": "bytes",
          "name": "data",
          "type": "bytes"
        }
      ],
      "name": "swapCallback",
      "outputs": [],
      "stateMutability": "nonpayable",
      "type": "function"
    },
    {
      "inputs": [
        {
          "internalType": "uint256",
          "name": "delRisky",
          "type": "uint256"
        },
        {
          "internalType": "uint256",
          "name": "delStable",
          "type": "uint256"
        }
      ],
      "name": "withdraw",
      "outputs": [],
      "stateMutability": "nonpayable",
      "type": "function"
    },
    {
      "inputs": [
        {
          "internalType": "address",
          "name": "recipient",
          "type": "address"
        },
        {
          "internalType": "uint256",
          "name": "delRisky",
          "type": "uint256"
        },
        {
          "internalType": "uint256",
          "name": "delStable",
          "type": "uint256"
        }
      ],
      "name": "withdrawToRecipient",
      "outputs": [],
      "stateMutability": "nonpayable",
      "type": "function"
    }
  ],
  "bytecode": {
    "object": "0x60806040526000805460ff191660011790553480156200001e57600080fd5b50604051620049d5380380620049d583398101604081905262000041916200006d565b600080546001600160a01b0390921661010002610100600160a81b03199092169190911790556200009f565b6000602082840312156200008057600080fd5b81516001600160a01b03811681146200009857600080fd5b9392505050565b61492680620000af6000396000f3fe608060405234801561001057600080fd5b50600436106102275760003560e01c8063923b8a2a11610130578063c361a1d5116100b8578063d29837121161007c578063d298371214610512578063e04518ce14610525578063e43c79e914610538578063fc9c8d391461054b578063ff716a851461055e57600080fd5b8063c361a1d5146104c1578063c536e605146104d4578063c765d46114610369578063c9d4623f146104e7578063ca28fcd6146104ff57600080fd5b8063ab470f05116100ff578063ab470f051461047a578063b045aad21461048b578063c08165d41461049e578063c171d27e146104a6578063c22e4049146104b957600080fd5b8063923b8a2a1461042e5780639467bf72146104415780639e48ff5a14610454578063a918983f1461046757600080fd5b8063441a3e70116101b35780636b78c67a116101825780636b78c67a146103c857806376ba974c146103e25780637a6890a4146103f55780637b83828e1461040857806380da92a61461041b57600080fd5b8063441a3e701461037c57806351f714c81461038f57806359679c91146103a257806360ff30a3146103b557600080fd5b80631a8a7786116101fa5780631a8a77861461031057806322be3de1146103235780633a6a4dec146103435780633ce8d7bf1461035657806340673de81461036957600080fd5b806306fdde031461022c5780630e830e4914610264578063151a8bf81461029c5780631928b3cb146102af575b600080fd5b60408051808201909152600a8152692a32b9ba2937baba32b960b11b60208201525b60405161025b9190614672565b60405180910390f35b61029a610272366004613ef0565b600080546001600160a01b0390921661010002610100600160a81b0319909216919091179055565b005b61029a6102aa366004614353565b610571565b6103026102bd366004614094565b6040516bffffffffffffffffffffffff193060601b16602082015260348101829052600090605401604051602081830303815290604052805190602001209050919050565b60405190815260200161025b565b61029a61031e36600461400d565b61084f565b61032b6108f8565b6040516001600160a01b03909116815260200161025b565b61029a6103513660046140ad565b610984565b61029a61036436600461400d565b610a20565b61029a610377366004614142565b610a45565b61029a61038a366004614120565b610ad4565b61030261039d366004614120565b610b5d565b61029a6103b03660046140ad565b610f9e565b61029a6103c33660046143a6565b611005565b6000546103d59060ff1681565b60405161025b919061464a565b61029a6103f03660046141f7565b611195565b610302610403366004614120565b6111ac565b61029a610416366004613fd8565b6115c8565b61029a61042936600461400d565b611649565b61029a61043c366004614353565b61166f565b61029a61044f366004614142565b6117d2565b61029a61046236600461400d565b6118d8565b610302610475366004614120565b611926565b6001546001600160a01b031661032b565b61029a6104993660046140ad565b611d37565b61032b611d77565b61029a6104b4366004614353565b611dc6565b61024e611ea8565b61029a6104cf3660046140ad565b611f36565b61029a6104e2366004614353565b611f88565b60005461032b9061010090046001600160a01b031681565b61029a61050d366004613f2a565b612219565b61029a61052036600461400d565b6122ac565b61029a6105333660046140ad565b6122d2565b610302610546366004614120565b6122f8565b60015461032b906001600160a01b031681565b61029a61056c3660046140ad565b61268c565b6000805460ff1660048111156105895761058961489e565b141561059457610849565b600061059e611d77565b905060006105aa6108f8565b905060006105c06001546001600160a01b031690565b9050600160005460ff1660048111156105db576105db61489e565b14156106ec576040516323b872dd60e01b81526001600160a01b038416906323b872dd9061061190849033908c9060040161450b565b602060405180830381600087803b15801561062b57600080fd5b505af115801561063f573d6000803e3d6000fd5b505050506040513d601f19601f820116820180604052508101906106639190614077565b506040516323b872dd60e01b81526001600160a01b038316906323b872dd9061069490849033908b9060040161450b565b602060405180830381600087803b1580156106ae57600080fd5b505af11580156106c2573d6000803e3d6000fd5b505050506040513d601f19601f820116820180604052508101906106e69190614077565b50610838565b600260005460ff1660048111156107055761070561489e565b141561073b576040516323b872dd60e01b81526001600160a01b038416906323b872dd9061069490849033908c9060040161450b565b600360005460ff1660048111156107545761075461489e565b141561078a576040516323b872dd60e01b81526001600160a01b038316906323b872dd9061069490849033908b9060040161450b565b600460005460ff1660048111156107a3576107a361489e565b141561083857604080516000808252602082019283905263d2957b8f60e01b909252339163d2957b8f916107e49190819060019081908390602481016145ba565b602060405180830381600087803b1580156107fe57600080fd5b505af1158015610812573d6000803e3d6000fd5b505050506040513d601f19601f820116820180604052508101906108369190614316565b505b50506000805460ff19166001179055505b50505050565b600180546001600160a01b031916331781556000805460049260ff1990911690835b0217905550600054604051634f247fad60e11b81526101009091046001600160a01b031690639e48ff5a906108b2908890889088908890889060040161458c565b600060405180830381600087803b1580156108cc57600080fd5b505af11580156108e0573d6000803e3d6000fd5b50506000805460ff1916600117905550505050505050565b60008060019054906101000a90046001600160a01b03166001600160a01b03166322be3de16040518163ffffffff1660e01b815260040160206040518083038186803b15801561094757600080fd5b505afa15801561095b573d6000803e3d6000fd5b505050506040513d601f19601f8201168201806040525081019061097f9190613f0d565b905090565b60005460405163d2957b8f60e01b81526101009091046001600160a01b03169063d2957b8f906109c59089908990899089906001908a908a90600401614601565b602060405180830381600087803b1580156109df57600080fd5b505af11580156109f3573d6000803e3d6000fd5b505050506040513d601f19601f82011682018060405250810190610a179190614316565b50505050505050565b600180546001600160a01b03191633178155600080549091829160ff19169082610871565b600054604051634fc67d6f60e11b815260048101859052602481018490526101009091046001600160a01b031690639f8cfade906044016040805180830381600087803b158015610a9557600080fd5b505af1158015610aa9573d6000803e3d6000fd5b505050506040513d601f19601f82011682018060405250810190610acd919061432f565b5050505050565b600180546001600160a01b03191633908117909155600054604051635ae2fb3960e11b81526004810192909252602482018490526044820183905261010090046001600160a01b03169063b5c5f67290606401600060405180830381600087803b158015610b4157600080fd5b505af1158015610b55573d6000803e3d6000fd5b505050505050565b60008054604051622efc7960e21b8152600481018590526101009091046001600160a01b031690829081908190849062bbf1e49060240160e06040518083038186803b158015610bac57600080fd5b505afa158015610bc0573d6000803e3d6000fd5b505050506040513d601f19601f82011682018060405250810190610be49190614240565b505050509250925092506000806000806000886001600160a01b03166323c5b9528d6040518263ffffffff1660e01b8152600401610c2491815260200190565b60a06040518083038186803b158015610c3c57600080fd5b505afa158015610c50573d6000803e3d6000fd5b505050506040513d601f19601f82011682018060405250810190610c7491906142b1565b945094509450945094506000896001600160a01b031663546fecae8e6040518263ffffffff1660e01b8152600401610cae91815260200190565b60206040518083038186803b158015610cc657600080fd5b505afa158015610cda573d6000803e3d6000fd5b505050506040513d601f19601f82011682018060405250810190610cfe91906141d4565b90506000876001600160801b03168b6001600160a01b031663aaf5eb686040518163ffffffff1660e01b815260040160206040518083038186803b158015610d4557600080fd5b505afa158015610d59573d6000803e3d6000fd5b505050506040513d601f19601f82011682018060405250810190610d7d9190614316565b610d908f6001600160801b038d166147be565b610d9a919061479f565b610da4919061477d565b90506000610eb5838d6001600160a01b03166355ebb8256040518163ffffffff1660e01b815260040160206040518083038186803b158015610de557600080fd5b505afa158015610df9573d6000803e3d6000fd5b505050506040513d601f19601f82011682018060405250810190610e1d9190614316565b8e6001600160a01b0316634dd0d0566040518163ffffffff1660e01b815260040160206040518083038186803b158015610e5657600080fd5b505afa158015610e6a573d6000803e3d6000fd5b505050506040513d601f19601f82011682018060405250810190610e8e9190614316565b856001600160801b038d1663ffffffff8d16610eaa8c8e6147d5565b63ffffffff166126b2565b905060008b6001600160801b03168d6001600160a01b031663aaf5eb686040518163ffffffff1660e01b815260040160206040518083038186803b158015610efc57600080fd5b505afa158015610f10573d6000803e3d6000fd5b505050506040513d601f19601f82011682018060405250810190610f349190614316565b610f476001600160801b038d168561479f565b610f51919061477d565b610f5b91906147be565b9050600063ffffffff8616610f728361271061479f565b610f7c919061477d565b610f87906001614765565b9e5050505050505050505050505050505b92915050565b600180546001600160a01b031916331781556000805460029260ff1990911690835b02179055506000805460405163d2957b8f60e01b81526101009091046001600160a01b03169163d2957b8f916109c5918a918a918a918a91908a908a90600401614601565b600180546001600160a01b03191633179055600054604051635f003b1d60e11b81526101009091046001600160a01b03169063be00763a90611059908b908b908b908b908b908b908b908b9060040161470a565b606060405180830381600087803b15801561107357600080fd5b505af19250505080156110a3575060408051601f3d908101601f191682019092526110a0918101906141a6565b60015b611187573d8080156110d1576040519150601f19603f3d011682016040523d82523d6000602084013e6110d6565b606091505b508051602082012060408051600481526024810191829052906110fb90600290614499565b6040519081900390206020820180516001600160e01b03166001600160e01b031990921691909117815290519020141561115357600260405162461bcd60e51b815260040161114a9190614685565b60405180910390fd5b60405162461bcd60e51b8152602060048201526009602482015268556e6b6e6f776e282960b81b604482015260640161114a565b5050505b5050505050505050565b80516111a8906002906020840190613d6d565b5050565b60008054604051622efc7960e21b8152600481018590526101009091046001600160a01b031690829081908190849062bbf1e49060240160e06040518083038186803b1580156111fb57600080fd5b505afa15801561120f573d6000803e3d6000fd5b505050506040513d601f19601f820116820180604052508101906112339190614240565b505050509250925092506000806000806000886001600160a01b03166323c5b9528d6040518263ffffffff1660e01b815260040161127391815260200190565b60a06040518083038186803b15801561128b57600080fd5b505afa15801561129f573d6000803e3d6000fd5b505050506040513d601f19601f820116820180604052508101906112c391906142b1565b9450945094509450945060006127108263ffffffff168d6112e4919061479f565b6112ee919061477d565b604051632a37f65760e11b8152600481018f90529091506000906001600160a01b038c169063546fecae9060240160206040518083038186803b15801561133457600080fd5b505afa158015611348573d6000803e3d6000fd5b505050506040513d601f19601f8201168201806040525081019061136c91906141d4565b90506000886001600160801b03168c6001600160a01b031663aaf5eb686040518163ffffffff1660e01b815260040160206040518083038186803b1580156113b357600080fd5b505afa1580156113c7573d6000803e3d6000fd5b505050506040513d601f19601f820116820180604052508101906113eb9190614316565b6113fe856001600160801b038f16614765565b611408919061479f565b611412919061477d565b90506000611523838e6001600160a01b03166355ebb8256040518163ffffffff1660e01b815260040160206040518083038186803b15801561145357600080fd5b505afa158015611467573d6000803e3d6000fd5b505050506040513d601f19601f8201168201806040525081019061148b9190614316565b8f6001600160a01b0316634dd0d0566040518163ffffffff1660e01b815260040160206040518083038186803b1580156114c457600080fd5b505afa1580156114d8573d6000803e3d6000fd5b505050506040513d601f19601f820116820180604052508101906114fc9190614316565b856001600160801b038e1663ffffffff8e166115188d8f6147d5565b63ffffffff1661275f565b905060008d6001600160a01b031663aaf5eb686040518163ffffffff1660e01b815260040160206040518083038186803b15801561156057600080fd5b505afa158015611574573d6000803e3d6000fd5b505050506040513d601f19601f820116820180604052508101906115989190614316565b6115ab6001600160801b038d168461479f565b6115b5919061477d565b610f87906001600160801b038e166147be565b600180546001600160a01b03191633179055600054604051635ae2fb3960e11b81526001600160a01b03858116600483015260248201859052604482018490526101009092049091169063b5c5f67290606401600060405180830381600087803b15801561163557600080fd5b505af1158015610a17573d6000803e3d6000fd5b600180546001600160a01b031916331781556000805460039260ff199091169083610871565b6000805460ff1660048111156116875761168761489e565b141561169257610849565b600061169c611d77565b905060006116a86108f8565b905060006116be6001546001600160a01b031690565b9050861561174a576040516323b872dd60e01b81526001600160a01b038416906323b872dd906116f690849033908c9060040161450b565b602060405180830381600087803b15801561171057600080fd5b505af1158015611724573d6000803e3d6000fd5b505050506040513d601f19601f820116820180604052508101906117489190614077565b505b8515610a17576040516323b872dd60e01b81526001600160a01b038316906323b872dd9061178090849033908b9060040161450b565b602060405180830381600087803b15801561179a57600080fd5b505af11580156117ae573d6000803e3d6000fd5b505050506040513d601f19601f8201168201806040525081019061118b9190614077565b60008054604051634fc67d6f60e11b81526004810186905260248101859052829161010090046001600160a01b031690639f8cfade906044016040805180830381600087803b15801561182457600080fd5b505af1158015611838573d6000803e3d6000fd5b505050506040513d601f19601f8201168201806040525081019061185c919061432f565b600054604051635ae2fb3960e11b8152336004820152602481018490526044810183905292945090925061010090046001600160a01b03169063b5c5f672906064015b600060405180830381600087803b1580156118b957600080fd5b505af11580156118cd573d6000803e3d6000fd5b505050505050505050565b600180546001600160a01b03191633179055600054604051634f247fad60e11b81526101009091046001600160a01b031690639e48ff5a9061189f908890889088908890889060040161458c565b60008054604051622efc7960e21b8152600481018590526101009091046001600160a01b031690829081908190849062bbf1e49060240160e06040518083038186803b15801561197557600080fd5b505afa158015611989573d6000803e3d6000fd5b505050506040513d601f19601f820116820180604052508101906119ad9190614240565b505050509250925092506000806000806000886001600160a01b03166323c5b9528d6040518263ffffffff1660e01b81526004016119ed91815260200190565b60a06040518083038186803b158015611a0557600080fd5b505afa158015611a19573d6000803e3d6000fd5b505050506040513d601f19601f82011682018060405250810190611a3d91906142b1565b9450945094509450945060006127108263ffffffff168d611a5e919061479f565b611a68919061477d565b604051632a37f65760e11b8152600481018f90529091506000906001600160a01b038c169063546fecae9060240160206040518083038186803b158015611aae57600080fd5b505afa158015611ac2573d6000803e3d6000fd5b505050506040513d601f19601f82011682018060405250810190611ae691906141d4565b90506000886001600160801b03168c6001600160a01b031663aaf5eb686040518163ffffffff1660e01b815260040160206040518083038186803b158015611b2d57600080fd5b505afa158015611b41573d6000803e3d6000fd5b505050506040513d601f19601f82011682018060405250810190611b659190614316565b611b78856001600160801b038e16614765565b611b82919061479f565b611b8c919061477d565b90506000611c92838e6001600160a01b03166355ebb8256040518163ffffffff1660e01b815260040160206040518083038186803b158015611bcd57600080fd5b505afa158015611be1573d6000803e3d6000fd5b505050506040513d601f19601f82011682018060405250810190611c059190614316565b8f6001600160a01b0316634dd0d0566040518163ffffffff1660e01b815260040160206040518083038186803b158015611c3e57600080fd5b505afa158015611c52573d6000803e3d6000fd5b505050506040513d601f19601f82011682018060405250810190611c769190614316565b856001600160801b038e1663ffffffff8e16610eaa8d8f6147d5565b905060008d6001600160a01b031663aaf5eb686040518163ffffffff1660e01b815260040160206040518083038186803b158015611ccf57600080fd5b505afa158015611ce3573d6000803e3d6000fd5b505050506040513d601f19601f82011682018060405250810190611d079190614316565b611d1a6001600160801b038d168461479f565b611d24919061477d565b610f87906001600160801b038f166147be565b6000805460405163d2957b8f60e01b81526101009091046001600160a01b03169163d2957b8f916109c5918a918a918a918a91908a908a90600401614601565b60008060019054906101000a90046001600160a01b03166001600160a01b031663c08165d46040518163ffffffff1660e01b815260040160206040518083038186803b15801561094757600080fd5b6000611dd0611d77565b90506000611ddc6108f8565b90506000611df26001546001600160a01b031690565b6040516323b872dd60e01b81529091506001600160a01b038416906323b872dd90611e2590849033908c9060040161450b565b602060405180830381600087803b158015611e3f57600080fd5b505af1158015611e53573d6000803e3d6000fd5b505050506040513d601f19601f82011682018060405250810190611e779190614077565b506040516323b872dd60e01b81526001600160a01b038316906323b872dd9061178090849033908b9060040161450b565b60028054611eb5906147fa565b80601f0160208091040260200160405190810160405280929190818152602001828054611ee1906147fa565b8015611f2e5780601f10611f0357610100808354040283529160200191611f2e565b820191906000526020600020905b815481529060010190602001808311611f1157829003601f168201915b505050505081565b600180546001600160a01b031916331790556000805460405163d2957b8f60e01b81526101009091046001600160a01b03169163d2957b8f916109c5918a918a918a918a91908a908a90600401614601565b6000805460ff166004811115611fa057611fa061489e565b1415611fab57610849565b6000611fb5611d77565b90506000611fc16108f8565b90506000611fd76001546001600160a01b031690565b9050600260005460ff166004811115611ff257611ff261489e565b1415612080576040516323b872dd60e01b81526001600160a01b038416906323b872dd9061202890849033908c9060040161450b565b602060405180830381600087803b15801561204257600080fd5b505af1158015612056573d6000803e3d6000fd5b505050506040513d601f19601f8201168201806040525081019061207a9190614077565b50610a17565b600360005460ff1660048111156120995761209961489e565b14156120cf576040516323b872dd60e01b81526001600160a01b038316906323b872dd9061202890849033908b9060040161450b565b600160005460ff1660048111156120e8576120e861489e565b14156121a1576040516323b872dd60e01b81526001600160a01b038416906323b872dd9061211e90849033908c9060040161450b565b602060405180830381600087803b15801561213857600080fd5b505af115801561214c573d6000803e3d6000fd5b505050506040513d601f19601f820116820180604052508101906121709190614077565b506040516323b872dd60e01b81526001600160a01b038316906323b872dd9061202890849033908b9060040161450b565b600460005460ff1660048111156121ba576121ba61489e565b1415610a1757604051634f247fad60e11b81523390639e48ff5a906121eb9030908b908b908b908b9060040161458c565b600060405180830381600087803b15801561220557600080fd5b505af1158015611187573d6000803e3d6000fd5b600180546001600160a01b031916331790556000546040516365147e6b60e11b81526101009091046001600160a01b03169063ca28fcd69061226f908c908c908c908c908c908c908c908c908c9060040161452f565b600060405180830381600087803b15801561228957600080fd5b505af115801561229d573d6000803e3d6000fd5b50505050505050505050505050565b600180546001600160a01b031916331781556000805460029260ff199091169083610871565b600180546001600160a01b031916331781556000805460039260ff199091169083610fc0565b60008054604051622efc7960e21b8152600481018590526101009091046001600160a01b031690829081908190849062bbf1e49060240160e06040518083038186803b15801561234757600080fd5b505afa15801561235b573d6000803e3d6000fd5b505050506040513d601f19601f8201168201806040525081019061237f9190614240565b505050509250925092506000806000806000886001600160a01b03166323c5b9528d6040518263ffffffff1660e01b81526004016123bf91815260200190565b60a06040518083038186803b1580156123d757600080fd5b505afa1580156123eb573d6000803e3d6000fd5b505050506040513d601f19601f8201168201806040525081019061240f91906142b1565b945094509450945094506000896001600160a01b031663546fecae8e6040518263ffffffff1660e01b815260040161244991815260200190565b60206040518083038186803b15801561246157600080fd5b505afa158015612475573d6000803e3d6000fd5b505050506040513d601f19601f8201168201806040525081019061249991906141d4565b90506000876001600160801b03168b6001600160a01b031663aaf5eb686040518163ffffffff1660e01b815260040160206040518083038186803b1580156124e057600080fd5b505afa1580156124f4573d6000803e3d6000fd5b505050506040513d601f19601f820116820180604052508101906125189190614316565b61252b8f6001600160801b038e166147be565b612535919061479f565b61253f919061477d565b90506000612645838d6001600160a01b03166355ebb8256040518163ffffffff1660e01b815260040160206040518083038186803b15801561258057600080fd5b505afa158015612594573d6000803e3d6000fd5b505050506040513d601f19601f820116820180604052508101906125b89190614316565b8e6001600160a01b0316634dd0d0566040518163ffffffff1660e01b815260040160206040518083038186803b1580156125f157600080fd5b505afa158015612605573d6000803e3d6000fd5b505050506040513d601f19601f820116820180604052508101906126299190614316565b856001600160801b038d1663ffffffff8d166115188c8e6147d5565b905060008a6001600160801b03168d6001600160a01b031663aaf5eb686040518163ffffffff1660e01b815260040160206040518083038186803b158015610efc57600080fd5b600180546001600160a01b031916331781556000805460049260ff199091169083610fc0565b6000806126bf8588612838565b905060006126cd8585612861565b905060006126db888a612838565b9050600061270d612705856126fc8f86600f0b61289e90919063ffffffff16565b600f0b906128d9565b600f0b612931565b9050600061271f600f83900b856129eb565b9050600061273d61273283600f0b612a1e565b600160401b9061289e565b905061274d600f82900b8e612ac9565b9e9d5050505050505050505050505050565b60008061276c8588612838565b9050600061277a878a612838565b9050600061278c600160401b8361289e565b905084156128085760006127a08787612861565b905060006127b083600f0b612931565b905060006127c2600f83900b8461289e565b905060006127ed8f6127e46127d985600f0b612a1e565b600f8b900b90612aee565b600f0b906129eb565b90506127fd600f82900b8e612ac9565b97505050505061282a565b6128278961281e8d6127e4600f88900b86612aee565b600f0b90612ac9565b93505b505050979650505050505050565b60008061284d83670de0b6b3a764000061477d565b90506128598482612b24565b949350505050565b60008061287861287084612b5b565b600f0b612b6b565b9050600061288585612b8d565b9050612895600f82900b83612aee565b95945050505050565b6000600f82810b9084900b0360016001607f1b031981128015906128c9575060016001607f1b038113155b6128d257600080fd5b9392505050565b600081600f0b600014156128ec57600080fd5b600082600f0b604085600f0b901b8161290757612907614888565b05905060016001607f1b031981128015906128c9575060016001607f1b038113156128d257600080fd5b6000600160401b600f83900b12158061294e5750600082600f0b13155b1561297257604051630e59931d60e31b8152600f83900b600482015260240161114a565b67f999999999999999600f83900b1380159061299a5750670666666666666666600f83900b12155b156129a857610f9882612b9b565b670666666666666666600f83900b12156129c557610f9882612c39565b60006129dd6129d8600160401b8561289e565b612c39565b6128d290614835565b919050565b6000600f83810b9083900b0160016001607f1b031981128015906128c9575060016001607f1b038113156128d257600080fd5b600080612a38600f84900b68016a09e667f3bcc9086128d9565b90506000612a76612a6b612a60612a5185600f0b612d03565b6753dd02a4f5ee2e4690612aee565b600160401b906129eb565b600160401b906128d9565b90506000612a848383612d36565b9050600083600f0b1215612aa157612a9e81600f0b612dfb565b90505b6000612abf612ab4600160401b846129eb565b6001603f1b90612aee565b9695505050505050565b600080612ade83670de0b6b3a764000061477d565b9050612859600f85900b82612e16565b6000600f83810b9083900b0260401d60016001607f1b031981128015906128c9575060016001607f1b038113156128d257600080fd5b600081612b3057600080fd5b6000612b3c8484612e7e565b905060016001607f1b036001600160801b03821611156128d257600080fd5b6000610f98826301e18558612b24565b60008082600f0b1215612b7d57600080fd5b610f98604083600f0b901b612fe0565b6000610f9882612710612b24565b600080612bb0600f84900b6001603f1b61289e565b90506000612bc2600f83900b83612aee565b90506000612895612c2e612c1e612bff6721d0a04b0e9b94f16127e4612bf167c2bf5d74c724e53e1989612aee565b6127e4600f8a900b8a612aee565b6126fc6726a8f3c1f21b336e6127e46787c57e5da70d3c8f1989612aee565b68015d71f5721242c787906129eb565b600f85900b90612aee565b600080612c5b612870612c53612a6b600f87900b87612aee565b600f0b61314e565b90506000612c7f6707a1e70f720eca436127e46801000bf627fa1884101985612aee565b90506000612ca36810aeac93f55267a9a56127e468041ed34a256149023686612aee565b90506000612cd868072c7d592d021fb1db6127e4612cca6808c27b4617f5f800ea88612aee565b6127e4600f89900b89612aee565b90506000612cf8612ced600f85900b846128d9565b600f86900b906129eb565b979650505050505050565b6000600f82900b60016001607f1b03191415612d1e57600080fd5b600082600f0b12612d2f5781610f98565b5060000390565b600080612d88612c2e612d78612d6d612d5c600f88900b68010fb844255a12d72e612aee565b68017401c57014c38f1319906129eb565b600f87900b90612aee565b68016a09e667f3bcc908906129eb565b90506000612db4612da5612d6d6748d4c730f051a5fd19856129eb565b67413c831bb169f874906129eb565b90506000612abf612732612df0612de5612ddd612dd5600f8c900b8c612aee565b600f0b612dfb565b600f0b613188565b600f86900b90612aee565b600f88900b90612aee565b6000600f82900b60016001607f1b03191415612d2f57600080fd5b600081612e2557506000610f98565b600083600f0b1215612e3657600080fd5b600f83900b6001600160801b038316810260401c90608084901c026001600160c01b03811115612e6557600080fd5b60401b8119811115612e7657600080fd5b019392505050565b600081612e8a57600080fd5b60006001600160c01b038411612eb55782604085901b81612ead57612ead614888565b049050612fcc565b60c084811c6401000000008110612ece576020918201911c5b620100008110612ee0576010918201911c5b6101008110612ef1576008918201911c5b60108110612f01576004918201911c5b60048110612f11576002918201911c5b60028110612f20576001820191505b60bf820360018603901c6001018260ff0387901b81612f4157612f41614888565b0492506001600160801b03831115612f5857600080fd5b608085901c83026001600160801b038616840260c088901c604089901b82811015612f84576001820391505b608084901b92900382811015612f9b576001820391505b829003608084901c8214612fb157612fb161485c565b888181612fc057612fc0614888565b04870196505050505050505b6001600160801b038111156128d257600080fd5b600081612fef57506000919050565b816001600160801b82106130085760809190911c9060401b5b600160401b821061301e5760409190911c9060201b5b64010000000082106130355760209190911c9060101b5b62010000821061304a5760109190911c9060081b5b610100821061305e5760089190911c9060041b5b601082106130715760049190911c9060021b5b6008821061307d5760011b5b600181858161308e5761308e614888565b048201901c905060018185816130a6576130a6614888565b048201901c905060018185816130be576130be614888565b048201901c905060018185816130d6576130d6614888565b048201901c905060018185816130ee576130ee614888565b048201901c9050600181858161310657613106614888565b048201901c9050600181858161311e5761311e614888565b048201901c9050600081858161313657613136614888565b0490508082106131465780612895565b509392505050565b60008082600f0b1361315f57600080fd5b608061316a836131dd565b600f0b6fb17217f7d1cf79abc9e3b39803f2f6af02901c9050919050565b6000600160461b82600f0b1261319d57600080fd5b683fffffffffffffffff1982600f0b12156131ba57506000919050565b610f98608083600f0b700171547652b82fe1777d0ffda0d23a7d1202901d6132b8565b60008082600f0b136131ee57600080fd5b6000600f83900b600160401b8112613208576040918201911d5b640100000000811261321c576020918201911d5b62010000811261322e576010918201911d5b610100811261323f576008918201911d5b6010811261324f576004918201911d5b6004811261325f576002918201911d5b6002811261326e576001820191505b603f19820160401b600f85900b607f8490031b6001603f1b5b60008113156132ad5790800260ff81901c8281029390930192607f011c9060011d613287565b509095945050505050565b6000600160461b82600f0b126132cd57600080fd5b683fffffffffffffffff1982600f0b12156132ea57506000919050565b6001607f1b60006001603f1b8416600f0b13156133185770016a09e667f3bcc908b2fb1366ea957d3e0260801c5b60008367400000000000000016600f0b1315613345577001306fe0a31b7152de8d5a46305c85edec0260801c5b60008367200000000000000016600f0b1315613372577001172b83c7d517adcdf7c8c50eb14a791f0260801c5b60008367100000000000000016600f0b131561339f5770010b5586cf9890f6298b92b71842a983630260801c5b60008367080000000000000016600f0b13156133cc577001059b0d31585743ae7c548eb68ca417fd0260801c5b60008367040000000000000016600f0b13156133f957700102c9a3e778060ee6f7caca4f7a29bde80260801c5b60008367020000000000000016600f0b13156134265770010163da9fb33356d84a66ae336dcdfa3f0260801c5b60008367010000000000000016600f0b131561345357700100b1afa5abcbed6129ab13ec11dc95430260801c5b600083668000000000000016600f0b131561347f5770010058c86da1c09ea1ff19d294cf2f679b0260801c5b600083664000000000000016600f0b13156134ab577001002c605e2e8cec506d21bfc89a23a00f0260801c5b600083662000000000000016600f0b13156134d757700100162f3904051fa128bca9c55c31e5df0260801c5b600083661000000000000016600f0b1315613503577001000b175effdc76ba38e31671ca9397250260801c5b600083660800000000000016600f0b131561352f57700100058ba01fb9f96d6cacd4b180917c3d0260801c5b600083660400000000000016600f0b131561355b5770010002c5cc37da9491d0985c348c68e7b30260801c5b600083660200000000000016600f0b1315613587577001000162e525ee054754457d59952920260260801c5b600083660100000000000016600f0b13156135b35770010000b17255775c040618bf4a4ade83fc0260801c5b6000836580000000000016600f0b13156135de577001000058b91b5bc9ae2eed81e9b7d4cfab0260801c5b6000836540000000000016600f0b131561360957700100002c5c89d5ec6ca4d7c8acc017b7c90260801c5b6000836520000000000016600f0b13156136345770010000162e43f4f831060e02d839a9d16d0260801c5b6000836510000000000016600f0b131561365f57700100000b1721bcfc99d9f890ea069117630260801c5b6000836508000000000016600f0b131561368a5770010000058b90cf1e6d97f9ca14dbcc16280260801c5b6000836504000000000016600f0b13156136b5577001000002c5c863b73f016468f6bac5ca2b0260801c5b6000836502000000000016600f0b13156136e057700100000162e430e5a18f6119e3c02282a50260801c5b6000836501000000000016600f0b131561370b577001000000b1721835514b86e6d96efd1bfe0260801c5b60008364800000000016600f0b131561373557700100000058b90c0b48c6be5df846c5b2ef0260801c5b60008364400000000016600f0b131561375f5770010000002c5c8601cc6b9e94213c72737a0260801c5b60008364200000000016600f0b1315613789577001000000162e42fff037df38aa2b219f060260801c5b60008364100000000016600f0b13156137b35770010000000b17217fba9c739aa5819f44f90260801c5b60008364080000000016600f0b13156137dd577001000000058b90bfcdee5acd3c1cedc8230260801c5b60008364040000000016600f0b131561380757700100000002c5c85fe31f35a6a30da1be500260801c5b60008364020000000016600f0b13156138315770010000000162e42ff0999ce3541b9fffcf0260801c5b60008364010000000016600f0b131561385b57700100000000b17217f80f4ef5aadda455540260801c5b600083638000000016600f0b13156138845770010000000058b90bfbf8479bd5a81b51ad0260801c5b600083634000000016600f0b13156138ad577001000000002c5c85fdf84bd62ae30a74cc0260801c5b600083632000000016600f0b13156138d657700100000000162e42fefb2fed257559bdaa0260801c5b600083631000000016600f0b13156138ff577001000000000b17217f7d5a7716bba4a9ae0260801c5b600083630800000016600f0b131561392857700100000000058b90bfbe9ddbac5e109cce0260801c5b600083630400000016600f0b13156139515770010000000002c5c85fdf4b15de6f17eb0d0260801c5b600083630200000016600f0b131561397a577001000000000162e42fefa494f1478fde050260801c5b600083630100000016600f0b13156139a35770010000000000b17217f7d20cf927c8e94c0260801c5b6000836280000016600f0b13156139cb577001000000000058b90bfbe8f71cb4e4b33d0260801c5b6000836240000016600f0b13156139f357700100000000002c5c85fdf477b662b269450260801c5b6000836220000016600f0b1315613a1b5770010000000000162e42fefa3ae53369388c0260801c5b6000836210000016600f0b1315613a4357700100000000000b17217f7d1d351a389d400260801c5b6000836208000016600f0b1315613a6b5770010000000000058b90bfbe8e8b2d3d4ede0260801c5b6000836204000016600f0b1315613a93577001000000000002c5c85fdf4741bea6e77e0260801c5b6000836202000016600f0b1315613abb57700100000000000162e42fefa39fe95583c20260801c5b6000836201000016600f0b1315613ae3577001000000000000b17217f7d1cfb72b45e10260801c5b60008361800016600f0b1315613b0a57700100000000000058b90bfbe8e7cc35c3f00260801c5b60008361400016600f0b1315613b315770010000000000002c5c85fdf473e242ea380260801c5b60008361200016600f0b1315613b58577001000000000000162e42fefa39f02b772c0260801c5b60008361100016600f0b1315613b7f5770010000000000000b17217f7d1cf7d83c1a0260801c5b60008361080016600f0b1315613ba6577001000000000000058b90bfbe8e7bdcbe2e0260801c5b60008361040016600f0b1315613bcd57700100000000000002c5c85fdf473dea871f0260801c5b60008361020016600f0b1315613bf45770010000000000000162e42fefa39ef44d910260801c5b60008361010016600f0b1315613c1b57700100000000000000b17217f7d1cf79e9490260801c5b600083608016600f0b1315613c415770010000000000000058b90bfbe8e7bce5440260801c5b600083604016600f0b1315613c67577001000000000000002c5c85fdf473de6eca0260801c5b600083602016600f0b1315613c8d57700100000000000000162e42fefa39ef366f0260801c5b600083601016600f0b1315613cb3577001000000000000000b17217f7d1cf79afa0260801c5b600083600816600f0b1315613cd957700100000000000000058b90bfbe8e7bcd6d0260801c5b600083600416600f0b1315613cff5770010000000000000002c5c85fdf473de6b20260801c5b600083600216600f0b1315613d25577001000000000000000162e42fefa39ef3580260801c5b600083600116600f0b1315613d4b5770010000000000000000b17217f7d1cf79ab0260801c5b600f83810b60401d603f03900b1c60016001607f1b03811115610f9857600080fd5b828054613d79906147fa565b90600052602060002090601f016020900481019282613d9b5760008555613de1565b82601f10613db457805160ff1916838001178555613de1565b82800160010185558215613de1579182015b82811115613de1578251825591602001919060010190613dc6565b50613ded929150613df1565b5090565b5b80821115613ded5760008155600101613df2565b600067ffffffffffffffff80841115613e2157613e216148b4565b604051601f8501601f19908116603f01168101908282118183101715613e4957613e496148b4565b81604052809350858152868686011115613e6257600080fd5b858560208301376000602087830101525050509392505050565b60008083601f840112613e8e57600080fd5b50813567ffffffffffffffff811115613ea657600080fd5b602083019150836020828501011115613ebe57600080fd5b9250929050565b80516001600160801b03811681146129e657600080fd5b805163ffffffff811681146129e657600080fd5b600060208284031215613f0257600080fd5b81356128d2816148ca565b600060208284031215613f1f57600080fd5b81516128d2816148ca565b60008060008060008060008060006101008a8c031215613f4957600080fd5b8935613f54816148ca565b985060208a0135975060408a0135613f6b816148e2565b965060608a0135955060808a0135945060a08a0135613f89816148e2565b935060c08a0135613f99816148e2565b925060e08a013567ffffffffffffffff811115613fb557600080fd5b613fc18c828d01613e7c565b915080935050809150509295985092959850929598565b600080600060608486031215613fed57600080fd5b8335613ff8816148ca565b95602085013595506040909401359392505050565b60008060008060006080868803121561402557600080fd5b8535614030816148ca565b94506020860135935060408601359250606086013567ffffffffffffffff81111561405a57600080fd5b61406688828901613e7c565b969995985093965092949392505050565b60006020828403121561408957600080fd5b81516128d2816148e2565b6000602082840312156140a657600080fd5b5035919050565b60008060008060008060a087890312156140c657600080fd5b8635955060208701356140d8816148ca565b94506040870135935060608701359250608087013567ffffffffffffffff81111561410257600080fd5b61410e89828a01613e7c565b979a9699509497509295939492505050565b6000806040838503121561413357600080fd5b50508035926020909101359150565b60008060006060848603121561415757600080fd5b8335925060208401359150604084013567ffffffffffffffff81111561417c57600080fd5b8401601f8101861361418d57600080fd5b61419c86823560208401613e06565b9150509250925092565b6000806000606084860312156141bb57600080fd5b8351925060208401519150604084015190509250925092565b6000602082840312156141e657600080fd5b815180600f0b81146128d257600080fd5b60006020828403121561420957600080fd5b813567ffffffffffffffff81111561422057600080fd5b8201601f8101841361423157600080fd5b61285984823560208401613e06565b600080600080600080600060e0888a03121561425b57600080fd5b61426488613ec5565b965061427260208901613ec5565b955061428060408901613ec5565b945061428e60608901613edc565b93506080880151925060a0880151915060c0880151905092959891949750929550565b600080600080600060a086880312156142c957600080fd5b6142d286613ec5565b94506142e060208701613edc565b93506142ee60408701613edc565b92506142fc60608701613edc565b915061430a60808701613edc565b90509295509295909350565b60006020828403121561432857600080fd5b5051919050565b6000806040838503121561434257600080fd5b505080516020909101519092909150565b6000806000806060858703121561436957600080fd5b8435935060208501359250604085013567ffffffffffffffff81111561438e57600080fd5b61439a87828801613e7c565b95989497509550505050565b60008060008060008060008060e0898b0312156143c257600080fd5b883597506020890135965060408901359550606089013594506080890135935060a0890135925060c089013567ffffffffffffffff81111561440357600080fd5b61440f8b828c01613e7c565b999c989b5096995094979396929594505050565b81835281816020850137506000828201602090810191909152601f909101601f19169091010190565b6000815180845260005b8181101561447257602081850181015186830182015201614456565b81811115614484576000602083870101525b50601f01601f19169290920160200192915050565b60008083546144a7816147fa565b600182811680156144bf57600181146144d0576144ff565b60ff198416875282870194506144ff565b8760005260208060002060005b858110156144f65781548a8201529084019082016144dd565b50505082870194505b50929695505050505050565b6001600160a01b039384168152919092166020820152604081019190915260600190565b600061010060018060a01b038c1683528a6020840152891515604084015288606084015287608084015286151560a084015285151560c08401528060e084015261457c8184018587614423565b9c9b505050505050505050505050565b60018060a01b0386168152846020820152836040820152608060608201526000612cf8608083018486614423565b86815260018060a01b0386166020820152846040820152836060820152821515608082015260c060a082015260006145f560c083018461444c565b98975050505050505050565b87815260018060a01b0387166020820152856040820152846060820152831515608082015260c060a0820152600061463d60c083018486614423565b9998505050505050505050565b602081016005831061466c57634e487b7160e01b600052602160045260246000fd5b91905290565b6020815260006128d2602083018461444c565b6000602080835260008454614699816147fa565b808487015260406001808416600081146146ba57600181146146ce576146fc565b60ff198516898401526060890195506146fc565b896000528660002060005b858110156146f45781548b82018601529083019088016146d9565b8a0184019650505b509398975050505050505050565b6001600160801b0389168152600063ffffffff808a16602084015280891660408401528088166060840152508560808301528460a083015260e060c083015261475760e083018486614423565b9a9950505050505050505050565b6000821982111561477857614778614872565b500190565b60008261479a57634e487b7160e01b600052601260045260246000fd5b500490565b60008160001904831182151516156147b9576147b9614872565b500290565b6000828210156147d0576147d0614872565b500390565b600063ffffffff838116908316818110156147f2576147f2614872565b039392505050565b600181811c9082168061480e57607f821691505b6020821081141561482f57634e487b7160e01b600052602260045260246000fd5b50919050565b600081600f0b60016001607f1b031981141561485357614853614872565b60000392915050565b634e487b7160e01b600052600160045260246000fd5b634e487b7160e01b600052601160045260246000fd5b634e487b7160e01b600052601260045260246000fd5b634e487b7160e01b600052602160045260246000fd5b634e487b7160e01b600052604160045260246000fd5b6001600160a01b03811681146148df57600080fd5b50565b80151581146148df57600080fdfea264697066735822122073fe696b0a8b4437af5aed5353eeff2dd994c79d6c162ec4a4fb64382554e2cb64736f6c63430008060033",
    "linkReferences": {}
  },
  "methodIdentifiers": {
    "allocate(bytes32,address,uint256,uint256,bytes)": "b045aad2",
    "allocateCallback(uint256,uint256,bytes)": "151a8bf8",
    "allocateFromExternal(bytes32,address,uint256,uint256,bytes)": "c361a1d5",
    "allocateFromExternalNoRisky(bytes32,address,uint256,uint256,bytes)": "e04518ce",
    "allocateFromExternalNoStable(bytes32,address,uint256,uint256,bytes)": "59679c91",
    "allocateFromExternalReentrancy(bytes32,address,uint256,uint256,bytes)": "ff716a85",
    "allocateFromMargin(bytes32,address,uint256,uint256,bytes)": "3a6a4dec",
    "caller()": "fc9c8d39",
    "create(uint256,uint256,uint256,uint256,uint256,uint256,bytes)": "60ff30a3",
    "createCallback(uint256,uint256,bytes)": "c171d27e",
    "deposit(address,uint256,uint256,bytes)": "9e48ff5a",
    "depositCallback(uint256,uint256,bytes)": "c536e605",
    "depositFail(address,uint256,uint256,bytes)": "3ce8d7bf",
    "depositOnlyRisky(address,uint256,uint256,bytes)": "d2983712",
    "depositOnlyStable(address,uint256,uint256,bytes)": "80da92a6",
    "depositReentrancy(address,uint256,uint256,bytes)": "1a8a7786",
    "engine()": "c9d4623f",
    "expect(string)": "76ba974c",
    "expectedError()": "c22e4049",
    "getCaller()": "ab470f05",
    "getPosition(bytes32)": "1928b3cb",
    "getRiskyInGivenStableOut(bytes32,uint256)": "51f714c8",
    "getRiskyOutGivenStableIn(bytes32,uint256)": "a918983f",
    "getStableInGivenRiskyOut(bytes32,uint256)": "e43c79e9",
    "getStableOutGivenRiskyIn(bytes32,uint256)": "7a6890a4",
    "name()": "06fdde03",
    "remove(bytes32,uint256,bytes)": "c765d461",
    "removeToExternal(bytes32,uint256,bytes)": "9467bf72",
    "removeToMargin(bytes32,uint256,bytes)": "40673de8",
    "risky()": "c08165d4",
    "scenario()": "6b78c67a",
    "setEngine(address)": "0e830e49",
    "stable()": "22be3de1",
    "swap(address,bytes32,bool,uint256,uint256,bool,bool,bytes)": "ca28fcd6",
    "swapCallback(uint256,uint256,bytes)": "923b8a2a",
    "withdraw(uint256,uint256)": "441a3e70",
    "withdrawToRecipient(address,uint256,uint256)": "7b83828e"
  },
  "id": 33
}