{
  "abi": [
    {
      "inputs": [],
      "stateMutability": "nonpayable",
      "type": "constructor"
    },
    {
      "inputs": [
        {
          "internalType": "int128",
          "name": "value",
          "type": "int128"
        }
      ],
      "name": "InverseOutOfBounds",
      "type": "error"
    },
    {
      "inputs": [],
      "name": "PRECISION",
      "outputs": [
        {
          "internalType": "uint256",
          "name": "",
          "type": "uint256"
        }
      ],
      "stateMutability": "view",
      "type": "function"
    },
    {
      "inputs": [
        {
          "internalType": "uint256",
          "name": "x",
          "type": "uint256"
        }
      ],
      "name": "cdf",
      "outputs": [
        {
          "internalType": "int128",
          "name": "",
          "type": "int128"
        }
      ],
      "stateMutability": "pure",
      "type": "function"
    },
    {
      "inputs": [
        {
          "internalType": "int128",
          "name": "z",
          "type": "int128"
        }
      ],
      "name": "cdfX64",
      "outputs": [
        {
          "internalType": "int128",
          "name": "",
          "type": "int128"
        }
      ],
      "stateMutability": "pure",
      "type": "function"
    },
    {
      "inputs": [
        {
          "internalType": "uint256",
          "name": "x",
          "type": "uint256"
        }
      ],
      "name": "icdf",
      "outputs": [
        {
          "internalType": "int128",
          "name": "y",
          "type": "int128"
        }
      ],
      "stateMutability": "pure",
      "type": "function"
    },
    {
      "inputs": [
        {
          "internalType": "uint256",
          "name": "x",
          "type": "uint256"
        }
      ],
      "name": "inverseCDF",
      "outputs": [
        {
          "internalType": "int128",
          "name": "y",
          "type": "int128"
        }
      ],
      "stateMutability": "pure",
      "type": "function"
    },
    {
      "inputs": [],
      "name": "inverseCDFHighTail",
      "outputs": [
        {
          "internalType": "int128",
          "name": "y",
          "type": "int128"
        }
      ],
      "stateMutability": "pure",
      "type": "function"
    },
    {
      "inputs": [],
      "name": "inverseCDFLowTail",
      "outputs": [
        {
          "internalType": "int128",
          "name": "y",
          "type": "int128"
        }
      ],
      "stateMutability": "pure",
      "type": "function"
    },
    {
      "inputs": [
        {
          "internalType": "uint256",
          "name": "x",
          "type": "uint256"
        }
      ],
      "name": "signedCDF",
      "outputs": [
        {
          "internalType": "int128",
          "name": "",
          "type": "int128"
        }
      ],
      "stateMutability": "pure",
      "type": "function"
    },
    {
      "inputs": [
        {
          "internalType": "uint256",
          "name": "x",
          "type": "uint256"
        }
      ],
      "name": "signedInverseCDF",
      "outputs": [
        {
          "internalType": "int128",
          "name": "y",
          "type": "int128"
        }
      ],
      "stateMutability": "pure",
      "type": "function"
    }
  ],
  "bytecode": {
    "object": "0x608060405234801561001057600080fd5b506117ad806100206000396000f3fe608060405234801561001057600080fd5b50600436106100935760003560e01c806399607bd01161006657806399607bd0146100e6578063a4c376c1146100f9578063a85182451461010c578063aaf5eb681461011f578063fecec36a1461013c57600080fd5b80630a2c68d71461009857806316255a25146100b857806354fa95b3146100c057806360042c7e146100d3575b600080fd5b6100a061014f565b604051600f9190910b81526020015b60405180910390f35b6100a0610179565b6100a06100ce3660046116db565b61018f565b6100a06100e13660046116db565b6101c2565b6100a06100f43660046116db565b6101d7565b6100a06101073660046116db565b6101fa565b6100a061011a3660046116db565b610208565b61012e670de0b6b3a764000081565b6040519081526020016100af565b6100a061014a3660046116b8565b610226565b60008061016567f9999999999999996001610245565b905061017381600f0b610279565b91505090565b6000806101656706666666666666666001610332565b6000806101a483670de0b6b3a7640000610365565b6101ad90611716565b90506101bb81600f0b61039c565b9392505050565b6000806101ad83670de0b6b3a7640000610365565b6000806101ec83670de0b6b3a7640000610365565b90506101bb81600f0b610279565b6000806101ec836001610447565b60008061021d83670de0b6b3a7640000610365565b6101ec90611716565b600061023182611716565b915061023f82600f0b61039c565b92915050565b6000600f83810b9083900b0160016001607f1b03198112801590610270575060016001607f1b038113155b6101bb57600080fd5b6000600160401b600f83900b1215806102965750600082600f0b13155b156102be57604051630e59931d60e31b8152600f83900b600482015260240160405180910390fd5b67f999999999999999600f83900b138015906102e65750670666666666666666600f83900b12155b156102f45761023f82610470565b670666666666666666600f83900b12156103115761023f82610529565b6000610329610324600160401b85610332565b610529565b6101bb90611716565b6000600f82810b9084900b0360016001607f1b03198112801590610270575060016001607f1b038113156101bb57600080fd5b60008161037157600080fd5b600061037d84846105fb565b905060016001607f1b036001600160801b03821611156101bb57600080fd5b6000806103b6600f84900b68016a09e667f3bcc90861075d565b905060006103f46103e96103de6103cf85600f0b6107b5565b6753dd02a4f5ee2e46906107e8565b600160401b90610245565b600160401b9061075d565b90506000610402838361081e565b9050600083600f0b121561041f5761041c81600f0b6108ee565b90505b600061043d610432600160401b84610245565b6001603f1b906107e8565b9695505050505050565b60008061045c83670de0b6b3a76400006116f4565b90506104688482610365565b949350505050565b600080610485600f84900b6001603f1b610332565b90506000610497600f83900b836107e8565b905060006105206105156105056104dd6721d0a04b0e9b94f16104d46104c667c2bf5d74c724e53e19896107e8565b6104d4600f8a900b8a6107e8565b600f0b90610245565b6104fc6726a8f3c1f21b336e6104d46787c57e5da70d3c8f19896107e8565b600f0b9061075d565b68015d71f5721242c78790610245565b600f85900b906107e8565b95945050505050565b60008061055361054b6105436103e9600f87900b876107e8565b600f0b610909565b600f0b610943565b905060006105776707a1e70f720eca436104d46801000bf627fa18841019856107e8565b9050600061059b6810aeac93f55267a9a56104d468041ed34a2561490236866107e8565b905060006105d068072c7d592d021fb1db6104d46105c26808c27b4617f5f800ea886107e8565b6104d4600f89900b896107e8565b905060006105f06105e5600f85900b8461075d565b600f86900b90610245565b979650505050505050565b60008161060757600080fd5b60006001600160c01b0384116106325782604085901b8161062a5761062a611761565b049050610749565b60c084811c640100000000811061064b576020918201911c5b62010000811061065d576010918201911c5b610100811061066e576008918201911c5b6010811061067e576004918201911c5b6004811061068e576002918201911c5b6002811061069d576001820191505b60bf820360018603901c6001018260ff0387901b816106be576106be611761565b0492506001600160801b038311156106d557600080fd5b608085901c83026001600160801b038616840260c088901c604089901b82811015610701576001820391505b608084901b92900382811015610718576001820391505b829003608084901c821461072e5761072e61174b565b88818161073d5761073d611761565b04870196505050505050505b6001600160801b038111156101bb57600080fd5b600081600f0b6000141561077057600080fd5b600082600f0b604085600f0b901b8161078b5761078b611761565b05905060016001607f1b03198112801590610270575060016001607f1b038113156101bb57600080fd5b6000600f82900b60016001607f1b031914156107d057600080fd5b600082600f0b126107e1578161023f565b5060000390565b6000600f83810b9083900b0260401d60016001607f1b03198112801590610270575060016001607f1b038113156101bb57600080fd5b600080610870610515610860610855610844600f88900b68010fb844255a12d72e6107e8565b68017401c57014c38f131990610245565b600f87900b906107e8565b68016a09e667f3bcc90890610245565b9050600061089c61088d6108556748d4c730f051a5fd1985610245565b67413c831bb169f87490610245565b9050600061043d6108e36108d86108cd6108c56108bd600f8c900b8c6107e8565b600f0b6108ee565b600f0b610965565b600f86900b906107e8565b600f88900b906107e8565b600160401b90610332565b6000600f82900b60016001607f1b031914156107e157600080fd5b60008082600f0b1361091a57600080fd5b6080610925836109ba565b600f0b6fb17217f7d1cf79abc9e3b39803f2f6af02901c9050919050565b60008082600f0b121561095557600080fd5b61023f604083600f0b901b610a95565b6000600160461b82600f0b1261097a57600080fd5b683fffffffffffffffff1982600f0b121561099757506000919050565b61023f608083600f0b700171547652b82fe1777d0ffda0d23a7d1202901d610c03565b60008082600f0b136109cb57600080fd5b6000600f83900b600160401b81126109e5576040918201911d5b64010000000081126109f9576020918201911d5b620100008112610a0b576010918201911d5b6101008112610a1c576008918201911d5b60108112610a2c576004918201911d5b60048112610a3c576002918201911d5b60028112610a4b576001820191505b603f19820160401b600f85900b607f8490031b6001603f1b5b6000811315610a8a5790800260ff81901c8281029390930192607f011c9060011d610a64565b509095945050505050565b600081610aa457506000919050565b816001600160801b8210610abd5760809190911c9060401b5b600160401b8210610ad35760409190911c9060201b5b6401000000008210610aea5760209190911c9060101b5b620100008210610aff5760109190911c9060081b5b6101008210610b135760089190911c9060041b5b60108210610b265760049190911c9060021b5b60088210610b325760011b5b6001818581610b4357610b43611761565b048201901c90506001818581610b5b57610b5b611761565b048201901c90506001818581610b7357610b73611761565b048201901c90506001818581610b8b57610b8b611761565b048201901c90506001818581610ba357610ba3611761565b048201901c90506001818581610bbb57610bbb611761565b048201901c90506001818581610bd357610bd3611761565b048201901c90506000818581610beb57610beb611761565b049050808210610bfb5780610520565b509392505050565b6000600160461b82600f0b12610c1857600080fd5b683fffffffffffffffff1982600f0b1215610c3557506000919050565b6001607f1b60006001603f1b8416600f0b1315610c635770016a09e667f3bcc908b2fb1366ea957d3e0260801c5b60008367400000000000000016600f0b1315610c90577001306fe0a31b7152de8d5a46305c85edec0260801c5b60008367200000000000000016600f0b1315610cbd577001172b83c7d517adcdf7c8c50eb14a791f0260801c5b60008367100000000000000016600f0b1315610cea5770010b5586cf9890f6298b92b71842a983630260801c5b60008367080000000000000016600f0b1315610d17577001059b0d31585743ae7c548eb68ca417fd0260801c5b60008367040000000000000016600f0b1315610d4457700102c9a3e778060ee6f7caca4f7a29bde80260801c5b60008367020000000000000016600f0b1315610d715770010163da9fb33356d84a66ae336dcdfa3f0260801c5b60008367010000000000000016600f0b1315610d9e57700100b1afa5abcbed6129ab13ec11dc95430260801c5b600083668000000000000016600f0b1315610dca5770010058c86da1c09ea1ff19d294cf2f679b0260801c5b600083664000000000000016600f0b1315610df6577001002c605e2e8cec506d21bfc89a23a00f0260801c5b600083662000000000000016600f0b1315610e2257700100162f3904051fa128bca9c55c31e5df0260801c5b600083661000000000000016600f0b1315610e4e577001000b175effdc76ba38e31671ca9397250260801c5b600083660800000000000016600f0b1315610e7a57700100058ba01fb9f96d6cacd4b180917c3d0260801c5b600083660400000000000016600f0b1315610ea65770010002c5cc37da9491d0985c348c68e7b30260801c5b600083660200000000000016600f0b1315610ed2577001000162e525ee054754457d59952920260260801c5b600083660100000000000016600f0b1315610efe5770010000b17255775c040618bf4a4ade83fc0260801c5b6000836580000000000016600f0b1315610f29577001000058b91b5bc9ae2eed81e9b7d4cfab0260801c5b6000836540000000000016600f0b1315610f5457700100002c5c89d5ec6ca4d7c8acc017b7c90260801c5b6000836520000000000016600f0b1315610f7f5770010000162e43f4f831060e02d839a9d16d0260801c5b6000836510000000000016600f0b1315610faa57700100000b1721bcfc99d9f890ea069117630260801c5b6000836508000000000016600f0b1315610fd55770010000058b90cf1e6d97f9ca14dbcc16280260801c5b6000836504000000000016600f0b1315611000577001000002c5c863b73f016468f6bac5ca2b0260801c5b6000836502000000000016600f0b131561102b57700100000162e430e5a18f6119e3c02282a50260801c5b6000836501000000000016600f0b1315611056577001000000b1721835514b86e6d96efd1bfe0260801c5b60008364800000000016600f0b131561108057700100000058b90c0b48c6be5df846c5b2ef0260801c5b60008364400000000016600f0b13156110aa5770010000002c5c8601cc6b9e94213c72737a0260801c5b60008364200000000016600f0b13156110d4577001000000162e42fff037df38aa2b219f060260801c5b60008364100000000016600f0b13156110fe5770010000000b17217fba9c739aa5819f44f90260801c5b60008364080000000016600f0b1315611128577001000000058b90bfcdee5acd3c1cedc8230260801c5b60008364040000000016600f0b131561115257700100000002c5c85fe31f35a6a30da1be500260801c5b60008364020000000016600f0b131561117c5770010000000162e42ff0999ce3541b9fffcf0260801c5b60008364010000000016600f0b13156111a657700100000000b17217f80f4ef5aadda455540260801c5b600083638000000016600f0b13156111cf5770010000000058b90bfbf8479bd5a81b51ad0260801c5b600083634000000016600f0b13156111f8577001000000002c5c85fdf84bd62ae30a74cc0260801c5b600083632000000016600f0b131561122157700100000000162e42fefb2fed257559bdaa0260801c5b600083631000000016600f0b131561124a577001000000000b17217f7d5a7716bba4a9ae0260801c5b600083630800000016600f0b131561127357700100000000058b90bfbe9ddbac5e109cce0260801c5b600083630400000016600f0b131561129c5770010000000002c5c85fdf4b15de6f17eb0d0260801c5b600083630200000016600f0b13156112c5577001000000000162e42fefa494f1478fde050260801c5b600083630100000016600f0b13156112ee5770010000000000b17217f7d20cf927c8e94c0260801c5b6000836280000016600f0b1315611316577001000000000058b90bfbe8f71cb4e4b33d0260801c5b6000836240000016600f0b131561133e57700100000000002c5c85fdf477b662b269450260801c5b6000836220000016600f0b13156113665770010000000000162e42fefa3ae53369388c0260801c5b6000836210000016600f0b131561138e57700100000000000b17217f7d1d351a389d400260801c5b6000836208000016600f0b13156113b65770010000000000058b90bfbe8e8b2d3d4ede0260801c5b6000836204000016600f0b13156113de577001000000000002c5c85fdf4741bea6e77e0260801c5b6000836202000016600f0b131561140657700100000000000162e42fefa39fe95583c20260801c5b6000836201000016600f0b131561142e577001000000000000b17217f7d1cfb72b45e10260801c5b60008361800016600f0b131561145557700100000000000058b90bfbe8e7cc35c3f00260801c5b60008361400016600f0b131561147c5770010000000000002c5c85fdf473e242ea380260801c5b60008361200016600f0b13156114a3577001000000000000162e42fefa39f02b772c0260801c5b60008361100016600f0b13156114ca5770010000000000000b17217f7d1cf7d83c1a0260801c5b60008361080016600f0b13156114f1577001000000000000058b90bfbe8e7bdcbe2e0260801c5b60008361040016600f0b131561151857700100000000000002c5c85fdf473dea871f0260801c5b60008361020016600f0b131561153f5770010000000000000162e42fefa39ef44d910260801c5b60008361010016600f0b131561156657700100000000000000b17217f7d1cf79e9490260801c5b600083608016600f0b131561158c5770010000000000000058b90bfbe8e7bce5440260801c5b600083604016600f0b13156115b2577001000000000000002c5c85fdf473de6eca0260801c5b600083602016600f0b13156115d857700100000000000000162e42fefa39ef366f0260801c5b600083601016600f0b13156115fe577001000000000000000b17217f7d1cf79afa0260801c5b600083600816600f0b131561162457700100000000000000058b90bfbe8e7bcd6d0260801c5b600083600416600f0b131561164a5770010000000000000002c5c85fdf473de6b20260801c5b600083600216600f0b1315611670577001000000000000000162e42fefa39ef3580260801c5b600083600116600f0b13156116965770010000000000000000b17217f7d1cf79ab0260801c5b600f83810b60401d603f03900b1c60016001607f1b0381111561023f57600080fd5b6000602082840312156116ca57600080fd5b813580600f0b81146101bb57600080fd5b6000602082840312156116ed57600080fd5b5035919050565b60008261171157634e487b7160e01b600052601260045260246000fd5b500490565b600081600f0b60016001607f1b031981141561174257634e487b7160e01b600052601160045260246000fd5b60000392915050565b634e487b7160e01b600052600160045260246000fd5b634e487b7160e01b600052601260045260246000fdfea264697066735822122010bd348b806fdba984e3816e8de84e1b860dc3812813e40ac9686196bc65c93364736f6c63430008060033",
    "linkReferences": {}
  },
  "methodIdentifiers": {
    "PRECISION()": "aaf5eb68",
    "cdf(uint256)": "60042c7e",
    "cdfX64(int128)": "fecec36a",
    "icdf(uint256)": "a4c376c1",
    "inverseCDF(uint256)": "99607bd0",
    "inverseCDFHighTail()": "0a2c68d7",
    "inverseCDFLowTail()": "16255a25",
    "signedCDF(uint256)": "54fa95b3",
    "signedInverseCDF(uint256)": "a8518245"
  },
  "id": 24
}