{
  "abi": [
    {
      "inputs": [],
      "stateMutability": "nonpayable",
      "type": "constructor"
    },
    {
      "inputs": [
        {
          "internalType": "address",
          "name": "risky",
          "type": "address"
        },
        {
          "internalType": "address",
          "name": "riskless",
          "type": "address"
        }
      ],
      "name": "deploy",
      "outputs": [],
      "stateMutability": "nonpayable",
      "type": "function"
    },
    {
      "inputs": [],
      "name": "factory",
      "outputs": [
        {
          "internalType": "address",
          "name": "",
          "type": "address"
        }
      ],
      "stateMutability": "view",
      "type": "function"
    },
    {
      "inputs": [
        {
          "internalType": "address",
          "name": "factory_",
          "type": "address"
        }
      ],
      "name": "initialize",
      "outputs": [],
      "stateMutability": "nonpayable",
      "type": "function"
    },
    {
      "inputs": [],
      "name": "name",
      "outputs": [
        {
          "internalType": "string",
          "name": "",
          "type": "string"
        }
      ],
      "stateMutability": "pure",
      "type": "function"
    }
  ],
  "bytecode": {
    "object": "0x608060405234801561001057600080fd5b506102a2806100206000396000f3fe608060405234801561001057600080fd5b506004361061004c5760003560e01c806306fdde0314610051578063545e7c6114610089578063c45a01551461009e578063c4d66de8146100c9575b600080fd5b604080518082018252600d81526c466163746f72794465706c6f7960981b6020820152905161008091906101ff565b60405180910390f35b61009c6100973660046101c6565b6100f9565b005b6000546100b1906001600160a01b031681565b6040516001600160a01b039091168152602001610080565b61009c6100d7366004610185565b600080546001600160a01b0319166001600160a01b0392909216919091179055565b60005460405163545e7c6160e01b81526001600160a01b03848116600483015283811660248301529091169063545e7c6190604401602060405180830381600087803b15801561014857600080fd5b505af115801561015c573d6000803e3d6000fd5b505050506040513d601f19601f8201168201806040525081019061018091906101a9565b505050565b60006020828403121561019757600080fd5b81356101a281610254565b9392505050565b6000602082840312156101bb57600080fd5b81516101a281610254565b600080604083850312156101d957600080fd5b82356101e481610254565b915060208301356101f481610254565b809150509250929050565b600060208083528351808285015260005b8181101561022c57858101830151858201604001528201610210565b8181111561023e576000604083870101525b50601f01601f1916929092016040019392505050565b6001600160a01b038116811461026957600080fd5b5056fea2646970667358221220b0aa64e1471ab58b27202f9cd5afc693d3a64a303e277b090ee1efe21b12fb2864736f6c63430008060033",
    "linkReferences": {}
  },
  "methodIdentifiers": {
    "deploy(address,address)": "545e7c61",
    "factory()": "c45a0155",
    "initialize(address)": "c4d66de8",
    "name()": "06fdde03"
  },
  "id": 21
}