{
  "abi": [
    {
      "anonymous": false,
      "inputs": [
        {
          "indexed": false,
          "internalType": "string",
          "name": "reason",
          "type": "string"
        },
        {
          "indexed": false,
          "internalType": "uint256",
          "name": "risky",
          "type": "uint256"
        },
        {
          "indexed": false,
          "internalType": "uint256",
          "name": "stable",
          "type": "uint256"
        }
      ],
      "name": "DepositFailed",
      "type": "event"
    },
    {
      "anonymous": false,
      "inputs": [
        {
          "indexed": false,
          "internalType": "uint256",
          "name": "risky",
          "type": "uint256"
        },
        {
          "indexed": false,
          "internalType": "uint256",
          "name": "stable",
          "type": "uint256"
        }
      ],
      "name": "DepositRevert",
      "type": "event"
    },
    {
      "anonymous": false,
      "inputs": [
        {
          "indexed": false,
          "internalType": "string",
          "name": "",
          "type": "string"
        },
        {
          "indexed": false,
          "internalType": "uint256",
          "name": "before",
          "type": "uint256"
        },
        {
          "indexed": false,
          "internalType": "uint256",
          "name": "aft",
          "type": "uint256"
        },
        {
          "indexed": false,
          "internalType": "uint256",
          "name": "delta",
          "type": "uint256"
        }
      ],
      "name": "DepositWithdraw",
      "type": "event"
    },
    {
      "anonymous": false,
      "inputs": [
        {
          "indexed": false,
          "internalType": "string",
          "name": "reason",
          "type": "string"
        }
      ],
      "name": "FailureReason",
      "type": "event"
    },
    {
      "anonymous": false,
      "inputs": [
        {
          "indexed": false,
          "internalType": "uint128",
          "name": "marginRiskyBefore",
          "type": "uint128"
        },
        {
          "indexed": false,
          "internalType": "uint128",
          "name": "marginStableBefore",
          "type": "uint128"
        },
        {
          "indexed": false,
          "internalType": "uint256",
          "name": "delRisky",
          "type": "uint256"
        },
        {
          "indexed": false,
          "internalType": "uint256",
          "name": "delStable",
          "type": "uint256"
        },
        {
          "indexed": false,
          "internalType": "address",
          "name": "sender",
          "type": "address"
        },
        {
          "indexed": false,
          "internalType": "address",
          "name": "originator",
          "type": "address"
        }
      ],
      "name": "Withdraw",
      "type": "event"
    },
    {
      "inputs": [
        {
          "internalType": "uint256",
          "name": "riskyAmount",
          "type": "uint256"
        },
        {
          "internalType": "uint256",
          "name": "stableAmount",
          "type": "uint256"
        }
      ],
      "name": "check_deposit_withdraw_safe",
      "outputs": [],
      "stateMutability": "nonpayable",
      "type": "function"
    },
    {
      "inputs": [
        {
          "internalType": "uint256",
          "name": "delRisky",
          "type": "uint256"
        },
        {
          "internalType": "uint256",
          "name": "delStable",
          "type": "uint256"
        },
        {
          "internalType": "bytes",
          "name": "data",
          "type": "bytes"
        }
      ],
      "name": "depositCallback",
      "outputs": [],
      "stateMutability": "nonpayable",
      "type": "function"
    },
    {
      "inputs": [
        {
          "internalType": "address",
          "name": "recipient",
          "type": "address"
        },
        {
          "internalType": "uint256",
          "name": "delRisky",
          "type": "uint256"
        },
        {
          "internalType": "uint256",
          "name": "delStable",
          "type": "uint256"
        }
      ],
      "name": "deposit_with_safe_range",
      "outputs": [],
      "stateMutability": "nonpayable",
      "type": "function"
    },
    {
      "inputs": [
        {
          "internalType": "address",
          "name": "recipient",
          "type": "address"
        }
      ],
      "name": "deposit_zero_zero",
      "outputs": [],
      "stateMutability": "nonpayable",
      "type": "function"
    },
    {
      "inputs": [
        {
          "internalType": "address",
          "name": "recipient",
          "type": "address"
        },
        {
          "internalType": "uint256",
          "name": "delRisky",
          "type": "uint256"
        },
        {
          "internalType": "uint256",
          "name": "delStable",
          "type": "uint256"
        }
      ],
      "name": "withdraw_with_only_non_zero_addr",
      "outputs": [],
      "stateMutability": "nonpayable",
      "type": "function"
    },
    {
      "inputs": [
        {
          "internalType": "address",
          "name": "recipient",
          "type": "address"
        },
        {
          "internalType": "uint256",
          "name": "delRisky",
          "type": "uint256"
        },
        {
          "internalType": "uint256",
          "name": "delStable",
          "type": "uint256"
        }
      ],
      "name": "withdraw_with_safe_range",
      "outputs": [],
      "stateMutability": "nonpayable",
      "type": "function"
    },
    {
      "inputs": [
        {
          "internalType": "uint256",
          "name": "delRisky",
          "type": "uint256"
        },
        {
          "internalType": "uint256",
          "name": "delStable",
          "type": "uint256"
        }
      ],
      "name": "withdraw_zero_address_recipient",
      "outputs": [],
      "stateMutability": "nonpayable",
      "type": "function"
    },
    {
      "inputs": [
        {
          "internalType": "address",
          "name": "recipient",
          "type": "address"
        }
      ],
      "name": "withdraw_zero_zero",
      "outputs": [],
      "stateMutability": "nonpayable",
      "type": "function"
    }
  ],
  "bytecode": {
    "object": "0x6080604052600080546001600160a01b0319908116731dc4c1cefef38a777b15aa20260a54e584b16c48908117909255600180548216731d7022f5b17d2f8b695918fb48fa1089c9f8540190811790915560028054831673871dd7c2b4b25e1aa18728e9d5f2af4c4e431f5c179055600380548316730b1ba0af832d7c05fd64161e0db78e85978e8082179055600480548316736a4a62e5a7ed13c361b176a5f62c2ee620ac0df89081179091556005805484167348bacb9266a570d521063ef5dd96e61686dbe788908117909155600680548516736dfff22588be9b3ef8cf0ad6dc9b84796f9fb45f1790556007805485167334d402f14d58e001d8efbe6585051bf9706aa06417905560088054851673cfc18cec799fbd1793b5c43e773c98d4d61cc2db1790556009805485167325b8fe1de9daf8ba351890744ff28cf7dfa8f5e3179055600a8054851673f22469f31527adc53284441bae1665a7b9214dba179055600b8054851673cdb594a32b1cc3479d8746279712c39d18a07fc0179055600c805485167307f96aa816c1f244cbc6ef114bb2b023ba54a2eb179055600d80548516909517909455600e80548416909217909155600f8054831690911790556010805490911690911790553480156101db57600080fd5b50611949806101eb6000396000f3fe608060405234801561001057600080fd5b50600436106100885760003560e01c8063c536e6051161005b578063c536e605146100db578063e78caf47146100ee578063f781a72b14610101578063fc1302b01461011457600080fd5b806314ddbce61461008d5780634dc7fb97146100a25780636d5dd16e146100b5578063b9834c4a146100c8575b600080fd5b6100a061009b366004611650565b610127565b005b6100a06100b0366004611672565b610136565b6100a06100c3366004611713565b6101d4565b6100a06100d6366004611672565b6101fb565b6100a06100e9366004611735565b61022b565b6100a06100fc366004611672565b610235565b6100a061010f366004611713565b610248565b6100a0610122366004611650565b6103d5565b610133816000806103e1565b50565b6001600160a01b03831661014957600080fd5b6010546001600160a01b038481169116141561016457600080fd5b61016d82610472565b915061017881610472565b90506000610185306104ac565b90508281600001516001600160801b031610806101ae57508181602001516001600160801b0316105b156101c3576101be84848461055b565b6101ce565b6101ce84848461059b565b50505050565b6101dd82610472565b91506101e881610472565b90506101f7600080600061055b565b5050565b61020482610472565b915061020f81610472565b905061021b8282610c7f565b610226838383610c8a565b505050565b6101ce8484611359565b6001600160a01b03831661016457600080fd5b6000610253306104ac565b9050600061026084610472565b9050600061026d84610472565b90506102798282610c7f565b610284308383610c8a565b61028f30838361059b565b600061029a306104ac565b84518151604080516080808252601f908201527f7072652f706f7374206465706f7369742d7769746864726177207269736b790060a08201526001600160801b0393841660208201529290911690820152606081018590529091506000805160206118f48339815191529060c00160405180910390a16020848101518282015160408051608080825281018590527f7072652f706f7374206465706f7369742d776974686472617720737461626c6560a08201526001600160801b039384169481019490945291168282015260608201849052516000805160206118f48339815191529181900360c00190a1805184516001600160801b039081169116146103a4576103a46118c7565b80602001516001600160801b031684602001516001600160801b0316146103cd576103cd6118c7565b505050505050565b6101338160008061055b565b60105460408051600060208201526001600160a01b0390921691639e48ff5a91869186918691016040516020818303038152906040526040518563ffffffff1660e01b815260040161043694939291906117d1565b600060405180830381600087803b15801561045057600080fd5b505af1925050508015610461575060015b61046a57505050565b6102266118c7565b6000610487600167ffffffffffffffff611850565b61049b9067ffffffffffffffff16836118a5565b6104a6906001611821565b92915050565b6040805180820190915260008082526020820152601054604051633882046560e01b81526001600160a01b0384811660048301526000928392911690633882046590602401604080518083038186803b15801561050857600080fd5b505afa15801561051c573d6000803e3d6000fd5b505050506040513d601f19601f8201168201806040525081019061054091906116c7565b6001600160801b039182168552166020840152509092915050565b601054604051635ae2fb3960e11b81526001600160a01b03858116600483015260248201859052604482018490529091169063b5c5f67290606401610436565b60006105a6306104ac565b905060006105b3856104ac565b600d546040516370a0823160e01b81526001600160a01b038881166004830152929350600092909116906370a082319060240160206040518083038186803b1580156105fe57600080fd5b505afa158015610612573d6000803e3d6000fd5b505050506040513d601f19601f8201168201806040525081019061063691906116fa565b600e546040516370a0823160e01b81526001600160a01b038981166004830152929350600092909116906370a082319060240160206040518083038186803b15801561068157600080fd5b505afa158015610695573d6000803e3d6000fd5b505050506040513d601f19601f820116820180604052508101906106b991906116fa565b600d546010546040516370a0823160e01b81526001600160a01b0391821660048201529293506000929116906370a082319060240160206040518083038186803b15801561070657600080fd5b505afa15801561071a573d6000803e3d6000fd5b505050506040513d601f19601f8201168201806040525081019061073e91906116fa565b600e546010546040516370a0823160e01b81526001600160a01b0391821660048201529293506000929116906370a082319060240160206040518083038186803b15801561078b57600080fd5b505afa15801561079f573d6000803e3d6000fd5b505050506040513d601f19601f820116820180604052508101906107c391906116fa565b6010546040516001600160a01b038c81166024830152604482018c9052606482018b90529293506000929091169060840160408051601f198184030181529181526020820180516001600160e01b0316635ae2fb3960e11b1790525161082991906117b5565b6000604051808303816000865af19150503d8060008114610866576040519150601f19603f3d011682016040523d82523d6000602084013e61086b565b606091505b50509050806108885761087c6118c7565b50505050505050505050565b61089587878c8c8c611477565b600d546040516370a0823160e01b81526001600160a01b038c8116600483015260009216906370a082319060240160206040518083038186803b1580156108db57600080fd5b505afa1580156108ef573d6000803e3d6000fd5b505050506040513d601f19601f8201168201806040525081019061091391906116fa565b600e546040516370a0823160e01b81526001600160a01b038e81166004830152929350600092909116906370a082319060240160206040518083038186803b15801561095e57600080fd5b505afa158015610972573d6000803e3d6000fd5b505050506040513d601f19601f8201168201806040525081019061099691906116fa565b600d546010546040516370a0823160e01b81526001600160a01b0391821660048201529293506000929116906370a082319060240160206040518083038186803b1580156109e357600080fd5b505afa1580156109f7573d6000803e3d6000fd5b505050506040513d601f19601f82011682018060405250810190610a1b91906116fa565b600e546010546040516370a0823160e01b81526001600160a01b0391821660048201529293506000929116906370a082319060240160206040518083038186803b158015610a6857600080fd5b505afa158015610a7c573d6000803e3d6000fd5b505050506040513d601f19601f82011682018060405250810190610aa091906116fa565b6040805160808082526013908201527262616c616e6365207265636970207269736b7960681b60a0820152602081018c9052908101869052606081018f90529091506000805160206118f48339815191529060c00160405180910390a16040805160808082526014908201527362616c616e636520726563697020737461626c6560601b60a0820152602081018a9052908101849052606081018d90526000805160206118f48339815191529060c00160405180910390a16040805160808082526014908201527362616c616e636520656e67696e65207269736b7960601b60a082015260208101899052908101839052606081018e90526000805160206118f48339815191529060c00160405180910390a16040805160808082526015908201527462616c616e636520656e67696e6520737461626c6560581b60a082015260208101889052908101829052606081018d90526000805160206118f48339815191529060c00160405180910390a1610c198d8a611821565b8414610c2757610c276118c7565b610c318c89611821565b8314610c3f57610c3f6118c7565b610c498d88611839565b8214610c5757610c576118c7565b610c618c87611839565b8114610c6f57610c6f6118c7565b5050505050505050505050505050565b6101f7308383611555565b6000610c95846104ac565b600d546040516370a0823160e01b81523060048201529192506000916001600160a01b03909116906370a082319060240160206040518083038186803b158015610cde57600080fd5b505afa158015610cf2573d6000803e3d6000fd5b505050506040513d601f19601f82011682018060405250810190610d1691906116fa565b600e546040516370a0823160e01b81523060048201529192506000916001600160a01b03909116906370a082319060240160206040518083038186803b158015610d5f57600080fd5b505afa158015610d73573d6000803e3d6000fd5b505050506040513d601f19601f82011682018060405250810190610d9791906116fa565b600d546010546040516370a0823160e01b81526001600160a01b0391821660048201529293506000929116906370a082319060240160206040518083038186803b158015610de457600080fd5b505afa158015610df8573d6000803e3d6000fd5b505050506040513d601f19601f82011682018060405250810190610e1c91906116fa565b600e546010546040516370a0823160e01b81526001600160a01b0391821660048201529293506000929116906370a082319060240160206040518083038186803b158015610e6957600080fd5b505afa158015610e7d573d6000803e3d6000fd5b505050506040513d601f19601f82011682018060405250810190610ea191906116fa565b60105460408051600060208201529293506001600160a01b0390911691639e48ff5a918b918b918b91016040516020818303038152906040526040518563ffffffff1660e01b8152600401610ef994939291906117d1565b600060405180830381600087803b158015610f1357600080fd5b505af1925050508015610f24575060015b61107057600d546040516370a0823160e01b81523060048201526000916001600160a01b0316906370a082319060240160206040518083038186803b158015610f6c57600080fd5b505afa158015610f80573d6000803e3d6000fd5b505050506040513d601f19601f82011682018060405250810190610fa491906116fa565b600e546040516370a0823160e01b81523060048201529192506000916001600160a01b03909116906370a082319060240160206040518083038186803b158015610fed57600080fd5b505afa158015611001573d6000803e3d6000fd5b505050506040513d601f19601f8201168201806040525081019061102591906116fa565b60408051848152602081018390529192507f134f00eeaf61966faf7945aa440c74fbe020fcb6accdde36edeebea5e37d3752910160405180910390a16110696118c7565b505061134f565b600061107b896104ac565b86519091506110949089906001600160801b0316611821565b81516001600160801b0316146110ac576110ac6118c7565b8686602001516001600160801b03166110c59190611821565b81602001516001600160801b0316146110e0576110e06118c7565b600d546040516370a0823160e01b81523060048201526000916001600160a01b0316906370a082319060240160206040518083038186803b15801561112457600080fd5b505afa158015611138573d6000803e3d6000fd5b505050506040513d601f19601f8201168201806040525081019061115c91906116fa565b600e546040516370a0823160e01b81523060048201529192506000916001600160a01b03909116906370a082319060240160206040518083038186803b1580156111a557600080fd5b505afa1580156111b9573d6000803e3d6000fd5b505050506040513d601f19601f820116820180604052508101906111dd91906116fa565b600d546010546040516370a0823160e01b81526001600160a01b0391821660048201529293506000929116906370a082319060240160206040518083038186803b15801561122a57600080fd5b505afa15801561123e573d6000803e3d6000fd5b505050506040513d601f19601f8201168201806040525081019061126291906116fa565b600e546010546040516370a0823160e01b81526001600160a01b0391821660048201529293506000929116906370a082319060240160206040518083038186803b1580156112af57600080fd5b505afa1580156112c3573d6000803e3d6000fd5b505050506040513d601f19601f820116820180604052508101906112e791906116fa565b90506112f38c8a611839565b8414611301576113016118c7565b61130b8b89611839565b8314611319576113196118c7565b6113238c88611821565b8214611331576113316118c7565b61133b8b87611821565b8114611349576113496118c7565b50505050505b5050505050505050565b81156113e957600d5460105460405163a9059cbb60e01b81526001600160a01b0391821660048201526024810185905291169063a9059cbb90604401602060405180830381600087803b1580156113af57600080fd5b505af11580156113c3573d6000803e3d6000fd5b505050506040513d601f19601f820116820180604052508101906113e791906116a5565b505b80156101f757600e5460105460405163a9059cbb60e01b81526001600160a01b0391821660048201526024810184905291169063a9059cbb90604401602060405180830381600087803b15801561143f57600080fd5b505af1158015611453573d6000803e3d6000fd5b505050506040513d601f19601f8201168201806040525081019061022691906116a5565b6000611482306104ac565b865190915061149b9084906001600160801b0316611839565b81516001600160801b0316146114b3576114b36118c7565b8186602001516001600160801b03166114cc9190611839565b81602001516001600160801b0316146114e7576114e76118c7565b306001600160a01b038516146103cd576000611502856104ac565b865181519192506001600160801b03918216911614611523576115236118c7565b85602001516001600160801b031681602001516001600160801b03161461154c5761154c6118c7565b50505050505050565b600d546040516340c10f1960e01b81526001600160a01b03858116600483015260248201859052909116906340c10f1990604401600060405180830381600087803b1580156115a357600080fd5b505af11580156115b7573d6000803e3d6000fd5b5050600e546040516340c10f1960e01b81526001600160a01b0387811660048301526024820186905290911692506340c10f199150604401600060405180830381600087803b15801561160957600080fd5b505af115801561154c573d6000803e3d6000fd5b80356001600160a01b038116811461163457600080fd5b919050565b80516001600160801b038116811461163457600080fd5b60006020828403121561166257600080fd5b61166b8261161d565b9392505050565b60008060006060848603121561168757600080fd5b6116908461161d565b95602085013595506040909401359392505050565b6000602082840312156116b757600080fd5b8151801515811461166b57600080fd5b600080604083850312156116da57600080fd5b6116e383611639565b91506116f160208401611639565b90509250929050565b60006020828403121561170c57600080fd5b5051919050565b6000806040838503121561172657600080fd5b50508035926020909101359150565b6000806000806060858703121561174b57600080fd5b8435935060208501359250604085013567ffffffffffffffff8082111561177157600080fd5b818701915087601f83011261178557600080fd5b81358181111561179457600080fd5b8860208285010111156117a657600080fd5b95989497505060200194505050565b600082516117c7818460208701611879565b9190910192915050565b60018060a01b0385168152836020820152826040820152608060608201526000825180608084015261180a8160a0850160208701611879565b601f01601f19169190910160a00195945050505050565b60008219821115611834576118346118dd565b500190565b60008282101561184b5761184b6118dd565b500390565b600067ffffffffffffffff83811690831681811015611871576118716118dd565b039392505050565b60005b8381101561189457818101518382015260200161187c565b838111156101ce5750506000910152565b6000826118c257634e487b7160e01b600052601260045260246000fd5b500690565b634e487b7160e01b600052600160045260246000fd5b634e487b7160e01b600052601160045260246000fdfed2d9bf5b40bcc8f40779f4658f2ad8b53fe10df3993c76850042eebab195b156a26469706673582212200eb7dba75520d805a25184f6f7eda60e383ae7e4a7ed51e358f47cd1e857299e64736f6c63430008060033",
    "linkReferences": {}
  },
  "methodIdentifiers": {
    "check_deposit_withdraw_safe(uint256,uint256)": "f781a72b",
    "depositCallback(uint256,uint256,bytes)": "c536e605",
    "deposit_with_safe_range(address,uint256,uint256)": "b9834c4a",
    "deposit_zero_zero(address)": "14ddbce6",
    "withdraw_with_only_non_zero_addr(address,uint256,uint256)": "e78caf47",
    "withdraw_with_safe_range(address,uint256,uint256)": "4dc7fb97",
    "withdraw_zero_address_recipient(uint256,uint256)": "6d5dd16e",
    "withdraw_zero_zero(address)": "fc1302b0"
  },
  "id": 5
}