{
  "abi": [
    {
      "inputs": [
        {
          "internalType": "string",
          "name": "name_",
          "type": "string"
        },
        {
          "internalType": "string",
          "name": "symbol_",
          "type": "string"
        },
        {
          "internalType": "uint8",
          "name": "decimals_",
          "type": "uint8"
        }
      ],
      "stateMutability": "nonpayable",
      "type": "constructor"
    },
    {
      "anonymous": false,
      "inputs": [
        {
          "indexed": true,
          "internalType": "address",
          "name": "owner",
          "type": "address"
        },
        {
          "indexed": true,
          "internalType": "address",
          "name": "spender",
          "type": "address"
        },
        {
          "indexed": false,
          "internalType": "uint256",
          "name": "value",
          "type": "uint256"
        }
      ],
      "name": "Approval",
      "type": "event"
    },
    {
      "anonymous": false,
      "inputs": [
        {
          "indexed": true,
          "internalType": "address",
          "name": "from",
          "type": "address"
        },
        {
          "indexed": true,
          "internalType": "address",
          "name": "to",
          "type": "address"
        },
        {
          "indexed": false,
          "internalType": "uint256",
          "name": "value",
          "type": "uint256"
        }
      ],
      "name": "Transfer",
      "type": "event"
    },
    {
      "inputs": [
        {
          "internalType": "address",
          "name": "owner",
          "type": "address"
        },
        {
          "internalType": "address",
          "name": "spender",
          "type": "address"
        }
      ],
      "name": "allowance",
      "outputs": [
        {
          "internalType": "uint256",
          "name": "",
          "type": "uint256"
        }
      ],
      "stateMutability": "view",
      "type": "function"
    },
    {
      "inputs": [
        {
          "internalType": "address",
          "name": "spender",
          "type": "address"
        },
        {
          "internalType": "uint256",
          "name": "amount",
          "type": "uint256"
        }
      ],
      "name": "approve",
      "outputs": [
        {
          "internalType": "bool",
          "name": "",
          "type": "bool"
        }
      ],
      "stateMutability": "nonpayable",
      "type": "function"
    },
    {
      "inputs": [
        {
          "internalType": "address",
          "name": "account",
          "type": "address"
        }
      ],
      "name": "balanceOf",
      "outputs": [
        {
          "internalType": "uint256",
          "name": "",
          "type": "uint256"
        }
      ],
      "stateMutability": "view",
      "type": "function"
    },
    {
      "inputs": [
        {
          "internalType": "address",
          "name": "to",
          "type": "address"
        },
        {
          "internalType": "uint256",
          "name": "wad",
          "type": "uint256"
        }
      ],
      "name": "burn",
      "outputs": [],
      "stateMutability": "nonpayable",
      "type": "function"
    },
    {
      "inputs": [],
      "name": "decimals",
      "outputs": [
        {
          "internalType": "uint8",
          "name": "",
          "type": "uint8"
        }
      ],
      "stateMutability": "view",
      "type": "function"
    },
    {
      "inputs": [
        {
          "internalType": "address",
          "name": "spender",
          "type": "address"
        },
        {
          "internalType": "uint256",
          "name": "subtractedValue",
          "type": "uint256"
        }
      ],
      "name": "decreaseAllowance",
      "outputs": [
        {
          "internalType": "bool",
          "name": "",
          "type": "bool"
        }
      ],
      "stateMutability": "nonpayable",
      "type": "function"
    },
    {
      "inputs": [
        {
          "internalType": "address",
          "name": "spender",
          "type": "address"
        },
        {
          "internalType": "uint256",
          "name": "addedValue",
          "type": "uint256"
        }
      ],
      "name": "increaseAllowance",
      "outputs": [
        {
          "internalType": "bool",
          "name": "",
          "type": "bool"
        }
      ],
      "stateMutability": "nonpayable",
      "type": "function"
    },
    {
      "inputs": [
        {
          "internalType": "address",
          "name": "to",
          "type": "address"
        },
        {
          "internalType": "uint256",
          "name": "wad",
          "type": "uint256"
        }
      ],
      "name": "mint",
      "outputs": [],
      "stateMutability": "nonpayable",
      "type": "function"
    },
    {
      "inputs": [],
      "name": "name",
      "outputs": [
        {
          "internalType": "string",
          "name": "",
          "type": "string"
        }
      ],
      "stateMutability": "view",
      "type": "function"
    },
    {
      "inputs": [
        {
          "internalType": "uint8",
          "name": "decimals_",
          "type": "uint8"
        }
      ],
      "name": "setDecimals",
      "outputs": [],
      "stateMutability": "nonpayable",
      "type": "function"
    },
    {
      "inputs": [],
      "name": "symbol",
      "outputs": [
        {
          "internalType": "string",
          "name": "",
          "type": "string"
        }
      ],
      "stateMutability": "view",
      "type": "function"
    },
    {
      "inputs": [],
      "name": "totalSupply",
      "outputs": [
        {
          "internalType": "uint256",
          "name": "",
          "type": "uint256"
        }
      ],
      "stateMutability": "view",
      "type": "function"
    },
    {
      "inputs": [
        {
          "internalType": "address",
          "name": "recipient",
          "type": "address"
        },
        {
          "internalType": "uint256",
          "name": "amount",
          "type": "uint256"
        }
      ],
      "name": "transfer",
      "outputs": [
        {
          "internalType": "bool",
          "name": "",
          "type": "bool"
        }
      ],
      "stateMutability": "nonpayable",
      "type": "function"
    },
    {
      "inputs": [
        {
          "internalType": "address",
          "name": "sender",
          "type": "address"
        },
        {
          "internalType": "address",
          "name": "recipient",
          "type": "address"
        },
        {
          "internalType": "uint256",
          "name": "amount",
          "type": "uint256"
        }
      ],
      "name": "transferFrom",
      "outputs": [
        {
          "internalType": "bool",
          "name": "",
          "type": "bool"
        }
      ],
      "stateMutability": "nonpayable",
      "type": "function"
    }
  ],
  "bytecode": {
    "object": "0x60806040523480156200001157600080fd5b5060405162000e9d38038062000e9d8339810160408190526200003491620001da565b8251620000499060039060208601906200007d565b5081516200005f9060049060208501906200007d565b506005805460ff191660ff9290921691909117905550620002b29050565b8280546200008b906200025f565b90600052602060002090601f016020900481019282620000af5760008555620000fa565b82601f10620000ca57805160ff1916838001178555620000fa565b82800160010185558215620000fa579182015b82811115620000fa578251825591602001919060010190620000dd565b50620001089291506200010c565b5090565b5b808211156200010857600081556001016200010d565b600082601f8301126200013557600080fd5b81516001600160401b03808211156200015257620001526200029c565b604051601f8301601f19908116603f011681019082821181831017156200017d576200017d6200029c565b816040528381526020925086838588010111156200019a57600080fd5b600091505b83821015620001be57858201830151818301840152908201906200019f565b83821115620001d05760008385830101525b9695505050505050565b600080600060608486031215620001f057600080fd5b83516001600160401b03808211156200020857600080fd5b620002168783880162000123565b945060208601519150808211156200022d57600080fd5b506200023c8682870162000123565b925050604084015160ff811681146200025457600080fd5b809150509250925092565b600181811c908216806200027457607f821691505b602082108114156200029657634e487b7160e01b600052602260045260246000fd5b50919050565b634e487b7160e01b600052604160045260246000fd5b610bdb80620002c26000396000f3fe608060405234801561001057600080fd5b50600436106100ea5760003560e01c806370a082311161008c5780639dc29fac116100665780639dc29fac146101f1578063a457c2d714610204578063a9059cbb14610217578063dd62ed3e1461022a57600080fd5b806370a082311461019c5780637a1395aa146101c557806395d89b41146101e957600080fd5b806323b872dd116100c857806323b872dd14610142578063313ce56714610155578063395093511461017457806340c10f191461018757600080fd5b806306fdde03146100ef578063095ea7b31461010d57806318160ddd14610130575b600080fd5b6100f7610263565b6040516101049190610ad0565b60405180910390f35b61012061011b366004610a83565b6102f1565b6040519015158152602001610104565b6002545b604051908152602001610104565b610120610150366004610a47565b610307565b6005546101629060ff1681565b60405160ff9091168152602001610104565b610120610182366004610a83565b6103b6565b61019a610195366004610a83565b6103f2565b005b6101346101aa3660046109f2565b6001600160a01b031660009081526020819052604090205490565b61019a6101d3366004610aad565b6005805460ff191660ff92909216919091179055565b6100f7610400565b61019a6101ff366004610a83565b61040d565b610120610212366004610a83565b610417565b610120610225366004610a83565b6104b0565b610134610238366004610a14565b6001600160a01b03918216600090815260016020908152604080832093909416825291909152205490565b6003805461027090610b54565b80601f016020809104026020016040519081016040528092919081815260200182805461029c90610b54565b80156102e95780601f106102be576101008083540402835291602001916102e9565b820191906000526020600020905b8154815290600101906020018083116102cc57829003601f168201915b505050505081565b60006102fe3384846104bd565b50600192915050565b60006103148484846105e2565b6001600160a01b03841660009081526001602090815260408083203384529091529020548281101561039e5760405162461bcd60e51b815260206004820152602860248201527f45524332303a207472616e7366657220616d6f756e74206578636565647320616044820152676c6c6f77616e636560c01b60648201526084015b60405180910390fd5b6103ab85338584036104bd565b506001949350505050565b3360008181526001602090815260408083206001600160a01b038716845290915281205490916102fe9185906103ed908690610b25565b6104bd565b6103fc82826107b1565b5050565b6004805461027090610b54565b6103fc8282610890565b3360009081526001602090815260408083206001600160a01b0386168452909152812054828110156104995760405162461bcd60e51b815260206004820152602560248201527f45524332303a2064656372656173656420616c6c6f77616e63652062656c6f77604482015264207a65726f60d81b6064820152608401610395565b6104a633858584036104bd565b5060019392505050565b60006102fe3384846105e2565b6001600160a01b03831661051f5760405162461bcd60e51b8152602060048201526024808201527f45524332303a20617070726f76652066726f6d20746865207a65726f206164646044820152637265737360e01b6064820152608401610395565b6001600160a01b0382166105805760405162461bcd60e51b815260206004820152602260248201527f45524332303a20617070726f766520746f20746865207a65726f206164647265604482015261737360f01b6064820152608401610395565b6001600160a01b0383811660008181526001602090815260408083209487168084529482529182902085905590518481527f8c5be1e5ebec7d5bd14f71427d1e84f3dd0314c0f7b2291e5b200ac8c7c3b92591015b60405180910390a3505050565b6001600160a01b0383166106465760405162461bcd60e51b815260206004820152602560248201527f45524332303a207472616e736665722066726f6d20746865207a65726f206164604482015264647265737360d81b6064820152608401610395565b6001600160a01b0382166106a85760405162461bcd60e51b815260206004820152602360248201527f45524332303a207472616e7366657220746f20746865207a65726f206164647260448201526265737360e81b6064820152608401610395565b6001600160a01b038316600090815260208190526040902054818110156107205760405162461bcd60e51b815260206004820152602660248201527f45524332303a207472616e7366657220616d6f756e7420657863656564732062604482015265616c616e636560d01b6064820152608401610395565b6001600160a01b03808516600090815260208190526040808220858503905591851681529081208054849290610757908490610b25565b92505081905550826001600160a01b0316846001600160a01b03167fddf252ad1be2c89b69c2b068fc378daa952ba7f163c4a11628f55a4df523b3ef846040516107a391815260200190565b60405180910390a350505050565b6001600160a01b0382166108075760405162461bcd60e51b815260206004820152601f60248201527f45524332303a206d696e7420746f20746865207a65726f2061646472657373006044820152606401610395565b80600260008282546108199190610b25565b90915550506001600160a01b03821660009081526020819052604081208054839290610846908490610b25565b90915550506040518181526001600160a01b038316906000907fddf252ad1be2c89b69c2b068fc378daa952ba7f163c4a11628f55a4df523b3ef9060200160405180910390a35050565b6001600160a01b0382166108f05760405162461bcd60e51b815260206004820152602160248201527f45524332303a206275726e2066726f6d20746865207a65726f206164647265736044820152607360f81b6064820152608401610395565b6001600160a01b038216600090815260208190526040902054818110156109645760405162461bcd60e51b815260206004820152602260248201527f45524332303a206275726e20616d6f756e7420657863656564732062616c616e604482015261636560f01b6064820152608401610395565b6001600160a01b0383166000908152602081905260408120838303905560028054849290610993908490610b3d565b90915550506040518281526000906001600160a01b038516907fddf252ad1be2c89b69c2b068fc378daa952ba7f163c4a11628f55a4df523b3ef906020016105d5565b80356001600160a01b03811681146109ed57600080fd5b919050565b600060208284031215610a0457600080fd5b610a0d826109d6565b9392505050565b60008060408385031215610a2757600080fd5b610a30836109d6565b9150610a3e602084016109d6565b90509250929050565b600080600060608486031215610a5c57600080fd5b610a65846109d6565b9250610a73602085016109d6565b9150604084013590509250925092565b60008060408385031215610a9657600080fd5b610a9f836109d6565b946020939093013593505050565b600060208284031215610abf57600080fd5b813560ff81168114610a0d57600080fd5b600060208083528351808285015260005b81811015610afd57858101830151858201604001528201610ae1565b81811115610b0f576000604083870101525b50601f01601f1916929092016040019392505050565b60008219821115610b3857610b38610b8f565b500190565b600082821015610b4f57610b4f610b8f565b500390565b600181811c90821680610b6857607f821691505b60208210811415610b8957634e487b7160e01b600052602260045260246000fd5b50919050565b634e487b7160e01b600052601160045260246000fdfea2646970667358221220286a4528a49b3b39ff08ef801cd66a1850bc8840e4ddf0cbeba8a8a029d43bee64736f6c63430008060033",
    "linkReferences": {}
  },
  "methodIdentifiers": {
    "allowance(address,address)": "dd62ed3e",
    "approve(address,uint256)": "095ea7b3",
    "balanceOf(address)": "70a08231",
    "burn(address,uint256)": "9dc29fac",
    "decimals()": "313ce567",
    "decreaseAllowance(address,uint256)": "a457c2d7",
    "increaseAllowance(address,uint256)": "39509351",
    "mint(address,uint256)": "40c10f19",
    "name()": "06fdde03",
    "setDecimals(uint8)": "7a1395aa",
    "symbol()": "95d89b41",
    "totalSupply()": "18160ddd",
    "transfer(address,uint256)": "a9059cbb",
    "transferFrom(address,address,uint256)": "23b872dd"
  },
  "id": 34
}