{
  "abi": [
    {
      "inputs": [
        {
          "internalType": "int128",
          "name": "value",
          "type": "int128"
        }
      ],
      "name": "InverseOutOfBounds",
      "type": "error"
    },
    {
      "inputs": [],
      "name": "PERCENTAGE",
      "outputs": [
        {
          "internalType": "uint256",
          "name": "",
          "type": "uint256"
        }
      ],
      "stateMutability": "pure",
      "type": "function"
    },
    {
      "inputs": [],
      "name": "PRECISION",
      "outputs": [
        {
          "internalType": "uint256",
          "name": "",
          "type": "uint256"
        }
      ],
      "stateMutability": "pure",
      "type": "function"
    },
    {
      "inputs": [],
      "name": "YEAR",
      "outputs": [
        {
          "internalType": "uint256",
          "name": "",
          "type": "uint256"
        }
      ],
      "stateMutability": "pure",
      "type": "function"
    },
    {
      "inputs": [
        {
          "internalType": "uint256",
          "name": "reserveRisky",
          "type": "uint256"
        },
        {
          "internalType": "uint256",
          "name": "reserveStable",
          "type": "uint256"
        },
        {
          "internalType": "uint256",
          "name": "strike",
          "type": "uint256"
        },
        {
          "internalType": "uint256",
          "name": "sigma",
          "type": "uint256"
        },
        {
          "internalType": "uint256",
          "name": "tau",
          "type": "uint256"
        }
      ],
      "name": "calcInvariant",
      "outputs": [
        {
          "internalType": "int128",
          "name": "invariant",
          "type": "int128"
        }
      ],
      "stateMutability": "view",
      "type": "function"
    },
    {
      "inputs": [
        {
          "internalType": "uint256",
          "name": "sigma",
          "type": "uint256"
        },
        {
          "internalType": "uint256",
          "name": "tau",
          "type": "uint256"
        }
      ],
      "name": "getProportionalVolatility",
      "outputs": [
        {
          "internalType": "int128",
          "name": "vol",
          "type": "int128"
        }
      ],
      "stateMutability": "pure",
      "type": "function"
    },
    {
      "inputs": [
        {
          "internalType": "int128",
          "name": "invariantLast",
          "type": "int128"
        },
        {
          "internalType": "uint256",
          "name": "reserveRisky",
          "type": "uint256"
        },
        {
          "internalType": "uint256",
          "name": "strike",
          "type": "uint256"
        },
        {
          "internalType": "uint256",
          "name": "sigma",
          "type": "uint256"
        },
        {
          "internalType": "uint256",
          "name": "tau",
          "type": "uint256"
        }
      ],
      "name": "getStableGivenRisky",
      "outputs": [
        {
          "internalType": "int128",
          "name": "reserveStable",
          "type": "int128"
        }
      ],
      "stateMutability": "view",
      "type": "function"
    },
    {
      "inputs": [],
      "name": "scaleFactorRisky",
      "outputs": [
        {
          "internalType": "uint256",
          "name": "",
          "type": "uint256"
        }
      ],
      "stateMutability": "view",
      "type": "function"
    },
    {
      "inputs": [],
      "name": "scaleFactorStable",
      "outputs": [
        {
          "internalType": "uint256",
          "name": "",
          "type": "uint256"
        }
      ],
      "stateMutability": "view",
      "type": "function"
    },
    {
      "inputs": [
        {
          "internalType": "uint256",
          "name": "prec0",
          "type": "uint256"
        },
        {
          "internalType": "uint256",
          "name": "prec1",
          "type": "uint256"
        }
      ],
      "name": "set",
      "outputs": [],
      "stateMutability": "nonpayable",
      "type": "function"
    }
  ],
  "bytecode": {
    "object": "0x608060405234801561001057600080fd5b50611948806100206000396000f3fe608060405234801561001057600080fd5b50600436106100935760003560e01c806355ebb8251161006657806355ebb825146100f957806367d3b490146101025780638391454014610115578063aaf5eb681461011f578063b25f1db11461012d57600080fd5b80631ab06ee514610098578063293315f2146100b3578063374eb2bc146100ca5780634dd0d056146100f0575b600080fd5b6100b16100a6366004611832565b600091909155600155565b005b6127105b6040519081526020015b60405180910390f35b6100dd6100d8366004611832565b610140565b604051600f9190910b81526020016100c1565b6100b760015481565b6100b760005481565b6100dd6101103660046117e8565b610153565b6301e185586100b7565b670de0b6b3a76400006100b7565b6100dd61013b366004611854565b61017e565b600061014c8383610193565b9392505050565b600061017460015461016e886000546001548a8a8a8a6101d0565b906102a9565b9695505050505050565b600061017460005460015488888888886102d2565b6000806101aa6101a284610311565b600f0b610327565b905060006101b785610349565b90506101c7600f82900b83610357565b95945050505050565b6000806101dd85886102a9565b905060006101eb878a6102a9565b905060006101fd600160401b8361038e565b905084156102795760006102118787610193565b9050600061022183600f0b6103c1565b90506000610233600f83900b8461038e565b9050600061025e8f61025561024a85600f0b61047a565b600f8b900b90610357565b600f0b9061051b565b905061026e600f82900b8e61054e565b97505050505061029b565b6102988961028f8d610255600f88900b86610357565b600f0b9061054e565b93505b505050979650505050505050565b6000806102be83670de0b6b3a764000061188f565b90506102ca8482610573565b949350505050565b6000806102e560008a8a8a8989896101d0565b905060006102f3828a6102a9565b90506000610301888b6102a9565b9050610298600f82900b8361038e565b6000610321826301e18558610573565b92915050565b60008082600f0b121561033957600080fd5b610321604083600f0b901b6105aa565b600061032182612710610573565b6000600f83810b9083900b0260401d60016001607f1b03198112801590610385575060016001607f1b038113155b61014c57600080fd5b6000600f82810b9084900b0360016001607f1b03198112801590610385575060016001607f1b0381131561014c57600080fd5b6000600160401b600f83900b1215806103de5750600082600f0b13155b1561040657604051630e59931d60e31b8152600f83900b600482015260240160405180910390fd5b67f999999999999999600f83900b1380159061042e5750670666666666666666600f83900b12155b1561043c5761032182610718565b670666666666666666600f83900b121561045957610321826107bf565b600061047161046c600160401b8561038e565b6107bf565b61014c906118b1565b600080610494600f84900b68016a09e667f3bcc908610889565b905060006104d26104c76104bc6104ad85600f0b6108e1565b6753dd02a4f5ee2e4690610357565b600160401b9061051b565b600160401b90610889565b905060006104e08383610914565b9050600083600f0b12156104fd576104fa81600f0b6109e4565b90505b6000610174610510600160401b8461051b565b6001603f1b90610357565b6000600f83810b9083900b0160016001607f1b03198112801590610385575060016001607f1b0381131561014c57600080fd5b60008061056383670de0b6b3a764000061188f565b90506102ca600f85900b826109ff565b60008161057f57600080fd5b600061058b8484610a67565b905060016001607f1b036001600160801b038216111561014c57600080fd5b6000816105b957506000919050565b816001600160801b82106105d25760809190911c9060401b5b600160401b82106105e85760409190911c9060201b5b64010000000082106105ff5760209190911c9060101b5b6201000082106106145760109190911c9060081b5b61010082106106285760089190911c9060041b5b6010821061063b5760049190911c9060021b5b600882106106475760011b5b6001818581610658576106586118fc565b048201901c90506001818581610670576106706118fc565b048201901c90506001818581610688576106886118fc565b048201901c905060018185816106a0576106a06118fc565b048201901c905060018185816106b8576106b86118fc565b048201901c905060018185816106d0576106d06118fc565b048201901c905060018185816106e8576106e86118fc565b048201901c90506000818581610700576107006118fc565b04905080821061071057806101c7565b509392505050565b60008061072d600f84900b6001603f1b61038e565b9050600061073f600f83900b83610357565b905060006101c76107b46107a461077c6721d0a04b0e9b94f161025561076e67c2bf5d74c724e53e1989610357565b610255600f8a900b8a610357565b61079b6726a8f3c1f21b336e6102556787c57e5da70d3c8f1989610357565b600f0b90610889565b68015d71f5721242c7879061051b565b600f85900b90610357565b6000806107e16101a26107d96104c7600f87900b87610357565b600f0b610bc9565b905060006108056707a1e70f720eca436102556801000bf627fa1884101985610357565b905060006108296810aeac93f55267a9a561025568041ed34a256149023686610357565b9050600061085e68072c7d592d021fb1db6102556108506808c27b4617f5f800ea88610357565b610255600f89900b89610357565b9050600061087e610873600f85900b84610889565b600f86900b9061051b565b979650505050505050565b600081600f0b6000141561089c57600080fd5b600082600f0b604085600f0b901b816108b7576108b76118fc565b05905060016001607f1b03198112801590610385575060016001607f1b0381131561014c57600080fd5b6000600f82900b60016001607f1b031914156108fc57600080fd5b600082600f0b1261090d5781610321565b5060000390565b6000806109666107b461095661094b61093a600f88900b68010fb844255a12d72e610357565b68017401c57014c38f13199061051b565b600f87900b90610357565b68016a09e667f3bcc9089061051b565b9050600061099261098361094b6748d4c730f051a5fd198561051b565b67413c831bb169f8749061051b565b905060006101746109d96109ce6109c36109bb6109b3600f8c900b8c610357565b600f0b6109e4565b600f0b610c03565b600f86900b90610357565b600f88900b90610357565b600160401b9061038e565b6000600f82900b60016001607f1b0319141561090d57600080fd5b600081610a0e57506000610321565b600083600f0b1215610a1f57600080fd5b600f83900b6001600160801b038316810260401c90608084901c026001600160c01b03811115610a4e57600080fd5b60401b8119811115610a5f57600080fd5b019392505050565b600081610a7357600080fd5b60006001600160c01b038411610a9e5782604085901b81610a9657610a966118fc565b049050610bb5565b60c084811c6401000000008110610ab7576020918201911c5b620100008110610ac9576010918201911c5b6101008110610ada576008918201911c5b60108110610aea576004918201911c5b60048110610afa576002918201911c5b60028110610b09576001820191505b60bf820360018603901c6001018260ff0387901b81610b2a57610b2a6118fc565b0492506001600160801b03831115610b4157600080fd5b608085901c83026001600160801b038616840260c088901c604089901b82811015610b6d576001820391505b608084901b92900382811015610b84576001820391505b829003608084901c8214610b9a57610b9a6118e6565b888181610ba957610ba96118fc565b04870196505050505050505b6001600160801b0381111561014c57600080fd5b60008082600f0b13610bda57600080fd5b6080610be583610c58565b600f0b6fb17217f7d1cf79abc9e3b39803f2f6af02901c9050919050565b6000600160461b82600f0b12610c1857600080fd5b683fffffffffffffffff1982600f0b1215610c3557506000919050565b610321608083600f0b700171547652b82fe1777d0ffda0d23a7d1202901d610d33565b60008082600f0b13610c6957600080fd5b6000600f83900b600160401b8112610c83576040918201911d5b6401000000008112610c97576020918201911d5b620100008112610ca9576010918201911d5b6101008112610cba576008918201911d5b60108112610cca576004918201911d5b60048112610cda576002918201911d5b60028112610ce9576001820191505b603f19820160401b600f85900b607f8490031b6001603f1b5b6000811315610d285790800260ff81901c8281029390930192607f011c9060011d610d02565b509095945050505050565b6000600160461b82600f0b12610d4857600080fd5b683fffffffffffffffff1982600f0b1215610d6557506000919050565b6001607f1b60006001603f1b8416600f0b1315610d935770016a09e667f3bcc908b2fb1366ea957d3e0260801c5b60008367400000000000000016600f0b1315610dc0577001306fe0a31b7152de8d5a46305c85edec0260801c5b60008367200000000000000016600f0b1315610ded577001172b83c7d517adcdf7c8c50eb14a791f0260801c5b60008367100000000000000016600f0b1315610e1a5770010b5586cf9890f6298b92b71842a983630260801c5b60008367080000000000000016600f0b1315610e47577001059b0d31585743ae7c548eb68ca417fd0260801c5b60008367040000000000000016600f0b1315610e7457700102c9a3e778060ee6f7caca4f7a29bde80260801c5b60008367020000000000000016600f0b1315610ea15770010163da9fb33356d84a66ae336dcdfa3f0260801c5b60008367010000000000000016600f0b1315610ece57700100b1afa5abcbed6129ab13ec11dc95430260801c5b600083668000000000000016600f0b1315610efa5770010058c86da1c09ea1ff19d294cf2f679b0260801c5b600083664000000000000016600f0b1315610f26577001002c605e2e8cec506d21bfc89a23a00f0260801c5b600083662000000000000016600f0b1315610f5257700100162f3904051fa128bca9c55c31e5df0260801c5b600083661000000000000016600f0b1315610f7e577001000b175effdc76ba38e31671ca9397250260801c5b600083660800000000000016600f0b1315610faa57700100058ba01fb9f96d6cacd4b180917c3d0260801c5b600083660400000000000016600f0b1315610fd65770010002c5cc37da9491d0985c348c68e7b30260801c5b600083660200000000000016600f0b1315611002577001000162e525ee054754457d59952920260260801c5b600083660100000000000016600f0b131561102e5770010000b17255775c040618bf4a4ade83fc0260801c5b6000836580000000000016600f0b1315611059577001000058b91b5bc9ae2eed81e9b7d4cfab0260801c5b6000836540000000000016600f0b131561108457700100002c5c89d5ec6ca4d7c8acc017b7c90260801c5b6000836520000000000016600f0b13156110af5770010000162e43f4f831060e02d839a9d16d0260801c5b6000836510000000000016600f0b13156110da57700100000b1721bcfc99d9f890ea069117630260801c5b6000836508000000000016600f0b13156111055770010000058b90cf1e6d97f9ca14dbcc16280260801c5b6000836504000000000016600f0b1315611130577001000002c5c863b73f016468f6bac5ca2b0260801c5b6000836502000000000016600f0b131561115b57700100000162e430e5a18f6119e3c02282a50260801c5b6000836501000000000016600f0b1315611186577001000000b1721835514b86e6d96efd1bfe0260801c5b60008364800000000016600f0b13156111b057700100000058b90c0b48c6be5df846c5b2ef0260801c5b60008364400000000016600f0b13156111da5770010000002c5c8601cc6b9e94213c72737a0260801c5b60008364200000000016600f0b1315611204577001000000162e42fff037df38aa2b219f060260801c5b60008364100000000016600f0b131561122e5770010000000b17217fba9c739aa5819f44f90260801c5b60008364080000000016600f0b1315611258577001000000058b90bfcdee5acd3c1cedc8230260801c5b60008364040000000016600f0b131561128257700100000002c5c85fe31f35a6a30da1be500260801c5b60008364020000000016600f0b13156112ac5770010000000162e42ff0999ce3541b9fffcf0260801c5b60008364010000000016600f0b13156112d657700100000000b17217f80f4ef5aadda455540260801c5b600083638000000016600f0b13156112ff5770010000000058b90bfbf8479bd5a81b51ad0260801c5b600083634000000016600f0b1315611328577001000000002c5c85fdf84bd62ae30a74cc0260801c5b600083632000000016600f0b131561135157700100000000162e42fefb2fed257559bdaa0260801c5b600083631000000016600f0b131561137a577001000000000b17217f7d5a7716bba4a9ae0260801c5b600083630800000016600f0b13156113a357700100000000058b90bfbe9ddbac5e109cce0260801c5b600083630400000016600f0b13156113cc5770010000000002c5c85fdf4b15de6f17eb0d0260801c5b600083630200000016600f0b13156113f5577001000000000162e42fefa494f1478fde050260801c5b600083630100000016600f0b131561141e5770010000000000b17217f7d20cf927c8e94c0260801c5b6000836280000016600f0b1315611446577001000000000058b90bfbe8f71cb4e4b33d0260801c5b6000836240000016600f0b131561146e57700100000000002c5c85fdf477b662b269450260801c5b6000836220000016600f0b13156114965770010000000000162e42fefa3ae53369388c0260801c5b6000836210000016600f0b13156114be57700100000000000b17217f7d1d351a389d400260801c5b6000836208000016600f0b13156114e65770010000000000058b90bfbe8e8b2d3d4ede0260801c5b6000836204000016600f0b131561150e577001000000000002c5c85fdf4741bea6e77e0260801c5b6000836202000016600f0b131561153657700100000000000162e42fefa39fe95583c20260801c5b6000836201000016600f0b131561155e577001000000000000b17217f7d1cfb72b45e10260801c5b60008361800016600f0b131561158557700100000000000058b90bfbe8e7cc35c3f00260801c5b60008361400016600f0b13156115ac5770010000000000002c5c85fdf473e242ea380260801c5b60008361200016600f0b13156115d3577001000000000000162e42fefa39f02b772c0260801c5b60008361100016600f0b13156115fa5770010000000000000b17217f7d1cf7d83c1a0260801c5b60008361080016600f0b1315611621577001000000000000058b90bfbe8e7bdcbe2e0260801c5b60008361040016600f0b131561164857700100000000000002c5c85fdf473dea871f0260801c5b60008361020016600f0b131561166f5770010000000000000162e42fefa39ef44d910260801c5b60008361010016600f0b131561169657700100000000000000b17217f7d1cf79e9490260801c5b600083608016600f0b13156116bc5770010000000000000058b90bfbe8e7bce5440260801c5b600083604016600f0b13156116e2577001000000000000002c5c85fdf473de6eca0260801c5b600083602016600f0b131561170857700100000000000000162e42fefa39ef366f0260801c5b600083601016600f0b131561172e577001000000000000000b17217f7d1cf79afa0260801c5b600083600816600f0b131561175457700100000000000000058b90bfbe8e7bcd6d0260801c5b600083600416600f0b131561177a5770010000000000000002c5c85fdf473de6b20260801c5b600083600216600f0b13156117a0577001000000000000000162e42fefa39ef3580260801c5b600083600116600f0b13156117c65770010000000000000000b17217f7d1cf79ab0260801c5b600f83810b60401d603f03900b1c60016001607f1b0381111561032157600080fd5b600080600080600060a0868803121561180057600080fd5b853580600f0b811461181157600080fd5b97602087013597506040870135966060810135965060800135945092505050565b6000806040838503121561184557600080fd5b50508035926020909101359150565b600080600080600060a0868803121561186c57600080fd5b505083359560208501359550604085013594606081013594506080013592509050565b6000826118ac57634e487b7160e01b600052601260045260246000fd5b500490565b600081600f0b60016001607f1b03198114156118dd57634e487b7160e01b600052601160045260246000fd5b60000392915050565b634e487b7160e01b600052600160045260246000fd5b634e487b7160e01b600052601260045260246000fdfea2646970667358221220a8368ba8c77567451d1e7f1e1987bd945af0c1b2bf901b546520d28646c4a38964736f6c63430008060033",
    "linkReferences": {}
  },
  "methodIdentifiers": {
    "PERCENTAGE()": "293315f2",
    "PRECISION()": "aaf5eb68",
    "YEAR()": "83914540",
    "calcInvariant(uint256,uint256,uint256,uint256,uint256)": "b25f1db1",
    "getProportionalVolatility(uint256,uint256)": "374eb2bc",
    "getStableGivenRisky(int128,uint256,uint256,uint256,uint256)": "67d3b490",
    "scaleFactorRisky()": "55ebb825",
    "scaleFactorStable()": "4dd0d056",
    "set(uint256,uint256)": "1ab06ee5"
  },
  "id": 27
}