{
  "abi": [
    {
      "inputs": [],
      "stateMutability": "nonpayable",
      "type": "constructor"
    },
    {
      "inputs": [],
      "name": "SameTokenError",
      "type": "error"
    },
    {
      "inputs": [],
      "name": "ZeroAddressError",
      "type": "error"
    },
    {
      "anonymous": false,
      "inputs": [
        {
          "indexed": true,
          "internalType": "address",
          "name": "from",
          "type": "address"
        },
        {
          "indexed": true,
          "internalType": "address",
          "name": "risky",
          "type": "address"
        },
        {
          "indexed": true,
          "internalType": "address",
          "name": "stable",
          "type": "address"
        },
        {
          "indexed": false,
          "internalType": "address",
          "name": "engine",
          "type": "address"
        }
      ],
      "name": "DeployEngine",
      "type": "event"
    },
    {
      "inputs": [],
      "name": "MIN_LIQUIDITY_FACTOR",
      "outputs": [
        {
          "internalType": "uint256",
          "name": "",
          "type": "uint256"
        }
      ],
      "stateMutability": "view",
      "type": "function"
    },
    {
      "inputs": [],
      "name": "args",
      "outputs": [
        {
          "internalType": "address",
          "name": "factory",
          "type": "address"
        },
        {
          "internalType": "address",
          "name": "risky",
          "type": "address"
        },
        {
          "internalType": "address",
          "name": "stable",
          "type": "address"
        },
        {
          "internalType": "uint256",
          "name": "scaleFactorRisky",
          "type": "uint256"
        },
        {
          "internalType": "uint256",
          "name": "scaleFactorStable",
          "type": "uint256"
        },
        {
          "internalType": "uint256",
          "name": "minLiquidity",
          "type": "uint256"
        }
      ],
      "stateMutability": "view",
      "type": "function"
    },
    {
      "inputs": [
        {
          "internalType": "address",
          "name": "risky",
          "type": "address"
        },
        {
          "internalType": "address",
          "name": "stable",
          "type": "address"
        }
      ],
      "name": "deploy",
      "outputs": [
        {
          "internalType": "address",
          "name": "engine",
          "type": "address"
        }
      ],
      "stateMutability": "nonpayable",
      "type": "function"
    },
    {
      "inputs": [],
      "name": "deployer",
      "outputs": [
        {
          "internalType": "address",
          "name": "",
          "type": "address"
        }
      ],
      "stateMutability": "view",
      "type": "function"
    },
    {
      "inputs": [
        {
          "internalType": "address",
          "name": "",
          "type": "address"
        },
        {
          "internalType": "address",
          "name": "",
          "type": "address"
        }
      ],
      "name": "getEngine",
      "outputs": [
        {
          "internalType": "address",
          "name": "",
          "type": "address"
        }
      ],
      "stateMutability": "view",
      "type": "function"
    }
  ],
  "bytecode": {
    "object": "0x60a060405234801561001057600080fd5b5033606081901b608052614d0561003260003960006101420152614d056000f3fe608060405234801561001057600080fd5b50600436106100575760003560e01c806345d9b6631461005c5780634e9b75b614610077578063545e7c61146100e157806362f7f9181461010c578063d5f394881461013d575b600080fd5b610064600681565b6040519081526020015b60405180910390f35b6001546002546003546004546005546006546100a3956001600160a01b03908116958116941692919086565b604080516001600160a01b039788168152958716602087015293909516928401929092526060830152608082015260a081019190915260c00161006e565b6100f46100ef3660046104c5565b610164565b6040516001600160a01b03909116815260200161006e565b6100f461011a3660046104c5565b60006020818152928152604080822090935290815220546001600160a01b031681565b6100f47f000000000000000000000000000000000000000000000000000000000000000081565b6000816001600160a01b0316836001600160a01b0316141561019957604051633b0e2de560e21b815260040160405180910390fd5b6001600160a01b03831615806101b657506001600160a01b038216155b156101d457604051633efa09af60e01b815260040160405180910390fd5b6000836001600160a01b031663313ce5676040518163ffffffff1660e01b815260040160206040518083038186803b15801561020f57600080fd5b505afa158015610223573d6000803e3d6000fd5b505050506040513d601f19601f8201168201806040525081019061024791906104f8565b60ff1690506000836001600160a01b031663313ce5676040518163ffffffff1660e01b815260040160206040518083038186803b15801561028757600080fd5b505afa15801561029b573d6000803e3d6000fd5b505050506040513d601f19601f820116820180604052508101906102bf91906104f8565b60ff16905060006102d1836012610631565b6102dc90600a610587565b905060006102eb836012610631565b6102f690600a610587565b905060006006848611610309578561030b565b845b6103159190610522565b61032090600a610587565b6040805160c081018252308082526001600160a01b038c81166020808501829052918d1684860181905260608086018b9052608086018a905260a0909501879052600180546001600160a01b03199081169095179055600280548516831790556003805490941681179093556004899055600588905560068690558451918201529283015291925001604051602081830303815290604052805190602001206040516103cb9061049c565b8190604051809103906000f59050801580156103eb573d6000803e3d6000fd5b506001600160a01b038981166000818152602081815260408083208d86168085529083529281902080546001600160a01b03191695871695861790555193845293995092909133917f53debfbd8fbd7a456afa9b03b44ec9c24f35d9b2d62d8713a7906c5b51dcf158910160405180910390a45050600180546001600160a01b0319908116909155600280548216905560038054909116905550506000600481905560058190556006555092915050565b6146718061065f83390190565b80356001600160a01b03811681146104c057600080fd5b919050565b600080604083850312156104d857600080fd5b6104e1836104a9565b91506104ef602084016104a9565b90509250929050565b60006020828403121561050a57600080fd5b815160ff8116811461051b57600080fd5b9392505050565b60008261053f57634e487b7160e01b600052601260045260246000fd5b500490565b600181815b8085111561057f57816000190482111561056557610565610648565b8085161561057257918102915b93841c9390800290610549565b509250929050565b600061051b838360008261059d5750600161062b565b816105aa5750600061062b565b81600181146105c057600281146105ca576105e6565b600191505061062b565b60ff8411156105db576105db610648565b50506001821b61062b565b5060208310610133831016604e8410600b8410161715610609575081810a61062b565b6106138383610544565b806000190482111561062757610627610648565b0290505b92915050565b60008282101561064357610643610648565b500390565b634e487b7160e01b600052601160045260246000fdfe610140604052600160005560016005553480156200001c57600080fd5b50336001600160a01b0316634e9b75b66040518163ffffffff1660e01b815260040160c06040518083038186803b1580156200005757600080fd5b505afa1580156200006c573d6000803e3d6000fd5b505050506040513d601f19601f82011682018060405250810190620000929190620000e3565b60805260c05260a0526001600160601b0319606091821b81166101205291811b8216610100529190911b1660e05262000149565b80516001600160a01b0381168114620000de57600080fd5b919050565b60008060008060008060c08789031215620000fd57600080fd5b6200010887620000c6565b95506200011860208801620000c6565b94506200012860408801620000c6565b9350606087015192506080870151915060a087015190509295509295509295565b60805160a05160c05160e05160601c6101005160601c6101205160601c6144436200022e6000396000818161029f01528181610b8601528181611532015281816115d901528181611a4a015261227d0152600081816104f701528181610b4c015281816113ea0152818161149101528181611b5f015261216a015260006105310152600081816103c50152818161075d01528181610ca4015281816112d201526119450152600081816104120152818161073c01528181610c82015281816112b1015261192401526000818161027801528181610d96015261104001526144436000f3fe608060405234801561001057600080fd5b50600436106101575760003560e01c80636b35bb6b116100c3578063be00763a1161007c578063be00763a146104c4578063c08165d4146104f2578063c0ed31ba14610519578063c45a01551461052c578063ca28fcd614610553578063d2957b8f1461056657600080fd5b80636b35bb6b146104345780638fbc3ecd1461045f5780639e48ff5a146104675780639f8cfade1461047a578063aaf5eb68146104a2578063b5c5f672146104b157600080fd5b806322be3de11161011557806322be3de11461029a57806323c5b952146102d9578063388204651461036c5780634dd0d056146103c0578063546fecae146103e757806355ebb8251461040d57600080fd5b8062bbf1e41461015c57806307e32f0a1461020c57806311f9908614610221578063140240db1461024957806316ada5471461025c57806321b77d6314610273575b600080fd5b6101bb61016a366004614084565b6003602081905260009182526040909120805460018201546002830154938301546004909301546001600160801b0380841695600160801b948590048216959184169490930463ffffffff16929187565b604080516001600160801b0398891681529688166020880152949096169385019390935263ffffffff919091166060840152608083015260a082015260c081019190915260e0015b60405180910390f35b61021f61021a366004614084565b610579565b005b61023461022f366004614084565b610593565b60405163ffffffff9091168152602001610203565b61021f610257366004614143565b6105d0565b61026560055481565b604051908152602001610203565b6102657f000000000000000000000000000000000000000000000000000000000000000081565b6102c17f000000000000000000000000000000000000000000000000000000000000000081565b6040516001600160a01b039091168152602001610203565b61032f6102e7366004614084565b6001602052600090815260409020546001600160801b0381169063ffffffff600160801b8204811691600160a01b8104821691600160c01b8204811691600160e01b90041685565b604080516001600160801b03909616865263ffffffff9485166020870152928416928501929092528216606084015216608082015260a001610203565b6103a061037a366004613edb565b6002602052600090815260409020546001600160801b0380821691600160801b90041682565b604080516001600160801b03938416815292909116602083015201610203565b6102657f000000000000000000000000000000000000000000000000000000000000000081565b6103fa6103f5366004614084565b610628565b604051600f9190910b8152602001610203565b6102657f000000000000000000000000000000000000000000000000000000000000000081565b610265610442366004613ef6565b600460209081526000928352604080842090915290825290205481565b610265607881565b61021f610475366004613fff565b6107ad565b61048d610488366004614121565b610928565b60408051928352602083019190915201610203565b610265670de0b6b3a764000081565b61021f6104bf366004613fcc565b610ada565b6104d76104d236600461416f565b610bfd565b60408051938452602084019290925290820152606001610203565b6102c17f000000000000000000000000000000000000000000000000000000000000000081565b61021f610527366004614121565b6111ea565b6102c17f000000000000000000000000000000000000000000000000000000000000000081565b61021f610561366004613f20565b61166e565b61026561057436600461409d565b611caf565b806005600082825461058b91906142de565b909155505050565b600080546001146105b757604051635cd4e48360e01b815260040160405180910390fd5b60026000556105c582611f32565b600160005592915050565b60008381526003602052604090206105e783611fdf565b81546001600160801b0319166001600160801b039190911617815561060b82611fdf565b81546001600160801b03918216600160801b029116179055505050565b6000818152600160209081526040808320815160a08101835290546001600160801b038116825263ffffffff600160801b8204811694830194909452600160a01b81048416928201839052600160c01b8104841660608301819052600160e01b90910490931660808201529183916106a09190614376565b6000858152600360208181526040808420815160e08101835281546001600160801b038082168352600160801b9182900481169583019590955260018301549485169382019390935263ffffffff9290930482166060840152600281015460808401529283015460a083015260049092015460c0820152929350909182916107339190670de0b6b3a764000090611ff916565b915091506107a37f00000000000000000000000000000000000000000000000000000000000000007f0000000000000000000000000000000000000000000000000000000000000000848488600001516001600160801b0316896020015163ffffffff168963ffffffff16612058565b9695505050505050565b6000546001146107d057604051635cd4e48360e01b815260040160405180910390fd5b6002600055831580156107e1575082155b156107ff576040516381552f0360e01b815260040160405180910390fd5b6001600160a01b03851660009081526002602052604090206108229085856120a6565b600080851561083657610833612150565b91505b841561084757610844612263565b90505b60405163c536e60560e01b8152339063c536e60590610870908990899089908990600401614293565b600060405180830381600087803b15801561088a57600080fd5b505af115801561089e573d6000803e3d6000fd5b50505050856000146108bc576108bc6108b787846142de565b6122af565b84156108d4576108d46108cf86836142de565b6122ea565b60408051878152602081018790526001600160a01b0389169133917fdcbc1c05240f31ff3ad067ef1ee35ce4997762752e3a095284754544f4c709d7910160405180910390a3505060016000555050505050565b60008060005460011461094e57604051635cd4e48360e01b815260040160405180910390fd5b6002600055826109715760405163e5664db760e01b815260040160405180910390fd5b60008481526003602052604090206001810154600160801b900463ffffffff166109ae57604051631d2ad63f60e01b815260040160405180910390fd5b6040805160e08101825282546001600160801b038082168352600160801b918290048116602084015260018501549081169383019390935263ffffffff92048216606082015260028301546080820152600383015460a0820152600483015460c0820152610a1e918690611ff916565b3360009081526004602090815260408083208a8452909152812080549396509194508692610a4d90849061435f565b90915550610a6c9050838386610a6260055490565b8593929190612321565b336000908152600260205260409020610a869084846120a6565b6040805184815260208101849052908101859052859033907f59c6598fc34aefe62579a03667748ef83b4682874f311affb26b318095359b0e9060600160405180910390a350600160005590939092509050565b600054600114610afd57604051635cd4e48360e01b815260040160405180910390fd5b600260005581158015610b0e575080155b15610b2c576040516381552f0360e01b815260040160405180910390fd5b610b3860028383612413565b508115610b7357610b736001600160a01b037f00000000000000000000000000000000000000000000000000000000000000001684846124ce565b8015610bad57610bad6001600160a01b037f00000000000000000000000000000000000000000000000000000000000000001684836124ce565b60408051838152602081018390526001600160a01b0385169133917ff341246adaac6f497bc2a656f546ab9e182111d630394f0c57c710a59a2cb567910160405180910390a35050600160005550565b60008060008054600114610c2457604051635cd4e48360e01b815260040160405180910390fd5b60026000556040516bffffffffffffffffffffffff193060601b1660208201526001600160801b031960808d901b1660348201526001600160e01b031960e08c811b821660448401528b811b821660488401528a901b16604c8201527f0000000000000000000000000000000000000000000000000000000000000000907f00000000000000000000000000000000000000000000000000000000000000009060500160408051808303601f19018152918152815160209283012060008181526001909352912054909550600160c01b900463ffffffff1615610d1a57604051633651818b60e21b815260040160405180910390fd5b629896808c63ffffffff161180610d37575060018c63ffffffff16105b15610d62576040516387a2c00160e01b815263ffffffff8d1660048201526024015b60405180910390fd5b6001600160801b038d16610d945760405163b3f4bc5560e01b81526001600160801b038e166004820152602401610d59565b7f00000000000000000000000000000000000000000000000000000000000000008811610dd75760405163325951a560e01b815260048101899052602401610d59565b610de982670de0b6b3a76400006142f6565b891180610df4575088155b15610e15576040516323d62a0f60e11b8152600481018a9052602401610d59565b6127108a63ffffffff161180610e3257506123288a63ffffffff16105b15610e5857604051637ed91fa560e11b815263ffffffff8b166004820152602401610d59565b60006040518060a001604052808f6001600160801b031681526020018e63ffffffff1681526020018d63ffffffff168152602001610e9560055490565b63ffffffff1681526020018c63ffffffff168152509050806040015163ffffffff16816060015163ffffffff161115610ee15760405163536e15e160e01b815260040160405180910390fd5b600081606001518260400151610ef79190614376565b9050610f26600085858e86600001516001600160801b0316876020015163ffffffff168763ffffffff166125d9565b9450670de0b6b3a7640000610f3b8b8d614318565b610f4591906142f6565b9550670de0b6b3a7640000610f5a8b87614318565b610f6491906142f6565b9450851580610f71575084155b15610f995760405163492d6d1760e01b81526004810187905260248101869052604401610d59565b6000878152600160209081526040808320855181549387015192870151606088015160808901516001600160801b039093166001600160a01b031990961695909517600160801b63ffffffff958616021767ffffffffffffffff60a01b1916600160a01b9185169190910263ffffffff60c01b191617600160c01b94841694909402939093176001600160e01b0316600160e01b92909316919091029190911790556110657f00000000000000000000000000000000000000000000000000000000000000008c61435f565b3360009081526004602090815260408083208c84529091528120805492935083929091906110949084906142de565b9091555050606083015160008981526003602052604090206110bb91899089908f906126af565b6000806110c6612150565b6110ce612263565b91509150336001600160a01b031663c171d27e8a8a8f8f6040518563ffffffff1660e01b81526004016111049493929190614293565b600060405180830381600087803b15801561111e57600080fd5b505af1158015611132573d6000803e3d6000fd5b5050505061114589836108b791906142de565b6111526108cf89836142de565b60808086015160408088015188516020808b015184516001600160801b03909316835263ffffffff908116918301919091529281018e9052606081018d90529384018790529181169291169033907ff38f2bc2b712352b1d4a9ea95291a1c688835ac9f70a7a9d0aec57712c8b19129060a00160405180910390a4505050505050506001600081905550985098509895505050505050565b600082815260036020908152604080832060018352818420825160a08101845290546001600160801b03808216835263ffffffff600160801b808404821697850197909752600160a01b8304811695840195909552600160c01b820485166060840152600160e01b90910490931660808201528154919490938284169392049091169061127687610628565b905061128186611fdf565b8560000160006101000a8154816001600160801b0302191690836001600160801b03160217905550600061132a827f00000000000000000000000000000000000000000000000000000000000000007f00000000000000000000000000000000000000000000000000000000000000008a89600001516001600160801b03168a6020015163ffffffff168b606001518c6040015161131f9190614376565b63ffffffff166125d9565b905061133581611fdf565b86546001600160801b03918216600160801b908102918316828117808b559284161792910416600086831161136b576000611375565b611375878461435f565b9050600087841161138f5761138a848961435f565b611392565b60005b905060008784116113a45760006113ae565b6113ae888561435f565b905060008885116113c8576113c3858a61435f565b6113cb565b60005b60405163a9059cbb60e01b8152336004820152602481018590529091507f00000000000000000000000000000000000000000000000000000000000000006001600160a01b03169063a9059cbb90604401602060405180830381600087803b15801561143657600080fd5b505af115801561144a573d6000803e3d6000fd5b505050506040513d601f19601f8201168201806040525081019061146e9190614067565b506040516323b872dd60e01b8152336004820152306024820152604481018590527f00000000000000000000000000000000000000000000000000000000000000006001600160a01b0316906323b872dd90606401602060405180830381600087803b1580156114dd57600080fd5b505af11580156114f1573d6000803e3d6000fd5b505050506040513d601f19601f820116820180604052508101906115159190614067565b5060405163a9059cbb60e01b8152336004820152602481018290527f00000000000000000000000000000000000000000000000000000000000000006001600160a01b03169063a9059cbb90604401602060405180830381600087803b15801561157e57600080fd5b505af1158015611592573d6000803e3d6000fd5b505050506040513d601f19601f820116820180604052508101906115b69190614067565b506040516323b872dd60e01b8152336004820152306024820152604481018390527f00000000000000000000000000000000000000000000000000000000000000006001600160a01b0316906323b872dd90606401602060405180830381600087803b15801561162557600080fd5b505af1158015611639573d6000803e3d6000fd5b505050506040513d601f19601f8201168201806040525081019061165d9190614067565b505050505050505050505050505050565b60005460011461169157604051635cd4e48360e01b815260040160405180910390fd5b6002600055856116b457604051631411378d60e11b815260040160405180910390fd5b846116d25760405163564b486560e01b815260040160405180910390fd5b60006040518061010001604052808b6001600160a01b0316815260200189151581526020018615158152602001851515815260200161171060055490565b63ffffffff1681526020018a8152602001888152602001878152509050600061173c8260a00151611f32565b905061174f607863ffffffff83166142de565b826080015163ffffffff1611156117795760405163536e15e160e01b815260040160405180910390fd5b60006117888360a00151610628565b60a08085018051600090815260016020908152604080832081519586018252546001600160801b038116865263ffffffff600160801b8204811687850152600160a01b82048116878401908152600160c01b8304821660608901908152600160e01b90930490911660808801529451845260039092528220905192519495509293909161181491614376565b90506000612710846080015163ffffffff168860c001516118359190614318565b61183f91906142f6565b905060008088602001511561188b5784546118649084906001600160801b03166142de565b8554909250611884908f90600160801b90046001600160801b031661435f565b90506118c4565b84546118a1908f906001600160801b031661435f565b85549092506118c1908490600160801b90046001600160801b03166142de565b90505b60018501546001600160801b03166118e4670de0b6b3a764000084614318565b6118ee91906142f6565b60018601549092506001600160801b0316611911670de0b6b3a764000083614318565b61191b91906142f6565b9050600061198b7f00000000000000000000000000000000000000000000000000000000000000007f000000000000000000000000000000000000000000000000000000000000000085858b600001516001600160801b03168c6020015163ffffffff168b63ffffffff16612058565b905080600f0b88600f0b13156119c257604051630cd4424b60e41b8152600f89810b600483015282900b6024820152604401610d59565b6119eb8a602001518b60c001518c60e001518d608001518a61277690949392919063ffffffff16565b50505050505050826020015115611b1257826060015115611a355760e083015183516001600160a01b03166000908152600260205260408120611a30929091906120a6565b611a70565b825160e0840151611a70916001600160a01b037f000000000000000000000000000000000000000000000000000000000000000016916124ce565b826040015115611a935760c0830151611a8d906002906000612413565b50611c25565b6000611a9d612150565b60c085015160405163491dc51560e11b8152919250339163923b8a2a91611acd916000908b908b90600401614293565b600060405180830381600087803b158015611ae757600080fd5b505af1158015611afb573d6000803e3d6000fd5b50505050611a8d8460c00151826108b791906142de565b826060015115611b4a5760e083015183516001600160a01b03166000908152600260205260408120611b459290916120a6565b611b85565b825160e0840151611b85916001600160a01b037f000000000000000000000000000000000000000000000000000000000000000016916124ce565b826040015115611ba35760c0830151611a8d90600290600090612413565b6000611bad612263565b60c085015160405163491dc51560e11b8152919250339163923b8a2a91611bde91600091908b908b90600401614293565b600060405180830381600087803b158015611bf857600080fd5b505af1158015611c0c573d6000803e3d6000fd5b50505050611c238460c00151826108cf91906142de565b505b8260a0015183600001516001600160a01b0316336001600160a01b03167fe42b42fe878e256d1efbfb2ba292aadeac0228bbaa31f4ef8537522bdfa3ea1986602001518760c001518860e00151604051611c949392919092151583526020830191909152604082015260600190565b60405180910390a45050600160005550505050505050505050565b60008054600114611cd357604051635cd4e48360e01b815260040160405180910390fd5b6002600055851580611ce3575084155b15611d01576040516381552f0360e01b815260040160405180910390fd5b60008881526003602052604090206001810154600160801b900463ffffffff16611d3e57604051631d2ad63f60e01b815260040160405180910390fd5b6000611d4960055490565b825460018401549192506000916001600160801b0391821691611d6d91168b614318565b611d7791906142f6565b835460018501549192506000916001600160801b03600160801b909204821691611da291168b614318565b611dac91906142f6565b9050808210611dbb5780611dbd565b815b945084611ddd5760405163e5664db760e01b815260040160405180910390fd5b6001600160a01b038b1660009081526004602090815260408083208f845290915281208054879290611e109084906142de565b90915550611e239050848b8b88876126af565b8715611e3b57611e3560028b8b612413565b50611ecd565b600080611e46612150565b611e4e612263565b6040516302a3517f60e31b81529193509150339063151a8bf890611e7c908f908f908e908e90600401614293565b600060405180830381600087803b158015611e9657600080fd5b505af1158015611eaa573d6000803e3d6000fd5b50505050611ebd8c836108b791906142de565b611eca6108cf8c836142de565b50505b604080518b8152602081018b90529081018690528c906001600160a01b038d169033907f86e4803447f73017bf832b0ac69cb7afa3333a5fa823ec42a9f6cf8d17b50ecc9060600160405180910390a450506001600055509098975050505050505050565b60008181526001602052604081208054600160c01b900463ffffffff16611f6c57604051631d2ad63f60e01b815260040160405180910390fd5b600554815490925063ffffffff600160a01b9091048116908316811015611f91578092505b815463ffffffff60c01b1916600160c01b63ffffffff85160217825560405184907fd69bdb2831892ad6046f30af0f12362aef46cce34d58ed7ad9b3ef8c44b1b46690600090a25050919050565b60006001600160801b03821115611ff557600080fd5b5090565b6040820151825160009182916001600160801b0391821691829161201e911686614318565b61202891906142f6565b92508085602001516001600160801b0316856120449190614318565b61204e91906142f6565b9150509250929050565b60008061206b60008a8a8a8989896125d9565b90506000612079828a612895565b90506000612087888b612895565b9050612097600f82900b836128be565b9b9a5050505050505050505050565b81156120f5576120b582611fdf565b835484906000906120d09084906001600160801b03166142b3565b92506101000a8154816001600160801b0302191690836001600160801b031602179055505b801561214b5761210481611fdf565b83548490601090612126908490600160801b90046001600160801b03166142b3565b92506101000a8154816001600160801b0302191690836001600160801b031602179055505b505050565b604051306024820152600090819081906001600160a01b037f000000000000000000000000000000000000000000000000000000000000000016906370a0823160e01b906044015b60408051601f198184030181529181526020820180516001600160e01b03166001600160e01b03199094169390931790925290516121d69190614258565b600060405180830381855afa9150503d8060008114612211576040519150601f19603f3d011682016040523d82523d6000602084013e612216565b606091505b509150915081158061222a57508051602014155b156122485760405163056a754560e51b815260040160405180910390fd5b8080602001905181019061225c9190614216565b9250505090565b604051306024820152600090819081906001600160a01b037f000000000000000000000000000000000000000000000000000000000000000016906370a0823160e01b90604401612198565b60006122b9612150565b9050818110156122e657604051634e71911d60e11b81526004810183905260248101829052604401610d59565b5050565b60006122f4612263565b9050818110156122e65760405163c66162eb60e01b81526004810183905260248101829052604401610d59565b61232b85826128fb565b61233484611fdf565b8554869060009061234f9084906001600160801b0316614337565b92506101000a8154816001600160801b0302191690836001600160801b0316021790555061237c83611fdf565b8554869060109061239e908490600160801b90046001600160801b0316614337565b92506101000a8154816001600160801b0302191690836001600160801b031602179055506123cb82611fdf565b6001860180546000906123e89084906001600160801b0316614337565b92506101000a8154816001600160801b0302191690836001600160801b031602179055505050505050565b33600090815260208490526040902082156124715761243183611fdf565b8154829060009061244c9084906001600160801b0316614337565b92506101000a8154816001600160801b0302191690836001600160801b031602179055505b81156124c75761248082611fdf565b815482906010906124a2908490600160801b90046001600160801b0316614337565b92506101000a8154816001600160801b0302191690836001600160801b031602179055505b9392505050565b604080516001600160a01b038481166024830152604480830185905283518084039091018152606490920183526020820180516001600160e01b031663a9059cbb60e01b179052915160009283929087169161252a9190614258565b6000604051808303816000865af19150503d8060008114612567576040519150601f19603f3d011682016040523d82523d6000602084013e61256c565b606091505b50915091508180156125965750805115806125965750808060200190518101906125969190614067565b6125d25760405162461bcd60e51b815260206004820152600d60248201526c151c985b9cd9995c8819985a5b609a1b6044820152606401610d59565b5050505050565b6000806125e68588612895565b905060006125f4878a612895565b90506000612606600160401b836128be565b9050841561268257600061261a8787612990565b9050600061262a83600f0b6129cd565b9050600061263c600f83900b846128be565b905060006126678f61265e61265385600f0b612a87565b600f8b900b90612b24565b600f0b90612b5a565b9050612677600f82900b8e612b8d565b9750505050506126a1565b612097896126988d61265e600f88900b86612b24565b600f0b90612b8d565b505050979650505050505050565b6126b985826128fb565b6126c284611fdf565b855486906000906126dd9084906001600160801b03166142b3565b92506101000a8154816001600160801b0302191690836001600160801b0316021790555061270a83611fdf565b8554869060109061272c908490600160801b90046001600160801b03166142b3565b92506101000a8154816001600160801b0302191690836001600160801b0316021790555061275982611fdf565b6001860180546000906123e89084906001600160801b03166142b3565b61278085826128fb565b83156128225761278f83611fdf565b855486906000906127aa9084906001600160801b03166142b3565b92506101000a8154816001600160801b0302191690836001600160801b031602179055506127d782611fdf565b855486906010906127f9908490600160801b90046001600160801b0316614337565b92506101000a8154816001600160801b0302191690836001600160801b031602179055506125d2565b61282b82611fdf565b855486906000906128469084906001600160801b0316614337565b92506101000a8154816001600160801b0302191690836001600160801b0316021790555061287383611fdf565b855486906010906123e8908490600160801b90046001600160801b03166142b3565b6000806128aa83670de0b6b3a76400006142f6565b90506128b68482612bb2565b949350505050565b6000600f82810b9084900b0360016001607f1b031981128015906128e9575060016001607f1b038113155b6128f257600080fd5b90505b92915050565b600182015460009061291a90600160801b900463ffffffff1683614376565b905063ffffffff81161561214b57825460028401805463ffffffff9384166001600160801b038085168202909201909255600386018054600160801b94859004831684020190556001860180546004909701805492881690930290910190915563ffffffff60801b199094169290911602179055565b6000806129a761299f84612be9565b600f0b612bf9565b905060006129b485612c1b565b90506129c4600f82900b83612b24565b95945050505050565b6000600160401b600f83900b1215806129ea5750600082600f0b13155b15612a0e57604051630e59931d60e31b8152600f83900b6004820152602401610d59565b67f999999999999999600f83900b13801590612a365750670666666666666666600f83900b12155b15612a44576128f582612c29565b670666666666666666600f83900b1215612a61576128f582612cd0565b6000612a79612a74600160401b856128be565b612cd0565b6124c790614393565b919050565b600080612aa1600f84900b68016a09e667f3bcc908612d9a565b90506000612adf612ad4612ac9612aba85600f0b612df2565b6753dd02a4f5ee2e4690612b24565b600160401b90612b5a565b600160401b90612d9a565b90506000612aed8383612e25565b9050600083600f0b1215612b0a57612b0781600f0b612ef5565b90505b60006107a3612b1d600160401b84612b5a565b6001603f1b905b6000600f83810b9083900b0260401d60016001607f1b031981128015906128e9575060016001607f1b038113156128f257600080fd5b6000600f83810b9083900b0160016001607f1b031981128015906128e9575060016001607f1b038113156128f257600080fd5b600080612ba283670de0b6b3a76400006142f6565b90506128b6600f85900b82612f10565b600081612bbe57600080fd5b6000612bca8484612f78565b905060016001607f1b036001600160801b03821611156128f257600080fd5b60006128f5826301e18558612bb2565b60008082600f0b1215612c0b57600080fd5b6128f5604083600f0b901b6130da565b60006128f582612710612bb2565b600080612c3e600f84900b6001603f1b6128be565b90506000612c50600f83900b83612b24565b905060006129c4612cc5612cb5612c8d6721d0a04b0e9b94f161265e612c7f67c2bf5d74c724e53e1989612b24565b61265e600f8a900b8a612b24565b612cac6726a8f3c1f21b336e61265e6787c57e5da70d3c8f1989612b24565b600f0b90612d9a565b68015d71f5721242c78790612b5a565b600f85900b90612b24565b600080612cf261299f612cea612ad4600f87900b87612b24565b600f0b613248565b90506000612d166707a1e70f720eca4361265e6801000bf627fa1884101985612b24565b90506000612d3a6810aeac93f55267a9a561265e68041ed34a256149023686612b24565b90506000612d6f68072c7d592d021fb1db61265e612d616808c27b4617f5f800ea88612b24565b61265e600f89900b89612b24565b90506000612d8f612d84600f85900b84612d9a565b600f86900b90612b5a565b979650505050505050565b600081600f0b60001415612dad57600080fd5b600082600f0b604085600f0b901b81612dc857612dc86143e6565b05905060016001607f1b031981128015906128e9575060016001607f1b038113156128f257600080fd5b6000600f82900b60016001607f1b03191415612e0d57600080fd5b600082600f0b12612e1e57816128f5565b5060000390565b600080612e77612cc5612e67612e5c612e4b600f88900b68010fb844255a12d72e612b24565b68017401c57014c38f131990612b5a565b600f87900b90612b24565b68016a09e667f3bcc90890612b5a565b90506000612ea3612e94612e5c6748d4c730f051a5fd1985612b5a565b67413c831bb169f87490612b5a565b905060006107a3612eea612edf612ed4612ecc612ec4600f8c900b8c612b24565b600f0b612ef5565b600f0b613282565b600f86900b90612b24565b600f88900b90612b24565b600160401b906128be565b6000600f82900b60016001607f1b03191415612e1e57600080fd5b600081612f1f575060006128f5565b600083600f0b1215612f3057600080fd5b600f83900b6001600160801b038316810260401c90608084901c026001600160c01b03811115612f5f57600080fd5b60401b8119811115612f7057600080fd5b019392505050565b600081612f8457600080fd5b60006001600160c01b038411612faf5782604085901b81612fa757612fa76143e6565b0490506130c6565b60c084811c6401000000008110612fc8576020918201911c5b620100008110612fda576010918201911c5b6101008110612feb576008918201911c5b60108110612ffb576004918201911c5b6004811061300b576002918201911c5b6002811061301a576001820191505b60bf820360018603901c6001018260ff0387901b8161303b5761303b6143e6565b0492506001600160801b0383111561305257600080fd5b608085901c83026001600160801b038616840260c088901c604089901b8281101561307e576001820391505b608084901b92900382811015613095576001820391505b829003608084901c82146130ab576130ab6143ba565b8881816130ba576130ba6143e6565b04870196505050505050505b6001600160801b038111156128f257600080fd5b6000816130e957506000919050565b816001600160801b82106131025760809190911c9060401b5b600160401b82106131185760409190911c9060201b5b640100000000821061312f5760209190911c9060101b5b6201000082106131445760109190911c9060081b5b61010082106131585760089190911c9060041b5b6010821061316b5760049190911c9060021b5b600882106131775760011b5b6001818581613188576131886143e6565b048201901c905060018185816131a0576131a06143e6565b048201901c905060018185816131b8576131b86143e6565b048201901c905060018185816131d0576131d06143e6565b048201901c905060018185816131e8576131e86143e6565b048201901c90506001818581613200576132006143e6565b048201901c90506001818581613218576132186143e6565b048201901c90506000818581613230576132306143e6565b04905080821061324057806129c4565b509392505050565b60008082600f0b1361325957600080fd5b6080613264836132d7565b600f0b6fb17217f7d1cf79abc9e3b39803f2f6af02901c9050919050565b6000600160461b82600f0b1261329757600080fd5b683fffffffffffffffff1982600f0b12156132b457506000919050565b6128f5608083600f0b700171547652b82fe1777d0ffda0d23a7d1202901d6133b2565b60008082600f0b136132e857600080fd5b6000600f83900b600160401b8112613302576040918201911d5b6401000000008112613316576020918201911d5b620100008112613328576010918201911d5b6101008112613339576008918201911d5b60108112613349576004918201911d5b60048112613359576002918201911d5b60028112613368576001820191505b603f19820160401b600f85900b607f8490031b6001603f1b5b60008113156133a75790800260ff81901c8281029390930192607f011c9060011d613381565b509095945050505050565b6000600160461b82600f0b126133c757600080fd5b683fffffffffffffffff1982600f0b12156133e457506000919050565b6001607f1b60006001603f1b8416600f0b13156134125770016a09e667f3bcc908b2fb1366ea957d3e0260801c5b60008367400000000000000016600f0b131561343f577001306fe0a31b7152de8d5a46305c85edec0260801c5b60008367200000000000000016600f0b131561346c577001172b83c7d517adcdf7c8c50eb14a791f0260801c5b60008367100000000000000016600f0b13156134995770010b5586cf9890f6298b92b71842a983630260801c5b60008367080000000000000016600f0b13156134c6577001059b0d31585743ae7c548eb68ca417fd0260801c5b60008367040000000000000016600f0b13156134f357700102c9a3e778060ee6f7caca4f7a29bde80260801c5b60008367020000000000000016600f0b13156135205770010163da9fb33356d84a66ae336dcdfa3f0260801c5b60008367010000000000000016600f0b131561354d57700100b1afa5abcbed6129ab13ec11dc95430260801c5b600083668000000000000016600f0b13156135795770010058c86da1c09ea1ff19d294cf2f679b0260801c5b600083664000000000000016600f0b13156135a5577001002c605e2e8cec506d21bfc89a23a00f0260801c5b600083662000000000000016600f0b13156135d157700100162f3904051fa128bca9c55c31e5df0260801c5b600083661000000000000016600f0b13156135fd577001000b175effdc76ba38e31671ca9397250260801c5b600083660800000000000016600f0b131561362957700100058ba01fb9f96d6cacd4b180917c3d0260801c5b600083660400000000000016600f0b13156136555770010002c5cc37da9491d0985c348c68e7b30260801c5b600083660200000000000016600f0b1315613681577001000162e525ee054754457d59952920260260801c5b600083660100000000000016600f0b13156136ad5770010000b17255775c040618bf4a4ade83fc0260801c5b6000836580000000000016600f0b13156136d8577001000058b91b5bc9ae2eed81e9b7d4cfab0260801c5b6000836540000000000016600f0b131561370357700100002c5c89d5ec6ca4d7c8acc017b7c90260801c5b6000836520000000000016600f0b131561372e5770010000162e43f4f831060e02d839a9d16d0260801c5b6000836510000000000016600f0b131561375957700100000b1721bcfc99d9f890ea069117630260801c5b6000836508000000000016600f0b13156137845770010000058b90cf1e6d97f9ca14dbcc16280260801c5b6000836504000000000016600f0b13156137af577001000002c5c863b73f016468f6bac5ca2b0260801c5b6000836502000000000016600f0b13156137da57700100000162e430e5a18f6119e3c02282a50260801c5b6000836501000000000016600f0b1315613805577001000000b1721835514b86e6d96efd1bfe0260801c5b60008364800000000016600f0b131561382f57700100000058b90c0b48c6be5df846c5b2ef0260801c5b60008364400000000016600f0b13156138595770010000002c5c8601cc6b9e94213c72737a0260801c5b60008364200000000016600f0b1315613883577001000000162e42fff037df38aa2b219f060260801c5b60008364100000000016600f0b13156138ad5770010000000b17217fba9c739aa5819f44f90260801c5b60008364080000000016600f0b13156138d7577001000000058b90bfcdee5acd3c1cedc8230260801c5b60008364040000000016600f0b131561390157700100000002c5c85fe31f35a6a30da1be500260801c5b60008364020000000016600f0b131561392b5770010000000162e42ff0999ce3541b9fffcf0260801c5b60008364010000000016600f0b131561395557700100000000b17217f80f4ef5aadda455540260801c5b600083638000000016600f0b131561397e5770010000000058b90bfbf8479bd5a81b51ad0260801c5b600083634000000016600f0b13156139a7577001000000002c5c85fdf84bd62ae30a74cc0260801c5b600083632000000016600f0b13156139d057700100000000162e42fefb2fed257559bdaa0260801c5b600083631000000016600f0b13156139f9577001000000000b17217f7d5a7716bba4a9ae0260801c5b600083630800000016600f0b1315613a2257700100000000058b90bfbe9ddbac5e109cce0260801c5b600083630400000016600f0b1315613a4b5770010000000002c5c85fdf4b15de6f17eb0d0260801c5b600083630200000016600f0b1315613a74577001000000000162e42fefa494f1478fde050260801c5b600083630100000016600f0b1315613a9d5770010000000000b17217f7d20cf927c8e94c0260801c5b6000836280000016600f0b1315613ac5577001000000000058b90bfbe8f71cb4e4b33d0260801c5b6000836240000016600f0b1315613aed57700100000000002c5c85fdf477b662b269450260801c5b6000836220000016600f0b1315613b155770010000000000162e42fefa3ae53369388c0260801c5b6000836210000016600f0b1315613b3d57700100000000000b17217f7d1d351a389d400260801c5b6000836208000016600f0b1315613b655770010000000000058b90bfbe8e8b2d3d4ede0260801c5b6000836204000016600f0b1315613b8d577001000000000002c5c85fdf4741bea6e77e0260801c5b6000836202000016600f0b1315613bb557700100000000000162e42fefa39fe95583c20260801c5b6000836201000016600f0b1315613bdd577001000000000000b17217f7d1cfb72b45e10260801c5b60008361800016600f0b1315613c0457700100000000000058b90bfbe8e7cc35c3f00260801c5b60008361400016600f0b1315613c2b5770010000000000002c5c85fdf473e242ea380260801c5b60008361200016600f0b1315613c52577001000000000000162e42fefa39f02b772c0260801c5b60008361100016600f0b1315613c795770010000000000000b17217f7d1cf7d83c1a0260801c5b60008361080016600f0b1315613ca0577001000000000000058b90bfbe8e7bdcbe2e0260801c5b60008361040016600f0b1315613cc757700100000000000002c5c85fdf473dea871f0260801c5b60008361020016600f0b1315613cee5770010000000000000162e42fefa39ef44d910260801c5b60008361010016600f0b1315613d1557700100000000000000b17217f7d1cf79e9490260801c5b600083608016600f0b1315613d3b5770010000000000000058b90bfbe8e7bce5440260801c5b600083604016600f0b1315613d61577001000000000000002c5c85fdf473de6eca0260801c5b600083602016600f0b1315613d8757700100000000000000162e42fefa39ef366f0260801c5b600083601016600f0b1315613dad577001000000000000000b17217f7d1cf79afa0260801c5b600083600816600f0b1315613dd357700100000000000000058b90bfbe8e7bcd6d0260801c5b600083600416600f0b1315613df95770010000000000000002c5c85fdf473de6b20260801c5b600083600216600f0b1315613e1f577001000000000000000162e42fefa39ef3580260801c5b600083600116600f0b1315613e455770010000000000000000b17217f7d1cf79ab0260801c5b600f83810b60401d603f03900b1c60016001607f1b038111156128f557600080fd5b80356001600160a01b0381168114612a8257600080fd5b60008083601f840112613e9057600080fd5b50813567ffffffffffffffff811115613ea857600080fd5b602083019150836020828501011115613ec057600080fd5b9250929050565b803563ffffffff81168114612a8257600080fd5b600060208284031215613eed57600080fd5b6124c782613e67565b60008060408385031215613f0957600080fd5b613f1283613e67565b946020939093013593505050565b60008060008060008060008060006101008a8c031215613f3f57600080fd5b613f488a613e67565b985060208a0135975060408a0135613f5f816143fc565b965060608a0135955060808a0135945060a08a0135613f7d816143fc565b935060c08a0135613f8d816143fc565b925060e08a013567ffffffffffffffff811115613fa957600080fd5b613fb58c828d01613e7e565b915080935050809150509295985092959850929598565b600080600060608486031215613fe157600080fd5b613fea84613e67565b95602085013595506040909401359392505050565b60008060008060006080868803121561401757600080fd5b61402086613e67565b94506020860135935060408601359250606086013567ffffffffffffffff81111561404a57600080fd5b61405688828901613e7e565b969995985093965092949392505050565b60006020828403121561407957600080fd5b81516128f2816143fc565b60006020828403121561409657600080fd5b5035919050565b600080600080600080600060c0888a0312156140b857600080fd5b873596506140c860208901613e67565b9550604088013594506060880135935060808801356140e6816143fc565b925060a088013567ffffffffffffffff81111561410257600080fd5b61410e8a828b01613e7e565b989b979a50959850939692959293505050565b6000806040838503121561413457600080fd5b50508035926020909101359150565b60008060006060848603121561415857600080fd5b505081359360208301359350604090920135919050565b60008060008060008060008060e0898b03121561418b57600080fd5b88356001600160801b03811681146141a257600080fd5b97506141b060208a01613ec7565b96506141be60408a01613ec7565b95506141cc60608a01613ec7565b94506080890135935060a0890135925060c089013567ffffffffffffffff8111156141f657600080fd5b6142028b828c01613e7e565b999c989b5096995094979396929594505050565b60006020828403121561422857600080fd5b5051919050565b81835281816020850137506000828201602090810191909152601f909101601f19169091010190565b6000825160005b81811015614279576020818601810151858301520161425f565b81811115614288576000828501525b509190910192915050565b8481528360208201526060604082015260006107a360608301848661422f565b60006001600160801b038083168185168083038211156142d5576142d56143d0565b01949350505050565b600082198211156142f1576142f16143d0565b500190565b60008261431357634e487b7160e01b600052601260045260246000fd5b500490565b6000816000190483118215151615614332576143326143d0565b500290565b60006001600160801b0383811690831681811015614357576143576143d0565b039392505050565b600082821015614371576143716143d0565b500390565b600063ffffffff83811690831681811015614357576143576143d0565b600081600f0b60016001607f1b03198114156143b1576143b16143d0565b60000392915050565b634e487b7160e01b600052600160045260246000fd5b634e487b7160e01b600052601160045260246000fd5b634e487b7160e01b600052601260045260246000fd5b801515811461440a57600080fd5b5056fea2646970667358221220b45d5e499617f2be8d2b5b6e5a1844e5da311207b29caf60b8b2791f00b7829164736f6c63430008060033a264697066735822122085da95636096ba9dbf1d5b293e8e3d0db474a5e1f87acde4259cceb509957ede64736f6c63430008060033",
    "linkReferences": {}
  },
  "methodIdentifiers": {
    "MIN_LIQUIDITY_FACTOR()": "45d9b663",
    "args()": "4e9b75b6",
    "deploy(address,address)": "545e7c61",
    "deployer()": "d5f39488",
    "getEngine(address,address)": "62f7f918"
  },
  "id": 22
}