{
  "abi": [
    {
      "inputs": [
        {
          "internalType": "int128",
          "name": "value",
          "type": "int128"
        }
      ],
      "name": "InverseOutOfBounds",
      "type": "error"
    },
    {
      "anonymous": false,
      "inputs": [
        {
          "indexed": false,
          "internalType": "bytes32",
          "name": "poolId",
          "type": "bytes32"
        },
        {
          "indexed": false,
          "internalType": "uint256",
          "name": "riskyPerLiquidity",
          "type": "uint256"
        },
        {
          "indexed": false,
          "internalType": "uint256",
          "name": "delLiquidity",
          "type": "uint256"
        },
        {
          "indexed": false,
          "internalType": "uint128",
          "name": "strike",
          "type": "uint128"
        },
        {
          "indexed": false,
          "internalType": "uint32",
          "name": "sigma",
          "type": "uint32"
        },
        {
          "indexed": false,
          "internalType": "uint32",
          "name": "maturity",
          "type": "uint32"
        },
        {
          "indexed": false,
          "internalType": "uint32",
          "name": "gamma",
          "type": "uint32"
        },
        {
          "indexed": false,
          "internalType": "uint32",
          "name": "timestamp",
          "type": "uint32"
        }
      ],
      "name": "AddedPool",
      "type": "event"
    },
    {
      "anonymous": false,
      "inputs": [
        {
          "indexed": false,
          "internalType": "uint256",
          "name": "delLiquidity",
          "type": "uint256"
        }
      ],
      "name": "AllocateDelLiquidity",
      "type": "event"
    },
    {
      "anonymous": false,
      "inputs": [
        {
          "indexed": false,
          "internalType": "string",
          "name": "reason",
          "type": "string"
        },
        {
          "indexed": false,
          "internalType": "uint256",
          "name": "risky",
          "type": "uint256"
        },
        {
          "indexed": false,
          "internalType": "uint256",
          "name": "stable",
          "type": "uint256"
        }
      ],
      "name": "AllocateFailed",
      "type": "event"
    },
    {
      "anonymous": false,
      "inputs": [
        {
          "indexed": false,
          "internalType": "uint128",
          "name": "riskyBefore",
          "type": "uint128"
        },
        {
          "indexed": false,
          "internalType": "uint128",
          "name": "stableBefore",
          "type": "uint128"
        },
        {
          "indexed": false,
          "internalType": "uint256",
          "name": "delRisky",
          "type": "uint256"
        },
        {
          "indexed": false,
          "internalType": "uint256",
          "name": "delStable",
          "type": "uint256"
        }
      ],
      "name": "AllocateMarginBalance",
      "type": "event"
    },
    {
      "anonymous": false,
      "inputs": [
        {
          "indexed": false,
          "internalType": "uint256",
          "name": "delRisky",
          "type": "uint256"
        },
        {
          "indexed": false,
          "internalType": "uint256",
          "name": "removeRisky",
          "type": "uint256"
        }
      ],
      "name": "AllocateRemoveDifference",
      "type": "event"
    },
    {
      "anonymous": false,
      "inputs": [
        {
          "indexed": false,
          "internalType": "bytes",
          "name": "reason",
          "type": "bytes"
        },
        {
          "indexed": false,
          "internalType": "uint256",
          "name": "risky",
          "type": "uint256"
        },
        {
          "indexed": false,
          "internalType": "uint256",
          "name": "stable",
          "type": "uint256"
        }
      ],
      "name": "AllocateRevert",
      "type": "event"
    },
    {
      "anonymous": false,
      "inputs": [
        {
          "indexed": false,
          "internalType": "string",
          "name": "reason",
          "type": "string"
        },
        {
          "indexed": false,
          "internalType": "uint256",
          "name": "risky",
          "type": "uint256"
        },
        {
          "indexed": false,
          "internalType": "uint256",
          "name": "stable",
          "type": "uint256"
        }
      ],
      "name": "DepositFailed",
      "type": "event"
    },
    {
      "anonymous": false,
      "inputs": [
        {
          "indexed": false,
          "internalType": "uint128",
          "name": "riskyBefore",
          "type": "uint128"
        },
        {
          "indexed": false,
          "internalType": "uint128",
          "name": "stableBefore",
          "type": "uint128"
        },
        {
          "indexed": false,
          "internalType": "uint128",
          "name": "riskyAfter",
          "type": "uint128"
        },
        {
          "indexed": false,
          "internalType": "uint128",
          "name": "stableAfter",
          "type": "uint128"
        }
      ],
      "name": "DepositManager",
      "type": "event"
    },
    {
      "anonymous": false,
      "inputs": [
        {
          "indexed": false,
          "internalType": "uint256",
          "name": "risky",
          "type": "uint256"
        },
        {
          "indexed": false,
          "internalType": "uint256",
          "name": "stable",
          "type": "uint256"
        }
      ],
      "name": "DepositRevert",
      "type": "event"
    },
    {
      "anonymous": false,
      "inputs": [
        {
          "indexed": false,
          "internalType": "string",
          "name": "",
          "type": "string"
        },
        {
          "indexed": false,
          "internalType": "uint256",
          "name": "before",
          "type": "uint256"
        },
        {
          "indexed": false,
          "internalType": "uint256",
          "name": "aft",
          "type": "uint256"
        },
        {
          "indexed": false,
          "internalType": "uint256",
          "name": "delta",
          "type": "uint256"
        }
      ],
      "name": "DepositWithdraw",
      "type": "event"
    },
    {
      "anonymous": false,
      "inputs": [
        {
          "indexed": false,
          "internalType": "bytes32",
          "name": "s",
          "type": "bytes32"
        }
      ],
      "name": "ErrorSig",
      "type": "event"
    },
    {
      "anonymous": false,
      "inputs": [
        {
          "indexed": false,
          "internalType": "string",
          "name": "reason",
          "type": "string"
        }
      ],
      "name": "Failed",
      "type": "event"
    },
    {
      "anonymous": false,
      "inputs": [
        {
          "indexed": false,
          "internalType": "uint128",
          "name": "strike",
          "type": "uint128"
        },
        {
          "indexed": false,
          "internalType": "uint32",
          "name": "sigma",
          "type": "uint32"
        },
        {
          "indexed": false,
          "internalType": "uint32",
          "name": "maturity",
          "type": "uint32"
        },
        {
          "indexed": false,
          "internalType": "uint32",
          "name": "gamma",
          "type": "uint32"
        },
        {
          "indexed": false,
          "internalType": "uint256",
          "name": "riskyPerLp",
          "type": "uint256"
        },
        {
          "indexed": false,
          "internalType": "uint256",
          "name": "liquidity",
          "type": "uint256"
        }
      ],
      "name": "FailedCreating",
      "type": "event"
    },
    {
      "anonymous": false,
      "inputs": [
        {
          "indexed": false,
          "internalType": "bytes32",
          "name": "poolId",
          "type": "bytes32"
        },
        {
          "indexed": false,
          "internalType": "bool",
          "name": "riskyForStable",
          "type": "bool"
        },
        {
          "indexed": false,
          "internalType": "uint256",
          "name": "reserveRisky",
          "type": "uint256"
        },
        {
          "indexed": false,
          "internalType": "uint256",
          "name": "reserveStable",
          "type": "uint256"
        },
        {
          "indexed": false,
          "internalType": "uint256",
          "name": "amountIn",
          "type": "uint256"
        },
        {
          "indexed": false,
          "internalType": "uint256",
          "name": "amountOut",
          "type": "uint256"
        }
      ],
      "name": "FailedSwap",
      "type": "event"
    },
    {
      "anonymous": false,
      "inputs": [
        {
          "indexed": false,
          "internalType": "string",
          "name": "reason",
          "type": "string"
        }
      ],
      "name": "FailureReason",
      "type": "event"
    },
    {
      "anonymous": false,
      "inputs": [
        {
          "indexed": false,
          "internalType": "int128",
          "name": "pre",
          "type": "int128"
        },
        {
          "indexed": false,
          "internalType": "int128",
          "name": "post",
          "type": "int128"
        }
      ],
      "name": "InvariantCheck",
      "type": "event"
    },
    {
      "anonymous": false,
      "inputs": [
        {
          "indexed": false,
          "internalType": "string",
          "name": "msg",
          "type": "string"
        }
      ],
      "name": "KnownError",
      "type": "event"
    },
    {
      "anonymous": false,
      "inputs": [
        {
          "indexed": false,
          "internalType": "uint128",
          "name": "riskyBefore",
          "type": "uint128"
        },
        {
          "indexed": false,
          "internalType": "uint128",
          "name": "stableBefore",
          "type": "uint128"
        },
        {
          "indexed": false,
          "internalType": "uint256",
          "name": "delRisky",
          "type": "uint256"
        },
        {
          "indexed": false,
          "internalType": "uint256",
          "name": "delStable",
          "type": "uint256"
        }
      ],
      "name": "ManagerAllocateMarginBalance",
      "type": "event"
    },
    {
      "anonymous": false,
      "inputs": [
        {
          "indexed": false,
          "internalType": "string",
          "name": "functionName",
          "type": "string"
        },
        {
          "indexed": false,
          "internalType": "uint256",
          "name": "liquidity",
          "type": "uint256"
        },
        {
          "indexed": false,
          "internalType": "uint256",
          "name": "reserveRisky",
          "type": "uint256"
        },
        {
          "indexed": false,
          "internalType": "uint256",
          "name": "reserveStable",
          "type": "uint256"
        }
      ],
      "name": "ManagerReserveStatus",
      "type": "event"
    },
    {
      "anonymous": false,
      "inputs": [
        {
          "indexed": false,
          "internalType": "uint256",
          "name": "delRisky",
          "type": "uint256"
        },
        {
          "indexed": false,
          "internalType": "uint256",
          "name": "delStable",
          "type": "uint256"
        }
      ],
      "name": "ManagerRevertAllocateMarginBalance",
      "type": "event"
    },
    {
      "anonymous": false,
      "inputs": [
        {
          "indexed": false,
          "internalType": "uint256",
          "name": "val",
          "type": "uint256"
        }
      ],
      "name": "Panicked",
      "type": "event"
    },
    {
      "anonymous": false,
      "inputs": [
        {
          "indexed": false,
          "internalType": "string",
          "name": "functionName",
          "type": "string"
        },
        {
          "indexed": false,
          "internalType": "uint256",
          "name": "liquidity",
          "type": "uint256"
        },
        {
          "indexed": false,
          "internalType": "uint256",
          "name": "reserveRisky",
          "type": "uint256"
        },
        {
          "indexed": false,
          "internalType": "uint256",
          "name": "reserveStable",
          "type": "uint256"
        }
      ],
      "name": "ReserveStatus",
      "type": "event"
    },
    {
      "anonymous": false,
      "inputs": [],
      "name": "Time",
      "type": "event"
    },
    {
      "anonymous": false,
      "inputs": [
        {
          "indexed": false,
          "internalType": "string",
          "name": "msg",
          "type": "string"
        }
      ],
      "name": "UnknownError",
      "type": "event"
    },
    {
      "anonymous": false,
      "inputs": [
        {
          "indexed": false,
          "internalType": "uint128",
          "name": "marginRiskyBefore",
          "type": "uint128"
        },
        {
          "indexed": false,
          "internalType": "uint128",
          "name": "marginStableBefore",
          "type": "uint128"
        },
        {
          "indexed": false,
          "internalType": "uint256",
          "name": "delRisky",
          "type": "uint256"
        },
        {
          "indexed": false,
          "internalType": "uint256",
          "name": "delStable",
          "type": "uint256"
        },
        {
          "indexed": false,
          "internalType": "address",
          "name": "sender",
          "type": "address"
        },
        {
          "indexed": false,
          "internalType": "address",
          "name": "originator",
          "type": "address"
        }
      ],
      "name": "Withdraw",
      "type": "event"
    },
    {
      "inputs": [
        {
          "internalType": "uint256",
          "name": "delRisky",
          "type": "uint256"
        },
        {
          "internalType": "uint256",
          "name": "delStable",
          "type": "uint256"
        },
        {
          "internalType": "bytes",
          "name": "data",
          "type": "bytes"
        }
      ],
      "name": "allocateCallback",
      "outputs": [],
      "stateMutability": "nonpayable",
      "type": "function"
    },
    {
      "inputs": [
        {
          "internalType": "uint256",
          "name": "randomId",
          "type": "uint256"
        },
        {
          "internalType": "uint256",
          "name": "delRisky",
          "type": "uint256"
        },
        {
          "internalType": "uint256",
          "name": "delStable",
          "type": "uint256"
        },
        {
          "internalType": "bool",
          "name": "fromMargin",
          "type": "bool"
        }
      ],
      "name": "allocate_with_safe_range",
      "outputs": [],
      "stateMutability": "nonpayable",
      "type": "function"
    },
    {
      "inputs": [
        {
          "internalType": "uint256",
          "name": "randomId",
          "type": "uint256"
        },
        {
          "internalType": "uint256",
          "name": "intendedLiquidity",
          "type": "uint256"
        },
        {
          "internalType": "bool",
          "name": "fromMargin",
          "type": "bool"
        }
      ],
      "name": "check_allocate_remove_inverses",
      "outputs": [],
      "stateMutability": "nonpayable",
      "type": "function"
    },
    {
      "inputs": [
        {
          "internalType": "uint256",
          "name": "id",
          "type": "uint256"
        }
      ],
      "name": "check_created_pool_timestamp_greater_zero",
      "outputs": [],
      "stateMutability": "nonpayable",
      "type": "function"
    },
    {
      "inputs": [
        {
          "internalType": "address",
          "name": "recipient",
          "type": "address"
        },
        {
          "internalType": "uint256",
          "name": "delRisky",
          "type": "uint256"
        },
        {
          "internalType": "uint256",
          "name": "delStable",
          "type": "uint256"
        }
      ],
      "name": "check_deposit_manager_safe",
      "outputs": [],
      "stateMutability": "nonpayable",
      "type": "function"
    },
    {
      "inputs": [
        {
          "internalType": "uint256",
          "name": "riskyAmount",
          "type": "uint256"
        },
        {
          "internalType": "uint256",
          "name": "stableAmount",
          "type": "uint256"
        }
      ],
      "name": "check_deposit_withdraw_safe",
      "outputs": [],
      "stateMutability": "nonpayable",
      "type": "function"
    },
    {
      "inputs": [
        {
          "internalType": "uint256",
          "name": "id",
          "type": "uint256"
        }
      ],
      "name": "check_liquidity_of_zero_address",
      "outputs": [],
      "stateMutability": "nonpayable",
      "type": "function"
    },
    {
      "inputs": [],
      "name": "check_manager",
      "outputs": [],
      "stateMutability": "nonpayable",
      "type": "function"
    },
    {
      "inputs": [
        {
          "internalType": "address",
          "name": "recipient",
          "type": "address"
        }
      ],
      "name": "check_manager_deposit_zero_zero",
      "outputs": [],
      "stateMutability": "nonpayable",
      "type": "function"
    },
    {
      "inputs": [
        {
          "internalType": "uint256",
          "name": "id",
          "type": "uint256"
        }
      ],
      "name": "check_margin_of_zero_address",
      "outputs": [],
      "stateMutability": "nonpayable",
      "type": "function"
    },
    {
      "inputs": [
        {
          "internalType": "uint256",
          "name": "id",
          "type": "uint256"
        }
      ],
      "name": "check_maximuim_gamma",
      "outputs": [],
      "stateMutability": "nonpayable",
      "type": "function"
    },
    {
      "inputs": [],
      "name": "check_precision_and_liquidity",
      "outputs": [],
      "stateMutability": "nonpayable",
      "type": "function"
    },
    {
      "inputs": [],
      "name": "check_proper_deployment_of_engine",
      "outputs": [],
      "stateMutability": "nonpayable",
      "type": "function"
    },
    {
      "inputs": [
        {
          "internalType": "uint256",
          "name": "id",
          "type": "uint256"
        }
      ],
      "name": "check_update_last_timestamp",
      "outputs": [],
      "stateMutability": "nonpayable",
      "type": "function"
    },
    {
      "inputs": [
        {
          "internalType": "uint256",
          "name": "delRisky",
          "type": "uint256"
        },
        {
          "internalType": "uint256",
          "name": "delStable",
          "type": "uint256"
        },
        {
          "internalType": "bytes",
          "name": "data",
          "type": "bytes"
        }
      ],
      "name": "createCallback",
      "outputs": [],
      "stateMutability": "nonpayable",
      "type": "function"
    },
    {
      "inputs": [
        {
          "internalType": "uint128",
          "name": "_strike",
          "type": "uint128"
        },
        {
          "internalType": "uint32",
          "name": "_sigma",
          "type": "uint32"
        },
        {
          "internalType": "uint32",
          "name": "_maturity",
          "type": "uint32"
        },
        {
          "internalType": "uint32",
          "name": "_gamma",
          "type": "uint32"
        },
        {
          "internalType": "uint256",
          "name": "riskyPerLp",
          "type": "uint256"
        },
        {
          "internalType": "uint256",
          "name": "_delLiquidity",
          "type": "uint256"
        }
      ],
      "name": "create_new_pool_should_not_revert",
      "outputs": [],
      "stateMutability": "nonpayable",
      "type": "function"
    },
    {
      "inputs": [
        {
          "internalType": "uint128",
          "name": "_strike",
          "type": "uint128"
        },
        {
          "internalType": "uint32",
          "name": "_sigma",
          "type": "uint32"
        },
        {
          "internalType": "uint32",
          "name": "_maturity",
          "type": "uint32"
        },
        {
          "internalType": "uint32",
          "name": "gamma",
          "type": "uint32"
        },
        {
          "internalType": "uint256",
          "name": "riskyPerLp",
          "type": "uint256"
        },
        {
          "internalType": "uint256",
          "name": "_delLiquidity",
          "type": "uint256"
        }
      ],
      "name": "create_new_pool_with_wrong_gamma_should_revert",
      "outputs": [],
      "stateMutability": "nonpayable",
      "type": "function"
    },
    {
      "inputs": [
        {
          "internalType": "uint256",
          "name": "delRisky",
          "type": "uint256"
        },
        {
          "internalType": "uint256",
          "name": "delStable",
          "type": "uint256"
        },
        {
          "internalType": "bytes",
          "name": "data",
          "type": "bytes"
        }
      ],
      "name": "depositCallback",
      "outputs": [],
      "stateMutability": "nonpayable",
      "type": "function"
    },
    {
      "inputs": [
        {
          "internalType": "address",
          "name": "recipient",
          "type": "address"
        },
        {
          "internalType": "uint256",
          "name": "delRisky",
          "type": "uint256"
        },
        {
          "internalType": "uint256",
          "name": "delStable",
          "type": "uint256"
        }
      ],
      "name": "deposit_with_safe_range",
      "outputs": [],
      "stateMutability": "nonpayable",
      "type": "function"
    },
    {
      "inputs": [
        {
          "internalType": "address",
          "name": "recipient",
          "type": "address"
        }
      ],
      "name": "deposit_zero_zero",
      "outputs": [],
      "stateMutability": "nonpayable",
      "type": "function"
    },
    {
      "inputs": [
        {
          "internalType": "uint256",
          "name": "randomId",
          "type": "uint256"
        },
        {
          "internalType": "uint256",
          "name": "delRisky",
          "type": "uint256"
        },
        {
          "internalType": "uint256",
          "name": "delStable",
          "type": "uint256"
        }
      ],
      "name": "manager_allocate_with_safe_range",
      "outputs": [],
      "stateMutability": "nonpayable",
      "type": "function"
    },
    {
      "inputs": [
        {
          "internalType": "uint256",
          "name": "id",
          "type": "uint256"
        },
        {
          "internalType": "uint256",
          "name": "delLiquidity",
          "type": "uint256"
        }
      ],
      "name": "manager_remove_with_safe_range",
      "outputs": [
        {
          "internalType": "uint256",
          "name": "",
          "type": "uint256"
        },
        {
          "internalType": "uint256",
          "name": "",
          "type": "uint256"
        }
      ],
      "stateMutability": "nonpayable",
      "type": "function"
    },
    {
      "inputs": [
        {
          "internalType": "address",
          "name": "operator",
          "type": "address"
        },
        {
          "internalType": "address",
          "name": "from",
          "type": "address"
        },
        {
          "internalType": "uint256",
          "name": "id",
          "type": "uint256"
        },
        {
          "internalType": "uint256",
          "name": "value",
          "type": "uint256"
        },
        {
          "internalType": "bytes",
          "name": "data",
          "type": "bytes"
        }
      ],
      "name": "onERC1155Received",
      "outputs": [
        {
          "internalType": "bytes4",
          "name": "",
          "type": "bytes4"
        }
      ],
      "stateMutability": "nonpayable",
      "type": "function"
    },
    {
      "inputs": [
        {
          "internalType": "uint256",
          "name": "id",
          "type": "uint256"
        },
        {
          "internalType": "uint256",
          "name": "delLiquidity",
          "type": "uint256"
        }
      ],
      "name": "remove_with_safe_range",
      "outputs": [
        {
          "internalType": "uint256",
          "name": "",
          "type": "uint256"
        },
        {
          "internalType": "uint256",
          "name": "",
          "type": "uint256"
        }
      ],
      "stateMutability": "nonpayable",
      "type": "function"
    },
    {
      "inputs": [
        {
          "internalType": "uint128",
          "name": "_amountIn",
          "type": "uint128"
        }
      ],
      "name": "test_reverse_swap",
      "outputs": [],
      "stateMutability": "nonpayable",
      "type": "function"
    },
    {
      "inputs": [
        {
          "internalType": "uint128",
          "name": "_amountIn",
          "type": "uint128"
        }
      ],
      "name": "test_swap_risky_in",
      "outputs": [],
      "stateMutability": "nonpayable",
      "type": "function"
    },
    {
      "inputs": [
        {
          "internalType": "uint128",
          "name": "_amountIn",
          "type": "uint128"
        }
      ],
      "name": "test_swap_stable_in",
      "outputs": [],
      "stateMutability": "nonpayable",
      "type": "function"
    },
    {
      "inputs": [
        {
          "internalType": "address",
          "name": "recipient",
          "type": "address"
        },
        {
          "internalType": "uint256",
          "name": "delRisky",
          "type": "uint256"
        },
        {
          "internalType": "uint256",
          "name": "delStable",
          "type": "uint256"
        }
      ],
      "name": "withdraw_with_only_non_zero_addr",
      "outputs": [],
      "stateMutability": "nonpayable",
      "type": "function"
    },
    {
      "inputs": [
        {
          "internalType": "address",
          "name": "recipient",
          "type": "address"
        },
        {
          "internalType": "uint256",
          "name": "delRisky",
          "type": "uint256"
        },
        {
          "internalType": "uint256",
          "name": "delStable",
          "type": "uint256"
        }
      ],
      "name": "withdraw_with_safe_range",
      "outputs": [],
      "stateMutability": "nonpayable",
      "type": "function"
    },
    {
      "inputs": [
        {
          "internalType": "uint256",
          "name": "delRisky",
          "type": "uint256"
        },
        {
          "internalType": "uint256",
          "name": "delStable",
          "type": "uint256"
        }
      ],
      "name": "withdraw_zero_address_recipient",
      "outputs": [],
      "stateMutability": "nonpayable",
      "type": "function"
    },
    {
      "inputs": [
        {
          "internalType": "address",
          "name": "recipient",
          "type": "address"
        }
      ],
      "name": "withdraw_zero_zero",
      "outputs": [],
      "stateMutability": "nonpayable",
      "type": "function"
    }
  ],
  "bytecode": {
    "object": "0x6080604052600080546001600160a01b0319908116731dc4c1cefef38a777b15aa20260a54e584b16c48908117909255600180548216731d7022f5b17d2f8b695918fb48fa1089c9f8540190811790915560028054831673871dd7c2b4b25e1aa18728e9d5f2af4c4e431f5c179055600380548316730b1ba0af832d7c05fd64161e0db78e85978e8082179055600480548316736a4a62e5a7ed13c361b176a5f62c2ee620ac0df89081179091556005805484167348bacb9266a570d521063ef5dd96e61686dbe788908117909155600680548516736dfff22588be9b3ef8cf0ad6dc9b84796f9fb45f1790556007805485167334d402f14d58e001d8efbe6585051bf9706aa06417905560088054851673cfc18cec799fbd1793b5c43e773c98d4d61cc2db1790556009805485167325b8fe1de9daf8ba351890744ff28cf7dfa8f5e3179055600a8054851673f22469f31527adc53284441bae1665a7b9214dba179055600b8054851673cdb594a32b1cc3479d8746279712c39d18a07fc0179055600c805485167307f96aa816c1f244cbc6ef114bb2b023ba54a2eb179055600d80548516909517909455600e80548416909217909155600f805483169091179055601080549091169091179055670de0b6b3a7640000603355348015620001e857600080fd5b5061ae4b80620001f96000396000f3fe608060405234801561001057600080fd5b50600436106101e55760003560e01c8063a161d37b1161010f578063e78caf47116100a2578063f3cb14fe11610071578063f3cb14fe146103f1578063f781a72b14610404578063fb2cb8f314610417578063fc1302b01461041f57600080fd5b8063e78caf4714610365578063f045193114610378578063f0636602146103a5578063f23a6e61146103b857600080fd5b8063bbe0e3f7116100de578063bbe0e3f71461033f578063c171d27e14610212578063c536e60514610212578063d01e68aa1461035257600080fd5b8063a161d37b146102fe578063a5a310a314610306578063b32982e614610319578063b9834c4a1461032c57600080fd5b806356484bcd11610187578063647603df11610156578063647603df146102b25780636a927d39146102c55780636d5dd16e146102d8578063821d8d06146102eb57600080fd5b806356484bcd146102715780635e12c81014610279578063607630ab1461028c57806363c832a51461029f57600080fd5b80632ddd643f116101c35780632ddd643f14610225578063459044781461023857806345be22311461024b5780634dc7fb971461025e57600080fd5b806307bf76da146101ea57806314ddbce6146101ff578063151a8bf814610212575b600080fd5b6101fd6101f836600461a3e5565b610432565b005b6101fd61020d36600461a128565b610719565b6101fd61022036600461a579565b610728565b6101fd61023336600461a310565b610738565b6101fd61024636600461a3e5565b610c66565b6101fd61025936600461a4c8565b610f41565b6101fd61026c36600461a1de565b610ffa565b6101fd611092565b6101fd61028736600461a128565b6111da565b6101fd61029a36600461a5f8565b6111e6565b6101fd6102ad36600461a5cc565b61123e565b6101fd6102c036600461a310565b61127e565b6101fd6102d336600461a4c8565b611747565b6101fd6102e636600461a4fa565b6117ed565b6101fd6102f936600461a4c8565b611810565b6101fd6118bb565b6101fd61031436600461a4c8565b6119e0565b6101fd61032736600461a540565b611a83565b6101fd61033a36600461a1de565b611bf9565b6101fd61034d36600461a4c8565b611c24565b6101fd61036036600461a310565b611e82565b6101fd61037336600461a1de565b61230f565b61038b61038636600461a4fa565b612322565b604080519283526020830191909152015b60405180910390f35b61038b6103b336600461a4fa565b612351565b6103d86103c636600461a162565b63f23a6e6160e01b9695505050505050565b6040516001600160e01b0319909116815260200161039c565b6101fd6103ff36600461a1de565b612376565b6101fd61041236600461a4fa565b6123a1565b6101fd612526565b6101fd61042d36600461a128565b612656565b600061044869021e0c0013070adc00008861ac0a565b61045a90670de0b6b3a764000061a8ce565b9050600061046b6298961c8861ac44565b61047690606461a911565b905060006104866103e88761ac44565b6104929061232861a911565b90506000601060009054906101000a90046001600160a01b03166001600160a01b03166321b77d636040518163ffffffff1660e01b815260040160206040518083038186803b1580156104e457600080fd5b505afa1580156104f8573d6000803e3d6000fd5b505050506040513d601f19601f8201168201806040525081019061051c919061a4e1565b61052e90678ac7230489e8000061ab06565b610538908661ac30565b601060009054906101000a90046001600160a01b03166001600160a01b03166321b77d636040518163ffffffff1660e01b815260040160206040518083038186803b15801561058657600080fd5b505afa15801561059a573d6000803e3d6000fd5b505050506040513d601f19601f820116820180604052508101906105be919061a4e1565b6105c990600161a8f9565b6105d3919061a8f9565b905060006105e5896301e1855861a911565b9050601060009054906101000a90046001600160a01b03166001600160a01b03166316ada5476040518163ffffffff1660e01b815260040160206040518083038186803b15801561063557600080fd5b505afa158015610649573d6000803e3d6000fd5b505050506040513d601f19601f8201168201806040525081019061066d919061a4e1565b63ffffffff168163ffffffff16101561068557600080fd5b60006040518060c00160405280876001600160801b031681526020018663ffffffff1681526020018363ffffffff1681526020018981526020018481526020018563ffffffff1681525090506000806106dd83612662565b604080516000602082015292945090925061070991859101604051602081830303815290604052612a59565b5050505050505050505050505050565b61072581600080612d34565b50565b6107328484612dc5565b50505050565b6001600160801b03811661074b57600080fd5b602f5460ff1661075e5761075e81612ee3565b6010546001600160a01b03166000908152601160205260408120805482906107885761078861acc4565b60009182526020822001546010546040516311e2dca960e11b8152600481018390529193508291829182916001600160a01b03909116906323c5b9529060240160a06040518083038186803b1580156107e057600080fd5b505afa1580156107f4573d6000803e3d6000fd5b505050506040513d601f19601f82011682018060405250810190610818919061a453565b601054604051622efc7960e21b8152600481018c905295995093975091955090935060009283928392506001600160a01b03169062bbf1e49060240160e06040518083038186803b15801561086c57600080fd5b505afa158015610880573d6000803e3d6000fd5b505050506040513d601f19601f820116820180604052508101906108a4919061a367565b5050505092509250925060008563ffffffff16601060009054906101000a90046001600160a01b03166001600160a01b03166316ada5476040518163ffffffff1660e01b815260040160206040518083038186803b15801561090557600080fd5b505afa158015610919573d6000803e3d6000fd5b505050506040513d601f19601f8201168201806040525081019061093d919061a4e1565b63ffffffff16116109dd57601060009054906101000a90046001600160a01b03166001600160a01b03166316ada5476040518163ffffffff1660e01b815260040160206040518083038186803b15801561099657600080fd5b505afa1580156109aa573d6000803e3d6000fd5b505050506040513d601f19601f820116820180604052508101906109ce919061a4e1565b6109d8908761ab1d565b6109e0565b60005b905060006109f260018686868d613025565b90506109ff60018261ab06565b610a12906001600160801b038d1661ac30565b610a1d90600161a8f9565b9a505060006040518061014001604052808b81526020018c6001600160801b03168152602001866001600160801b03168152602001856001600160801b03168152602001846001600160801b031681526020018a6001600160801b031681526020018963ffffffff1681526020018763ffffffff1681526020018863ffffffff1681526020018363ffffffff168152509050610abd81610100015161310a565b6000610ac882613237565b6040805160c0810182528d81526020858101519082018190529181018390526000606082018190526080820152600160a0820152919250610b099083613780565b6020830151600d546040516370a0823160e01b81523060048201526001600160a01b03909116906370a082319060240160206040518083038186803b158015610b5157600080fd5b505afa158015610b65573d6000803e3d6000fd5b505050506040513d601f19601f82011682018060405250810190610b89919061a4e1565b1015610bf857600d5460208401516040516340c10f1960e01b81526001600160a01b03909216916340c10f1991610bc59130919060040161a759565b600060405180830381600087803b158015610bdf57600080fd5b505af1158015610bf3573d6000803e3d6000fd5b505050505b610c0181613797565b6127108360e0015163ffffffff1610610c1957600080fd5b506040805160c0810182528c81526020808201849052840151918101919091526000606082018190526080820181905260a0820152610c5781613c80565b50505050505050505050505050565b6000610c7c69021e0c0013070adc00008861ac0a565b610c8e90670de0b6b3a764000061a8ce565b90506000610c9f6298961c8861ac44565b610caa90606461a911565b90506000601060009054906101000a90046001600160a01b03166001600160a01b03166321b77d636040518163ffffffff1660e01b815260040160206040518083038186803b158015610cfc57600080fd5b505afa158015610d10573d6000803e3d6000fd5b505050506040513d601f19601f82011682018060405250810190610d34919061a4e1565b610d4690678ac7230489e8000061ab06565b610d50908561ac30565b601060009054906101000a90046001600160a01b03166001600160a01b03166321b77d636040518163ffffffff1660e01b815260040160206040518083038186803b158015610d9e57600080fd5b505afa158015610db2573d6000803e3d6000fd5b505050506040513d601f19601f82011682018060405250810190610dd6919061a4e1565b610de190600161a8f9565b610deb919061a8f9565b90506000610dfd886301e1855861a911565b9050601060009054906101000a90046001600160a01b03166001600160a01b03166316ada5476040518163ffffffff1660e01b815260040160206040518083038186803b158015610e4d57600080fd5b505afa158015610e61573d6000803e3d6000fd5b505050506040513d601f19601f82011682018060405250810190610e85919061a4e1565b63ffffffff168163ffffffff161015610e9d57600080fd5b60006040518060c00160405280866001600160801b031681526020018563ffffffff1681526020018363ffffffff1681526020018881526020018481526020018963ffffffff168152509050600080610ef583612662565b915091506127108a63ffffffff161180610f1657506123288a63ffffffff16105b15610c57576040805160006020820152610c5791859101604051602081830303815290604052613db8565b601054604051633882046560e01b81526000600482018190529182916001600160a01b0390911690633882046590602401604080518083038186803b158015610f8957600080fd5b505afa158015610f9d573d6000803e3d6000fd5b505050506040513d601f19601f82011682018060405250810190610fc1919061a32d565b91509150816001600160801b0316600014610fde57610fde61ac82565b6001600160801b03811615610ff557610ff561ac82565b505050565b6001600160a01b03831661100d57600080fd5b6010546001600160a01b038481169116141561102857600080fd5b61103182613e7a565b915061103c81613e7a565b9050600061104930613eb4565b90508281600001516001600160801b0316108061107257508181602001516001600160801b0316105b1561108757611082848484613f63565b610732565b610732848484613fa3565b60105460408051633020597560e21b815290516000926001600160a01b03169163c08165d4916004808301926020929190829003018186803b1580156110d757600080fd5b505afa1580156110eb573d6000803e3d6000fd5b505050506040513d601f19601f8201168201806040525081019061110f919061a145565b90506000601060009054906101000a90046001600160a01b03166001600160a01b03166322be3de16040518163ffffffff1660e01b815260040160206040518083038186803b15801561116157600080fd5b505afa158015611175573d6000803e3d6000fd5b505050506040513d601f19601f82011682018060405250810190611199919061a145565b600e549091506001600160a01b038083169116146111b9576111b961ac82565b600d546001600160a01b038381169116146111d6576111d661ac82565b5050565b61072581600080614677565b6111ef83613e7a565b92506111fa82613e7a565b91506000611207856146b6565b60408051608081018252868152602081018690529081018290528315156060820152909150611235816146fd565b50505050505050565b6000611249846146b6565b60408051608081018252858152602081018590529081018290526000606082015290915061127681614846565b505050505050565b6001600160801b03811661129157600080fd5b602f5460ff166112a4576112a481612ee3565b6010546001600160a01b03166000908152601160205260408120805482906112ce576112ce61acc4565b60009182526020822001546010546040516311e2dca960e11b8152600481018390529193508291829182916001600160a01b03909116906323c5b9529060240160a06040518083038186803b15801561132657600080fd5b505afa15801561133a573d6000803e3d6000fd5b505050506040513d601f19601f8201168201806040525081019061135e919061a453565b601054604051622efc7960e21b8152600481018c905295995093975091955090935060009283928392506001600160a01b03169062bbf1e49060240160e06040518083038186803b1580156113b257600080fd5b505afa1580156113c6573d6000803e3d6000fd5b505050506040513d601f19601f820116820180604052508101906113ea919061a367565b5050505092509250925060008563ffffffff16601060009054906101000a90046001600160a01b03166001600160a01b03166316ada5476040518163ffffffff1660e01b815260040160206040518083038186803b15801561144b57600080fd5b505afa15801561145f573d6000803e3d6000fd5b505050506040513d601f19601f82011682018060405250810190611483919061a4e1565b63ffffffff161161152357601060009054906101000a90046001600160a01b03166001600160a01b03166316ada5476040518163ffffffff1660e01b815260040160206040518083038186803b1580156114dc57600080fd5b505afa1580156114f0573d6000803e3d6000fd5b505050506040513d601f19601f82011682018060405250810190611514919061a4e1565b61151e908761ab1d565b611526565b60005b9050600061153860018686868d613025565b905061154560018261ab06565b611558906001600160801b038d1661ac30565b61156390600161a8f9565b9a505060006040518061014001604052808b81526020018c6001600160801b03168152602001866001600160801b03168152602001856001600160801b03168152602001846001600160801b031681526020018a6001600160801b031681526020018963ffffffff1681526020018763ffffffff1681526020018863ffffffff1681526020018363ffffffff16815250905061160381610100015161310a565b600061160e82613237565b6040805160c0810182528d81526020858101519082018190529181018390526000606082018190526080820152600160a082015291925061164f9083613780565b6020830151600d546040516370a0823160e01b81523060048201526001600160a01b03909116906370a082319060240160206040518083038186803b15801561169757600080fd5b505afa1580156116ab573d6000803e3d6000fd5b505050506040513d601f19601f820116820180604052508101906116cf919061a4e1565b101561173e57600d5460208401516040516340c10f1960e01b81526001600160a01b03909216916340c10f199161170b9130919060040161a759565b600060405180830381600087803b15801561172557600080fd5b505af1158015611739573d6000803e3d6000fd5b505050505b610c5781613797565b6000611752826146b6565b6010546040516311e2dca960e11b8152600481018390529192506000916001600160a01b03909116906323c5b9529060240160a06040518083038186803b15801561179c57600080fd5b505afa1580156117b0573d6000803e3d6000fd5b505050506040513d601f19601f820116820180604052508101906117d4919061a453565b50935050505063ffffffff8116610ff557610ff561ac82565b6117f682613e7a565b915061180181613e7a565b90506111d66000806000613f63565b600061181b826146b6565b6010546040516311e2dca960e11b8152600481018390529192506000916001600160a01b03909116906323c5b9529060240160a06040518083038186803b15801561186557600080fd5b505afa158015611879573d6000803e3d6000fd5b505050506040513d601f19601f8201168201806040525081019061189d919061a453565b9450505050506127108163ffffffff161115610ff557610ff561ac82565b6010546040805163155ebd6d60e31b815290516000926001600160a01b03169163aaf5eb68916004808301926020929190829003018186803b15801561190057600080fd5b505afa158015611914573d6000803e3d6000fd5b505050506040513d601f19601f82011682018060405250810190611938919061a4e1565b905080670de0b6b3a7640000146119515761195161ac82565b601054604080516321b77d6360e01b815290516000926001600160a01b0316916321b77d63916004808301926020929190829003018186803b15801561199657600080fd5b505afa1580156119aa573d6000803e3d6000fd5b505050506040513d601f19601f820116820180604052508101906119ce919061a4e1565b9050600081116111d6576111d661ac82565b60006119eb826146b6565b601054604051636b35bb6b60e01b81529192506000916001600160a01b0390911690636b35bb6b90611a23908490869060040161a759565b60206040518083038186803b158015611a3b57600080fd5b505afa158015611a4f573d6000803e3d6000fd5b505050506040513d601f19601f82011682018060405250810190611a73919061a4e1565b90508015610ff557610ff561ac82565b604080516080810182526000808252602082018190529181018290526060810191909152611ab0846146b6565b60408201819052611ac29060016149cf565b611acb83613e7a565b6022546021549194506001600160801b0390811691611aeb91168561aabf565b611af5919061a930565b81526022546021546001600160801b0391821691611b1b91600160801b9004168561aabf565b611b25919061a930565b60208201526000611b35826146fd565b9050600080611b48846040015184614d7a565b855160408051918252602082018490529294509092507fd65435582ad5309fa4227d18b2a75a59aec484a50e0bf4f118c9b50982caa53a910160405180910390a1602080850151604080519182529181018390527fd65435582ad5309fa4227d18b2a75a59aec484a50e0bf4f118c9b50982caa53a910160405180910390a183518214611bd757611bd761ac82565b80846020015114611bea57611bea61ac82565b8286146112355761123561ac82565b611c0282613e7a565b9150611c0d81613e7a565b9050611c1982826150b1565b610ff58383836150bc565b6000611c2f826146b6565b6010546040516308fcc84360e11b8152600481018390529192506001600160a01b0316906311f9908690602401602060405180830381600087803b158015611c7657600080fd5b505af1925050508015611ca6575060408051601f3d908101601f19168201909252611ca39181019061a639565b60015b611cb2576111d661ac82565b506010546040516311e2dca960e11b81526004810183905260009182916001600160a01b03909116906323c5b9529060240160a06040518083038186803b158015611cfc57600080fd5b505afa158015611d10573d6000803e3d6000fd5b505050506040513d601f19601f82011682018060405250810190611d34919061a453565b50935093505050601060009054906101000a90046001600160a01b03166001600160a01b03166316ada5476040518163ffffffff1660e01b815260040160206040518083038186803b158015611d8957600080fd5b505afa158015611d9d573d6000803e3d6000fd5b505050506040513d601f19601f82011682018060405250810190611dc1919061a4e1565b8263ffffffff1611611de8578163ffffffff168163ffffffff16146110825761108261ac82565b601060009054906101000a90046001600160a01b03166001600160a01b03166316ada5476040518163ffffffff1660e01b815260040160206040518083038186803b158015611e3657600080fd5b505afa158015611e4a573d6000803e3d6000fd5b505050506040513d601f19601f82011682018060405250810190611e6e919061a4e1565b8163ffffffff16146107325761073261ac82565b6001600160801b038116611e9557600080fd5b602f5460ff16611ea857611ea881612ee3565b6010546001600160a01b0316600090815260116020526040812080548290611ed257611ed261acc4565b60009182526020822001546010546040516311e2dca960e11b8152600481018390529193508291829182916001600160a01b03909116906323c5b9529060240160a06040518083038186803b158015611f2a57600080fd5b505afa158015611f3e573d6000803e3d6000fd5b505050506040513d601f19601f82011682018060405250810190611f62919061a453565b601054604051622efc7960e21b8152600481018c905295995093975091955090935060009283928392506001600160a01b03169062bbf1e49060240160e06040518083038186803b158015611fb657600080fd5b505afa158015611fca573d6000803e3d6000fd5b505050506040513d601f19601f82011682018060405250810190611fee919061a367565b5050505092509250925060008563ffffffff16601060009054906101000a90046001600160a01b03166001600160a01b03166316ada5476040518163ffffffff1660e01b815260040160206040518083038186803b15801561204f57600080fd5b505afa158015612063573d6000803e3d6000fd5b505050506040513d601f19601f82011682018060405250810190612087919061a4e1565b63ffffffff161161212757601060009054906101000a90046001600160a01b03166001600160a01b03166316ada5476040518163ffffffff1660e01b815260040160206040518083038186803b1580156120e057600080fd5b505afa1580156120f4573d6000803e3d6000fd5b505050506040513d601f19601f82011682018060405250810190612118919061a4e1565b612122908761ab1d565b61212a565b60005b9050600061213c60008686868d613025565b905061214960018261ab06565b61215c906001600160801b038d1661ac30565b61216790600161a8f9565b9a505060006040518061014001604052808b81526020018c6001600160801b03168152602001866001600160801b03168152602001856001600160801b03168152602001846001600160801b031681526020018a6001600160801b031681526020018963ffffffff1681526020018763ffffffff1681526020018863ffffffff1681526020018363ffffffff16815250905061220781610100015161310a565b60006122128261577b565b6040805160c0810182528d81526020858101519082018190529181018390526000606082018190526080820181905260a08201529192506122539083613780565b6020830151600e546040516370a0823160e01b81523060048201526001600160a01b03909116906370a082319060240160206040518083038186803b15801561229b57600080fd5b505afa1580156122af573d6000803e3d6000fd5b505050506040513d601f19601f820116820180604052508101906122d3919061a4e1565b101561173e57600e5460208401516040516340c10f1960e01b81526001600160a01b03909216916340c10f199161170b9130919060040161a759565b6001600160a01b03831661102857600080fd5b60008061232e83613e7a565b9250600061233b856146b6565b90506123478185614d7a565b5050509250929050565b60008061235d83613e7a565b9250600061236a856146b6565b90506123478185615ac1565b61237f82613e7a565b915061238a81613e7a565b90506123968282615f1c565b610ff5838383615f3d565b60006123ac30613eb4565b905060006123b984613e7a565b905060006123c684613e7a565b90506123d282826150b1565b6123dd3083836150bc565b6123e8308383613fa3565b60006123f330613eb4565b84518151604080516080808252601f908201527f7072652f706f7374206465706f7369742d7769746864726177207269736b790060a08201526001600160801b03938416602082015292909116908201526060810185905290915060008051602061adf68339815191529060c00160405180910390a16020848101518282015160408051608080825281018590527f7072652f706f7374206465706f7369742d776974686472617720737461626c6560a08201526001600160801b0393841694810194909452911682820152606082018490525160008051602061adf68339815191529181900360c00190a1805184516001600160801b039081169116146124fd576124fd61ac82565b80602001516001600160801b031684602001516001600160801b0316146112765761127661ac82565b600c54600f54604080516312a9293f60e21b815290516001600160a01b039384169390921691634aa4a4fc91600480820192602092909190829003018186803b15801561257257600080fd5b505afa158015612586573d6000803e3d6000fd5b505050506040513d601f19601f820116820180604052508101906125aa919061a145565b6001600160a01b0316146125c0576125c061ac82565b600f546040805163106d023160e01b815290516000926001600160a01b03169163106d0231916004808301926020929190829003018186803b15801561260557600080fd5b505afa158015612619573d6000803e3d6000fd5b505050506040513d601f19601f8201168201806040525081019061263d919061a145565b6001600160a01b031614156126545761265461ac82565b565b61072581600080613f63565b6000806000601060009054906101000a90046001600160a01b03166001600160a01b03166355ebb8256040518163ffffffff1660e01b815260040160206040518083038186803b1580156126b557600080fd5b505afa1580156126c9573d6000803e3d6000fd5b505050506040513d601f19601f820116820180604052508101906126ed919061a4e1565b90506000601060009054906101000a90046001600160a01b03166001600160a01b0316634dd0d0566040518163ffffffff1660e01b815260040160206040518083038186803b15801561273f57600080fd5b505afa158015612753573d6000803e3d6000fd5b505050506040513d601f19601f82011682018060405250810190612777919061a4e1565b90506000601060009054906101000a90046001600160a01b03166001600160a01b03166316ada5476040518163ffffffff1660e01b815260040160206040518083038186803b1580156127c957600080fd5b505afa1580156127dd573d6000803e3d6000fd5b505050506040513d601f19601f82011682018060405250810190612801919061a4e1565b8660400151612810919061ab1d565b905082601060009054906101000a90046001600160a01b03166001600160a01b031663aaf5eb686040518163ffffffff1660e01b815260040160206040518083038186803b15801561286157600080fd5b505afa158015612875573d6000803e3d6000fd5b505050506040513d601f19601f82011682018060405250810190612899919061a4e1565b6128a3919061a930565b866060015111156128b357600080fd5b6128e46000848489606001518a600001516001600160801b03168b6020015163ffffffff168763ffffffff1661629a565b9350601060009054906101000a90046001600160a01b03166001600160a01b031663aaf5eb686040518163ffffffff1660e01b815260040160206040518083038186803b15801561293457600080fd5b505afa158015612948573d6000803e3d6000fd5b505050506040513d601f19601f8201168201806040525081019061296c919061a4e1565b86608001518760600151612980919061aabf565b61298a919061a930565b94506000851161299957600080fd5b601060009054906101000a90046001600160a01b03166001600160a01b031663aaf5eb686040518163ffffffff1660e01b815260040160206040518083038186803b1580156129e757600080fd5b505afa1580156129fb573d6000803e3d6000fd5b505050506040513d601f19601f82011682018060405250810190612a1f919061a4e1565b6080870151612a2e908661aabf565b612a38919061a930565b935060008411612a4757600080fd5b612a5185856150b1565b505050915091565b6010548251602084015160408086015160a0870151606088015160808901519351635f003b1d60e11b81526001600160a01b039097169663be00763a96612aab96909590949392918a9060040161a875565b606060405180830381600087803b158015612ac557600080fd5b505af1925050508015612af5575060408051601f3d908101601f19168201909252612af29181019061a230565b60015b612b01576111d661ac82565b5050601054835160208086015160408088015160a0890151915160009750612b37966001600160a01b031695949192910161a6a5565b604051602081830303815290604052805190602001209050612b8881601280546001810182556000919091527fbb8a6a4669ba250d26cd7a459eca9d215f8307e33aebe50379bc5a3617ec34440155565b6010546040516311e2dca960e11b81526004810183905260009182918291829182916001600160a01b0316906323c5b9529060240160a06040518083038186803b158015612bd557600080fd5b505afa158015612be9573d6000803e3d6000fd5b505050506040513d601f19601f82011682018060405250810190612c0d919061a453565b94509450945094509450601060009054906101000a90046001600160a01b03166001600160a01b03166316ada5476040518163ffffffff1660e01b815260040160206040518083038186803b158015612c6557600080fd5b505afa158015612c79573d6000803e3d6000fd5b505050506040513d601f19601f82011682018060405250810190612c9d919061a4e1565b8263ffffffff1614612cb157612cb161ac82565b8760a0015163ffffffff168163ffffffff1614612cd057612cd061ac82565b87516001600160801b03868116911614612cec57612cec61ac82565b876020015163ffffffff168463ffffffff1614612d0b57612d0b61ac82565b876040015163ffffffff168363ffffffff1614612d2a57612d2a61ac82565b5050505050505050565b60105460408051600060208201526001600160a01b0390921691639e48ff5a91869186918691016040516020818303038152906040526040518563ffffffff1660e01b8152600401612d89949392919061a7be565b600060405180830381600087803b158015612da357600080fd5b505af1925050508015612db4575060015b612dbd57505050565b610ff561ac82565b8115612e5557600d5460105460405163a9059cbb60e01b81526001600160a01b039283169263a9059cbb92612e0192911690869060040161a759565b602060405180830381600087803b158015612e1b57600080fd5b505af1158015612e2f573d6000803e3d6000fd5b505050506040513d601f19601f82011682018060405250810190612e53919061a213565b505b80156111d657600e5460105460405163a9059cbb60e01b81526001600160a01b039283169263a9059cbb92612e9192911690859060040161a759565b602060405180830381600087803b158015612eab57600080fd5b505af1158015612ebf573d6000803e3d6000fd5b505050506040513d601f19601f82011682018060405250810190610ff5919061a213565b612ef5816001600160801b0316616373565b80516030805460208401516040850151606086015160809096015163ffffffff908116600160e01b026001600160e01b03978216600160c01b0263ffffffff60c01b19938316600160a01b029390931667ffffffffffffffff60a01b1992909416600160801b026001600160a01b03199095166001600160801b0397881617949094171691909117179390931692909217909155612f94908216616587565b8051603181905560209091015160328190556030546000928392612fd9926001600160801b0381169063ffffffff600160801b8204811691600160a01b9004166167d2565b91509150612fe782826150b1565b603154603254604080516000602082015261301393929101604051602081830303815290604052616ba0565b5050602f805460ff1916600117905550565b600085156130a4576000836001600160801b0316866001600160801b0316670de0b6b3a7640000613056919061aabf565b613060919061a930565b9050670de0b6b3a7640000846001600160801b03168261307e616f56565b613088919061ab06565b613092919061aabf565b61309c919061a930565b915050613101565b6000836001600160801b0316856001600160801b0316670de0b6b3a76400006130cd919061aabf565b6130d7919061a930565b9050670de0b6b3a7640000846001600160801b031682856001600160801b0316613088919061ab06565b95945050505050565b601060009054906101000a90046001600160a01b03166001600160a01b03166316ada5476040518163ffffffff1660e01b815260040160206040518083038186803b15801561315857600080fd5b505afa15801561316c573d6000803e3d6000fd5b505050506040513d601f19601f82011682018060405250810190613190919061a4e1565b63ffffffff16601060009054906101000a90046001600160a01b03166001600160a01b0316638fbc3ecd6040518163ffffffff1660e01b815260040160206040518083038186803b1580156131e457600080fd5b505afa1580156131f8573d6000803e3d6000fd5b505050506040513d601f19601f8201168201806040525081019061321c919061a4e1565b61322c9063ffffffff841661a8f9565b101561072557600080fd5b6010548151604051632a37f65760e11b815260009283926001600160a01b039091169163546fecae916132709160040190815260200190565b60206040518083038186803b15801561328857600080fd5b505afa15801561329c573d6000803e3d6000fd5b505050506040513d601f19601f820116820180604052508101906132c0919061a25e565b90506000806000806127108760e0015163ffffffff1688602001516132e5919061aabf565b6132ef919061a930565b905060008188604001516001600160801b031661330c919061a8f9565b60808901519091506001600160801b031661332f82670de0b6b3a764000061aabf565b613339919061a930565b935061347686601060009054906101000a90046001600160a01b03166001600160a01b03166355ebb8256040518163ffffffff1660e01b815260040160206040518083038186803b15801561338d57600080fd5b505afa1580156133a1573d6000803e3d6000fd5b505050506040513d601f19601f820116820180604052508101906133c5919061a4e1565b601060009054906101000a90046001600160a01b03166001600160a01b0316634dd0d0566040518163ffffffff1660e01b815260040160206040518083038186803b15801561341357600080fd5b505afa158015613427573d6000803e3d6000fd5b505050506040513d601f19601f8201168201806040525081019061344b919061a4e1565b878c60a001516001600160801b03168d60c0015163ffffffff168e610120015163ffffffff1661629a565b925061348360018461a8f9565b9250505085610120015163ffffffff166000146134a357600082116134a6565b60015b6134af57600080fd5b61012086015163ffffffff16156134c957600081116134cc565b60015b6134d557600080fd5b600d60009054906101000a90046001600160a01b03166001600160a01b031663313ce5676040518163ffffffff1660e01b815260040160206040518083038186803b15801561352357600080fd5b505afa158015613537573d6000803e3d6000fd5b505050506040513d601f19601f8201168201806040525081019061355b919061a656565b61356690600a61a97f565b82111561357257600080fd5b8560a001516001600160801b031681111561358c57600080fd5b60006136c9601060009054906101000a90046001600160a01b03166001600160a01b03166355ebb8256040518163ffffffff1660e01b815260040160206040518083038186803b1580156135df57600080fd5b505afa1580156135f3573d6000803e3d6000fd5b505050506040513d601f19601f82011682018060405250810190613617919061a4e1565b601060009054906101000a90046001600160a01b03166001600160a01b0316634dd0d0566040518163ffffffff1660e01b815260040160206040518083038186803b15801561366557600080fd5b505afa158015613679573d6000803e3d6000fd5b505050506040513d601f19601f8201168201806040525081019061369d919061a4e1565b85858b60a001516001600160801b03168c60c0015163ffffffff168d610120015163ffffffff16616fe3565b60408051600f88810b825283900b60208201529192507f2da57f3a517eedfbd54369f19cd786b65cae8381109e5da4e8d9eaf04d33d9d9910160405180910390a184600f0b81600f0b12156137205761372061ac82565b6000670de0b6b3a764000088608001516001600160801b031684613744919061aabf565b61374e919061a930565b61375990600161a8f9565b90508088606001516001600160801b0316613774919061ab06565b98975050505050505050565b811580159061378e57508015155b6111d657600080fd5b6010548151604051632a37f65760e11b815260048101919091526000916001600160a01b03169063546fecae9060240160206040518083038186803b1580156137df57600080fd5b505afa1580156137f3573d6000803e3d6000fd5b505050506040513d601f19601f82011682018060405250810190613817919061a25e565b6010548351604051622efc7960e21b8152600481019190915291925060009182916001600160a01b03169062bbf1e49060240160e06040518083038186803b15801561386257600080fd5b505afa158015613876573d6000803e3d6000fd5b505050506040513d601f19601f8201168201806040525081019061389a919061a367565b5050505050915091508360a001516138c2578360400151826001600160801b031610156138d4565b8360400151816001600160801b031610155b6138dd57600080fd5b601054845160a08601516020808801516040808a015160608b015160808c0151835160008188015284518082039097018752808501948590526365147e6b60e11b9094526001600160a01b039098169763ca28fcd69761394b9730979196909590949392919060440161a772565b600060405180830381600087803b15801561396557600080fd5b505af1925050508015613976575060015b613c6b5761398261acf0565b806308c379a014156139df575061399761ad0c565b806139a25750613a2d565b7f2c0f4f3a33cfdd0592423e24e4094c78732fbc83c4729a87c9ab14322f423808816040516139d1919061a862565b60405180910390a150610732565b634e487b711415613a2d576139f261ad8b565b906139fd5750613a2d565b6040518181527fad2265aeced38618141a623b4c2d20af0427c56fdf12284b7f4b2a367e3cc3e4906020016139d1565b3d808015613a57576040519150601f19603f3d011682016040523d82523d6000602084013e613a5c565b606091505b50613a668161ab7e565b6001600160e01b031916630cd4424b60e41b1415613aea577f2c0f4f3a33cfdd0592423e24e4094c78732fbc83c4729a87c9ab14322f423808604051613add906020808252601d908201527f496e76617269616e744572726f7228696e743132382c696e7431323829000000604082015260600190565b60405180910390a1613bf0565b613af38161ab7e565b6001600160e01b03191663536e15e160e01b1415613b5d577f2c0f4f3a33cfdd0592423e24e4094c78732fbc83c4729a87c9ab14322f423808604051613add9060208082526010908201526f2837b7b622bc3834b932b222b93937b960811b604082015260600190565b805160208201206040517f76d1c45846cf090b90a48f3a3d71155ddadc16e4dc401b3f7fa562a061cb835891613b969190815260200190565b60405180910390a17fc06ef77baed42f87ee4e1b15a7e4972204315735f27152095174054eaf909f46604051613be7906020808252600790820152662ab735b737bbb760c91b604082015260600190565b60405180910390a15b845160a0808701516020808901516040808b01518151968752931515928601929092526001600160801b038881168684015287166060860152608085015291830152517f21d955c0982871fd925b13f87b4dcab015c2db1b1d59c2d9e74960a9a957b4949181900360c00190a1613c6561ac82565b50610732565b61073284600001518560a00151858585617022565b6010548151604051622efc7960e21b815260009283926001600160a01b039091169162bbf1e491613cb79160040190815260200190565b60e06040518083038186803b158015613ccf57600080fd5b505afa158015613ce3573d6000803e3d6000fd5b505050506040513d601f19601f82011682018060405250810190613d07919061a367565b5050505050915091508260a00151613d2f578260400151826001600160801b03161015613d41565b8260400151816001600160801b031610155b613d4a57600080fd5b601054835160a085015160208087015160408089015160608a015160808b0151835160008188015284518082039097018752808501948590526365147e6b60e11b9094526001600160a01b039098169763ca28fcd697612d899730979196909590949392919060440161a772565b601054825160208085015160408087015160a0880151606089015160808a015184516000818901528551808203909801885280860195869052635f003b1d60e11b9095526001600160a01b039098169763be00763a97613e1d9790969560440161a875565b606060405180830381600087803b158015613e3757600080fd5b505af1925050508015613e67575060408051601f3d908101601f19168201909252613e649181019061a230565b60015b613e6f575050565b5050506111d661ac82565b6000613e8f600167ffffffffffffffff61ab3a565b613ea39067ffffffffffffffff168361ac30565b613eae90600161a8f9565b92915050565b6040805180820190915260008082526020820152601054604051633882046560e01b81526001600160a01b0384811660048301526000928392911690633882046590602401604080518083038186803b158015613f1057600080fd5b505afa158015613f24573d6000803e3d6000fd5b505050506040513d601f19601f82011682018060405250810190613f48919061a32d565b6001600160801b039182168552166020840152509092915050565b601054604051635ae2fb3960e11b81526001600160a01b03858116600483015260248201859052604482018490529091169063b5c5f67290606401612d89565b6000613fae30613eb4565b90506000613fbb85613eb4565b600d546040516370a0823160e01b81526001600160a01b038881166004830152929350600092909116906370a082319060240160206040518083038186803b15801561400657600080fd5b505afa15801561401a573d6000803e3d6000fd5b505050506040513d601f19601f8201168201806040525081019061403e919061a4e1565b600e546040516370a0823160e01b81526001600160a01b038981166004830152929350600092909116906370a082319060240160206040518083038186803b15801561408957600080fd5b505afa15801561409d573d6000803e3d6000fd5b505050506040513d601f19601f820116820180604052508101906140c1919061a4e1565b600d546010546040516370a0823160e01b81526001600160a01b0391821660048201529293506000929116906370a082319060240160206040518083038186803b15801561410e57600080fd5b505afa158015614122573d6000803e3d6000fd5b505050506040513d601f19601f82011682018060405250810190614146919061a4e1565b600e546010546040516370a0823160e01b81526001600160a01b0391821660048201529293506000929116906370a082319060240160206040518083038186803b15801561419357600080fd5b505afa1580156141a7573d6000803e3d6000fd5b505050506040513d601f19601f820116820180604052508101906141cb919061a4e1565b6010546040516001600160a01b038c81166024830152604482018c9052606482018b90529293506000929091169060840160408051601f198184030181529181526020820180516001600160e01b0316635ae2fb3960e11b17905251614231919061a709565b6000604051808303816000865af19150503d806000811461426e576040519150601f19603f3d011682016040523d82523d6000602084013e614273565b606091505b50509050806142905761428461ac82565b50505050505050505050565b61429d87878c8c8c6173a2565b600d546040516370a0823160e01b81526001600160a01b038c8116600483015260009216906370a082319060240160206040518083038186803b1580156142e357600080fd5b505afa1580156142f7573d6000803e3d6000fd5b505050506040513d601f19601f8201168201806040525081019061431b919061a4e1565b600e546040516370a0823160e01b81526001600160a01b038e81166004830152929350600092909116906370a082319060240160206040518083038186803b15801561436657600080fd5b505afa15801561437a573d6000803e3d6000fd5b505050506040513d601f19601f8201168201806040525081019061439e919061a4e1565b600d546010546040516370a0823160e01b81526001600160a01b0391821660048201529293506000929116906370a082319060240160206040518083038186803b1580156143eb57600080fd5b505afa1580156143ff573d6000803e3d6000fd5b505050506040513d601f19601f82011682018060405250810190614423919061a4e1565b600e546010546040516370a0823160e01b81526001600160a01b0391821660048201529293506000929116906370a082319060240160206040518083038186803b15801561447057600080fd5b505afa158015614484573d6000803e3d6000fd5b505050506040513d601f19601f820116820180604052508101906144a8919061a4e1565b6040805160808082526013908201527262616c616e6365207265636970207269736b7960681b60a0820152602081018c9052908101869052606081018f905290915060008051602061adf68339815191529060c00160405180910390a16040805160808082526014908201527362616c616e636520726563697020737461626c6560601b60a0820152602081018a9052908101849052606081018d905260008051602061adf68339815191529060c00160405180910390a16040805160808082526014908201527362616c616e636520656e67696e65207269736b7960601b60a082015260208101899052908101839052606081018e905260008051602061adf68339815191529060c00160405180910390a16040805160808082526015908201527462616c616e636520656e67696e6520737461626c6560581b60a082015260208101889052908101829052606081018d905260008051602061adf68339815191529060c00160405180910390a16146218d8a61a8f9565b841461462f5761462f61ac82565b6146398c8961a8f9565b83146146475761464761ac82565b6146518d8861ab06565b821461465f5761465f61ac82565b6146698c8761ab06565b81146107095761070961ac82565b600f54600d54600e5460405162ae511b60e21b81526001600160a01b03938416936302b9446c93612d899389939183169216908890889060040161a725565b6012546000906146c557600080fd5b6012546000906146d5908461ac30565b9050601281815481106146ea576146ea61acc4565b9060005260206000200154915050919050565b6000614711826000015183602001516150b1565b60105460408381015190516311e2dca960e11b815260048101919091526000916001600160a01b0316906323c5b9529060240160a06040518083038186803b15801561475c57600080fd5b505afa158015614770573d6000803e3d6000fd5b505050506040513d601f19601f82011682018060405250810190614794919061a453565b5050925050508063ffffffff16601060009054906101000a90046001600160a01b03166001600160a01b03166316ada5476040518163ffffffff1660e01b815260040160206040518083038186803b1580156147ef57600080fd5b505afa158015614803573d6000803e3d6000fd5b505050506040513d601f19601f82011682018060405250810190614827919061a4e1565b111561483d5761483683617477565b9392505050565b6148368361753d565b600061485a826000015183602001516150b1565b600f5482516020840151614878926001600160a01b03169190617a81565b60105460408381015190516311e2dca960e11b815260048101919091526000916001600160a01b0316906323c5b9529060240160a06040518083038186803b1580156148c357600080fd5b505afa1580156148d7573d6000803e3d6000fd5b505050506040513d601f19601f820116820180604052508101906148fb919061a453565b5050925050508063ffffffff16601060009054906101000a90046001600160a01b03166001600160a01b03166316ada5476040518163ffffffff1660e01b815260040160206040518083038186803b15801561495657600080fd5b505afa15801561496a573d6000803e3d6000fd5b505050506040513d601f19601f8201168201806040525081019061498e919061a4e1565b11156149c6576040517ff8e157ea1e8d546ecd1aa0407693e1d9c944f82f1c221c76fd76db92a809415a90600090a161483683617b8a565b61483683617c19565b600081156149df575060216149e3565b5060285b601054604051622efc7960e21b8152600481018590526000918291829182918291829182916001600160a01b03169062bbf1e4906024015b60e06040518083038186803b158015614a3357600080fd5b505afa158015614a47573d6000803e3d6000fd5b505050506040513d601f19601f82011682018060405250810190614a6b919061a367565b96509650965096509650965096506040518060e00160405280886001600160801b03168152602001876001600160801b03168152602001866001600160801b031681526020018563ffffffff168152602001848152602001838152602001828152508860000160008201518160000160006101000a8154816001600160801b0302191690836001600160801b0316021790555060208201518160000160106101000a8154816001600160801b0302191690836001600160801b0316021790555060408201518160010160006101000a8154816001600160801b0302191690836001600160801b0316021790555060608201518160010160106101000a81548163ffffffff021916908363ffffffff1602179055506080820151816002015560a0820151816003015560c08201518160040155905050600080601060009054906101000a90046001600160a01b03166001600160a01b03166338820465306040518263ffffffff1660e01b8152600401614bf391906001600160a01b0391909116815260200190565b604080518083038186803b158015614c0a57600080fd5b505afa158015614c1e573d6000803e3d6000fd5b505050506040513d601f19601f82011682018060405250810190614c42919061a32d565b915091506040518060400160405280836001600160801b03168152602001826001600160801b03168152508a60050160008201518160000160006101000a8154816001600160801b0302191690836001600160801b0316021790555060208201518160000160106101000a8154816001600160801b0302191690836001600160801b031602179055509050506000601060009054906101000a90046001600160a01b03166001600160a01b0316636b35bb6b308f6040518363ffffffff1660e01b8152600401614d1392919061a759565b60206040518083038186803b158015614d2b57600080fd5b505afa158015614d3f573d6000803e3d6000fd5b505050506040513d601f19601f82011682018060405250810190614d63919061a4e1565b6006909b019a909a55505050505050505050505050565b600080614d888460016149cf565b6040805160e0810182526021546001600160801b038082168352600160801b91829004811660208401526022549081169383019390935290910463ffffffff166060820152602354608082015260245460a082015260255460c08201526000908190614df49086618255565b915091508460001480614e08575060275485115b80614e1d57506021546001600160801b031682115b80614e395750602154600160801b90046001600160801b031681115b15614e5357614e4886866182b4565b9350935050506150aa565b601054604051634fc67d6f60e11b815260048101889052602481018790526001600160a01b0390911690639f8cfade906044016040805180830381600087803b158015614e9f57600080fd5b505af1925050508015614ecf575060408051601f3d908101601f19168201909252614ecc9181019061a51c565b60015b614ee057614edb61ac82565b6150a7565b614eeb8860006149cf565b602754614ef990889061ab06565b602e5414614f0957614f0961ac82565b602654614f209083906001600160801b031661a8f9565b602d546001600160801b031614614f3957614f3961ac82565b602654614f57908290600160801b90046001600160801b031661a8f9565b602d54600160801b90046001600160801b031614614f7757614f7761ac82565b6010546040516311e2dca960e11b8152600481018a90526000916001600160a01b0316906323c5b9529060240160a06040518083038186803b158015614fbc57600080fd5b505afa158015614fd0573d6000803e3d6000fd5b505050506040513d601f19601f82011682018060405250810190614ff4919061a453565b50601054604080516316ada54760e01b815290519296506001600160a01b0390911694506316ada54793506004808201935060209291829003018186803b15801561503e57600080fd5b505afa158015615052573d6000803e3d6000fd5b505050506040513d601f19601f82011682018060405250810190615076919061a4e1565b8163ffffffff161461508a5761508a61ac82565b6150996021602885858c61846a565b5090945092506150aa915050565b50505b9250929050565b6111d6308383618508565b60006150c784613eb4565b600d546040516370a0823160e01b81523060048201529192506000916001600160a01b03909116906370a082319060240160206040518083038186803b15801561511057600080fd5b505afa158015615124573d6000803e3d6000fd5b505050506040513d601f19601f82011682018060405250810190615148919061a4e1565b600e546040516370a0823160e01b81523060048201529192506000916001600160a01b03909116906370a082319060240160206040518083038186803b15801561519157600080fd5b505afa1580156151a5573d6000803e3d6000fd5b505050506040513d601f19601f820116820180604052508101906151c9919061a4e1565b600d546010546040516370a0823160e01b81526001600160a01b0391821660048201529293506000929116906370a082319060240160206040518083038186803b15801561521657600080fd5b505afa15801561522a573d6000803e3d6000fd5b505050506040513d601f19601f8201168201806040525081019061524e919061a4e1565b600e546010546040516370a0823160e01b81526001600160a01b0391821660048201529293506000929116906370a082319060240160206040518083038186803b15801561529b57600080fd5b505afa1580156152af573d6000803e3d6000fd5b505050506040513d601f19601f820116820180604052508101906152d3919061a4e1565b60105460408051600060208201529293506001600160a01b0390911691639e48ff5a918b918b918b91016040516020818303038152906040526040518563ffffffff1660e01b815260040161532b949392919061a7be565b600060405180830381600087803b15801561534557600080fd5b505af1925050508015615356575060015b6154a257600d546040516370a0823160e01b81523060048201526000916001600160a01b0316906370a082319060240160206040518083038186803b15801561539e57600080fd5b505afa1580156153b2573d6000803e3d6000fd5b505050506040513d601f19601f820116820180604052508101906153d6919061a4e1565b600e546040516370a0823160e01b81523060048201529192506000916001600160a01b03909116906370a082319060240160206040518083038186803b15801561541f57600080fd5b505afa158015615433573d6000803e3d6000fd5b505050506040513d601f19601f82011682018060405250810190615457919061a4e1565b60408051848152602081018390529192507f134f00eeaf61966faf7945aa440c74fbe020fcb6accdde36edeebea5e37d3752910160405180910390a161549b61ac82565b5050612d2a565b60006154ad89613eb4565b86519091506154c69089906001600160801b031661a8f9565b81516001600160801b0316146154de576154de61ac82565b8686602001516001600160801b03166154f7919061a8f9565b81602001516001600160801b0316146155125761551261ac82565b600d546040516370a0823160e01b81523060048201526000916001600160a01b0316906370a082319060240160206040518083038186803b15801561555657600080fd5b505afa15801561556a573d6000803e3d6000fd5b505050506040513d601f19601f8201168201806040525081019061558e919061a4e1565b600e546040516370a0823160e01b81523060048201529192506000916001600160a01b03909116906370a082319060240160206040518083038186803b1580156155d757600080fd5b505afa1580156155eb573d6000803e3d6000fd5b505050506040513d601f19601f8201168201806040525081019061560f919061a4e1565b600d546010546040516370a0823160e01b81526001600160a01b0391821660048201529293506000929116906370a082319060240160206040518083038186803b15801561565c57600080fd5b505afa158015615670573d6000803e3d6000fd5b505050506040513d601f19601f82011682018060405250810190615694919061a4e1565b600e546010546040516370a0823160e01b81526001600160a01b0391821660048201529293506000929116906370a082319060240160206040518083038186803b1580156156e157600080fd5b505afa1580156156f5573d6000803e3d6000fd5b505050506040513d601f19601f82011682018060405250810190615719919061a4e1565b90506157258c8a61ab06565b84146157335761573361ac82565b61573d8b8961ab06565b831461574b5761574b61ac82565b6157558c8861a8f9565b82146157635761576361ac82565b61576d8b8761a8f9565b8114610c5757610c5761ac82565b6010548151604051632a37f65760e11b815260009283926001600160a01b039091169163546fecae916157b49160040190815260200190565b60206040518083038186803b1580156157cc57600080fd5b505afa1580156157e0573d6000803e3d6000fd5b505050506040513d601f19601f82011682018060405250810190615804919061a25e565b90506000806000806127108760e0015163ffffffff168860200151615829919061aabf565b615833919061a930565b905060008188606001516001600160801b0316615850919061a8f9565b60808901519091506001600160801b031661587382670de0b6b3a764000061aabf565b61587d919061a930565b92506158ad838960a001516001600160801b03168a60c0015163ffffffff168b610120015163ffffffff166185cc565b93506158ba60018561a8f9565b9350505085610120015163ffffffff166000146158da57600082116158dd565b60015b6158e657600080fd5b61012086015163ffffffff16156159005760008111615903565b60015b61590c57600080fd5b600d60009054906101000a90046001600160a01b03166001600160a01b031663313ce5676040518163ffffffff1660e01b815260040160206040518083038186803b15801561595a57600080fd5b505afa15801561596e573d6000803e3d6000fd5b505050506040513d601f19601f82011682018060405250810190615992919061a656565b61599d90600a61a97f565b8211156159a957600080fd5b8560a001516001600160801b03168111156159c357600080fd5b6000615a16601060009054906101000a90046001600160a01b03166001600160a01b03166355ebb8256040518163ffffffff1660e01b815260040160206040518083038186803b1580156135df57600080fd5b60408051600f88810b825283900b60208201529192507f2da57f3a517eedfbd54369f19cd786b65cae8381109e5da4e8d9eaf04d33d9d9910160405180910390a184600f0b81600f0b1215615a6d57615a6d61ac82565b6000670de0b6b3a764000088608001516001600160801b031685615a91919061aabf565b615a9b919061a930565b615aa690600161a8f9565b90508088604001516001600160801b0316613774919061ab06565b600080615acf846001618844565b6040805160e0810182526013546001600160801b038082168352600160801b91829004811660208401526014549081169383019390935290910463ffffffff166060820152601554608082015260165460a082015260175460c08201526000908190615b3b9086618255565b600f54604051627eeac760e11b81529294509092506000916001600160a01b039091169062fdd58e90615b749030908b9060040161a759565b60206040518083038186803b158015615b8c57600080fd5b505afa158015615ba0573d6000803e3d6000fd5b505050506040513d601f19601f82011682018060405250810190615bc4919061a4e1565b9050851580615bd4575060195486115b80615be957506013546001600160801b031683115b80615c055750601354600160801b90046001600160801b031682115b80615c0f57508581105b15615c2a57615c1e8787618896565b945094505050506150aa565b600f54604051632f53c54760e11b8152600481018990526024810188905260006044820181905260648201526001600160a01b0390911690635ea78a8e906084016040805180830381600087803b158015615c8457600080fd5b505af1925050508015615cb4575060408051601f3d908101601f19168201909252615cb19181019061a51c565b60015b615cc557615cc061ac82565b615f14565b615cd0896000618844565b601054604051636b35bb6b60e01b81526000916001600160a01b031690636b35bb6b90615d039030908e9060040161a759565b60206040518083038186803b158015615d1b57600080fd5b505afa158015615d2f573d6000803e3d6000fd5b505050506040513d601f19601f82011682018060405250810190615d53919061a4e1565b601954909150615d64908a9061ab06565b60205414615d7457615d7461ac82565b601854615d8b9084906001600160801b031661a8f9565b601f546001600160801b031614615da457615da461ac82565b601854615dc2908390600160801b90046001600160801b031661a8f9565b601f54600160801b90046001600160801b031614615de257615de261ac82565b6010546040516311e2dca960e11b8152600481018c90526000916001600160a01b0316906323c5b9529060240160a06040518083038186803b158015615e2757600080fd5b505afa158015615e3b573d6000803e3d6000fd5b505050506040513d601f19601f82011682018060405250810190615e5f919061a453565b50601054604080516316ada54760e01b815290519296506001600160a01b0390911694506316ada54793506004808201935060209291829003018186803b158015615ea957600080fd5b505afa158015615ebd573d6000803e3d6000fd5b505050506040513d601f19601f82011682018060405250810190615ee1919061a4e1565b8163ffffffff1614615ef557615ef561ac82565b615f046013601a86868e61846a565b5091965094506150aa9350505050565b612347618964565b615f2682826189be565b600f546111d6906001600160a01b03168383617a81565b600f546010546040516333c456e360e01b81526001600160a01b0386811660048301529182166024820152600092839216906333c456e390604401604080518083038186803b158015615f8f57600080fd5b505afa158015615fa3573d6000803e3d6000fd5b505050506040513d601f19601f82011682018060405250810190615fc7919061a32d565b600f54600d54600e5460405162ae511b60e21b81529496509294506001600160a01b03918216936302b9446c9361600c938b938116929116908a908a9060040161a725565b600060405180830381600087803b15801561602657600080fd5b505af1925050508015616037575060015b61615b57600d54600e546040516000926160699289926001600160a01b0392831692909116908990899060240161a725565b60408051601f198184030181529181526020820180516001600160e01b031662ae511b60e21b179052600f54905191925060009182916001600160a01b0316906160b490859061a709565b6000604051808303816000865af19150503d80600081146160f1576040519150601f19603f3d011682016040523d82523d6000602084013e6160f6565b606091505b5091509150600081806020019051810190616111919061a281565b90507fc65844e8ee2558ed559edaad0fdb8d4149b19d5bb4d863bc498bed24f6b2df5181604051616142919061a862565b60405180910390a161615261ac82565b50505050616293565b600f546010546040516333c456e360e01b81526001600160a01b0388811660048301529182166024820152600092839216906333c456e390604401604080518083038186803b1580156161ad57600080fd5b505afa1580156161c1573d6000803e3d6000fd5b505050506040513d601f19601f820116820180604052508101906161e5919061a32d565b604080516001600160801b0388811682528781166020830152848116828401528316606082015290519294509092507ff6213e7ff9ee2604d24f584402653a5cfa1baee6058b1167d89741574640b60a919081900360800190a1616252866001600160801b03861661a8f9565b826001600160801b0316146162695761626961ac82565b61627c856001600160801b03851661a8f9565b816001600160801b0316146112355761123561ac82565b5050505050565b6000806162a785886189c9565b905060006162b5878a6189c9565b905060006162c7600160401b836189ea565b905084156163435760006162db8787618a1e565b905060006162eb83600f0b618a52565b905060006162fd600f83900b846189ea565b905060006163288f61631f61631485600f0b618b0b565b600f8b900b90618bb6565b600f0b90618bec565b9050616338600f82900b8e618c1f565b975050505050616365565b616362896163598d61631f600f88900b86618bb6565b600f0b90618c1f565b93505b505050979650505050505050565b6040805160a0810182526000808252602082018190529181018290526060810182905260808101919091526040805160c081018252670de0b6b3a764000080825269021e19e0c9bab240000060208301819052606493830193909352629896806060830152612328608083015261271060a083015290916163f4919061aade565b616407906001600160801b03168461ac30565b815161641c91906001600160801b031661a8f9565b6001600160801b031682526040810151606082015161643b919061ab1d565b61644b9063ffffffff168461ac30565b816040015163ffffffff16616460919061a8f9565b63ffffffff166020830152608081015160a082015161647f919061ab1d565b61648f9063ffffffff168461ac30565b816080015163ffffffff166164a4919061a8f9565b63ffffffff90811660808401526001906164be908561ac30565b6164c8919061ab06565b6164d6906301e1855861a8f9565b63ffffffff1660408084019190915260105481516316ada54760e01b815291516001600160a01b03909116916316ada547916004808301926020929190829003018186803b15801561652757600080fd5b505afa15801561653b573d6000803e3d6000fd5b505050506040513d601f19601f8201168201806040525081019061655f919061a4e1565b63ffffffff908116606084018190526040840151909116101561658157600080fd5b50919050565b604080518082019091526000808252602082015260006040518060800160405280600181526020016165b7616f56565b8152601054604080516321b77d6360e01b815290516020938401936001600160a01b03909316926321b77d639260048082019391829003018186803b1580156165ff57600080fd5b505afa158015616613573d6000803e3d6000fd5b505050506040513d601f19601f82011682018060405250810190616637919061a4e1565b815267ffffffffffffffff60209182015281519082015191925061665a9161ab06565b616664908461ac30565b8151616670919061a8f9565b825260408101516060820151616686919061ab06565b616690908461ac30565b816040015161669f919061a8f9565b60208301818152603354916166b590839061a8f9565b905250601054604080516355ebb82560e01b815290516001600160a01b03909216916355ebb82591600480820192602092909190829003018186803b1580156166fd57600080fd5b505afa158015616711573d6000803e3d6000fd5b505050506040513d601f19601f82011682018060405250810190616735919061a4e1565b601060009054906101000a90046001600160a01b03166001600160a01b031663aaf5eb686040518163ffffffff1660e01b815260040160206040518083038186803b15801561678357600080fd5b505afa158015616797573d6000803e3d6000fd5b505050506040513d601f19601f820116820180604052508101906167bb919061a4e1565b6167c5919061a930565b8251111561658157600080fd5b6000806000601060009054906101000a90046001600160a01b03166001600160a01b03166355ebb8256040518163ffffffff1660e01b815260040160206040518083038186803b15801561682557600080fd5b505afa158015616839573d6000803e3d6000fd5b505050506040513d601f19601f8201168201806040525081019061685d919061a4e1565b90506000601060009054906101000a90046001600160a01b03166001600160a01b0316634dd0d0566040518163ffffffff1660e01b815260040160206040518083038186803b1580156168af57600080fd5b505afa1580156168c3573d6000803e3d6000fd5b505050506040513d601f19601f820116820180604052508101906168e7919061a4e1565b90506000601060009054906101000a90046001600160a01b03166001600160a01b03166316ada5476040518163ffffffff1660e01b815260040160206040518083038186803b15801561693957600080fd5b505afa15801561694d573d6000803e3d6000fd5b505050506040513d601f19601f82011682018060405250810190616971919061a4e1565b61697b908761ab1d565b905082601060009054906101000a90046001600160a01b03166001600160a01b031663aaf5eb686040518163ffffffff1660e01b815260040160206040518083038186803b1580156169cc57600080fd5b505afa1580156169e0573d6000803e3d6000fd5b505050506040513d601f19601f82011682018060405250810190616a04919061a4e1565b616a0e919061a930565b8a1115616a1a57600080fd5b616a3f600084848d8c6001600160801b03168c63ffffffff168763ffffffff1661629a565b9350601060009054906101000a90046001600160a01b03166001600160a01b031663aaf5eb686040518163ffffffff1660e01b815260040160206040518083038186803b158015616a8f57600080fd5b505afa158015616aa3573d6000803e3d6000fd5b505050506040513d601f19601f82011682018060405250810190616ac7919061a4e1565b616ad18a8c61aabf565b616adb919061a930565b945060008511616aea57600080fd5b601060009054906101000a90046001600160a01b03166001600160a01b031663aaf5eb686040518163ffffffff1660e01b815260040160206040518083038186803b158015616b3857600080fd5b505afa158015616b4c573d6000803e3d6000fd5b505050506040513d601f19601f82011682018060405250810190616b70919061a4e1565b616b7a8a8661aabf565b616b84919061a930565b935060008411616b9357600080fd5b5050509550959350505050565b603054601054604051635f003b1d60e11b81526001600160801b0383169263ffffffff600160801b8204811693600160a01b8304821693600160e01b909304909116916001600160a01b039091169063be00763a90616c0f9087908790879087908e908e908e9060040161a875565b606060405180830381600087803b158015616c2957600080fd5b505af1925050508015616c59575060408051601f3d908101601f19168201909252616c569181019061a230565b60015b616ccf57604080516001600160801b038616815263ffffffff858116602083015284811682840152831660608201526080810189905260a0810188905290517fb007c2086a57ce11103effda8842f7cb2dcdc552b3648282eddaae3e0fb8db4e9181900360c00190a1616cca61ac82565b611235565b505060105460405160009250616cf9916001600160a01b031690879087908790879060200161a6a5565b60408051808303601f190181528282528051602091820120601080546001600160a01b039081166000908152601185529485208054600181018255908652938520909301829055546311e2dca960e11b85526004850182905290945091928392839283928392909116906323c5b9529060240160a06040518083038186803b158015616d8457600080fd5b505afa158015616d98573d6000803e3d6000fd5b505050506040513d601f19601f82011682018060405250810190616dbc919061a453565b94509450945094509450601060009054906101000a90046001600160a01b03166001600160a01b03166316ada5476040518163ffffffff1660e01b815260040160206040518083038186803b158015616e1457600080fd5b505afa158015616e28573d6000803e3d6000fd5b505050506040513d601f19601f82011682018060405250810190616e4c919061a4e1565b8263ffffffff1614616e6057616e6061ac82565b8663ffffffff168163ffffffff1614616e7b57616e7b61ac82565b896001600160801b0316856001600160801b031614616e9c57616e9c61ac82565b8863ffffffff168463ffffffff1614616eb757616eb761ac82565b8763ffffffff168363ffffffff1614616ed257616ed261ac82565b60408051878152602081018f90529081018d90526001600160801b038616606082015263ffffffff808616608083015280851660a083015280831660c0830152831660e08201527fbf97000a7d2027e718b9bfcf3ff0481b3b2d127e9542d0089a45619c0f6d6d6d906101000160405180910390a150505050505050505050505050565b600d546040805163313ce56760e01b815290516000926001600160a01b03169163313ce567916004808301926020929190829003018186803b158015616f9b57600080fd5b505afa158015616faf573d6000803e3d6000fd5b505050506040513d601f19601f82011682018060405250810190616fd3919061a656565b616fde90600a61a97f565b905090565b600080616ff660008a8a8a89898961629a565b90506000617004828a6189c9565b90506000617012888b6189c9565b9050616362600f82900b836189ea565b6010546040516311e2dca960e11b81526004810187905260009182916001600160a01b03909116906323c5b9529060240160a06040518083038186803b15801561706b57600080fd5b505afa15801561707f573d6000803e3d6000fd5b505050506040513d601f19601f820116820180604052508101906170a3919061a453565b50935093505050601060009054906101000a90046001600160a01b03166001600160a01b03166316ada5476040518163ffffffff1660e01b815260040160206040518083038186803b1580156170f857600080fd5b505afa15801561710c573d6000803e3d6000fd5b505050506040513d601f19601f82011682018060405250810190617130919061a4e1565b8263ffffffff161161715c578163ffffffff168163ffffffff16146171575761715761ac82565b6171f6565b601060009054906101000a90046001600160a01b03166001600160a01b03166316ada5476040518163ffffffff1660e01b815260040160206040518083038186803b1580156171aa57600080fd5b505afa1580156171be573d6000803e3d6000fd5b505050506040513d601f19601f820116820180604052508101906171e2919061a4e1565b8163ffffffff16146171f6576171f661ac82565b601054604051632a37f65760e11b8152600481018990526000916001600160a01b03169063546fecae9060240160206040518083038186803b15801561723b57600080fd5b505afa15801561724f573d6000803e3d6000fd5b505050506040513d601f19601f82011682018060405250810190617273919061a25e565b905085600f0b81600f0b121561728b5761728b61ac82565b601054604051622efc7960e21b8152600481018a905260009182916001600160a01b039091169062bbf1e49060240160e06040518083038186803b1580156172d257600080fd5b505afa1580156172e6573d6000803e3d6000fd5b505050506040513d601f19601f8201168201806040525081019061730a919061a367565b505050505091509150881561736057866001600160801b0316826001600160801b03161161733a5761733a61ac82565b856001600160801b0316816001600160801b03161061735b5761735b61ac82565b614284565b866001600160801b0316826001600160801b0316106173815761738161ac82565b856001600160801b0316816001600160801b0316116142845761428461ac82565b60006173ad30613eb4565b86519091506173c69084906001600160801b031661ab06565b81516001600160801b0316146173de576173de61ac82565b8186602001516001600160801b03166173f7919061ab06565b81602001516001600160801b0316146174125761741261ac82565b306001600160a01b0385161461127657600061742d85613eb4565b865181519192506001600160801b0391821691161461744e5761744e61ac82565b85602001516001600160801b031681602001516001600160801b0316146112355761123561ac82565b6010546040828101518351602080860151606087015185516000818501819052875180830390950185528188019788905263d2957b8f60e01b90975295966001600160a01b03169563d2957b8f956174d995909430949193919260440161a827565b602060405180830381600087803b1580156174f357600080fd5b505af1925050508015617523575060408051601f3d908101601f191682019092526175209181019061a4e1565b60015b61752f57506000919050565b5061753861ac82565b919050565b601054604051633882046560e01b8152306004820152600091829182916001600160a01b031690633882046590602401604080518083038186803b15801561758457600080fd5b505afa158015617598573d6000803e3d6000fd5b505050506040513d601f19601f820116820180604052508101906175bc919061a32d565b915091506175cf846040015160016149cf565b836060015180156175ff575083516001600160801b03831610806175ff57508360200151816001600160801b0316105b156176155761760d84617477565b949350505050565b602154602254855160009283926001600160801b039182169261763b929091169061aabf565b617645919061a930565b60215460225460208901519293506000926001600160801b03600160801b90930483169261767492169061aabf565b61767e919061a930565b905080821061768d578061768f565b815b92506000831161769e57600080fd5b50508451602080870151604080516001600160801b03888116825287169381019390935282810193909352606082015290517f28d06bff81272620b829a284d1653dc7d9653adffddd54ad6657d45907d0196e9181900360800190a160105460408681015187516020808a015160608b01518551600081850152865180820390940184528087019687905263d2957b8f60e01b9096526001600160a01b039096169563d2957b8f95617759959430949093929160440161a827565b602060405180830381600087803b15801561777357600080fd5b505af19250505080156177a3575060408051601f3d908101601f191682019092526177a09181019061a4e1565b60015b6177b4576177af61ac82565b617a79565b6177c3866040015160006149cf565b6027546177d190829061a8f9565b602e54146177e1576177e161ac82565b601060009054906101000a90046001600160a01b03166001600160a01b03166316ada5476040518163ffffffff1660e01b815260040160206040518083038186803b15801561782f57600080fd5b505afa158015617843573d6000803e3d6000fd5b505050506040513d601f19601f82011682018060405250810190617867919061a4e1565b602954600160801b900463ffffffff16146178845761788461ac82565b85516021546028546178a2916001600160801b03908116911661aade565b6001600160801b0316146178b8576178b861ac82565b60208601516021546028546178e5916001600160801b03600160801b91829004811692919091041661aade565b6001600160801b0316146178fb576178fb61ac82565b6022546029548291617919916001600160801b03918216911661aade565b6001600160801b03161461792f5761792f61ac82565b80821461793e5761793e61ac82565b601054604051633882046560e01b815230600482015260009182916001600160a01b0390911690633882046590602401604080518083038186803b15801561798557600080fd5b505afa158015617999573d6000803e3d6000fd5b505050506040513d601f19601f820116820180604052508101906179bd919061a32d565b91509150876060015115617a2b5787516179e0906001600160801b03881661ab06565b826001600160801b0316146179f7576179f761ac82565b6020880151617a0f906001600160801b03871661ab06565b816001600160801b031614617a2657617a2661ac82565b617a6d565b856001600160801b0316826001600160801b031614617a4c57617a4c61ac82565b846001600160801b0316816001600160801b031614617a6d57617a6d61ac82565b50909695505050505050565b505050919050565b600d5460405163095ea7b360e01b81526001600160a01b039091169063095ea7b390617ab3908690869060040161a759565b602060405180830381600087803b158015617acd57600080fd5b505af1158015617ae1573d6000803e3d6000fd5b505050506040513d601f19601f82011682018060405250810190617b05919061a213565b50600e5460405163095ea7b360e01b81526001600160a01b039091169063095ea7b390617b38908690859060040161a759565b602060405180830381600087803b158015617b5257600080fd5b505af1158015617b66573d6000803e3d6000fd5b505050506040513d601f19601f82011682018060405250810190610732919061a213565b805160208083015160408051938452918301526000917fd286ed91c98af45efac23aa289cf2fd119d9b1d6ac68e666b657fc769f464b20910160405180910390a1600f54604080840151600d54600e54865160208801519451632a80b52b60e21b81526001600160a01b039687169663aa02d4ac966174d996958216949091169291600090819060040161a7eb565b601054604051633882046560e01b8152306004820152600091829182916001600160a01b031690633882046590602401604080518083038186803b158015617c6057600080fd5b505afa158015617c74573d6000803e3d6000fd5b505050506040513d601f19601f82011682018060405250810190617c98919061a32d565b9150915083606001518015617ccc575083516001600160801b0383161080617ccc57508360200151816001600160801b0316105b15617cda5761760d84617b8a565b617ce984604001516001618844565b600f546040808601519051627eeac760e11b81526000926001600160a01b03169162fdd58e91617d1d91309160040161a759565b60206040518083038186803b158015617d3557600080fd5b505afa158015617d49573d6000803e3d6000fd5b505050506040513d601f19601f82011682018060405250810190617d6d919061a4e1565b601354601454875192935060009283926001600160801b0390811692617d959291169061aabf565b617d9f919061a930565b60135460145460208a01519293506000926001600160801b03600160801b909304831692617dce92169061aabf565b617dd8919061a930565b9050808210617de75780617de9565b815b925060008311617df857600080fd5b50508551602080880151604080516001600160801b03898116825288169381019390935282810193909352606082015290517fe5ef91468cadce3b2a7e6b2ded0954cc5f0ef5a89cd267901ef6f119af84aad79181900360800190a1600f54604080880151600d54600e548a5160208c01519451632a80b52b60e21b81526001600160a01b039687169663aa02d4ac96617ea296958216949091169291600090819060040161a7eb565b602060405180830381600087803b158015617ebc57600080fd5b505af1925050508015617eec575060408051601f3d908101601f19168201909252617ee99181019061a4e1565b60015b617efd57617ef861ac82565b618244565b617f0c87604001516000618844565b601060009054906101000a90046001600160a01b03166001600160a01b03166316ada5476040518163ffffffff1660e01b815260040160206040518083038186803b158015617f5a57600080fd5b505afa158015617f6e573d6000803e3d6000fd5b505050506040513d601f19601f82011682018060405250810190617f92919061a4e1565b601b54600160801b900463ffffffff1614617faf57617faf61ac82565b8651601354601a54617fcd916001600160801b03908116911661aade565b6001600160801b031614617fe357617fe361ac82565b6020870151601354601a54618010916001600160801b03600160801b91829004811692919091041661aade565b6001600160801b0316146180265761802661ac82565b601454601b548291618044916001600160801b03918216911661aade565b6001600160801b03161461805a5761805a61ac82565b8082146180695761806961ac82565b601054604051633882046560e01b815230600482015260009182916001600160a01b0390911690633882046590602401604080518083038186803b1580156180b057600080fd5b505afa1580156180c4573d6000803e3d6000fd5b505050506040513d601f19601f820116820180604052508101906180e8919061a32d565b9150915088606001511561815657885161810b906001600160801b03891661ab06565b826001600160801b0316146181225761812261ac82565b602089015161813a906001600160801b03881661ab06565b816001600160801b0316146181515761815161ac82565b618198565b866001600160801b0316826001600160801b0316146181775761817761ac82565b856001600160801b0316816001600160801b0316146181985761819861ac82565b600f546040808b01519051627eeac760e11b81526000926001600160a01b03169162fdd58e916181cc91309160040161a759565b60206040518083038186803b1580156181e457600080fd5b505afa1580156181f8573d6000803e3d6000fd5b505050506040513d601f19601f8201168201806040525081019061821c919061a4e1565b905083618229878361ab06565b146182365761823661ac82565b509198975050505050505050565b61824c618964565b50505050919050565b6040820151825160009182916001600160801b0391821691829161827a91168661aabf565b618284919061a930565b92508085602001516001600160801b0316856182a0919061aabf565b6182aa919061a930565b9150509250929050565b601054604051636b35bb6b60e01b8152600091829182916001600160a01b031690636b35bb6b906182eb903090899060040161a759565b60206040518083038186803b15801561830357600080fd5b505afa158015618317573d6000803e3d6000fd5b505050506040513d601f19601f8201168201806040525081019061833b919061a4e1565b601054604051634fc67d6f60e11b815260048101889052602481018790529192506001600160a01b031690639f8cfade906044015b6040805180830381600087803b15801561838957600080fd5b505af19250505080156183b9575060408051601f3d908101601f191682019092526183b69181019061a51c565b60015b61845a57601054604051636b35bb6b60e01b81526001600160a01b0390911690636b35bb6b906183ef903090899060040161a759565b60206040518083038186803b15801561840757600080fd5b505afa15801561841b573d6000803e3d6000fd5b505050506040513d601f19601f8201168201806040525081019061843f919061a4e1565b811461844d5761844d61ac82565b60008092509250506150aa565b61234761ac82565b509250929050565b84546184809084906001600160801b031661ab06565b84546001600160801b0316146184985761849861ac82565b84546184b5908390600160801b90046001600160801b031661ab06565b8454600160801b90046001600160801b0316146184d4576184d461ac82565b60018501546184ed9082906001600160801b031661ab06565b60018501546001600160801b0316146162935761629361ac82565b600d546040516340c10f1960e01b81526001600160a01b03909116906340c10f199061853a908690869060040161a759565b600060405180830381600087803b15801561855457600080fd5b505af1158015618568573d6000803e3d6000fd5b5050600e546040516340c10f1960e01b81526001600160a01b0390911692506340c10f19915061859e908690859060040161a759565b600060405180830381600087803b1580156185b857600080fd5b505af1158015611235573d6000803e3d6000fd5b600080601060009054906101000a90046001600160a01b03166001600160a01b03166355ebb8256040518163ffffffff1660e01b815260040160206040518083038186803b15801561861d57600080fd5b505afa158015618631573d6000803e3d6000fd5b505050506040513d601f19601f82011682018060405250810190618655919061a4e1565b90506000601060009054906101000a90046001600160a01b03166001600160a01b0316634dd0d0566040518163ffffffff1660e01b815260040160206040518083038186803b1580156186a757600080fd5b505afa1580156186bb573d6000803e3d6000fd5b505050506040513d601f19601f820116820180604052508101906186df919061a4e1565b6040805160c08101825284815260208101839052908101899052606081018890526080810187905260a00185905260348390556035819055603688905560378790556038869055603985905590506000618737618c44565b90506000600d60009054906101000a90046001600160a01b03166001600160a01b031663313ce5676040518163ffffffff1660e01b815260040160206040518083038186803b15801561878957600080fd5b505afa15801561879d573d6000803e3d6000fd5b505050506040513d601f19601f820116820180604052508101906187c1919061a656565b6187cc90600a61a97f565b905060006187d983618cd8565b905060006187ef6187ea858561ab06565b618cd8565b905060008083600f0b121561880b57600082600f0b1215618813565b600082600f0b125b156188325761882b85618826818761ab06565b618d2e565b9050618835565b50825b9b9a5050505050505050505050565b60008115618854575060136149e3565b50601a601054604051622efc7960e21b81526000918291829182918291829182916001600160a01b03169062bbf1e490614a1b908d9060040190815260200190565b601054604051636b35bb6b60e01b8152600091829182916001600160a01b031690636b35bb6b906188cd903090899060040161a759565b60206040518083038186803b1580156188e557600080fd5b505afa1580156188f9573d6000803e3d6000fd5b505050506040513d601f19601f8201168201806040525081019061891d919061a4e1565b600f54604051632f53c54760e11b8152600481018890526024810187905260006044820181905260648201529192506001600160a01b031690635ea78a8e90608401618370565b60006013819055601480546001600160a01b031990811690915560158290556016829055601782905560188290556019829055601a829055601b80549091169055601c819055601d819055601e819055601f819055602055565b6111d6338383618508565b6000806189de83670de0b6b3a764000061a930565b905061760d8482618ddf565b6000600f82810b9084900b0360016001607f1b03198112801590618a15575060016001607f1b038113155b61483657600080fd5b600080618a35618a2d84618e16565b600f0b618e26565b90506000618a4285618e48565b9050613101600f82900b83618bb6565b6000600160401b600f83900b121580618a6f5750600082600f0b13155b15618a9757604051630e59931d60e31b8152600f83900b600482015260240160405180910390fd5b67f999999999999999600f83900b13801590618abf5750670666666666666666600f83900b12155b15618acd57613eae82618e56565b670666666666666666600f83900b1215618aea57613eae82618efd565b6000618b02618afd600160401b856189ea565b618efd565b6148369061ac5b565b600080618b25600f84900b68016a09e667f3bcc908618fc7565b90506000618b63618b58618b4d618b3e85600f0b61901f565b6753dd02a4f5ee2e4690618bb6565b600160401b90618bec565b600160401b90618fc7565b90506000618b718383619052565b9050600083600f0b1215618b8e57618b8b81600f0b619122565b90505b6000618bac618ba1600160401b84618bec565b6001603f1b90618bb6565b9695505050505050565b6000600f83810b9083900b0260401d60016001607f1b03198112801590618a15575060016001607f1b0381131561483657600080fd5b6000600f83810b9083900b0160016001607f1b03198112801590618a15575060016001607f1b0381131561483657600080fd5b600080618c3483670de0b6b3a764000061a930565b905061760d600f85900b8261913d565b60006005600d60009054906101000a90046001600160a01b03166001600160a01b031663313ce5676040518163ffffffff1660e01b815260040160206040518083038186803b158015618c9657600080fd5b505afa158015618caa573d6000803e3d6000fd5b505050506040513d601f19601f82011682018060405250810190618cce919061a656565b616fd3919061ab5b565b6040805160c08101825260345480825260355460208301819052603654938301849052603754606084018190526038546080850181905260395460a0860181905260009661483695949389939192909190616fe3565b600080618d3a83618cd8565b618d4385618cd8565b618d4d919061aa2a565b600f0b12618d5a57600080fd5b6000618d646191a5565b9050838084035b828110618dd6576002618d7e868861a8f9565b618d88919061a930565b9150618d9382618cd8565b600f0b618d9f57618dd6565b6000618daa87618cd8565b618db384618cd8565b618dbd919061aa2a565b600f0b1215618dce57819450618d6b565b819550618d6b565b50949350505050565b600081618deb57600080fd5b6000618df784846191f7565b905060016001607f1b036001600160801b038216111561483657600080fd5b6000613eae826301e18558618ddf565b60008082600f0b1215618e3857600080fd5b613eae604083600f0b901b619359565b6000613eae82612710618ddf565b600080618e6b600f84900b6001603f1b6189ea565b90506000618e7d600f83900b83618bb6565b90506000613101618ef2618ee2618eba6721d0a04b0e9b94f161631f618eac67c2bf5d74c724e53e1989618bb6565b61631f600f8a900b8a618bb6565b618ed96726a8f3c1f21b336e61631f6787c57e5da70d3c8f1989618bb6565b600f0b90618fc7565b68015d71f5721242c78790618bec565b600f85900b90618bb6565b600080618f1f618a2d618f17618b58600f87900b87618bb6565b600f0b6194c7565b90506000618f436707a1e70f720eca4361631f6801000bf627fa1884101985618bb6565b90506000618f676810aeac93f55267a9a561631f68041ed34a256149023686618bb6565b90506000618f9c68072c7d592d021fb1db61631f618f8e6808c27b4617f5f800ea88618bb6565b61631f600f89900b89618bb6565b90506000618fbc618fb1600f85900b84618fc7565b600f86900b90618bec565b979650505050505050565b600081600f0b60001415618fda57600080fd5b600082600f0b604085600f0b901b81618ff557618ff561acae565b05905060016001607f1b03198112801590618a15575060016001607f1b0381131561483657600080fd5b6000600f82900b60016001607f1b0319141561903a57600080fd5b600082600f0b1261904b5781613eae565b5060000390565b6000806190a4618ef2619094619089619078600f88900b68010fb844255a12d72e618bb6565b68017401c57014c38f131990618bec565b600f87900b90618bb6565b68016a09e667f3bcc90890618bec565b905060006190d06190c16190896748d4c730f051a5fd1985618bec565b67413c831bb169f87490618bec565b90506000618bac61911761910c6191016190f96190f1600f8c900b8c618bb6565b600f0b619122565b600f0b619501565b600f86900b90618bb6565b600f88900b90618bb6565b600160401b906189ea565b6000600f82900b60016001607f1b0319141561904b57600080fd5b60008161914c57506000613eae565b600083600f0b121561915d57600080fd5b600f83900b6001600160801b038316810260401c90608084901c026001600160c01b0381111561918c57600080fd5b60401b811981111561919d57600080fd5b019392505050565b60006003600d60009054906101000a90046001600160a01b03166001600160a01b031663313ce5676040518163ffffffff1660e01b815260040160206040518083038186803b158015618c9657600080fd5b60008161920357600080fd5b60006001600160c01b03841161922e5782604085901b816192265761922661acae565b049050619345565b60c084811c6401000000008110619247576020918201911c5b620100008110619259576010918201911c5b610100811061926a576008918201911c5b6010811061927a576004918201911c5b6004811061928a576002918201911c5b60028110619299576001820191505b60bf820360018603901c6001018260ff0387901b816192ba576192ba61acae565b0492506001600160801b038311156192d157600080fd5b608085901c83026001600160801b038616840260c088901c604089901b828110156192fd576001820391505b608084901b92900382811015619314576001820391505b829003608084901c821461932a5761932a61ac82565b8881816193395761933961acae565b04870196505050505050505b6001600160801b0381111561483657600080fd5b60008161936857506000919050565b816001600160801b82106193815760809190911c9060401b5b600160401b82106193975760409190911c9060201b5b64010000000082106193ae5760209190911c9060101b5b6201000082106193c35760109190911c9060081b5b61010082106193d75760089190911c9060041b5b601082106193ea5760049190911c9060021b5b600882106193f65760011b5b60018185816194075761940761acae565b048201901c9050600181858161941f5761941f61acae565b048201901c905060018185816194375761943761acae565b048201901c9050600181858161944f5761944f61acae565b048201901c905060018185816194675761946761acae565b048201901c9050600181858161947f5761947f61acae565b048201901c905060018185816194975761949761acae565b048201901c905060008185816194af576194af61acae565b0490508082106194bf5780613101565b509392505050565b60008082600f0b136194d857600080fd5b60806194e383619556565b600f0b6fb17217f7d1cf79abc9e3b39803f2f6af02901c9050919050565b6000600160461b82600f0b1261951657600080fd5b683fffffffffffffffff1982600f0b121561953357506000919050565b613eae608083600f0b700171547652b82fe1777d0ffda0d23a7d1202901d619631565b60008082600f0b1361956757600080fd5b6000600f83900b600160401b8112619581576040918201911d5b6401000000008112619595576020918201911d5b6201000081126195a7576010918201911d5b61010081126195b8576008918201911d5b601081126195c8576004918201911d5b600481126195d8576002918201911d5b600281126195e7576001820191505b603f19820160401b600f85900b607f8490031b6001603f1b5b60008113156196265790800260ff81901c8281029390930192607f011c9060011d619600565b509095945050505050565b6000600160461b82600f0b1261964657600080fd5b683fffffffffffffffff1982600f0b121561966357506000919050565b6001607f1b60006001603f1b8416600f0b13156196915770016a09e667f3bcc908b2fb1366ea957d3e0260801c5b60008367400000000000000016600f0b13156196be577001306fe0a31b7152de8d5a46305c85edec0260801c5b60008367200000000000000016600f0b13156196eb577001172b83c7d517adcdf7c8c50eb14a791f0260801c5b60008367100000000000000016600f0b13156197185770010b5586cf9890f6298b92b71842a983630260801c5b60008367080000000000000016600f0b1315619745577001059b0d31585743ae7c548eb68ca417fd0260801c5b60008367040000000000000016600f0b131561977257700102c9a3e778060ee6f7caca4f7a29bde80260801c5b60008367020000000000000016600f0b131561979f5770010163da9fb33356d84a66ae336dcdfa3f0260801c5b60008367010000000000000016600f0b13156197cc57700100b1afa5abcbed6129ab13ec11dc95430260801c5b600083668000000000000016600f0b13156197f85770010058c86da1c09ea1ff19d294cf2f679b0260801c5b600083664000000000000016600f0b1315619824577001002c605e2e8cec506d21bfc89a23a00f0260801c5b600083662000000000000016600f0b131561985057700100162f3904051fa128bca9c55c31e5df0260801c5b600083661000000000000016600f0b131561987c577001000b175effdc76ba38e31671ca9397250260801c5b600083660800000000000016600f0b13156198a857700100058ba01fb9f96d6cacd4b180917c3d0260801c5b600083660400000000000016600f0b13156198d45770010002c5cc37da9491d0985c348c68e7b30260801c5b600083660200000000000016600f0b1315619900577001000162e525ee054754457d59952920260260801c5b600083660100000000000016600f0b131561992c5770010000b17255775c040618bf4a4ade83fc0260801c5b6000836580000000000016600f0b1315619957577001000058b91b5bc9ae2eed81e9b7d4cfab0260801c5b6000836540000000000016600f0b131561998257700100002c5c89d5ec6ca4d7c8acc017b7c90260801c5b6000836520000000000016600f0b13156199ad5770010000162e43f4f831060e02d839a9d16d0260801c5b6000836510000000000016600f0b13156199d857700100000b1721bcfc99d9f890ea069117630260801c5b6000836508000000000016600f0b1315619a035770010000058b90cf1e6d97f9ca14dbcc16280260801c5b6000836504000000000016600f0b1315619a2e577001000002c5c863b73f016468f6bac5ca2b0260801c5b6000836502000000000016600f0b1315619a5957700100000162e430e5a18f6119e3c02282a50260801c5b6000836501000000000016600f0b1315619a84577001000000b1721835514b86e6d96efd1bfe0260801c5b60008364800000000016600f0b1315619aae57700100000058b90c0b48c6be5df846c5b2ef0260801c5b60008364400000000016600f0b1315619ad85770010000002c5c8601cc6b9e94213c72737a0260801c5b60008364200000000016600f0b1315619b02577001000000162e42fff037df38aa2b219f060260801c5b60008364100000000016600f0b1315619b2c5770010000000b17217fba9c739aa5819f44f90260801c5b60008364080000000016600f0b1315619b56577001000000058b90bfcdee5acd3c1cedc8230260801c5b60008364040000000016600f0b1315619b8057700100000002c5c85fe31f35a6a30da1be500260801c5b60008364020000000016600f0b1315619baa5770010000000162e42ff0999ce3541b9fffcf0260801c5b60008364010000000016600f0b1315619bd457700100000000b17217f80f4ef5aadda455540260801c5b600083638000000016600f0b1315619bfd5770010000000058b90bfbf8479bd5a81b51ad0260801c5b600083634000000016600f0b1315619c26577001000000002c5c85fdf84bd62ae30a74cc0260801c5b600083632000000016600f0b1315619c4f57700100000000162e42fefb2fed257559bdaa0260801c5b600083631000000016600f0b1315619c78577001000000000b17217f7d5a7716bba4a9ae0260801c5b600083630800000016600f0b1315619ca157700100000000058b90bfbe9ddbac5e109cce0260801c5b600083630400000016600f0b1315619cca5770010000000002c5c85fdf4b15de6f17eb0d0260801c5b600083630200000016600f0b1315619cf3577001000000000162e42fefa494f1478fde050260801c5b600083630100000016600f0b1315619d1c5770010000000000b17217f7d20cf927c8e94c0260801c5b6000836280000016600f0b1315619d44577001000000000058b90bfbe8f71cb4e4b33d0260801c5b6000836240000016600f0b1315619d6c57700100000000002c5c85fdf477b662b269450260801c5b6000836220000016600f0b1315619d945770010000000000162e42fefa3ae53369388c0260801c5b6000836210000016600f0b1315619dbc57700100000000000b17217f7d1d351a389d400260801c5b6000836208000016600f0b1315619de45770010000000000058b90bfbe8e8b2d3d4ede0260801c5b6000836204000016600f0b1315619e0c577001000000000002c5c85fdf4741bea6e77e0260801c5b6000836202000016600f0b1315619e3457700100000000000162e42fefa39fe95583c20260801c5b6000836201000016600f0b1315619e5c577001000000000000b17217f7d1cfb72b45e10260801c5b60008361800016600f0b1315619e8357700100000000000058b90bfbe8e7cc35c3f00260801c5b60008361400016600f0b1315619eaa5770010000000000002c5c85fdf473e242ea380260801c5b60008361200016600f0b1315619ed1577001000000000000162e42fefa39f02b772c0260801c5b60008361100016600f0b1315619ef85770010000000000000b17217f7d1cf7d83c1a0260801c5b60008361080016600f0b1315619f1f577001000000000000058b90bfbe8e7bdcbe2e0260801c5b60008361040016600f0b1315619f4657700100000000000002c5c85fdf473dea871f0260801c5b60008361020016600f0b1315619f6d5770010000000000000162e42fefa39ef44d910260801c5b60008361010016600f0b1315619f9457700100000000000000b17217f7d1cf79e9490260801c5b600083608016600f0b1315619fba5770010000000000000058b90bfbe8e7bce5440260801c5b600083604016600f0b1315619fe0577001000000000000002c5c85fdf473de6eca0260801c5b600083602016600f0b131561a00657700100000000000000162e42fefa39ef366f0260801c5b600083601016600f0b131561a02c577001000000000000000b17217f7d1cf79afa0260801c5b600083600816600f0b131561a05257700100000000000000058b90bfbe8e7bcd6d0260801c5b600083600416600f0b131561a0785770010000000000000002c5c85fdf473de6b20260801c5b600083600216600f0b131561a09e577001000000000000000162e42fefa39ef3580260801c5b600083600116600f0b131561a0c45770010000000000000000b17217f7d1cf79ab0260801c5b600f83810b60401d603f03900b1c60016001607f1b03811115613eae57600080fd5b60008083601f84011261a0f857600080fd5b50813567ffffffffffffffff81111561a11057600080fd5b6020830191508360208285010111156150aa57600080fd5b60006020828403121561a13a57600080fd5b81356148368161adab565b60006020828403121561a15757600080fd5b81516148368161adab565b60008060008060008060a0878903121561a17b57600080fd5b863561a1868161adab565b9550602087013561a1968161adab565b94506040870135935060608701359250608087013567ffffffffffffffff81111561a1c057600080fd5b61a1cc89828a0161a0e6565b979a9699509497509295939492505050565b60008060006060848603121561a1f357600080fd5b833561a1fe8161adab565b95602085013595506040909401359392505050565b60006020828403121561a22557600080fd5b81516148368161adc0565b60008060006060848603121561a24557600080fd5b8351925060208401519150604084015190509250925092565b60006020828403121561a27057600080fd5b815180600f0b811461483657600080fd5b60006020828403121561a29357600080fd5b815167ffffffffffffffff8082111561a2ab57600080fd5b818401915084601f83011261a2bf57600080fd5b81518181111561a2d15761a2d161acda565b604051915061a2ea601f8201601f19166020018361abdd565b80825285602082850101111561a2ff57600080fd5b618dd681602084016020860161abb1565b60006020828403121561a32257600080fd5b81356148368161adce565b6000806040838503121561a34057600080fd5b825161a34b8161adce565b602084015190925061a35c8161adce565b809150509250929050565b600080600080600080600060e0888a03121561a38257600080fd5b875161a38d8161adce565b602089015190975061a39e8161adce565b604089015190965061a3af8161adce565b606089015190955061a3c08161ade3565b809450506080880151925060a0880151915060c0880151905092959891949750929550565b60008060008060008060c0878903121561a3fe57600080fd5b863561a4098161adce565b9550602087013561a4198161ade3565b9450604087013561a4298161ade3565b9350606087013561a4398161ade3565b9598949750929560808101359460a0909101359350915050565b600080600080600060a0868803121561a46b57600080fd5b855161a4768161adce565b602087015190955061a4878161ade3565b604087015190945061a4988161ade3565b606087015190935061a4a98161ade3565b608087015190925061a4ba8161ade3565b809150509295509295909350565b60006020828403121561a4da57600080fd5b5035919050565b60006020828403121561a4f357600080fd5b5051919050565b6000806040838503121561a50d57600080fd5b50508035926020909101359150565b6000806040838503121561a52f57600080fd5b505080516020909101519092909150565b60008060006060848603121561a55557600080fd5b8335925060208401359150604084013561a56e8161adc0565b809150509250925092565b6000806000806060858703121561a58f57600080fd5b8435935060208501359250604085013567ffffffffffffffff81111561a5b457600080fd5b61a5c08782880161a0e6565b95989497509550505050565b60008060006060848603121561a5e157600080fd5b505081359360208301359350604090920135919050565b6000806000806080858703121561a60e57600080fd5b843593506020850135925060408501359150606085013561a62e8161adc0565b939692955090935050565b60006020828403121561a64b57600080fd5b81516148368161ade3565b60006020828403121561a66857600080fd5b815160ff8116811461483657600080fd5b6000815180845261a69181602086016020860161abb1565b601f01601f19169290920160200192915050565b60609590951b6bffffffffffffffffffffffff1916855260809390931b6fffffffffffffffffffffffffffffffff1916601485015260e091821b6001600160e01b0319908116602486015290821b8116602885015291901b16602c82015260300190565b6000825161a71b81846020870161abb1565b9190910192915050565b6001600160a01b03958616815293851660208501529190931660408301526060820192909252608081019190915260a00190565b6001600160a01b03929092168252602082015260400190565b600061010060018060a01b038b168352896020840152881515604084015287606084015286608084015285151560a084015284151560c08401528060e08401526188358184018561a679565b60018060a01b0385168152836020820152826040820152608060608201526000618bac608083018461a679565b9687526001600160a01b0395861660208801529390941660408601526060850191909152608084015290151560a083015260c082015260e00190565b86815260018060a01b0386166020820152846040820152836060820152821515608082015260c060a0820152600061377460c083018461a679565b602081526000614836602083018461a679565b6001600160801b0388168152600063ffffffff808916602084015280881660408401528087166060840152508460808301528360a083015260e060c083015261a8c160e083018461a679565b9998505050505050505050565b60006001600160801b0380831681851680830382111561a8f05761a8f061ac98565b01949350505050565b6000821982111561a90c5761a90c61ac98565b500190565b600063ffffffff80831681851680830382111561a8f05761a8f061ac98565b60008261a93f5761a93f61acae565b500490565b600181815b8085111561846257816000190482111561a9655761a96561ac98565b8085161561a97257918102915b93841c939080029061a949565b600061483660ff84168360008261a99857506001613eae565b8161a9a557506000613eae565b816001811461a9bb576002811461a9c55761a9e1565b6001915050613eae565b60ff84111561a9d65761a9d661ac98565b50506001821b613eae565b5060208310610133831016604e8410600b841016171561aa04575081810a613eae565b61aa0e838361a944565b806000190482111561aa225761aa2261ac98565b029392505050565b600081600f0b83600f0b60016001607f1b0360008213600084138383048511828216161561aa5a5761aa5a61ac98565b60016001607f1b0319600085128281168783058712161561aa7d5761aa7d61ac98565b6000871292508582058712848416161561aa995761aa9961ac98565b8585058712818416161561aaaf5761aaaf61ac98565b5050509290910295945050505050565b600081600019048311821515161561aad95761aad961ac98565b500290565b60006001600160801b038381169083168181101561aafe5761aafe61ac98565b039392505050565b60008282101561ab185761ab1861ac98565b500390565b600063ffffffff8381169083168181101561aafe5761aafe61ac98565b600067ffffffffffffffff8381169083168181101561aafe5761aafe61ac98565b600060ff821660ff84168082101561ab755761ab7561ac98565b90039392505050565b805160208201516001600160e01b03198082169291906004831015617a795760049290920360031b82901b161692915050565b60005b8381101561abcc57818101518382015260200161abb4565b838111156107325750506000910152565b601f8201601f1916810167ffffffffffffffff8111828210171561ac035761ac0361acda565b6040525050565b60006001600160801b038084168061ac245761ac2461acae565b92169190910692915050565b60008261ac3f5761ac3f61acae565b500690565b600063ffffffff8084168061ac245761ac2461acae565b600081600f0b60016001607f1b031981141561ac795761ac7961ac98565b60000392915050565b634e487b7160e01b600052600160045260246000fd5b634e487b7160e01b600052601160045260246000fd5b634e487b7160e01b600052601260045260246000fd5b634e487b7160e01b600052603260045260246000fd5b634e487b7160e01b600052604160045260246000fd5b600060033d111561ad095760046000803e5060005160e01c5b90565b600060443d101561ad1a5790565b6040516003193d81016004833e81513d67ffffffffffffffff816024840111818411171561ad4a57505050505090565b828501915081518181111561ad625750505050505090565b843d870101602082850101111561ad7c5750505050505090565b6196266020828601018761abdd565b60008060233d111561ada7576020600460003e50506000516001905b9091565b6001600160a01b038116811461072557600080fd5b801515811461072557600080fd5b6001600160801b038116811461072557600080fd5b63ffffffff8116811461072557600080fdfed2d9bf5b40bcc8f40779f4658f2ad8b53fe10df3993c76850042eebab195b156a26469706673582212203a24be70113e856ce1696f31b0c6494ed1049545b05e143f3095421c6d267cec64736f6c63430008060033",
    "linkReferences": {}
  },
  "methodIdentifiers": {
    "allocateCallback(uint256,uint256,bytes)": "151a8bf8",
    "allocate_with_safe_range(uint256,uint256,uint256,bool)": "607630ab",
    "check_allocate_remove_inverses(uint256,uint256,bool)": "b32982e6",
    "check_created_pool_timestamp_greater_zero(uint256)": "6a927d39",
    "check_deposit_manager_safe(address,uint256,uint256)": "f3cb14fe",
    "check_deposit_withdraw_safe(uint256,uint256)": "f781a72b",
    "check_liquidity_of_zero_address(uint256)": "a5a310a3",
    "check_manager()": "fb2cb8f3",
    "check_manager_deposit_zero_zero(address)": "5e12c810",
    "check_margin_of_zero_address(uint256)": "45be2231",
    "check_maximuim_gamma(uint256)": "821d8d06",
    "check_precision_and_liquidity()": "a161d37b",
    "check_proper_deployment_of_engine()": "56484bcd",
    "check_update_last_timestamp(uint256)": "bbe0e3f7",
    "createCallback(uint256,uint256,bytes)": "c171d27e",
    "create_new_pool_should_not_revert(uint128,uint32,uint32,uint32,uint256,uint256)": "07bf76da",
    "create_new_pool_with_wrong_gamma_should_revert(uint128,uint32,uint32,uint32,uint256,uint256)": "45904478",
    "depositCallback(uint256,uint256,bytes)": "c536e605",
    "deposit_with_safe_range(address,uint256,uint256)": "b9834c4a",
    "deposit_zero_zero(address)": "14ddbce6",
    "manager_allocate_with_safe_range(uint256,uint256,uint256)": "63c832a5",
    "manager_remove_with_safe_range(uint256,uint256)": "f0636602",
    "onERC1155Received(address,address,uint256,uint256,bytes)": "f23a6e61",
    "remove_with_safe_range(uint256,uint256)": "f0451931",
    "test_reverse_swap(uint128)": "2ddd643f",
    "test_swap_risky_in(uint128)": "647603df",
    "test_swap_stable_in(uint128)": "d01e68aa",
    "withdraw_with_only_non_zero_addr(address,uint256,uint256)": "e78caf47",
    "withdraw_with_safe_range(address,uint256,uint256)": "4dc7fb97",
    "withdraw_zero_address_recipient(uint256,uint256)": "6d5dd16e",
    "withdraw_zero_zero(address)": "fc1302b0"
  },
  "id": 10
}