{
  "abi": [
    {
      "inputs": [],
      "stateMutability": "nonpayable",
      "type": "constructor"
    },
    {
      "inputs": [
        {
          "internalType": "int128",
          "name": "value",
          "type": "int128"
        }
      ],
      "name": "InverseOutOfBounds",
      "type": "error"
    },
    {
      "anonymous": false,
      "inputs": [
        {
          "indexed": false,
          "internalType": "bytes32",
          "name": "poolId",
          "type": "bytes32"
        },
        {
          "indexed": false,
          "internalType": "uint256",
          "name": "riskyPerLiquidity",
          "type": "uint256"
        },
        {
          "indexed": false,
          "internalType": "uint256",
          "name": "delLiquidity",
          "type": "uint256"
        },
        {
          "indexed": false,
          "internalType": "uint128",
          "name": "strike",
          "type": "uint128"
        },
        {
          "indexed": false,
          "internalType": "uint32",
          "name": "sigma",
          "type": "uint32"
        },
        {
          "indexed": false,
          "internalType": "uint32",
          "name": "maturity",
          "type": "uint32"
        },
        {
          "indexed": false,
          "internalType": "uint32",
          "name": "gamma",
          "type": "uint32"
        },
        {
          "indexed": false,
          "internalType": "uint32",
          "name": "timestamp",
          "type": "uint32"
        }
      ],
      "name": "AddedPool",
      "type": "event"
    },
    {
      "anonymous": false,
      "inputs": [
        {
          "indexed": false,
          "internalType": "bytes32",
          "name": "s",
          "type": "bytes32"
        }
      ],
      "name": "ErrorSig",
      "type": "event"
    },
    {
      "anonymous": false,
      "inputs": [
        {
          "indexed": false,
          "internalType": "uint128",
          "name": "strike",
          "type": "uint128"
        },
        {
          "indexed": false,
          "internalType": "uint32",
          "name": "sigma",
          "type": "uint32"
        },
        {
          "indexed": false,
          "internalType": "uint32",
          "name": "maturity",
          "type": "uint32"
        },
        {
          "indexed": false,
          "internalType": "uint32",
          "name": "gamma",
          "type": "uint32"
        },
        {
          "indexed": false,
          "internalType": "uint256",
          "name": "riskyPerLp",
          "type": "uint256"
        },
        {
          "indexed": false,
          "internalType": "uint256",
          "name": "liquidity",
          "type": "uint256"
        }
      ],
      "name": "FailedCreating",
      "type": "event"
    },
    {
      "anonymous": false,
      "inputs": [
        {
          "indexed": false,
          "internalType": "bytes32",
          "name": "poolId",
          "type": "bytes32"
        },
        {
          "indexed": false,
          "internalType": "bool",
          "name": "riskyForStable",
          "type": "bool"
        },
        {
          "indexed": false,
          "internalType": "uint256",
          "name": "reserveRisky",
          "type": "uint256"
        },
        {
          "indexed": false,
          "internalType": "uint256",
          "name": "reserveStable",
          "type": "uint256"
        },
        {
          "indexed": false,
          "internalType": "uint256",
          "name": "amountIn",
          "type": "uint256"
        },
        {
          "indexed": false,
          "internalType": "uint256",
          "name": "amountOut",
          "type": "uint256"
        }
      ],
      "name": "FailedSwap",
      "type": "event"
    },
    {
      "anonymous": false,
      "inputs": [
        {
          "indexed": false,
          "internalType": "int128",
          "name": "pre",
          "type": "int128"
        },
        {
          "indexed": false,
          "internalType": "int128",
          "name": "post",
          "type": "int128"
        }
      ],
      "name": "InvariantCheck",
      "type": "event"
    },
    {
      "anonymous": false,
      "inputs": [
        {
          "indexed": false,
          "internalType": "string",
          "name": "msg",
          "type": "string"
        }
      ],
      "name": "KnownError",
      "type": "event"
    },
    {
      "anonymous": false,
      "inputs": [
        {
          "indexed": false,
          "internalType": "uint256",
          "name": "val",
          "type": "uint256"
        }
      ],
      "name": "Panicked",
      "type": "event"
    },
    {
      "anonymous": false,
      "inputs": [
        {
          "indexed": false,
          "internalType": "string",
          "name": "msg",
          "type": "string"
        }
      ],
      "name": "UnknownError",
      "type": "event"
    },
    {
      "inputs": [
        {
          "internalType": "uint256",
          "name": "delRisky",
          "type": "uint256"
        },
        {
          "internalType": "uint256",
          "name": "delStable",
          "type": "uint256"
        },
        {
          "internalType": "bytes",
          "name": "data",
          "type": "bytes"
        }
      ],
      "name": "allocateCallback",
      "outputs": [],
      "stateMutability": "nonpayable",
      "type": "function"
    },
    {
      "inputs": [
        {
          "internalType": "uint256",
          "name": "delRisky",
          "type": "uint256"
        },
        {
          "internalType": "uint256",
          "name": "delStable",
          "type": "uint256"
        },
        {
          "internalType": "bytes",
          "name": "data",
          "type": "bytes"
        }
      ],
      "name": "createCallback",
      "outputs": [],
      "stateMutability": "nonpayable",
      "type": "function"
    },
    {
      "inputs": [
        {
          "internalType": "uint256",
          "name": "delRisky",
          "type": "uint256"
        },
        {
          "internalType": "uint256",
          "name": "delStable",
          "type": "uint256"
        },
        {
          "internalType": "bytes",
          "name": "data",
          "type": "bytes"
        }
      ],
      "name": "swapCallback",
      "outputs": [],
      "stateMutability": "nonpayable",
      "type": "function"
    },
    {
      "inputs": [
        {
          "internalType": "uint128",
          "name": "_seed",
          "type": "uint128"
        }
      ],
      "name": "test_init",
      "outputs": [],
      "stateMutability": "nonpayable",
      "type": "function"
    },
    {
      "inputs": [
        {
          "internalType": "uint128",
          "name": "_amountIn",
          "type": "uint128"
        }
      ],
      "name": "test_reverse_swap",
      "outputs": [],
      "stateMutability": "nonpayable",
      "type": "function"
    },
    {
      "inputs": [
        {
          "internalType": "uint128",
          "name": "_amountIn",
          "type": "uint128"
        }
      ],
      "name": "test_swap_risky_in",
      "outputs": [],
      "stateMutability": "nonpayable",
      "type": "function"
    },
    {
      "inputs": [
        {
          "internalType": "uint128",
          "name": "_amountIn",
          "type": "uint128"
        }
      ],
      "name": "test_swap_stable_in",
      "outputs": [],
      "stateMutability": "nonpayable",
      "type": "function"
    }
  ],
  "bytecode": {
    "object": "0x6080604052600080546001600160a01b0319908116731dc4c1cefef38a777b15aa20260a54e584b16c4817909155600180548216731d7022f5b17d2f8b695918fb48fa1089c9f85401179055600280548216731e2f9e10d02a6b8f8f69fcbf515e75039d2ea30d179055600380548216730b1ba0af832d7c05fd64161e0db78e85978e80821790556004805490911673871dd7c2b4b25e1aa18728e9d5f2af4c4e431f5c179055670de0b6b3a7640000600a55348015620000bf57600080fd5b506000546040516340c10f1960e01b81523060048201526c01431e0fae6d7217caa000000060248201526001600160a01b03909116906340c10f1990604401600060405180830381600087803b1580156200011957600080fd5b505af11580156200012e573d6000803e3d6000fd5b50506001546040516340c10f1960e01b81523060048201526c01431e0fae6d7217caa000000060248201526001600160a01b0390911692506340c10f199150604401600060405180830381600087803b1580156200018b57600080fd5b505af1158015620001a0573d6000803e3d6000fd5b505050506158bc80620001b46000396000f3fe608060405234801561001057600080fd5b506004361061007d5760003560e01c8063852049921161005b57806385204992146100bd578063923b8a2a14610082578063c171d27e14610082578063d01e68aa146100d057600080fd5b8063151a8bf8146100825780632ddd643f14610097578063647603df146100aa575b600080fd5b6100956100903660046152bc565b6100e3565b005b6100956100a53660046151a6565b6100f3565b6100956100b83660046151a6565b610603565b6100956100cb3660046151a6565b610aaf565b6100956100de3660046151a6565b610ddb565b6100ed848461124f565b50505050565b6001600160801b03811661010657600080fd5b60065460ff16610119576101198161137a565b6000600560008154811061012f5761012f6157a0565b6000918252602082200154600480546040516311e2dca960e11b81529182018390529193508291829182916001600160a01b0316906323c5b9529060240160a06040518083038186803b15801561018557600080fd5b505afa158015610199573d6000803e3d6000fd5b505050506040513d601f19601f820116820180604052508101906101bd919061523c565b60048054604051622efc7960e21b81529182018c905295995093975091955090935060009283928392506001600160a01b039091169062bbf1e49060240160e06040518083038186803b15801561021357600080fd5b505afa158015610227573d6000803e3d6000fd5b505050506040513d601f19601f8201168201806040525081019061024b91906151c3565b5050505092509250925060008563ffffffff16600460009054906101000a90046001600160a01b03166001600160a01b03166316ada5476040518163ffffffff1660e01b815260040160206040518083038186803b1580156102ac57600080fd5b505afa1580156102c0573d6000803e3d6000fd5b505050506040513d601f19601f820116820180604052508101906102e491906152a3565b63ffffffff16116103785760048054604080516316ada54760e01b815290516001600160a01b03909216926316ada547928282019260209290829003018186803b15801561033157600080fd5b505afa158015610345573d6000803e3d6000fd5b505050506040513d601f19601f8201168201806040525081019061036991906152a3565b6103739087615671565b61037b565b60005b9050600061038d60018686868d6114bc565b905061039a60018261565a565b6103ad906001600160801b038d16615723565b6103b8906001615464565b9a505060006040518061014001604052808b81526020018c6001600160801b03168152602001866001600160801b03168152602001856001600160801b03168152602001846001600160801b031681526020018a6001600160801b031681526020018963ffffffff1681526020018763ffffffff1681526020018863ffffffff1681526020018363ffffffff1681525090506104588161010001516115a1565b6000610463826116c5565b6040805160c0810182528d81526020858101519082018190529181018390526000606082018190526080820152600160a08201529192506104a49083611bdd565b60208301516000546040516370a0823160e01b81523060048201526001600160a01b03909116906370a082319060240160206040518083038186803b1580156104ec57600080fd5b505afa158015610500573d6000803e3d6000fd5b505050506040513d601f19601f8201168201806040525081019061052491906152a3565b10156105955760005460208401516040516340c10f1960e01b815230600482015260248101919091526001600160a01b03909116906340c10f1990604401600060405180830381600087803b15801561057c57600080fd5b505af1158015610590573d6000803e3d6000fd5b505050505b61059e81611bf4565b6127108360e0015163ffffffff16106105b657600080fd5b506040805160c0810182528c81526020808201849052840151918101919091526000606082018190526080820181905260a08201526105f4816120db565b50505050505050505050505050565b6001600160801b03811661061657600080fd5b60065460ff16610629576106298161137a565b6000600560008154811061063f5761063f6157a0565b6000918252602082200154600480546040516311e2dca960e11b81529182018390529193508291829182916001600160a01b0316906323c5b9529060240160a06040518083038186803b15801561069557600080fd5b505afa1580156106a9573d6000803e3d6000fd5b505050506040513d601f19601f820116820180604052508101906106cd919061523c565b60048054604051622efc7960e21b81529182018c905295995093975091955090935060009283928392506001600160a01b039091169062bbf1e49060240160e06040518083038186803b15801561072357600080fd5b505afa158015610737573d6000803e3d6000fd5b505050506040513d601f19601f8201168201806040525081019061075b91906151c3565b5050505092509250925060008563ffffffff16600460009054906101000a90046001600160a01b03166001600160a01b03166316ada5476040518163ffffffff1660e01b815260040160206040518083038186803b1580156107bc57600080fd5b505afa1580156107d0573d6000803e3d6000fd5b505050506040513d601f19601f820116820180604052508101906107f491906152a3565b63ffffffff16116108885760048054604080516316ada54760e01b815290516001600160a01b03909216926316ada547928282019260209290829003018186803b15801561084157600080fd5b505afa158015610855573d6000803e3d6000fd5b505050506040513d601f19601f8201168201806040525081019061087991906152a3565b6108839087615671565b61088b565b60005b9050600061089d60018686868d6114bc565b90506108aa60018261565a565b6108bd906001600160801b038d16615723565b6108c8906001615464565b9a505060006040518061014001604052808b81526020018c6001600160801b03168152602001866001600160801b03168152602001856001600160801b03168152602001846001600160801b031681526020018a6001600160801b031681526020018963ffffffff1681526020018763ffffffff1681526020018863ffffffff1681526020018363ffffffff1681525090506109688161010001516115a1565b6000610973826116c5565b6040805160c0810182528d81526020858101519082018190529181018390526000606082018190526080820152600160a08201529192506109b49083611bdd565b60208301516000546040516370a0823160e01b81523060048201526001600160a01b03909116906370a082319060240160206040518083038186803b1580156109fc57600080fd5b505afa158015610a10573d6000803e3d6000fd5b505050506040513d601f19601f82011682018060405250810190610a3491906152a3565b1015610aa65760005460208401516040516340c10f1960e01b815230600482015260248101919091526001600160a01b03909116906340c10f19906044015b600060405180830381600087803b158015610a8d57600080fd5b505af1158015610aa1573d6000803e3d6000fd5b505050505b6105f481611bf4565b60065460ff16610ac257610ac28161137a565b6000600460009054906101000a90046001600160a01b03166001600160a01b03166316ada5476040518163ffffffff1660e01b815260040160206040518083038186803b158015610b1257600080fd5b505afa158015610b26573d6000803e3d6000fd5b505050506040513d601f19601f82011682018060405250810190610b4a91906152a3565b6007549091506001600160801b0316610b6557610b6561575e565b600754600160801b900463ffffffff16610b8157610b8161575e565b600754600160e01b900463ffffffff16610b9d57610b9d61575e565b60075463ffffffff808316600160a01b909204161015610bbf57610bbf61575e565b60075463ffffffff808316600160c01b909204161015610be157610be161575e565b600854610bf057610bf061575e565b610bf8612245565b6008541115610c0957610c0961575e565b60048054604080516321b77d6360e01b815290516001600160a01b03909216926321b77d63928282019260209290829003018186803b158015610c4b57600080fd5b505afa158015610c5f573d6000803e3d6000fd5b505050506040513d601f19601f82011682018060405250810190610c8391906152a3565b6009541015610c9457610c9461575e565b600554610ca357610ca361575e565b60008054600480546040516370a0823160e01b81526001600160a01b0391821692810192909252909116906370a082319060240160206040518083038186803b158015610cef57600080fd5b505afa158015610d03573d6000803e3d6000fd5b505050506040513d601f19601f82011682018060405250810190610d2791906152a3565b11610d3457610d3461575e565b600154600480546040516370a0823160e01b81526001600160a01b039182169281019290925260009216906370a082319060240160206040518083038186803b158015610d8057600080fd5b505afa158015610d94573d6000803e3d6000fd5b505050506040513d601f19601f82011682018060405250810190610db891906152a3565b11610dc557610dc561575e565b60065460ff16610dd757610dd761575e565b5050565b6001600160801b038116610dee57600080fd5b60065460ff16610e0157610e018161137a565b60006005600081548110610e1757610e176157a0565b6000918252602082200154600480546040516311e2dca960e11b81529182018390529193508291829182916001600160a01b0316906323c5b9529060240160a06040518083038186803b158015610e6d57600080fd5b505afa158015610e81573d6000803e3d6000fd5b505050506040513d601f19601f82011682018060405250810190610ea5919061523c565b60048054604051622efc7960e21b81529182018c905295995093975091955090935060009283928392506001600160a01b039091169062bbf1e49060240160e06040518083038186803b158015610efb57600080fd5b505afa158015610f0f573d6000803e3d6000fd5b505050506040513d601f19601f82011682018060405250810190610f3391906151c3565b5050505092509250925060008563ffffffff16600460009054906101000a90046001600160a01b03166001600160a01b03166316ada5476040518163ffffffff1660e01b815260040160206040518083038186803b158015610f9457600080fd5b505afa158015610fa8573d6000803e3d6000fd5b505050506040513d601f19601f82011682018060405250810190610fcc91906152a3565b63ffffffff16116110605760048054604080516316ada54760e01b815290516001600160a01b03909216926316ada547928282019260209290829003018186803b15801561101957600080fd5b505afa15801561102d573d6000803e3d6000fd5b505050506040513d601f19601f8201168201806040525081019061105191906152a3565b61105b9087615671565b611063565b60005b9050600061107560008686868d6114bc565b905061108260018261565a565b611095906001600160801b038d16615723565b6110a0906001615464565b9a505060006040518061014001604052808b81526020018c6001600160801b03168152602001866001600160801b03168152602001856001600160801b03168152602001846001600160801b031681526020018a6001600160801b031681526020018963ffffffff1681526020018763ffffffff1681526020018863ffffffff1681526020018363ffffffff1681525090506111408161010001516115a1565b600061114b826122dc565b6040805160c0810182528d81526020858101519082018190529181018390526000606082018190526080820181905260a082015291925061118c9083611bdd565b60208301516001546040516370a0823160e01b81523060048201526001600160a01b03909116906370a082319060240160206040518083038186803b1580156111d457600080fd5b505afa1580156111e8573d6000803e3d6000fd5b505050506040513d601f19601f8201168201806040525081019061120c91906152a3565b1015610aa65760015460208401516040516340c10f1960e01b815230600482015260248101919091526001600160a01b03909116906340c10f1990604401610a73565b81156112e3576000546004805460405163a9059cbb60e01b81526001600160a01b0391821692810192909252602482018590529091169063a9059cbb90604401602060405180830381600087803b1580156112a957600080fd5b505af11580156112bd573d6000803e3d6000fd5b505050506040513d601f19601f820116820180604052508101906112e19190615133565b505b8015610dd7576001546004805460405163a9059cbb60e01b81526001600160a01b0391821692810192909252602482018490529091169063a9059cbb90604401602060405180830381600087803b15801561133d57600080fd5b505af1158015611351573d6000803e3d6000fd5b505050506040513d601f19601f820116820180604052508101906113759190615133565b505050565b61138c816001600160801b0316612609565b80516007805460208401516040850151606086015160809096015163ffffffff908116600160e01b026001600160e01b03978216600160c01b0263ffffffff60c01b19938316600160a01b029390931667ffffffffffffffff60a01b1992909416600160801b026001600160a01b03199095166001600160801b039788161794909417169190911717939093169290921790915561142b90821661281d565b8051600881905560209091015160098190556007546000928392611470926001600160801b0381169063ffffffff600160801b8204811691600160a01b900416612a64565b9150915061147e8282612e26565b60085460095460408051600060208201526114aa93929101604051602081830303815290604052612ef2565b50506006805460ff1916600117905550565b6000851561153b576000836001600160801b0316866001600160801b0316670de0b6b3a76400006114ed9190615613565b6114f7919061547c565b9050670de0b6b3a7640000846001600160801b031682611515612245565b61151f919061565a565b6115299190615613565b611533919061547c565b915050611598565b6000836001600160801b0316856001600160801b0316670de0b6b3a76400006115649190615613565b61156e919061547c565b9050670de0b6b3a7640000846001600160801b031682856001600160801b031661151f919061565a565b95945050505050565b60048054604080516316ada54760e01b815290516001600160a01b03909216926316ada547928282019260209290829003018186803b1580156115e357600080fd5b505afa1580156115f7573d6000803e3d6000fd5b505050506040513d601f19601f8201168201806040525081019061161b91906152a3565b63ffffffff16600460009054906101000a90046001600160a01b03166001600160a01b0316638fbc3ecd6040518163ffffffff1660e01b815260040160206040518083038186803b15801561166f57600080fd5b505afa158015611683573d6000803e3d6000fd5b505050506040513d601f19601f820116820180604052508101906116a791906152a3565b6116b79063ffffffff8416615464565b10156116c257600080fd5b50565b600480548251604051632a37f65760e11b81529283015260009182916001600160a01b03169063546fecae9060240160206040518083038186803b15801561170c57600080fd5b505afa158015611720573d6000803e3d6000fd5b505050506040513d601f19601f820116820180604052508101906117449190615183565b90506000806000806127108760e0015163ffffffff1688602001516117699190615613565b611773919061547c565b905060008188604001516001600160801b03166117909190615464565b60808901519091506001600160801b03166117b382670de0b6b3a7640000615613565b6117bd919061547c565b93506118ee86600460009054906101000a90046001600160a01b03166001600160a01b03166355ebb8256040518163ffffffff1660e01b815260040160206040518083038186803b15801561181157600080fd5b505afa158015611825573d6000803e3d6000fd5b505050506040513d601f19601f8201168201806040525081019061184991906152a3565b60048054604080516326e8682b60e11b815290516001600160a01b0390921692634dd0d056928282019260209290829003018186803b15801561188b57600080fd5b505afa15801561189f573d6000803e3d6000fd5b505050506040513d601f19601f820116820180604052508101906118c391906152a3565b878c60a001516001600160801b03168d60c0015163ffffffff168e610120015163ffffffff166132fd565b92506118fb600184615464565b9250505085610120015163ffffffff1660001461191b576000821161191e565b60015b61192757600080fd5b61012086015163ffffffff16156119415760008111611944565b60015b61194d57600080fd5b60008054906101000a90046001600160a01b03166001600160a01b031663313ce5676040518163ffffffff1660e01b815260040160206040518083038186803b15801561199957600080fd5b505afa1580156119ad573d6000803e3d6000fd5b505050506040513d601f19601f820116820180604052508101906119d1919061533c565b6119dc90600a6154d3565b8211156119e857600080fd5b8560a001516001600160801b0316811115611a0257600080fd5b60048054604080516355ebb82560e01b81529051600093611b26936001600160a01b0316926355ebb8259281830192602092829003018186803b158015611a4857600080fd5b505afa158015611a5c573d6000803e3d6000fd5b505050506040513d601f19601f82011682018060405250810190611a8091906152a3565b60048054604080516326e8682b60e11b815290516001600160a01b0390921692634dd0d056928282019260209290829003018186803b158015611ac257600080fd5b505afa158015611ad6573d6000803e3d6000fd5b505050506040513d601f19601f82011682018060405250810190611afa91906152a3565b85858b60a001516001600160801b03168c60c0015163ffffffff168d610120015163ffffffff166133d6565b60408051600f88810b825283900b60208201529192507f2da57f3a517eedfbd54369f19cd786b65cae8381109e5da4e8d9eaf04d33d9d9910160405180910390a184600f0b81600f0b1215611b7d57611b7d61575e565b6000670de0b6b3a764000088608001516001600160801b031684611ba19190615613565b611bab919061547c565b611bb6906001615464565b90508088606001516001600160801b0316611bd1919061565a565b98975050505050505050565b8115801590611beb57508015155b610dd757600080fd5b600480548251604051632a37f65760e11b8152928301526000916001600160a01b039091169063546fecae9060240160206040518083038186803b158015611c3b57600080fd5b505afa158015611c4f573d6000803e3d6000fd5b505050506040513d601f19601f82011682018060405250810190611c739190615183565b600480548451604051622efc7960e21b81529283015291925060009182916001600160a01b039091169062bbf1e49060240160e06040518083038186803b158015611cbd57600080fd5b505afa158015611cd1573d6000803e3d6000fd5b505050506040513d601f19601f82011682018060405250810190611cf591906151c3565b5050505050915091508360a00151611d1d578360400151826001600160801b03161015611d2f565b8360400151816001600160801b031610155b611d3857600080fd5b600454845160a08601516020808801516040808a015160608b015160808c0151835160008188015284518082039097018752808501948590526365147e6b60e11b9094526001600160a01b039098169763ca28fcd697611da6973097919690959094939291906044016153ac565b600060405180830381600087803b158015611dc057600080fd5b505af1925050508015611dd1575060015b6120c657611ddd6157b6565b806308c379a01415611e3a5750611df26157d2565b80611dfd5750611e88565b7f2c0f4f3a33cfdd0592423e24e4094c78732fbc83c4729a87c9ab14322f42380881604051611e2c91906153f8565b60405180910390a1506100ed565b634e487b711415611e8857611e4d615851565b90611e585750611e88565b6040518181527fad2265aeced38618141a623b4c2d20af0427c56fdf12284b7f4b2a367e3cc3e490602001611e2c565b3d808015611eb2576040519150601f19603f3d011682016040523d82523d6000602084013e611eb7565b606091505b50611ec1816156b1565b6001600160e01b031916630cd4424b60e41b1415611f45577f2c0f4f3a33cfdd0592423e24e4094c78732fbc83c4729a87c9ab14322f423808604051611f38906020808252601d908201527f496e76617269616e744572726f7228696e743132382c696e7431323829000000604082015260600190565b60405180910390a161204b565b611f4e816156b1565b6001600160e01b03191663536e15e160e01b1415611fb8577f2c0f4f3a33cfdd0592423e24e4094c78732fbc83c4729a87c9ab14322f423808604051611f389060208082526010908201526f2837b7b622bc3834b932b222b93937b960811b604082015260600190565b805160208201206040517f76d1c45846cf090b90a48f3a3d71155ddadc16e4dc401b3f7fa562a061cb835891611ff19190815260200190565b60405180910390a17fc06ef77baed42f87ee4e1b15a7e4972204315735f27152095174054eaf909f46604051612042906020808252600790820152662ab735b737bbb760c91b604082015260600190565b60405180910390a15b845160a0808701516020808901516040808b01518151968752931515928601929092526001600160801b038881168684015287166060860152608085015291830152517f21d955c0982871fd925b13f87b4dcab015c2db1b1d59c2d9e74960a9a957b4949181900360c00190a16120c061575e565b506100ed565b6100ed84600001518560a00151858585613415565b600480548251604051622efc7960e21b81529283015260009182916001600160a01b03169062bbf1e49060240160e06040518083038186803b15801561212057600080fd5b505afa158015612134573d6000803e3d6000fd5b505050506040513d601f19601f8201168201806040525081019061215891906151c3565b5050505050915091508260a00151612180578260400151826001600160801b03161015612192565b8260400151816001600160801b031610155b61219b57600080fd5b600454835160a085015160208087015160408089015160608a015160808b0151835160008188015284518082039097018752808501948590526365147e6b60e11b9094526001600160a01b039098169763ca28fcd697612209973097919690959094939291906044016153ac565b600060405180830381600087803b15801561222357600080fd5b505af1925050508015612234575060015b61223d57505050565b61137561575e565b60008060009054906101000a90046001600160a01b03166001600160a01b031663313ce5676040518163ffffffff1660e01b815260040160206040518083038186803b15801561229457600080fd5b505afa1580156122a8573d6000803e3d6000fd5b505050506040513d601f19601f820116820180604052508101906122cc919061533c565b6122d790600a6154d3565b905090565b600480548251604051632a37f65760e11b81529283015260009182916001600160a01b03169063546fecae9060240160206040518083038186803b15801561232357600080fd5b505afa158015612337573d6000803e3d6000fd5b505050506040513d601f19601f8201168201806040525081019061235b9190615183565b90506000806000806127108760e0015163ffffffff1688602001516123809190615613565b61238a919061547c565b905060008188606001516001600160801b03166123a79190615464565b60808901519091506001600160801b03166123ca82670de0b6b3a7640000615613565b6123d4919061547c565b9250612404838960a001516001600160801b03168a60c0015163ffffffff168b610120015163ffffffff16613793565b9350612411600185615464565b9350505085610120015163ffffffff166000146124315760008211612434565b60015b61243d57600080fd5b61012086015163ffffffff1615612457576000811161245a565b60015b61246357600080fd5b60008054906101000a90046001600160a01b03166001600160a01b031663313ce5676040518163ffffffff1660e01b815260040160206040518083038186803b1580156124af57600080fd5b505afa1580156124c3573d6000803e3d6000fd5b505050506040513d601f19601f820116820180604052508101906124e7919061533c565b6124f290600a6154d3565b8211156124fe57600080fd5b8560a001516001600160801b031681111561251857600080fd5b60048054604080516355ebb82560e01b8152905160009361255e936001600160a01b0316926355ebb8259281830192602092829003018186803b158015611a4857600080fd5b60408051600f88810b825283900b60208201529192507f2da57f3a517eedfbd54369f19cd786b65cae8381109e5da4e8d9eaf04d33d9d9910160405180910390a184600f0b81600f0b12156125b5576125b561575e565b6000670de0b6b3a764000088608001516001600160801b0316856125d99190615613565b6125e3919061547c565b6125ee906001615464565b90508088604001516001600160801b0316611bd1919061565a565b6040805160a0810182526000808252602082018190529181018290526060810182905260808101919091526040805160c081018252670de0b6b3a764000080825269021e19e0c9bab240000060208301819052606493830193909352629896806060830152612328608083015261271060a0830152909161268a9190615632565b61269d906001600160801b031684615723565b81516126b291906001600160801b0316615464565b6001600160801b03168252604081015160608201516126d19190615671565b6126e19063ffffffff1684615723565b816040015163ffffffff166126f69190615464565b63ffffffff166020830152608081015160a08201516127159190615671565b6127259063ffffffff1684615723565b816080015163ffffffff1661273a9190615464565b63ffffffff90811660808401526001906127549085615723565b61275e919061565a565b61276c906301e18558615464565b63ffffffff166040808401919091526004805482516316ada54760e01b815292516001600160a01b03909116926316ada5479281810192602092909190829003018186803b1580156127bd57600080fd5b505afa1580156127d1573d6000803e3d6000fd5b505050506040513d601f19601f820116820180604052508101906127f591906152a3565b63ffffffff908116606084018190526040840151909116101561281757600080fd5b50919050565b6040805180820190915260008082526020820152600060405180608001604052806001815260200161284d612245565b8152602001600460009054906101000a90046001600160a01b03166001600160a01b03166321b77d636040518163ffffffff1660e01b815260040160206040518083038186803b1580156128a057600080fd5b505afa1580156128b4573d6000803e3d6000fd5b505050506040513d601f19601f820116820180604052508101906128d891906152a3565b815267ffffffffffffffff6020918201528151908201519192506128fb9161565a565b6129059084615723565b81516129119190615464565b825260408101516060820151612927919061565a565b6129319084615723565b81604001516129409190615464565b60208301818152600a5491612956908390615464565b90525060048054604080516355ebb82560e01b815290516001600160a01b03909216926355ebb825928282019260209290829003018186803b15801561299b57600080fd5b505afa1580156129af573d6000803e3d6000fd5b505050506040513d601f19601f820116820180604052508101906129d391906152a3565b600480546040805163155ebd6d60e31b815290516001600160a01b039092169263aaf5eb68928282019260209290829003018186803b158015612a1557600080fd5b505afa158015612a29573d6000803e3d6000fd5b505050506040513d601f19601f82011682018060405250810190612a4d91906152a3565b612a57919061547c565b8251111561281757600080fd5b6000806000600460009054906101000a90046001600160a01b03166001600160a01b03166355ebb8256040518163ffffffff1660e01b815260040160206040518083038186803b158015612ab757600080fd5b505afa158015612acb573d6000803e3d6000fd5b505050506040513d601f19601f82011682018060405250810190612aef91906152a3565b90506000600460009054906101000a90046001600160a01b03166001600160a01b0316634dd0d0566040518163ffffffff1660e01b815260040160206040518083038186803b158015612b4157600080fd5b505afa158015612b55573d6000803e3d6000fd5b505050506040513d601f19601f82011682018060405250810190612b7991906152a3565b90506000600460009054906101000a90046001600160a01b03166001600160a01b03166316ada5476040518163ffffffff1660e01b815260040160206040518083038186803b158015612bcb57600080fd5b505afa158015612bdf573d6000803e3d6000fd5b505050506040513d601f19601f82011682018060405250810190612c0391906152a3565b612c0d9087615671565b905082600460009054906101000a90046001600160a01b03166001600160a01b031663aaf5eb686040518163ffffffff1660e01b815260040160206040518083038186803b158015612c5e57600080fd5b505afa158015612c72573d6000803e3d6000fd5b505050506040513d601f19601f82011682018060405250810190612c9691906152a3565b612ca0919061547c565b8a1115612cac57600080fd5b612cd1600084848d8c6001600160801b03168c63ffffffff168763ffffffff166132fd565b9350600460009054906101000a90046001600160a01b03166001600160a01b031663aaf5eb686040518163ffffffff1660e01b815260040160206040518083038186803b158015612d2157600080fd5b505afa158015612d35573d6000803e3d6000fd5b505050506040513d601f19601f82011682018060405250810190612d5991906152a3565b612d638a8c615613565b612d6d919061547c565b945060008511612d7c57600080fd5b600480546040805163155ebd6d60e31b815290516001600160a01b039092169263aaf5eb68928282019260209290829003018186803b158015612dbe57600080fd5b505afa158015612dd2573d6000803e3d6000fd5b505050506040513d601f19601f82011682018060405250810190612df691906152a3565b612e008a86615613565b612e0a919061547c565b935060008411612e1957600080fd5b5050509550959350505050565b6000546040516340c10f1960e01b8152306004820152602481018490526001600160a01b03909116906340c10f1990604401600060405180830381600087803b158015612e7257600080fd5b505af1158015612e86573d6000803e3d6000fd5b50506001546040516340c10f1960e01b8152306004820152602481018590526001600160a01b0390911692506340c10f199150604401600060405180830381600087803b158015612ed657600080fd5b505af1158015612eea573d6000803e3d6000fd5b505050505050565b60075460048054604051635f003b1d60e11b81526001600160801b0384169363ffffffff600160801b8204811694600160a01b8304821694600160e01b909304909116926001600160a01b039092169163be00763a91612f609188918891889188918f918f918f910161540b565b606060405180830381600087803b158015612f7a57600080fd5b505af1925050508015612faa575060408051601f3d908101601f19168201909252612fa791810190615155565b60015b61302057604080516001600160801b038616815263ffffffff858116602083015284811682840152831660608201526080810189905260a0810188905290517fb007c2086a57ce11103effda8842f7cb2dcdc552b3648282eddaae3e0fb8db4e9181900360c00190a161301b61575e565b6132f4565b505060045460405160609190911b6bffffffffffffffffffffffff19166020820152608086901b6fffffffffffffffffffffffffffffffff1916603482015260e085811b6001600160e01b0319908116604484015285821b811660488401529084901b16604c8201526000915060500160408051808303601f190181529082905280516020909101206005805460018101825560009182527f036b6384b5eca791c62761152d0c79bb0604c104a5fb6f4eb0703f3154bb3db001829055600480546311e2dca960e11b85529084018390529193509182918291829182916001600160a01b03909116906323c5b9529060240160a06040518083038186803b15801561312a57600080fd5b505afa15801561313e573d6000803e3d6000fd5b505050506040513d601f19601f82011682018060405250810190613162919061523c565b94509450945094509450600460009054906101000a90046001600160a01b03166001600160a01b03166316ada5476040518163ffffffff1660e01b815260040160206040518083038186803b1580156131ba57600080fd5b505afa1580156131ce573d6000803e3d6000fd5b505050506040513d601f19601f820116820180604052508101906131f291906152a3565b8263ffffffff16146132065761320661575e565b8663ffffffff168163ffffffff16146132215761322161575e565b896001600160801b0316856001600160801b0316146132425761324261575e565b8863ffffffff168463ffffffff161461325d5761325d61575e565b8763ffffffff168363ffffffff16146132785761327861575e565b60408051878152602081018f90529081018d90526001600160801b038616606082015263ffffffff808616608083015280851660a083015280831660c0830152831660e08201527fbf97000a7d2027e718b9bfcf3ff0481b3b2d127e9542d0089a45619c0f6d6d6d906101000160405180910390a15050505050505b50505050505050565b60008061330a85886139fd565b90506000613318878a6139fd565b9050600061332a600160401b83613a26565b905084156133a657600061333e8787613a63565b9050600061334e83600f0b613a97565b90506000613360600f83900b84613a26565b9050600061338b8f61338261337785600f0b613b5c565b600f8b900b90613c07565b600f0b90613c3d565b905061339b600f82900b8e613c70565b9750505050506133c8565b6133c5896133bc8d613382600f88900b86613c07565b600f0b90613c70565b93505b505050979650505050505050565b6000806133e960008a8a8a8989896132fd565b905060006133f7828a6139fd565b90506000613405888b6139fd565b90506133c5600f82900b83613a26565b600480546040516311e2dca960e11b815291820187905260009182916001600160a01b0316906323c5b9529060240160a06040518083038186803b15801561345c57600080fd5b505afa158015613470573d6000803e3d6000fd5b505050506040513d601f19601f82011682018060405250810190613494919061523c565b50935093505050600460009054906101000a90046001600160a01b03166001600160a01b03166316ada5476040518163ffffffff1660e01b815260040160206040518083038186803b1580156134e957600080fd5b505afa1580156134fd573d6000803e3d6000fd5b505050506040513d601f19601f8201168201806040525081019061352191906152a3565b8263ffffffff161161354d578163ffffffff168163ffffffff16146135485761354861575e565b6135db565b60048054604080516316ada54760e01b815290516001600160a01b03909216926316ada547928282019260209290829003018186803b15801561358f57600080fd5b505afa1580156135a3573d6000803e3d6000fd5b505050506040513d601f19601f820116820180604052508101906135c791906152a3565b8163ffffffff16146135db576135db61575e565b60048054604051632a37f65760e11b81529182018990526000916001600160a01b039091169063546fecae9060240160206040518083038186803b15801561362257600080fd5b505afa158015613636573d6000803e3d6000fd5b505050506040513d601f19601f8201168201806040525081019061365a9190615183565b905085600f0b81600f0b12156136725761367261575e565b60048054604051622efc7960e21b81529182018a905260009182916001600160a01b03169062bbf1e49060240160e06040518083038186803b1580156136b757600080fd5b505afa1580156136cb573d6000803e3d6000fd5b505050506040513d601f19601f820116820180604052508101906136ef91906151c3565b505050505091509150881561374557866001600160801b0316826001600160801b03161161371f5761371f61575e565b856001600160801b0316816001600160801b0316106137405761374061575e565b613787565b866001600160801b0316826001600160801b0316106137665761376661575e565b856001600160801b0316816001600160801b0316116137875761378761575e565b50505050505050505050565b60048054604080516355ebb82560e01b8152905160009384936001600160a01b0316926355ebb8259281830192602092829003018186803b1580156137d757600080fd5b505afa1580156137eb573d6000803e3d6000fd5b505050506040513d601f19601f8201168201806040525081019061380f91906152a3565b90506000600460009054906101000a90046001600160a01b03166001600160a01b0316634dd0d0566040518163ffffffff1660e01b815260040160206040518083038186803b15801561386157600080fd5b505afa158015613875573d6000803e3d6000fd5b505050506040513d601f19601f8201168201806040525081019061389991906152a3565b6040805160c08101825284815260208101839052908101899052606081018890526080810187905260a001859052600b839055600c819055600d889055600e879055600f8690556010859055905060006138f1613c95565b905060008060009054906101000a90046001600160a01b03166001600160a01b031663313ce5676040518163ffffffff1660e01b815260040160206040518083038186803b15801561394257600080fd5b505afa158015613956573d6000803e3d6000fd5b505050506040513d601f19601f8201168201806040525081019061397a919061533c565b61398590600a6154d3565b9050600061399283613d1d565b905060006139a86139a3858561565a565b613d1d565b905060008083600f0b12156139c457600082600f0b12156139cc565b600082600f0b125b156139eb576139e4856139df818761565a565b613d73565b90506139ee565b50825b9b9a5050505050505050505050565b600080613a1283670de0b6b3a764000061547c565b9050613a1e8482613e24565b949350505050565b6000600f82810b9084900b0360016001607f1b03198112801590613a51575060016001607f1b038113155b613a5a57600080fd5b90505b92915050565b600080613a7a613a7284613e5b565b600f0b613e6b565b90506000613a8785613e8d565b9050611598600f82900b83613c07565b6000600160401b600f83900b121580613ab45750600082600f0b13155b15613adc57604051630e59931d60e31b8152600f83900b600482015260240160405180910390fd5b67f999999999999999600f83900b13801590613b045750670666666666666666600f83900b12155b15613b1257613a5d82613e9b565b670666666666666666600f83900b1215613b2f57613a5d82613f42565b6000613b47613b42600160401b85613a26565b613f42565b613b5090615737565b9392505050565b919050565b600080613b76600f84900b68016a09e667f3bcc90861400c565b90506000613bb4613ba9613b9e613b8f85600f0b614064565b6753dd02a4f5ee2e4690613c07565b600160401b90613c3d565b600160401b9061400c565b90506000613bc28383614097565b9050600083600f0b1215613bdf57613bdc81600f0b614167565b90505b6000613bfd613bf2600160401b84613c3d565b6001603f1b90613c07565b9695505050505050565b6000600f83810b9083900b0260401d60016001607f1b03198112801590613a51575060016001607f1b03811315613a5a57600080fd5b6000600f83810b9083900b0160016001607f1b03198112801590613a51575060016001607f1b03811315613a5a57600080fd5b600080613c8583670de0b6b3a764000061547c565b9050613a1e600f85900b82614182565b600080546040805163313ce56760e01b815290516005926001600160a01b03169163313ce567916004808301926020929190829003018186803b158015613cdb57600080fd5b505afa158015613cef573d6000803e3d6000fd5b505050506040513d601f19601f82011682018060405250810190613d13919061533c565b6122cc919061568e565b6040805160c081018252600b54808252600c5460208301819052600d54938301849052600e5460608401819052600f546080850181905260105460a08601819052600096613b50959493899391929091906133d6565b600080613d7f83613d1d565b613d8885613d1d565b613d92919061557e565b600f0b12613d9f57600080fd5b6000613da96141ea565b9050838084035b828110613e1b576002613dc38688615464565b613dcd919061547c565b9150613dd882613d1d565b600f0b613de457613e1b565b6000613def87613d1d565b613df884613d1d565b613e02919061557e565b600f0b1215613e1357819450613db0565b819550613db0565b50949350505050565b600081613e3057600080fd5b6000613e3c8484614230565b905060016001607f1b036001600160801b0382161115613a5a57600080fd5b6000613a5d826301e18558613e24565b60008082600f0b1215613e7d57600080fd5b613a5d604083600f0b901b614392565b6000613a5d82612710613e24565b600080613eb0600f84900b6001603f1b613a26565b90506000613ec2600f83900b83613c07565b90506000611598613f37613f27613eff6721d0a04b0e9b94f1613382613ef167c2bf5d74c724e53e1989613c07565b613382600f8a900b8a613c07565b613f1e6726a8f3c1f21b336e6133826787c57e5da70d3c8f1989613c07565b600f0b9061400c565b68015d71f5721242c78790613c3d565b600f85900b90613c07565b600080613f64613a72613f5c613ba9600f87900b87613c07565b600f0b614500565b90506000613f886707a1e70f720eca436133826801000bf627fa1884101985613c07565b90506000613fac6810aeac93f55267a9a561338268041ed34a256149023686613c07565b90506000613fe168072c7d592d021fb1db613382613fd36808c27b4617f5f800ea88613c07565b613382600f89900b89613c07565b90506000614001613ff6600f85900b8461400c565b600f86900b90613c3d565b979650505050505050565b600081600f0b6000141561401f57600080fd5b600082600f0b604085600f0b901b8161403a5761403a61578a565b05905060016001607f1b03198112801590613a51575060016001607f1b03811315613a5a57600080fd5b6000600f82900b60016001607f1b0319141561407f57600080fd5b600082600f0b126140905781613a5d565b5060000390565b6000806140e9613f376140d96140ce6140bd600f88900b68010fb844255a12d72e613c07565b68017401c57014c38f131990613c3d565b600f87900b90613c07565b68016a09e667f3bcc90890613c3d565b905060006141156141066140ce6748d4c730f051a5fd1985613c3d565b67413c831bb169f87490613c3d565b90506000613bfd61415c61415161414661413e614136600f8c900b8c613c07565b600f0b614167565b600f0b61453a565b600f86900b90613c07565b600f88900b90613c07565b600160401b90613a26565b6000600f82900b60016001607f1b0319141561409057600080fd5b60008161419157506000613a5d565b600083600f0b12156141a257600080fd5b600f83900b6001600160801b038316810260401c90608084901c026001600160c01b038111156141d157600080fd5b60401b81198111156141e257600080fd5b019392505050565b600080546040805163313ce56760e01b815290516003926001600160a01b03169163313ce567916004808301926020929190829003018186803b158015613cdb57600080fd5b60008161423c57600080fd5b60006001600160c01b0384116142675782604085901b8161425f5761425f61578a565b04905061437e565b60c084811c6401000000008110614280576020918201911c5b620100008110614292576010918201911c5b61010081106142a3576008918201911c5b601081106142b3576004918201911c5b600481106142c3576002918201911c5b600281106142d2576001820191505b60bf820360018603901c6001018260ff0387901b816142f3576142f361578a565b0492506001600160801b0383111561430a57600080fd5b608085901c83026001600160801b038616840260c088901c604089901b82811015614336576001820391505b608084901b9290038281101561434d576001820391505b829003608084901c82146143635761436361575e565b8881816143725761437261578a565b04870196505050505050505b6001600160801b03811115613a5a57600080fd5b6000816143a157506000919050565b816001600160801b82106143ba5760809190911c9060401b5b600160401b82106143d05760409190911c9060201b5b64010000000082106143e75760209190911c9060101b5b6201000082106143fc5760109190911c9060081b5b61010082106144105760089190911c9060041b5b601082106144235760049190911c9060021b5b6008821061442f5760011b5b60018185816144405761444061578a565b048201901c905060018185816144585761445861578a565b048201901c905060018185816144705761447061578a565b048201901c905060018185816144885761448861578a565b048201901c905060018185816144a0576144a061578a565b048201901c905060018185816144b8576144b861578a565b048201901c905060018185816144d0576144d061578a565b048201901c905060008185816144e8576144e861578a565b0490508082106144f85780611598565b509392505050565b60008082600f0b1361451157600080fd5b608061451c8361458f565b600f0b6fb17217f7d1cf79abc9e3b39803f2f6af02901c9050919050565b6000600160461b82600f0b1261454f57600080fd5b683fffffffffffffffff1982600f0b121561456c57506000919050565b613a5d608083600f0b700171547652b82fe1777d0ffda0d23a7d1202901d61466a565b60008082600f0b136145a057600080fd5b6000600f83900b600160401b81126145ba576040918201911d5b64010000000081126145ce576020918201911d5b6201000081126145e0576010918201911d5b61010081126145f1576008918201911d5b60108112614601576004918201911d5b60048112614611576002918201911d5b60028112614620576001820191505b603f19820160401b600f85900b607f8490031b6001603f1b5b600081131561465f5790800260ff81901c8281029390930192607f011c9060011d614639565b509095945050505050565b6000600160461b82600f0b1261467f57600080fd5b683fffffffffffffffff1982600f0b121561469c57506000919050565b6001607f1b60006001603f1b8416600f0b13156146ca5770016a09e667f3bcc908b2fb1366ea957d3e0260801c5b60008367400000000000000016600f0b13156146f7577001306fe0a31b7152de8d5a46305c85edec0260801c5b60008367200000000000000016600f0b1315614724577001172b83c7d517adcdf7c8c50eb14a791f0260801c5b60008367100000000000000016600f0b13156147515770010b5586cf9890f6298b92b71842a983630260801c5b60008367080000000000000016600f0b131561477e577001059b0d31585743ae7c548eb68ca417fd0260801c5b60008367040000000000000016600f0b13156147ab57700102c9a3e778060ee6f7caca4f7a29bde80260801c5b60008367020000000000000016600f0b13156147d85770010163da9fb33356d84a66ae336dcdfa3f0260801c5b60008367010000000000000016600f0b131561480557700100b1afa5abcbed6129ab13ec11dc95430260801c5b600083668000000000000016600f0b13156148315770010058c86da1c09ea1ff19d294cf2f679b0260801c5b600083664000000000000016600f0b131561485d577001002c605e2e8cec506d21bfc89a23a00f0260801c5b600083662000000000000016600f0b131561488957700100162f3904051fa128bca9c55c31e5df0260801c5b600083661000000000000016600f0b13156148b5577001000b175effdc76ba38e31671ca9397250260801c5b600083660800000000000016600f0b13156148e157700100058ba01fb9f96d6cacd4b180917c3d0260801c5b600083660400000000000016600f0b131561490d5770010002c5cc37da9491d0985c348c68e7b30260801c5b600083660200000000000016600f0b1315614939577001000162e525ee054754457d59952920260260801c5b600083660100000000000016600f0b13156149655770010000b17255775c040618bf4a4ade83fc0260801c5b6000836580000000000016600f0b1315614990577001000058b91b5bc9ae2eed81e9b7d4cfab0260801c5b6000836540000000000016600f0b13156149bb57700100002c5c89d5ec6ca4d7c8acc017b7c90260801c5b6000836520000000000016600f0b13156149e65770010000162e43f4f831060e02d839a9d16d0260801c5b6000836510000000000016600f0b1315614a1157700100000b1721bcfc99d9f890ea069117630260801c5b6000836508000000000016600f0b1315614a3c5770010000058b90cf1e6d97f9ca14dbcc16280260801c5b6000836504000000000016600f0b1315614a67577001000002c5c863b73f016468f6bac5ca2b0260801c5b6000836502000000000016600f0b1315614a9257700100000162e430e5a18f6119e3c02282a50260801c5b6000836501000000000016600f0b1315614abd577001000000b1721835514b86e6d96efd1bfe0260801c5b60008364800000000016600f0b1315614ae757700100000058b90c0b48c6be5df846c5b2ef0260801c5b60008364400000000016600f0b1315614b115770010000002c5c8601cc6b9e94213c72737a0260801c5b60008364200000000016600f0b1315614b3b577001000000162e42fff037df38aa2b219f060260801c5b60008364100000000016600f0b1315614b655770010000000b17217fba9c739aa5819f44f90260801c5b60008364080000000016600f0b1315614b8f577001000000058b90bfcdee5acd3c1cedc8230260801c5b60008364040000000016600f0b1315614bb957700100000002c5c85fe31f35a6a30da1be500260801c5b60008364020000000016600f0b1315614be35770010000000162e42ff0999ce3541b9fffcf0260801c5b60008364010000000016600f0b1315614c0d57700100000000b17217f80f4ef5aadda455540260801c5b600083638000000016600f0b1315614c365770010000000058b90bfbf8479bd5a81b51ad0260801c5b600083634000000016600f0b1315614c5f577001000000002c5c85fdf84bd62ae30a74cc0260801c5b600083632000000016600f0b1315614c8857700100000000162e42fefb2fed257559bdaa0260801c5b600083631000000016600f0b1315614cb1577001000000000b17217f7d5a7716bba4a9ae0260801c5b600083630800000016600f0b1315614cda57700100000000058b90bfbe9ddbac5e109cce0260801c5b600083630400000016600f0b1315614d035770010000000002c5c85fdf4b15de6f17eb0d0260801c5b600083630200000016600f0b1315614d2c577001000000000162e42fefa494f1478fde050260801c5b600083630100000016600f0b1315614d555770010000000000b17217f7d20cf927c8e94c0260801c5b6000836280000016600f0b1315614d7d577001000000000058b90bfbe8f71cb4e4b33d0260801c5b6000836240000016600f0b1315614da557700100000000002c5c85fdf477b662b269450260801c5b6000836220000016600f0b1315614dcd5770010000000000162e42fefa3ae53369388c0260801c5b6000836210000016600f0b1315614df557700100000000000b17217f7d1d351a389d400260801c5b6000836208000016600f0b1315614e1d5770010000000000058b90bfbe8e8b2d3d4ede0260801c5b6000836204000016600f0b1315614e45577001000000000002c5c85fdf4741bea6e77e0260801c5b6000836202000016600f0b1315614e6d57700100000000000162e42fefa39fe95583c20260801c5b6000836201000016600f0b1315614e95577001000000000000b17217f7d1cfb72b45e10260801c5b60008361800016600f0b1315614ebc57700100000000000058b90bfbe8e7cc35c3f00260801c5b60008361400016600f0b1315614ee35770010000000000002c5c85fdf473e242ea380260801c5b60008361200016600f0b1315614f0a577001000000000000162e42fefa39f02b772c0260801c5b60008361100016600f0b1315614f315770010000000000000b17217f7d1cf7d83c1a0260801c5b60008361080016600f0b1315614f58577001000000000000058b90bfbe8e7bdcbe2e0260801c5b60008361040016600f0b1315614f7f57700100000000000002c5c85fdf473dea871f0260801c5b60008361020016600f0b1315614fa65770010000000000000162e42fefa39ef44d910260801c5b60008361010016600f0b1315614fcd57700100000000000000b17217f7d1cf79e9490260801c5b600083608016600f0b1315614ff35770010000000000000058b90bfbe8e7bce5440260801c5b600083604016600f0b1315615019577001000000000000002c5c85fdf473de6eca0260801c5b600083602016600f0b131561503f57700100000000000000162e42fefa39ef366f0260801c5b600083601016600f0b1315615065577001000000000000000b17217f7d1cf79afa0260801c5b600083600816600f0b131561508b57700100000000000000058b90bfbe8e7bcd6d0260801c5b600083600416600f0b13156150b15770010000000000000002c5c85fdf473de6b20260801c5b600083600216600f0b13156150d7577001000000000000000162e42fefa39ef3580260801c5b600083600116600f0b13156150fd5770010000000000000000b17217f7d1cf79ab0260801c5b600f83810b60401d603f03900b1c60016001607f1b03811115613a5d57600080fd5b805163ffffffff81168114613b5757600080fd5b60006020828403121561514557600080fd5b81518015158114613a5a57600080fd5b60008060006060848603121561516a57600080fd5b8351925060208401519150604084015190509250925092565b60006020828403121561519557600080fd5b815180600f0b8114613a5a57600080fd5b6000602082840312156151b857600080fd5b8135613a5a81615871565b600080600080600080600060e0888a0312156151de57600080fd5b87516151e981615871565b60208901519097506151fa81615871565b604089015190965061520b81615871565b94506152196060890161511f565b93506080880151925060a0880151915060c0880151905092959891949750929550565b600080600080600060a0868803121561525457600080fd5b855161525f81615871565b945061526d6020870161511f565b935061527b6040870161511f565b92506152896060870161511f565b91506152976080870161511f565b90509295509295909350565b6000602082840312156152b557600080fd5b5051919050565b600080600080606085870312156152d257600080fd5b8435935060208501359250604085013567ffffffffffffffff808211156152f857600080fd5b818701915087601f83011261530c57600080fd5b81358181111561531b57600080fd5b88602082850101111561532d57600080fd5b95989497505060200194505050565b60006020828403121561534e57600080fd5b815160ff81168114613a5a57600080fd5b6000815180845260005b8181101561538557602081850181015186830182015201615369565b81811115615397576000602083870101525b50601f01601f19169290920160200192915050565b600061010060018060a01b038b168352896020840152881515604084015287606084015286608084015285151560a084015284151560c08401528060e08401526139ee8184018561535f565b602081526000613b50602083018461535f565b6001600160801b0388168152600063ffffffff808916602084015280881660408401528087166060840152508460808301528360a083015260e060c083015261545760e083018461535f565b9998505050505050505050565b6000821982111561547757615477615774565b500190565b60008261548b5761548b61578a565b500490565b600181815b808511156154cb5781600019048211156154b1576154b1615774565b808516156154be57918102915b93841c9390800290615495565b509250929050565b6000613b5060ff8416836000826154ec57506001613a5d565b816154f957506000613a5d565b816001811461550f576002811461551957615535565b6001915050613a5d565b60ff84111561552a5761552a615774565b50506001821b613a5d565b5060208310610133831016604e8410600b8410161715615558575081810a613a5d565b6155628383615490565b806000190482111561557657615576615774565b029392505050565b600081600f0b83600f0b60016001607f1b036000821360008413838304851182821616156155ae576155ae615774565b60016001607f1b031960008512828116878305871216156155d1576155d1615774565b600087129250858205871284841616156155ed576155ed615774565b8585058712818416161561560357615603615774565b5050509290910295945050505050565b600081600019048311821515161561562d5761562d615774565b500290565b60006001600160801b038381169083168181101561565257615652615774565b039392505050565b60008282101561566c5761566c615774565b500390565b600063ffffffff8381169083168181101561565257615652615774565b600060ff821660ff8416808210156156a8576156a8615774565b90039392505050565b805160208201516001600160e01b031980821692919060048310156156e05780818460040360031b1b83161693505b505050919050565b601f8201601f1916810167ffffffffffffffff8111828210171561571c57634e487b7160e01b600052604160045260246000fd5b6040525050565b6000826157325761573261578a565b500690565b600081600f0b60016001607f1b031981141561575557615755615774565b60000392915050565b634e487b7160e01b600052600160045260246000fd5b634e487b7160e01b600052601160045260246000fd5b634e487b7160e01b600052601260045260246000fd5b634e487b7160e01b600052603260045260246000fd5b600060033d11156157cf5760046000803e5060005160e01c5b90565b600060443d10156157e05790565b6040516003193d81016004833e81513d67ffffffffffffffff816024840111818411171561581057505050505090565b82850191508151818111156158285750505050505090565b843d87010160208285010111156158425750505050505090565b61465f602082860101876156e8565b60008060233d111561586d576020600460003e50506000516001905b9091565b6001600160801b03811681146116c257600080fdfea2646970667358221220bf5b7c734e8bc6a58f9823535e32eda26aa1b20aa46280a454e1def447a863c964736f6c63430008060033",
    "linkReferences": {}
  },
  "methodIdentifiers": {
    "allocateCallback(uint256,uint256,bytes)": "151a8bf8",
    "createCallback(uint256,uint256,bytes)": "c171d27e",
    "swapCallback(uint256,uint256,bytes)": "923b8a2a",
    "test_init(uint128)": "85204992",
    "test_reverse_swap(uint128)": "2ddd643f",
    "test_swap_risky_in(uint128)": "647603df",
    "test_swap_stable_in(uint128)": "d01e68aa"
  },
  "id": 10
}