{
  "abi": [
    {
      "inputs": [
        {
          "internalType": "address",
          "name": "_risky",
          "type": "address"
        },
        {
          "internalType": "address",
          "name": "_stable",
          "type": "address"
        },
        {
          "internalType": "uint256",
          "name": "_scaleFactorRisky",
          "type": "uint256"
        },
        {
          "internalType": "uint256",
          "name": "_scaleFactorStable",
          "type": "uint256"
        },
        {
          "internalType": "uint256",
          "name": "_min_liquidity",
          "type": "uint256"
        }
      ],
      "stateMutability": "nonpayable",
      "type": "constructor"
    },
    {
      "inputs": [],
      "name": "BalanceError",
      "type": "error"
    },
    {
      "inputs": [
        {
          "internalType": "uint256",
          "name": "delRisky",
          "type": "uint256"
        },
        {
          "internalType": "uint256",
          "name": "delStable",
          "type": "uint256"
        }
      ],
      "name": "CalibrationError",
      "type": "error"
    },
    {
      "inputs": [],
      "name": "DeltaInError",
      "type": "error"
    },
    {
      "inputs": [],
      "name": "DeltaOutError",
      "type": "error"
    },
    {
      "inputs": [
        {
          "internalType": "uint256",
          "name": "value",
          "type": "uint256"
        }
      ],
      "name": "GammaError",
      "type": "error"
    },
    {
      "inputs": [
        {
          "internalType": "int128",
          "name": "invariant",
          "type": "int128"
        },
        {
          "internalType": "int128",
          "name": "nextInvariant",
          "type": "int128"
        }
      ],
      "name": "InvariantError",
      "type": "error"
    },
    {
      "inputs": [
        {
          "internalType": "int128",
          "name": "value",
          "type": "int128"
        }
      ],
      "name": "InverseOutOfBounds",
      "type": "error"
    },
    {
      "inputs": [],
      "name": "LockedError",
      "type": "error"
    },
    {
      "inputs": [
        {
          "internalType": "uint256",
          "name": "value",
          "type": "uint256"
        }
      ],
      "name": "MinLiquidityError",
      "type": "error"
    },
    {
      "inputs": [],
      "name": "PoolDuplicateError",
      "type": "error"
    },
    {
      "inputs": [],
      "name": "PoolExpiredError",
      "type": "error"
    },
    {
      "inputs": [
        {
          "internalType": "uint256",
          "name": "expected",
          "type": "uint256"
        },
        {
          "internalType": "uint256",
          "name": "actual",
          "type": "uint256"
        }
      ],
      "name": "RiskyBalanceError",
      "type": "error"
    },
    {
      "inputs": [
        {
          "internalType": "uint256",
          "name": "value",
          "type": "uint256"
        }
      ],
      "name": "RiskyPerLpError",
      "type": "error"
    },
    {
      "inputs": [
        {
          "internalType": "uint256",
          "name": "value",
          "type": "uint256"
        }
      ],
      "name": "SigmaError",
      "type": "error"
    },
    {
      "inputs": [
        {
          "internalType": "uint256",
          "name": "expected",
          "type": "uint256"
        },
        {
          "internalType": "uint256",
          "name": "actual",
          "type": "uint256"
        }
      ],
      "name": "StableBalanceError",
      "type": "error"
    },
    {
      "inputs": [
        {
          "internalType": "uint256",
          "name": "value",
          "type": "uint256"
        }
      ],
      "name": "StrikeError",
      "type": "error"
    },
    {
      "inputs": [],
      "name": "UninitializedError",
      "type": "error"
    },
    {
      "inputs": [],
      "name": "ZeroDeltasError",
      "type": "error"
    },
    {
      "inputs": [],
      "name": "ZeroLiquidityError",
      "type": "error"
    },
    {
      "anonymous": false,
      "inputs": [
        {
          "indexed": true,
          "internalType": "address",
          "name": "from",
          "type": "address"
        },
        {
          "indexed": true,
          "internalType": "address",
          "name": "recipient",
          "type": "address"
        },
        {
          "indexed": true,
          "internalType": "bytes32",
          "name": "poolId",
          "type": "bytes32"
        },
        {
          "indexed": false,
          "internalType": "uint256",
          "name": "delRisky",
          "type": "uint256"
        },
        {
          "indexed": false,
          "internalType": "uint256",
          "name": "delStable",
          "type": "uint256"
        },
        {
          "indexed": false,
          "internalType": "uint256",
          "name": "delLiquidity",
          "type": "uint256"
        }
      ],
      "name": "Allocate",
      "type": "event"
    },
    {
      "anonymous": false,
      "inputs": [
        {
          "indexed": true,
          "internalType": "address",
          "name": "from",
          "type": "address"
        },
        {
          "indexed": false,
          "internalType": "uint128",
          "name": "strike",
          "type": "uint128"
        },
        {
          "indexed": false,
          "internalType": "uint32",
          "name": "sigma",
          "type": "uint32"
        },
        {
          "indexed": true,
          "internalType": "uint32",
          "name": "maturity",
          "type": "uint32"
        },
        {
          "indexed": true,
          "internalType": "uint32",
          "name": "gamma",
          "type": "uint32"
        },
        {
          "indexed": false,
          "internalType": "uint256",
          "name": "delRisky",
          "type": "uint256"
        },
        {
          "indexed": false,
          "internalType": "uint256",
          "name": "delStable",
          "type": "uint256"
        },
        {
          "indexed": false,
          "internalType": "uint256",
          "name": "delLiquidity",
          "type": "uint256"
        }
      ],
      "name": "Create",
      "type": "event"
    },
    {
      "anonymous": false,
      "inputs": [
        {
          "indexed": true,
          "internalType": "address",
          "name": "from",
          "type": "address"
        },
        {
          "indexed": true,
          "internalType": "address",
          "name": "recipient",
          "type": "address"
        },
        {
          "indexed": false,
          "internalType": "uint256",
          "name": "delRisky",
          "type": "uint256"
        },
        {
          "indexed": false,
          "internalType": "uint256",
          "name": "delStable",
          "type": "uint256"
        }
      ],
      "name": "Deposit",
      "type": "event"
    },
    {
      "anonymous": false,
      "inputs": [
        {
          "indexed": true,
          "internalType": "address",
          "name": "from",
          "type": "address"
        },
        {
          "indexed": true,
          "internalType": "bytes32",
          "name": "poolId",
          "type": "bytes32"
        },
        {
          "indexed": false,
          "internalType": "uint256",
          "name": "delRisky",
          "type": "uint256"
        },
        {
          "indexed": false,
          "internalType": "uint256",
          "name": "delStable",
          "type": "uint256"
        },
        {
          "indexed": false,
          "internalType": "uint256",
          "name": "delLiquidity",
          "type": "uint256"
        }
      ],
      "name": "Remove",
      "type": "event"
    },
    {
      "anonymous": false,
      "inputs": [
        {
          "indexed": true,
          "internalType": "address",
          "name": "from",
          "type": "address"
        },
        {
          "indexed": true,
          "internalType": "address",
          "name": "recipient",
          "type": "address"
        },
        {
          "indexed": true,
          "internalType": "bytes32",
          "name": "poolId",
          "type": "bytes32"
        },
        {
          "indexed": false,
          "internalType": "bool",
          "name": "riskyForStable",
          "type": "bool"
        },
        {
          "indexed": false,
          "internalType": "uint256",
          "name": "deltaIn",
          "type": "uint256"
        },
        {
          "indexed": false,
          "internalType": "uint256",
          "name": "deltaOut",
          "type": "uint256"
        }
      ],
      "name": "Swap",
      "type": "event"
    },
    {
      "anonymous": false,
      "inputs": [
        {
          "indexed": true,
          "internalType": "bytes32",
          "name": "poolId",
          "type": "bytes32"
        }
      ],
      "name": "UpdateLastTimestamp",
      "type": "event"
    },
    {
      "anonymous": false,
      "inputs": [
        {
          "indexed": true,
          "internalType": "address",
          "name": "from",
          "type": "address"
        },
        {
          "indexed": true,
          "internalType": "address",
          "name": "recipient",
          "type": "address"
        },
        {
          "indexed": false,
          "internalType": "uint256",
          "name": "delRisky",
          "type": "uint256"
        },
        {
          "indexed": false,
          "internalType": "uint256",
          "name": "delStable",
          "type": "uint256"
        }
      ],
      "name": "Withdraw",
      "type": "event"
    },
    {
      "inputs": [],
      "name": "BUFFER",
      "outputs": [
        {
          "internalType": "uint256",
          "name": "",
          "type": "uint256"
        }
      ],
      "stateMutability": "view",
      "type": "function"
    },
    {
      "inputs": [],
      "name": "MIN_LIQUIDITY",
      "outputs": [
        {
          "internalType": "uint256",
          "name": "",
          "type": "uint256"
        }
      ],
      "stateMutability": "view",
      "type": "function"
    },
    {
      "inputs": [],
      "name": "PRECISION",
      "outputs": [
        {
          "internalType": "uint256",
          "name": "",
          "type": "uint256"
        }
      ],
      "stateMutability": "view",
      "type": "function"
    },
    {
      "inputs": [
        {
          "internalType": "bytes32",
          "name": "poolId",
          "type": "bytes32"
        },
        {
          "internalType": "address",
          "name": "recipient",
          "type": "address"
        },
        {
          "internalType": "uint256",
          "name": "delRisky",
          "type": "uint256"
        },
        {
          "internalType": "uint256",
          "name": "delStable",
          "type": "uint256"
        },
        {
          "internalType": "bool",
          "name": "fromMargin",
          "type": "bool"
        },
        {
          "internalType": "bytes",
          "name": "data",
          "type": "bytes"
        }
      ],
      "name": "allocate",
      "outputs": [
        {
          "internalType": "uint256",
          "name": "delLiquidity",
          "type": "uint256"
        }
      ],
      "stateMutability": "nonpayable",
      "type": "function"
    },
    {
      "inputs": [
        {
          "internalType": "bytes32",
          "name": "",
          "type": "bytes32"
        }
      ],
      "name": "calibrations",
      "outputs": [
        {
          "internalType": "uint128",
          "name": "strike",
          "type": "uint128"
        },
        {
          "internalType": "uint32",
          "name": "sigma",
          "type": "uint32"
        },
        {
          "internalType": "uint32",
          "name": "maturity",
          "type": "uint32"
        },
        {
          "internalType": "uint32",
          "name": "lastTimestamp",
          "type": "uint32"
        },
        {
          "internalType": "uint32",
          "name": "gamma",
          "type": "uint32"
        }
      ],
      "stateMutability": "view",
      "type": "function"
    },
    {
      "inputs": [
        {
          "internalType": "uint128",
          "name": "strike",
          "type": "uint128"
        },
        {
          "internalType": "uint32",
          "name": "sigma",
          "type": "uint32"
        },
        {
          "internalType": "uint32",
          "name": "maturity",
          "type": "uint32"
        },
        {
          "internalType": "uint32",
          "name": "gamma",
          "type": "uint32"
        },
        {
          "internalType": "uint256",
          "name": "riskyPerLp",
          "type": "uint256"
        },
        {
          "internalType": "uint256",
          "name": "delLiquidity",
          "type": "uint256"
        },
        {
          "internalType": "bytes",
          "name": "data",
          "type": "bytes"
        }
      ],
      "name": "create",
      "outputs": [
        {
          "internalType": "bytes32",
          "name": "poolId",
          "type": "bytes32"
        },
        {
          "internalType": "uint256",
          "name": "delRisky",
          "type": "uint256"
        },
        {
          "internalType": "uint256",
          "name": "delStable",
          "type": "uint256"
        }
      ],
      "stateMutability": "nonpayable",
      "type": "function"
    },
    {
      "inputs": [
        {
          "internalType": "address",
          "name": "recipient",
          "type": "address"
        },
        {
          "internalType": "uint256",
          "name": "delRisky",
          "type": "uint256"
        },
        {
          "internalType": "uint256",
          "name": "delStable",
          "type": "uint256"
        },
        {
          "internalType": "bytes",
          "name": "data",
          "type": "bytes"
        }
      ],
      "name": "deposit",
      "outputs": [],
      "stateMutability": "nonpayable",
      "type": "function"
    },
    {
      "inputs": [],
      "name": "factory",
      "outputs": [
        {
          "internalType": "address",
          "name": "",
          "type": "address"
        }
      ],
      "stateMutability": "view",
      "type": "function"
    },
    {
      "inputs": [
        {
          "internalType": "bytes32",
          "name": "poolId",
          "type": "bytes32"
        }
      ],
      "name": "invariantOf",
      "outputs": [
        {
          "internalType": "int128",
          "name": "invariant",
          "type": "int128"
        }
      ],
      "stateMutability": "view",
      "type": "function"
    },
    {
      "inputs": [
        {
          "internalType": "address",
          "name": "",
          "type": "address"
        },
        {
          "internalType": "bytes32",
          "name": "",
          "type": "bytes32"
        }
      ],
      "name": "liquidity",
      "outputs": [
        {
          "internalType": "uint256",
          "name": "",
          "type": "uint256"
        }
      ],
      "stateMutability": "view",
      "type": "function"
    },
    {
      "inputs": [
        {
          "internalType": "address",
          "name": "",
          "type": "address"
        }
      ],
      "name": "margins",
      "outputs": [
        {
          "internalType": "uint128",
          "name": "balanceRisky",
          "type": "uint128"
        },
        {
          "internalType": "uint128",
          "name": "balanceStable",
          "type": "uint128"
        }
      ],
      "stateMutability": "view",
      "type": "function"
    },
    {
      "inputs": [
        {
          "internalType": "bytes32",
          "name": "poolId",
          "type": "bytes32"
        },
        {
          "internalType": "uint256",
          "name": "delLiquidity",
          "type": "uint256"
        }
      ],
      "name": "remove",
      "outputs": [
        {
          "internalType": "uint256",
          "name": "delRisky",
          "type": "uint256"
        },
        {
          "internalType": "uint256",
          "name": "delStable",
          "type": "uint256"
        }
      ],
      "stateMutability": "nonpayable",
      "type": "function"
    },
    {
      "inputs": [
        {
          "internalType": "bytes32",
          "name": "",
          "type": "bytes32"
        }
      ],
      "name": "reserves",
      "outputs": [
        {
          "internalType": "uint128",
          "name": "reserveRisky",
          "type": "uint128"
        },
        {
          "internalType": "uint128",
          "name": "reserveStable",
          "type": "uint128"
        },
        {
          "internalType": "uint128",
          "name": "liquidity",
          "type": "uint128"
        },
        {
          "internalType": "uint32",
          "name": "blockTimestamp",
          "type": "uint32"
        },
        {
          "internalType": "uint256",
          "name": "cumulativeRisky",
          "type": "uint256"
        },
        {
          "internalType": "uint256",
          "name": "cumulativeStable",
          "type": "uint256"
        },
        {
          "internalType": "uint256",
          "name": "cumulativeLiquidity",
          "type": "uint256"
        }
      ],
      "stateMutability": "view",
      "type": "function"
    },
    {
      "inputs": [],
      "name": "risky",
      "outputs": [
        {
          "internalType": "address",
          "name": "",
          "type": "address"
        }
      ],
      "stateMutability": "view",
      "type": "function"
    },
    {
      "inputs": [],
      "name": "scaleFactorRisky",
      "outputs": [
        {
          "internalType": "uint256",
          "name": "",
          "type": "uint256"
        }
      ],
      "stateMutability": "view",
      "type": "function"
    },
    {
      "inputs": [],
      "name": "scaleFactorStable",
      "outputs": [
        {
          "internalType": "uint256",
          "name": "",
          "type": "uint256"
        }
      ],
      "stateMutability": "view",
      "type": "function"
    },
    {
      "inputs": [],
      "name": "stable",
      "outputs": [
        {
          "internalType": "address",
          "name": "",
          "type": "address"
        }
      ],
      "stateMutability": "view",
      "type": "function"
    },
    {
      "inputs": [
        {
          "internalType": "address",
          "name": "recipient",
          "type": "address"
        },
        {
          "internalType": "bytes32",
          "name": "poolId",
          "type": "bytes32"
        },
        {
          "internalType": "bool",
          "name": "riskyForStable",
          "type": "bool"
        },
        {
          "internalType": "uint256",
          "name": "deltaIn",
          "type": "uint256"
        },
        {
          "internalType": "uint256",
          "name": "deltaOut",
          "type": "uint256"
        },
        {
          "internalType": "bool",
          "name": "fromMargin",
          "type": "bool"
        },
        {
          "internalType": "bool",
          "name": "toMargin",
          "type": "bool"
        },
        {
          "internalType": "bytes",
          "name": "data",
          "type": "bytes"
        }
      ],
      "name": "swap",
      "outputs": [],
      "stateMutability": "nonpayable",
      "type": "function"
    },
    {
      "inputs": [
        {
          "internalType": "bytes32",
          "name": "poolId",
          "type": "bytes32"
        }
      ],
      "name": "updateLastTimestamp",
      "outputs": [
        {
          "internalType": "uint32",
          "name": "lastTimestamp",
          "type": "uint32"
        }
      ],
      "stateMutability": "nonpayable",
      "type": "function"
    },
    {
      "inputs": [
        {
          "internalType": "address",
          "name": "recipient",
          "type": "address"
        },
        {
          "internalType": "uint256",
          "name": "delRisky",
          "type": "uint256"
        },
        {
          "internalType": "uint256",
          "name": "delStable",
          "type": "uint256"
        }
      ],
      "name": "withdraw",
      "outputs": [],
      "stateMutability": "nonpayable",
      "type": "function"
    }
  ],
  "bytecode": {
    "object": "0x610120604052600180553480156200001657600080fd5b506040516200400738038062004007833981016040819052620000399162000083565b6001600160601b0319606095861b811660e0529390941b9092166101005260a05260c052608052620000d6565b80516001600160a01b03811681146200007e57600080fd5b919050565b600080600080600060a086880312156200009c57600080fd5b620000a78662000066565b9450620000b76020870162000066565b6040870151606088015160809098015196999198509695945092505050565b60805160a05160c05160e05160601c6101005160601c613e84620001836000396000818161024201528181610a83015281816114c70152611cd001526000818161049c01528181610a49015281816115dc0152611bbd0152600081816103680152818161066801528181610baa01526113c20152600081816103b50152818161064701528181610b8801526113a101526000818161020d01528181610c9c0152610f440152613e846000f3fe608060405234801561001057600080fd5b506004361061012b5760003560e01c80638fbc3ecd116100ad578063be00763a11610071578063be00763a14610469578063c08165d414610497578063c45a0155146104be578063ca28fcd6146104d1578063d2957b8f146104e457600080fd5b80638fbc3ecd146104025780639e48ff5a1461040a5780639f8cfade1461041f578063aaf5eb6814610447578063b5c5f6721461045657600080fd5b806338820465116100f4578063388204651461030f5780634dd0d05614610363578063546fecae1461038a57806355ebb825146103b05780636b35bb6b146103d757600080fd5b8062bbf1e41461013057806311f99086146101e057806321b77d631461020857806322be3de11461023d57806323c5b9521461027c575b600080fd5b61018f61013e366004613af1565b6004602081905260009182526040909120805460018201546002830154600384015493909401546001600160801b0380841695600160801b948590048216959184169490930463ffffffff16929187565b604080516001600160801b0398891681529688166020880152949096169385019390935263ffffffff919091166060840152608083015260a082015260c081019190915260e0015b60405180910390f35b6101f36101ee366004613af1565b6104f7565b60405163ffffffff90911681526020016101d7565b61022f7f000000000000000000000000000000000000000000000000000000000000000081565b6040519081526020016101d7565b6102647f000000000000000000000000000000000000000000000000000000000000000081565b6040516001600160a01b0390911681526020016101d7565b6102d261028a366004613af1565b6002602052600090815260409020546001600160801b0381169063ffffffff600160801b8204811691600160a01b8104821691600160c01b8204811691600160e01b90041685565b604080516001600160801b03909616865263ffffffff9485166020870152928416928501929092528216606084015216608082015260a0016101d7565b61034361031d366004613948565b6003602052600090815260409020546001600160801b0380821691600160801b90041682565b604080516001600160801b039384168152929091166020830152016101d7565b61022f7f000000000000000000000000000000000000000000000000000000000000000081565b61039d610398366004613af1565b610534565b604051600f9190910b81526020016101d7565b61022f7f000000000000000000000000000000000000000000000000000000000000000081565b61022f6103e5366004613963565b600560209081526000928352604080842090915290825290205481565b61022f607881565b61041d610418366004613a6c565b6106b8565b005b61043261042d366004613b8e565b610832565b604080519283526020830191909152016101d7565b61022f670de0b6b3a764000081565b61041d610464366004613a39565b6109d7565b61047c610477366004613bb0565b610af9565b604080519384526020840192909252908201526060016101d7565b6102647f000000000000000000000000000000000000000000000000000000000000000081565b600054610264906001600160a01b031681565b61041d6104df36600461398d565b6110ed565b61022f6104f2366004613b0a565b61172b565b600060015460011461051c57604051635cd4e48360e01b815260040160405180910390fd5b600260015561052a826119a2565b6001805592915050565b6000818152600260209081526040808320815160a08101835290546001600160801b038116825263ffffffff600160801b8204811694830194909452600160a01b81048416928201839052600160c01b8104841660608301819052600160e01b90910490931660808201529183916105ac9190613db7565b6000858152600460208181526040808420815160e08101835281546001600160801b038082168352600160801b9182900481169583019590955260018301549485169382019390935263ffffffff929093048216606084015260028101546080840152600381015460a08401529092015460c08201529293509091829161063e9190670de0b6b3a764000090611a4c16565b915091506106ae7f00000000000000000000000000000000000000000000000000000000000000007f0000000000000000000000000000000000000000000000000000000000000000848488600001516001600160801b0316896020015163ffffffff168963ffffffff16611aab565b9695505050505050565b6001546001146106db57604051635cd4e48360e01b815260040160405180910390fd5b6002600155831580156106ec575082155b1561070a576040516381552f0360e01b815260040160405180910390fd5b6001600160a01b038516600090815260036020526040902061072d908585611af9565b60008085156107415761073e611ba3565b91505b84156107525761074f611cb6565b90505b60405163c536e60560e01b8152339063c536e6059061077b908990899089908990600401613cd4565b600060405180830381600087803b15801561079557600080fd5b505af11580156107a9573d6000803e3d6000fd5b50505050856000146107c7576107c76107c28784613d1f565b611d02565b84156107df576107df6107da8683613d1f565b611d3d565b60408051878152602081018790526001600160a01b0389169133917fdcbc1c05240f31ff3ad067ef1ee35ce4997762752e3a095284754544f4c709d7910160405180910390a35050600180555050505050565b60008060015460011461085857604051635cd4e48360e01b815260040160405180910390fd5b60026001558261087b5760405163e5664db760e01b815260040160405180910390fd5b60008481526004602052604090206001810154600160801b900463ffffffff166108b857604051631d2ad63f60e01b815260040160405180910390fd5b6040805160e08101825282546001600160801b038082168352600160801b918290048116602084015260018501549081169383019390935263ffffffff92048216606082015260028301546080820152600383015460a0820152600483015460c0820152610928918690611a4c16565b3360009081526005602090815260408083208a8452909152812080549396509194508692610957908490613da0565b9091555061096a90508184848742611d74565b336000908152600360205260409020610984908484611af9565b6040805184815260208101849052908101859052859033907f59c6598fc34aefe62579a03667748ef83b4682874f311affb26b318095359b0e9060600160405180910390a3506001805590939092509050565b6001546001146109fa57604051635cd4e48360e01b815260040160405180910390fd5b600260015581158015610a0b575080155b15610a29576040516381552f0360e01b815260040160405180910390fd5b610a3560038383611e66565b508115610a7057610a706001600160a01b037f0000000000000000000000000000000000000000000000000000000000000000168484611f21565b8015610aaa57610aaa6001600160a01b037f0000000000000000000000000000000000000000000000000000000000000000168483611f21565b60408051838152602081018390526001600160a01b0385169133917ff341246adaac6f497bc2a656f546ab9e182111d630394f0c57c710a59a2cb567910160405180910390a350506001805550565b6000806000600154600114610b2157604051635cd4e48360e01b815260040160405180910390fd5b60026001556040516bffffffffffffffffffffffff193060601b1660208201526fffffffffffffffffffffffffffffffff1960808d901b1660348201526001600160e01b031960e08c811b821660448401528b811b821660488401528a901b16604c8201527f0000000000000000000000000000000000000000000000000000000000000000907f00000000000000000000000000000000000000000000000000000000000000009060500160408051808303601f19018152918152815160209283012060008181526002909352912054909550600160c01b900463ffffffff1615610c2057604051633651818b60e21b815260040160405180910390fd5b629896808c63ffffffff161180610c3d575060018c63ffffffff16105b15610c68576040516387a2c00160e01b815263ffffffff8d1660048201526024015b60405180910390fd5b6001600160801b038d16610c9a5760405163b3f4bc5560e01b81526001600160801b038e166004820152602401610c5f565b7f00000000000000000000000000000000000000000000000000000000000000008811610cdd5760405163325951a560e01b815260048101899052602401610c5f565b610cef82670de0b6b3a7640000613d37565b891180610cfa575088155b15610d1b576040516323d62a0f60e11b8152600481018a9052602401610c5f565b6127108a63ffffffff161180610d3857506123288a63ffffffff16105b15610d5e57604051637ed91fa560e11b815263ffffffff8b166004820152602401610c5f565b60006040518060a001604052808f6001600160801b031681526020018e63ffffffff1681526020018d63ffffffff168152602001610d994290565b63ffffffff1681526020018c63ffffffff168152509050806040015163ffffffff16816060015163ffffffff161115610de55760405163536e15e160e01b815260040160405180910390fd5b600081606001518260400151610dfb9190613db7565b9050610e2a600085858e86600001516001600160801b0316876020015163ffffffff168763ffffffff1661202c565b9450670de0b6b3a7640000610e3f8b8d613d59565b610e499190613d37565b9550670de0b6b3a7640000610e5e8b87613d59565b610e689190613d37565b9450851580610e75575084155b15610e9d5760405163492d6d1760e01b81526004810187905260248101869052604401610c5f565b6000878152600260209081526040808320855181549387015192870151606088015160808901516001600160801b039093166001600160a01b031990961695909517600160801b63ffffffff958616021767ffffffffffffffff60a01b1916600160a01b9185169190910263ffffffff60c01b191617600160c01b94841694909402939093176001600160e01b0316600160e01b9290931691909102919091179055610f697f00000000000000000000000000000000000000000000000000000000000000008c613da0565b3360009081526005602090815260408083208c8452909152812080549293508392909190610f98908490613d1f565b909155505060608301516000898152600460205260409020610fbf91899089908f90612102565b600080610fca611ba3565b610fd2611cb6565b91509150336001600160a01b031663c171d27e8a8a8f8f6040518563ffffffff1660e01b81526004016110089493929190613cd4565b600060405180830381600087803b15801561102257600080fd5b505af1158015611036573d6000803e3d6000fd5b5050505061104989836107c29190613d1f565b6110566107da8983613d1f565b60808086015160408088015188516020808b015184516001600160801b03909316835263ffffffff908116918301919091529281018e9052606081018d90529384018790529181169291169033907ff38f2bc2b712352b1d4a9ea95291a1c688835ac9f70a7a9d0aec57712c8b19129060a00160405180910390a45050505050505060018081905550985098509895505050505050565b60015460011461111057604051635cd4e48360e01b815260040160405180910390fd5b60026001558561113357604051631411378d60e11b815260040160405180910390fd5b846111515760405163564b486560e01b815260040160405180910390fd5b60006040518061010001604052808b6001600160a01b0316815260200189151581526020018615158152602001851515815260200161118d4290565b63ffffffff1681526020018a815260200188815260200187815250905060006111b98260a001516119a2565b90506111cc607863ffffffff8316613d1f565b826080015163ffffffff1611156111f65760405163536e15e160e01b815260040160405180910390fd5b60006112058360a00151610534565b60a08085018051600090815260026020908152604080832081519586018252546001600160801b038116865263ffffffff600160801b8204811687850152600160a01b82048116878401908152600160c01b8304821660608901908152600160e01b90930490911660808801529451845260049092528220905192519495509293909161129191613db7565b90506000612710846080015163ffffffff168860c001516112b29190613d59565b6112bc9190613d37565b90506000808860200151156113085784546112e19084906001600160801b0316613d1f565b8554909250611301908f90600160801b90046001600160801b0316613da0565b9050611341565b845461131e908f906001600160801b0316613da0565b855490925061133e908490600160801b90046001600160801b0316613d1f565b90505b60018501546001600160801b0316611361670de0b6b3a764000084613d59565b61136b9190613d37565b60018601549092506001600160801b031661138e670de0b6b3a764000083613d59565b6113989190613d37565b905060006114087f00000000000000000000000000000000000000000000000000000000000000007f000000000000000000000000000000000000000000000000000000000000000085858b600001516001600160801b03168c6020015163ffffffff168b63ffffffff16611aab565b905080600f0b88600f0b131561143f57604051630cd4424b60e41b8152600f89810b600483015282900b6024820152604401610c5f565b6114688a602001518b60c001518c60e001518d608001518a6121c990949392919063ffffffff16565b5050505050505082602001511561158f578260600151156114b25760e083015183516001600160a01b031660009081526003602052604081206114ad92909190611af9565b6114ed565b825160e08401516114ed916001600160a01b037f00000000000000000000000000000000000000000000000000000000000000001691611f21565b8260400151156115105760c083015161150a906003906000611e66565b506116a2565b600061151a611ba3565b60c085015160405163491dc51560e11b8152919250339163923b8a2a9161154a916000908b908b90600401613cd4565b600060405180830381600087803b15801561156457600080fd5b505af1158015611578573d6000803e3d6000fd5b5050505061150a8460c00151826107c29190613d1f565b8260600151156115c75760e083015183516001600160a01b031660009081526003602052604081206115c2929091611af9565b611602565b825160e0840151611602916001600160a01b037f00000000000000000000000000000000000000000000000000000000000000001691611f21565b8260400151156116205760c083015161150a90600390600090611e66565b600061162a611cb6565b60c085015160405163491dc51560e11b8152919250339163923b8a2a9161165b91600091908b908b90600401613cd4565b600060405180830381600087803b15801561167557600080fd5b505af1158015611689573d6000803e3d6000fd5b505050506116a08460c00151826107da9190613d1f565b505b8260a0015183600001516001600160a01b0316336001600160a01b03167fe42b42fe878e256d1efbfb2ba292aadeac0228bbaa31f4ef8537522bdfa3ea1986602001518760c001518860e001516040516117119392919092151583526020830191909152604082015260600190565b60405180910390a450506001805550505050505050505050565b600060015460011461175057604051635cd4e48360e01b815260040160405180910390fd5b6002600155851580611760575084155b1561177e576040516381552f0360e01b815260040160405180910390fd5b60008881526004602052604090206001810154600160801b900463ffffffff166117bb57604051631d2ad63f60e01b815260040160405180910390fd5b8054600182015442916000916001600160801b03918216916117de91168b613d59565b6117e89190613d37565b835460018501549192506000916001600160801b03600160801b90920482169161181391168b613d59565b61181d9190613d37565b905080821061182c578061182e565b815b94508461184e5760405163e5664db760e01b815260040160405180910390fd5b6001600160a01b038b1660009081526005602090815260408083208f845290915281208054879290611881908490613d1f565b909155506118949050848b8b8887612102565b87156118ac576118a660038b8b611e66565b5061193e565b6000806118b7611ba3565b6118bf611cb6565b6040516302a3517f60e31b81529193509150339063151a8bf8906118ed908f908f908e908e90600401613cd4565b600060405180830381600087803b15801561190757600080fd5b505af115801561191b573d6000803e3d6000fd5b5050505061192e8c836107c29190613d1f565b61193b6107da8c83613d1f565b50505b604080518b8152602081018b90529081018690528c906001600160a01b038d169033907f86e4803447f73017bf832b0ac69cb7afa3333a5fa823ec42a9f6cf8d17b50ecc9060600160405180910390a4505060018055509098975050505050505050565b60008181526002602052604081208054600160c01b900463ffffffff166119dc57604051631d2ad63f60e01b815260040160405180910390fd5b8054429250600160a01b900463ffffffff9081169083168110156119fe578092505b815463ffffffff60c01b1916600160c01b63ffffffff85160217825560405184907fd69bdb2831892ad6046f30af0f12362aef46cce34d58ed7ad9b3ef8c44b1b46690600090a25050919050565b6040820151825160009182916001600160801b03918216918291611a71911686613d59565b611a7b9190613d37565b92508085602001516001600160801b031685611a979190613d59565b611aa19190613d37565b9150509250929050565b600080611abe60008a8a8a89898961202c565b90506000611acc828a6122e8565b90506000611ada888b6122e8565b9050611aea600f82900b83612311565b9b9a5050505050505050505050565b8115611b4857611b088261234e565b83548490600090611b239084906001600160801b0316613cf4565b92506101000a8154816001600160801b0302191690836001600160801b031602179055505b8015611b9e57611b578161234e565b83548490601090611b79908490600160801b90046001600160801b0316613cf4565b92506101000a8154816001600160801b0302191690836001600160801b031602179055505b505050565b604051306024820152600090819081906001600160a01b037f000000000000000000000000000000000000000000000000000000000000000016906370a0823160e01b906044015b60408051601f198184030181529181526020820180516001600160e01b03166001600160e01b0319909416939093179092529051611c299190613c99565b600060405180830381855afa9150503d8060008114611c64576040519150601f19603f3d011682016040523d82523d6000602084013e611c69565b606091505b5091509150811580611c7d57508051602014155b15611c9b5760405163056a754560e51b815260040160405180910390fd5b80806020019051810190611caf9190613c57565b9250505090565b604051306024820152600090819081906001600160a01b037f000000000000000000000000000000000000000000000000000000000000000016906370a0823160e01b90604401611beb565b6000611d0c611ba3565b905081811015611d3957604051634e71911d60e11b81526004810183905260248101829052604401610c5f565b5050565b6000611d47611cb6565b905081811015611d395760405163c66162eb60e01b81526004810183905260248101829052604401610c5f565b611d7e8582612368565b611d878461234e565b85548690600090611da29084906001600160801b0316613d78565b92506101000a8154816001600160801b0302191690836001600160801b03160217905550611dcf8361234e565b85548690601090611df1908490600160801b90046001600160801b0316613d78565b92506101000a8154816001600160801b0302191690836001600160801b03160217905550611e1e8261234e565b600186018054600090611e3b9084906001600160801b0316613d78565b92506101000a8154816001600160801b0302191690836001600160801b031602179055505050505050565b3360009081526020849052604090208215611ec457611e848361234e565b81548290600090611e9f9084906001600160801b0316613d78565b92506101000a8154816001600160801b0302191690836001600160801b031602179055505b8115611f1a57611ed38261234e565b81548290601090611ef5908490600160801b90046001600160801b0316613d78565b92506101000a8154816001600160801b0302191690836001600160801b031602179055505b9392505050565b604080516001600160a01b038481166024830152604480830185905283518084039091018152606490920183526020820180516001600160e01b031663a9059cbb60e01b1790529151600092839290871691611f7d9190613c99565b6000604051808303816000865af19150503d8060008114611fba576040519150601f19603f3d011682016040523d82523d6000602084013e611fbf565b606091505b5091509150818015611fe9575080511580611fe9575080806020019051810190611fe99190613ad4565b6120255760405162461bcd60e51b815260206004820152600d60248201526c151c985b9cd9995c8819985a5b609a1b6044820152606401610c5f565b5050505050565b60008061203985886122e8565b90506000612047878a6122e8565b90506000612059600160401b83612311565b905084156120d557600061206d87876123fd565b9050600061207d83600f0b61243a565b9050600061208f600f83900b84612311565b905060006120ba8f6120b16120a685600f0b6124f4565b600f8b900b90612591565b600f0b906125c7565b90506120ca600f82900b8e6125fa565b9750505050506120f4565b611aea896120eb8d6120b1600f88900b86612591565b600f0b906125fa565b505050979650505050505050565b61210c8582612368565b6121158461234e565b855486906000906121309084906001600160801b0316613cf4565b92506101000a8154816001600160801b0302191690836001600160801b0316021790555061215d8361234e565b8554869060109061217f908490600160801b90046001600160801b0316613cf4565b92506101000a8154816001600160801b0302191690836001600160801b031602179055506121ac8261234e565b600186018054600090611e3b9084906001600160801b0316613cf4565b6121d38582612368565b8315612275576121e28361234e565b855486906000906121fd9084906001600160801b0316613cf4565b92506101000a8154816001600160801b0302191690836001600160801b0316021790555061222a8261234e565b8554869060109061224c908490600160801b90046001600160801b0316613d78565b92506101000a8154816001600160801b0302191690836001600160801b03160217905550612025565b61227e8261234e565b855486906000906122999084906001600160801b0316613d78565b92506101000a8154816001600160801b0302191690836001600160801b031602179055506122c68361234e565b85548690601090611e3b908490600160801b90046001600160801b0316613cf4565b6000806122fd83670de0b6b3a7640000613d37565b9050612309848261261f565b949350505050565b6000600f82810b9084900b0360016001607f1b0319811280159061233c575060016001607f1b038113155b61234557600080fd5b90505b92915050565b60006001600160801b0382111561236457600080fd5b5090565b600182015460009061238790600160801b900463ffffffff1683613db7565b905063ffffffff811615611b9e57825460028401805463ffffffff9384166001600160801b038085168202909201909255600386018054600160801b94859004831684020190556001860180546004909701805492881690930290910190915563ffffffff60801b199094169290911602179055565b60008061241461240c84612656565b600f0b612666565b9050600061242185612688565b9050612431600f82900b83612591565b95945050505050565b6000600160401b600f83900b1215806124575750600082600f0b13155b1561247b57604051630e59931d60e31b8152600f83900b6004820152602401610c5f565b67f999999999999999600f83900b138015906124a35750670666666666666666600f83900b12155b156124b15761234882612696565b670666666666666666600f83900b12156124ce576123488261273d565b60006124e66124e1600160401b85612311565b61273d565b611f1a90613dd4565b919050565b60008061250e600f84900b68016a09e667f3bcc908612807565b9050600061254c61254161253661252785600f0b61285f565b6753dd02a4f5ee2e4690612591565b600160401b906125c7565b600160401b90612807565b9050600061255a8383612892565b9050600083600f0b12156125775761257481600f0b612962565b90505b60006106ae61258a600160401b846125c7565b6001603f1b905b6000600f83810b9083900b0260401d60016001607f1b0319811280159061233c575060016001607f1b0381131561234557600080fd5b6000600f83810b9083900b0160016001607f1b0319811280159061233c575060016001607f1b0381131561234557600080fd5b60008061260f83670de0b6b3a7640000613d37565b9050612309600f85900b8261297d565b60008161262b57600080fd5b600061263784846129e5565b905060016001607f1b036001600160801b038216111561234557600080fd5b6000612348826301e1855861261f565b60008082600f0b121561267857600080fd5b612348604083600f0b901b612b47565b60006123488261271061261f565b6000806126ab600f84900b6001603f1b612311565b905060006126bd600f83900b83612591565b905060006124316127326127226126fa6721d0a04b0e9b94f16120b16126ec67c2bf5d74c724e53e1989612591565b6120b1600f8a900b8a612591565b6127196726a8f3c1f21b336e6120b16787c57e5da70d3c8f1989612591565b600f0b90612807565b68015d71f5721242c787906125c7565b600f85900b90612591565b60008061275f61240c612757612541600f87900b87612591565b600f0b612cb5565b905060006127836707a1e70f720eca436120b16801000bf627fa1884101985612591565b905060006127a76810aeac93f55267a9a56120b168041ed34a256149023686612591565b905060006127dc68072c7d592d021fb1db6120b16127ce6808c27b4617f5f800ea88612591565b6120b1600f89900b89612591565b905060006127fc6127f1600f85900b84612807565b600f86900b906125c7565b979650505050505050565b600081600f0b6000141561281a57600080fd5b600082600f0b604085600f0b901b8161283557612835613e27565b05905060016001607f1b0319811280159061233c575060016001607f1b0381131561234557600080fd5b6000600f82900b60016001607f1b0319141561287a57600080fd5b600082600f0b1261288b5781612348565b5060000390565b6000806128e46127326128d46128c96128b8600f88900b68010fb844255a12d72e612591565b68017401c57014c38f1319906125c7565b600f87900b90612591565b68016a09e667f3bcc908906125c7565b905060006129106129016128c96748d4c730f051a5fd19856125c7565b67413c831bb169f874906125c7565b905060006106ae61295761294c612941612939612931600f8c900b8c612591565b600f0b612962565b600f0b612cef565b600f86900b90612591565b600f88900b90612591565b600160401b90612311565b6000600f82900b60016001607f1b0319141561288b57600080fd5b60008161298c57506000612348565b600083600f0b121561299d57600080fd5b600f83900b6001600160801b038316810260401c90608084901c026001600160c01b038111156129cc57600080fd5b60401b81198111156129dd57600080fd5b019392505050565b6000816129f157600080fd5b60006001600160c01b038411612a1c5782604085901b81612a1457612a14613e27565b049050612b33565b60c084811c6401000000008110612a35576020918201911c5b620100008110612a47576010918201911c5b6101008110612a58576008918201911c5b60108110612a68576004918201911c5b60048110612a78576002918201911c5b60028110612a87576001820191505b60bf820360018603901c6001018260ff0387901b81612aa857612aa8613e27565b0492506001600160801b03831115612abf57600080fd5b608085901c83026001600160801b038616840260c088901c604089901b82811015612aeb576001820391505b608084901b92900382811015612b02576001820391505b829003608084901c8214612b1857612b18613dfb565b888181612b2757612b27613e27565b04870196505050505050505b6001600160801b0381111561234557600080fd5b600081612b5657506000919050565b816001600160801b8210612b6f5760809190911c9060401b5b600160401b8210612b855760409190911c9060201b5b6401000000008210612b9c5760209190911c9060101b5b620100008210612bb15760109190911c9060081b5b6101008210612bc55760089190911c9060041b5b60108210612bd85760049190911c9060021b5b60088210612be45760011b5b6001818581612bf557612bf5613e27565b048201901c90506001818581612c0d57612c0d613e27565b048201901c90506001818581612c2557612c25613e27565b048201901c90506001818581612c3d57612c3d613e27565b048201901c90506001818581612c5557612c55613e27565b048201901c90506001818581612c6d57612c6d613e27565b048201901c90506001818581612c8557612c85613e27565b048201901c90506000818581612c9d57612c9d613e27565b049050808210612cad5780612431565b509392505050565b60008082600f0b13612cc657600080fd5b6080612cd183612d44565b600f0b6fb17217f7d1cf79abc9e3b39803f2f6af02901c9050919050565b6000600160461b82600f0b12612d0457600080fd5b683fffffffffffffffff1982600f0b1215612d2157506000919050565b612348608083600f0b700171547652b82fe1777d0ffda0d23a7d1202901d612e1f565b60008082600f0b13612d5557600080fd5b6000600f83900b600160401b8112612d6f576040918201911d5b6401000000008112612d83576020918201911d5b620100008112612d95576010918201911d5b6101008112612da6576008918201911d5b60108112612db6576004918201911d5b60048112612dc6576002918201911d5b60028112612dd5576001820191505b603f19820160401b600f85900b607f8490031b6001603f1b5b6000811315612e145790800260ff81901c8281029390930192607f011c9060011d612dee565b509095945050505050565b6000600160461b82600f0b12612e3457600080fd5b683fffffffffffffffff1982600f0b1215612e5157506000919050565b6001607f1b60006001603f1b8416600f0b1315612e7f5770016a09e667f3bcc908b2fb1366ea957d3e0260801c5b60008367400000000000000016600f0b1315612eac577001306fe0a31b7152de8d5a46305c85edec0260801c5b60008367200000000000000016600f0b1315612ed9577001172b83c7d517adcdf7c8c50eb14a791f0260801c5b60008367100000000000000016600f0b1315612f065770010b5586cf9890f6298b92b71842a983630260801c5b60008367080000000000000016600f0b1315612f33577001059b0d31585743ae7c548eb68ca417fd0260801c5b60008367040000000000000016600f0b1315612f6057700102c9a3e778060ee6f7caca4f7a29bde80260801c5b60008367020000000000000016600f0b1315612f8d5770010163da9fb33356d84a66ae336dcdfa3f0260801c5b60008367010000000000000016600f0b1315612fba57700100b1afa5abcbed6129ab13ec11dc95430260801c5b600083668000000000000016600f0b1315612fe65770010058c86da1c09ea1ff19d294cf2f679b0260801c5b600083664000000000000016600f0b1315613012577001002c605e2e8cec506d21bfc89a23a00f0260801c5b600083662000000000000016600f0b131561303e57700100162f3904051fa128bca9c55c31e5df0260801c5b600083661000000000000016600f0b131561306a577001000b175effdc76ba38e31671ca9397250260801c5b600083660800000000000016600f0b131561309657700100058ba01fb9f96d6cacd4b180917c3d0260801c5b600083660400000000000016600f0b13156130c25770010002c5cc37da9491d0985c348c68e7b30260801c5b600083660200000000000016600f0b13156130ee577001000162e525ee054754457d59952920260260801c5b600083660100000000000016600f0b131561311a5770010000b17255775c040618bf4a4ade83fc0260801c5b6000836580000000000016600f0b1315613145577001000058b91b5bc9ae2eed81e9b7d4cfab0260801c5b6000836540000000000016600f0b131561317057700100002c5c89d5ec6ca4d7c8acc017b7c90260801c5b6000836520000000000016600f0b131561319b5770010000162e43f4f831060e02d839a9d16d0260801c5b6000836510000000000016600f0b13156131c657700100000b1721bcfc99d9f890ea069117630260801c5b6000836508000000000016600f0b13156131f15770010000058b90cf1e6d97f9ca14dbcc16280260801c5b6000836504000000000016600f0b131561321c577001000002c5c863b73f016468f6bac5ca2b0260801c5b6000836502000000000016600f0b131561324757700100000162e430e5a18f6119e3c02282a50260801c5b6000836501000000000016600f0b1315613272577001000000b1721835514b86e6d96efd1bfe0260801c5b60008364800000000016600f0b131561329c57700100000058b90c0b48c6be5df846c5b2ef0260801c5b60008364400000000016600f0b13156132c65770010000002c5c8601cc6b9e94213c72737a0260801c5b60008364200000000016600f0b13156132f0577001000000162e42fff037df38aa2b219f060260801c5b60008364100000000016600f0b131561331a5770010000000b17217fba9c739aa5819f44f90260801c5b60008364080000000016600f0b1315613344577001000000058b90bfcdee5acd3c1cedc8230260801c5b60008364040000000016600f0b131561336e57700100000002c5c85fe31f35a6a30da1be500260801c5b60008364020000000016600f0b13156133985770010000000162e42ff0999ce3541b9fffcf0260801c5b60008364010000000016600f0b13156133c257700100000000b17217f80f4ef5aadda455540260801c5b600083638000000016600f0b13156133eb5770010000000058b90bfbf8479bd5a81b51ad0260801c5b600083634000000016600f0b1315613414577001000000002c5c85fdf84bd62ae30a74cc0260801c5b600083632000000016600f0b131561343d57700100000000162e42fefb2fed257559bdaa0260801c5b600083631000000016600f0b1315613466577001000000000b17217f7d5a7716bba4a9ae0260801c5b600083630800000016600f0b131561348f57700100000000058b90bfbe9ddbac5e109cce0260801c5b600083630400000016600f0b13156134b85770010000000002c5c85fdf4b15de6f17eb0d0260801c5b600083630200000016600f0b13156134e1577001000000000162e42fefa494f1478fde050260801c5b600083630100000016600f0b131561350a5770010000000000b17217f7d20cf927c8e94c0260801c5b6000836280000016600f0b1315613532577001000000000058b90bfbe8f71cb4e4b33d0260801c5b6000836240000016600f0b131561355a57700100000000002c5c85fdf477b662b269450260801c5b6000836220000016600f0b13156135825770010000000000162e42fefa3ae53369388c0260801c5b6000836210000016600f0b13156135aa57700100000000000b17217f7d1d351a389d400260801c5b6000836208000016600f0b13156135d25770010000000000058b90bfbe8e8b2d3d4ede0260801c5b6000836204000016600f0b13156135fa577001000000000002c5c85fdf4741bea6e77e0260801c5b6000836202000016600f0b131561362257700100000000000162e42fefa39fe95583c20260801c5b6000836201000016600f0b131561364a577001000000000000b17217f7d1cfb72b45e10260801c5b60008361800016600f0b131561367157700100000000000058b90bfbe8e7cc35c3f00260801c5b60008361400016600f0b13156136985770010000000000002c5c85fdf473e242ea380260801c5b60008361200016600f0b13156136bf577001000000000000162e42fefa39f02b772c0260801c5b60008361100016600f0b13156136e65770010000000000000b17217f7d1cf7d83c1a0260801c5b60008361080016600f0b131561370d577001000000000000058b90bfbe8e7bdcbe2e0260801c5b60008361040016600f0b131561373457700100000000000002c5c85fdf473dea871f0260801c5b60008361020016600f0b131561375b5770010000000000000162e42fefa39ef44d910260801c5b60008361010016600f0b131561378257700100000000000000b17217f7d1cf79e9490260801c5b600083608016600f0b13156137a85770010000000000000058b90bfbe8e7bce5440260801c5b600083604016600f0b13156137ce577001000000000000002c5c85fdf473de6eca0260801c5b600083602016600f0b13156137f457700100000000000000162e42fefa39ef366f0260801c5b600083601016600f0b131561381a577001000000000000000b17217f7d1cf79afa0260801c5b600083600816600f0b131561384057700100000000000000058b90bfbe8e7bcd6d0260801c5b600083600416600f0b13156138665770010000000000000002c5c85fdf473de6b20260801c5b600083600216600f0b131561388c577001000000000000000162e42fefa39ef3580260801c5b600083600116600f0b13156138b25770010000000000000000b17217f7d1cf79ab0260801c5b600f83810b60401d603f03900b1c60016001607f1b0381111561234857600080fd5b80356001600160a01b03811681146124ef57600080fd5b60008083601f8401126138fd57600080fd5b50813567ffffffffffffffff81111561391557600080fd5b60208301915083602082850101111561392d57600080fd5b9250929050565b803563ffffffff811681146124ef57600080fd5b60006020828403121561395a57600080fd5b611f1a826138d4565b6000806040838503121561397657600080fd5b61397f836138d4565b946020939093013593505050565b60008060008060008060008060006101008a8c0312156139ac57600080fd5b6139b58a6138d4565b985060208a0135975060408a01356139cc81613e3d565b965060608a0135955060808a0135945060a08a01356139ea81613e3d565b935060c08a01356139fa81613e3d565b925060e08a013567ffffffffffffffff811115613a1657600080fd5b613a228c828d016138eb565b915080935050809150509295985092959850929598565b600080600060608486031215613a4e57600080fd5b613a57846138d4565b95602085013595506040909401359392505050565b600080600080600060808688031215613a8457600080fd5b613a8d866138d4565b94506020860135935060408601359250606086013567ffffffffffffffff811115613ab757600080fd5b613ac3888289016138eb565b969995985093965092949392505050565b600060208284031215613ae657600080fd5b815161234581613e3d565b600060208284031215613b0357600080fd5b5035919050565b600080600080600080600060c0888a031215613b2557600080fd5b87359650613b35602089016138d4565b955060408801359450606088013593506080880135613b5381613e3d565b925060a088013567ffffffffffffffff811115613b6f57600080fd5b613b7b8a828b016138eb565b989b979a50959850939692959293505050565b60008060408385031215613ba157600080fd5b50508035926020909101359150565b60008060008060008060008060e0898b031215613bcc57600080fd5b88356001600160801b0381168114613be357600080fd5b9750613bf160208a01613934565b9650613bff60408a01613934565b9550613c0d60608a01613934565b94506080890135935060a0890135925060c089013567ffffffffffffffff811115613c3757600080fd5b613c438b828c016138eb565b999c989b5096995094979396929594505050565b600060208284031215613c6957600080fd5b5051919050565b81835281816020850137506000828201602090810191909152601f909101601f19169091010190565b6000825160005b81811015613cba5760208186018101518583015201613ca0565b81811115613cc9576000828501525b509190910192915050565b8481528360208201526060604082015260006106ae606083018486613c70565b60006001600160801b03808316818516808303821115613d1657613d16613e11565b01949350505050565b60008219821115613d3257613d32613e11565b500190565b600082613d5457634e487b7160e01b600052601260045260246000fd5b500490565b6000816000190483118215151615613d7357613d73613e11565b500290565b60006001600160801b0383811690831681811015613d9857613d98613e11565b039392505050565b600082821015613db257613db2613e11565b500390565b600063ffffffff83811690831681811015613d9857613d98613e11565b600081600f0b60016001607f1b0319811415613df257613df2613e11565b60000392915050565b634e487b7160e01b600052600160045260246000fd5b634e487b7160e01b600052601160045260246000fd5b634e487b7160e01b600052601260045260246000fd5b8015158114613e4b57600080fd5b5056fea26469706673582212205656d14555bdba1f4525a2f260b5952c17b8b65a57fc76d0bea51eacb07339c564736f6c63430008060033",
    "linkReferences": {}
  },
  "methodIdentifiers": {
    "BUFFER()": "8fbc3ecd",
    "MIN_LIQUIDITY()": "21b77d63",
    "PRECISION()": "aaf5eb68",
    "allocate(bytes32,address,uint256,uint256,bool,bytes)": "d2957b8f",
    "calibrations(bytes32)": "23c5b952",
    "create(uint128,uint32,uint32,uint32,uint256,uint256,bytes)": "be00763a",
    "deposit(address,uint256,uint256,bytes)": "9e48ff5a",
    "factory()": "c45a0155",
    "invariantOf(bytes32)": "546fecae",
    "liquidity(address,bytes32)": "6b35bb6b",
    "margins(address)": "38820465",
    "remove(bytes32,uint256)": "9f8cfade",
    "reserves(bytes32)": "00bbf1e4",
    "risky()": "c08165d4",
    "scaleFactorRisky()": "55ebb825",
    "scaleFactorStable()": "4dd0d056",
    "stable()": "22be3de1",
    "swap(address,bytes32,bool,uint256,uint256,bool,bool,bytes)": "ca28fcd6",
    "updateLastTimestamp(bytes32)": "11f99086",
    "withdraw(address,uint256,uint256)": "b5c5f672"
  },
  "id": 11
}