{
  "abi": [
    {
      "inputs": [],
      "name": "margin",
      "outputs": [
        {
          "components": [
            {
              "internalType": "uint128",
              "name": "balanceRisky",
              "type": "uint128"
            },
            {
              "internalType": "uint128",
              "name": "balanceStable",
              "type": "uint128"
            }
          ],
          "internalType": "struct Margin.Data",
          "name": "",
          "type": "tuple"
        }
      ],
      "stateMutability": "view",
      "type": "function"
    },
    {
      "inputs": [
        {
          "internalType": "address",
          "name": "",
          "type": "address"
        }
      ],
      "name": "margins",
      "outputs": [
        {
          "internalType": "uint128",
          "name": "balanceRisky",
          "type": "uint128"
        },
        {
          "internalType": "uint128",
          "name": "balanceStable",
          "type": "uint128"
        }
      ],
      "stateMutability": "view",
      "type": "function"
    },
    {
      "inputs": [
        {
          "internalType": "uint256",
          "name": "delRisky",
          "type": "uint256"
        },
        {
          "internalType": "uint256",
          "name": "delStable",
          "type": "uint256"
        }
      ],
      "name": "shouldDeposit",
      "outputs": [
        {
          "components": [
            {
              "internalType": "uint128",
              "name": "balanceRisky",
              "type": "uint128"
            },
            {
              "internalType": "uint128",
              "name": "balanceStable",
              "type": "uint128"
            }
          ],
          "internalType": "struct Margin.Data",
          "name": "",
          "type": "tuple"
        }
      ],
      "stateMutability": "nonpayable",
      "type": "function"
    },
    {
      "inputs": [
        {
          "internalType": "uint256",
          "name": "delRisky",
          "type": "uint256"
        },
        {
          "internalType": "uint256",
          "name": "delStable",
          "type": "uint256"
        }
      ],
      "name": "shouldWithdraw",
      "outputs": [
        {
          "components": [
            {
              "internalType": "uint128",
              "name": "balanceRisky",
              "type": "uint128"
            },
            {
              "internalType": "uint128",
              "name": "balanceStable",
              "type": "uint128"
            }
          ],
          "internalType": "struct Margin.Data",
          "name": "",
          "type": "tuple"
        }
      ],
      "stateMutability": "nonpayable",
      "type": "function"
    }
  ],
  "bytecode": {
    "object": "0x608060405234801561001057600080fd5b506105c5806100206000396000f3fe608060405234801561001057600080fd5b506004361061004c5760003560e01c80631aac89e61461005157806338820465146100905780638f76691a146100e4578063d6e79d861461012b575b600080fd5b61006461005f3660046104bf565b61013e565b6040805182516001600160801b0390811682526020938401511692810192909252015b60405180910390f35b6100c461009e366004610496565b6000602081905290815260409020546001600160801b0380821691600160801b90041682565b604080516001600160801b03938416815292909116602083015201610087565b604080518082018252600080825260209182018190523381528082528290208251808401909352546001600160801b038082168452600160801b9091041690820152610064565b6100646101393660046104bf565b61026a565b6040805180820190915260008082526020820152336000908152602081905260408120546001600160801b0380821692600160801b9092041690610183908686610317565b336000908152602081905260409020815481546fffffffffffffffffffffffffffffffff19166001600160801b0391821690811783559254600160801b90819004821602808417909255908116909117906101e1908790851661054c565b10156101ef576101ef610563565b336000908152602081905260409020546001600160801b03600160801b90910481169061021f908690841661054c565b101561022d5761022d610563565b505033600090815260208181526040918290208251808401909352546001600160801b038082168452600160801b90910416908201529392505050565b604080518082019091526000808252602082015233600090815260208190526040902080546001600160801b0380821692600160801b90920416906102b09086866103d2565b336000908152602081905260409020546001600160801b03908116906102d9908790851661050c565b10156102e7576102e7610563565b336000908152602081905260409020546001600160801b03600160801b90910481169061021f908690841661050c565b3360009081526020849052604090208215610375576103358361047c565b815482906000906103509084906001600160801b0316610524565b92506101000a8154816001600160801b0302191690836001600160801b031602179055505b81156103cb576103848261047c565b815482906010906103a6908490600160801b90046001600160801b0316610524565b92506101000a8154816001600160801b0302191690836001600160801b031602179055505b9392505050565b8115610421576103e18261047c565b835484906000906103fc9084906001600160801b03166104e1565b92506101000a8154816001600160801b0302191690836001600160801b031602179055505b8015610477576104308161047c565b83548490601090610452908490600160801b90046001600160801b03166104e1565b92506101000a8154816001600160801b0302191690836001600160801b031602179055505b505050565b60006001600160801b0382111561049257600080fd5b5090565b6000602082840312156104a857600080fd5b81356001600160a01b03811681146103cb57600080fd5b600080604083850312156104d257600080fd5b50508035926020909101359150565b60006001600160801b0380831681851680830382111561050357610503610579565b01949350505050565b6000821982111561051f5761051f610579565b500190565b60006001600160801b038381169083168181101561054457610544610579565b039392505050565b60008282101561055e5761055e610579565b500390565b634e487b7160e01b600052600160045260246000fd5b634e487b7160e01b600052601160045260246000fdfea264697066735822122076c2fa6dc935485c87c3520e6ff253d2ab78d95f218fa13852fe0aebc9b3fdae64736f6c63430008060033",
    "linkReferences": {}
  },
  "methodIdentifiers": {
    "margin()": "8f76691a",
    "margins(address)": "38820465",
    "shouldDeposit(uint256,uint256)": "d6e79d86",
    "shouldWithdraw(uint256,uint256)": "1aac89e6"
  },
  "id": 26
}